{"abi":[{"type":"constructor","inputs":[{"name":"entropyAddress","type":"address","internalType":"address"},{"name":"pythContract","type":"address","internalType":"address"},{"name":"_owner","type":"address","internalType":"address"},{"name":"_twitterStatusId","type":"string","internalType":"string"},{"name":"_description","type":"string","internalType":"string"},{"name":"_endTimeContest","type":"uint256","internalType":"uint256"}],"stateMutability":"nonpayable"},{"type":"function","name":"_entropyCallback","inputs":[{"name":"sequence","type":"uint64","internalType":"uint64"},{"name":"provider","type":"address","internalType":"address"},{"name":"randomNumber","type":"bytes32","internalType":"bytes32"}],"outputs":[],"stateMutability":"nonpayable"},{"type":"function","name":"alreadyRegistered","inputs":[{"name":"hashinBytes","type":"bytes32","internalType":"bytes32"}],"outputs":[{"name":"seen","type":"bool","internalType":"bool"}],"stateMutability":"view"},{"type":"function","name":"claim","inputs":[],"outputs":[],"stateMutability":"nonpayable"},{"type":"function","name":"description","inputs":[],"outputs":[{"name":"","type":"string","internalType":"string"}],"stateMutability":"view"},{"type":"function","name":"endContest","inputs":[{"name":"userRandomNumber","type":"bytes32","internalType":"bytes32"}],"outputs":[],"stateMutability":"payable"},{"type":"function","name":"endTimeContest","inputs":[],"outputs":[{"name":"","type":"uint256","internalType":"uint256"}],"stateMutability":"view"},{"type":"function","name":"getEntropyFee","inputs":[],"outputs":[{"name":"","type":"uint256","internalType":"uint256"}],"stateMutability":"view"},{"type":"function","name":"getLastETHPrice","inputs":[],"outputs":[{"name":"price","type":"int256","internalType":"int256"},{"name":"conf","type":"uint256","internalType":"uint256"},{"name":"publishTime","type":"uint256","internalType":"uint256"}],"stateMutability":"view"},{"type":"function","name":"getRegistries","inputs":[],"outputs":[{"name":"","type":"tuple[]","internalType":"struct Contest.Registry[]","components":[{"name":"id","type":"uint256","internalType":"uint256"},{"name":"registryAddress","type":"address","internalType":"address"},{"name":"twitterHandle","type":"string","internalType":"string"}]}],"stateMutability":"view"},{"type":"function","name":"getWinner","inputs":[],"outputs":[{"name":"","type":"tuple","internalType":"struct Contest.Registry","components":[{"name":"id","type":"uint256","internalType":"uint256"},{"name":"registryAddress","type":"address","internalType":"address"},{"name":"twitterHandle","type":"string","internalType":"string"}]}],"stateMutability":"view"},{"type":"function","name":"hasUserParticipated","inputs":[{"name":"","type":"address","internalType":"address"}],"outputs":[{"name":"","type":"bool","internalType":"bool"}],"stateMutability":"view"},{"type":"function","name":"joinContest","inputs":[{"name":"handle","type":"string","internalType":"string"}],"outputs":[],"stateMutability":"nonpayable"},{"type":"function","name":"lastConf","inputs":[],"outputs":[{"name":"","type":"uint256","internalType":"uint256"}],"stateMutability":"view"},{"type":"function","name":"lastPrice","inputs":[],"outputs":[{"name":"","type":"int256","internalType":"int256"}],"stateMutability":"view"},{"type":"function","name":"lastPublishTime","inputs":[],"outputs":[{"name":"","type":"uint256","internalType":"uint256"}],"stateMutability":"view"},{"type":"function","name":"numberOfParticipants","inputs":[],"outputs":[{"name":"","type":"uint256","internalType":"uint256"}],"stateMutability":"view"},{"type":"function","name":"owner","inputs":[],"outputs":[{"name":"","type":"address","internalType":"address"}],"stateMutability":"view"},{"type":"function","name":"register","inputs":[{"name":"handle","type":"string","internalType":"string"}],"outputs":[],"stateMutability":"nonpayable"},{"type":"function","name":"registries","inputs":[{"name":"","type":"uint256","internalType":"uint256"}],"outputs":[{"name":"id","type":"uint256","internalType":"uint256"},{"name":"registryAddress","type":"address","internalType":"address"},{"name":"twitterHandle","type":"string","internalType":"string"}],"stateMutability":"view"},{"type":"function","name":"renounceOwnership","inputs":[],"outputs":[],"stateMutability":"nonpayable"},{"type":"function","name":"startTimeContest","inputs":[],"outputs":[{"name":"","type":"uint256","internalType":"uint256"}],"stateMutability":"view"},{"type":"function","name":"transferOwnership","inputs":[{"name":"newOwner","type":"address","internalType":"address"}],"outputs":[],"stateMutability":"nonpayable"},{"type":"function","name":"twitterStatusId","inputs":[],"outputs":[{"name":"","type":"string","internalType":"string"}],"stateMutability":"view"},{"type":"function","name":"updateETHPrice","inputs":[{"name":"priceUpdate","type":"bytes[]","internalType":"bytes[]"}],"outputs":[],"stateMutability":"payable"},{"type":"event","name":"OwnershipTransferred","inputs":[{"name":"previousOwner","type":"address","indexed":true,"internalType":"address"},{"name":"newOwner","type":"address","indexed":true,"internalType":"address"}],"anonymous":false},{"type":"event","name":"PriceUpdated","inputs":[{"name":"price","type":"int64","indexed":false,"internalType":"int64"},{"name":"confidence","type":"uint64","indexed":false,"internalType":"uint64"},{"name":"publishTime","type":"uint256","indexed":false,"internalType":"uint256"}],"anonymous":false},{"type":"event","name":"WinnerChosen","inputs":[{"name":"winningNumber","type":"uint256","indexed":false,"internalType":"uint256"}],"anonymous":false},{"type":"error","name":"OwnableInvalidOwner","inputs":[{"name":"owner","type":"address","internalType":"address"}]},{"type":"error","name":"OwnableUnauthorizedAccount","inputs":[{"name":"account","type":"address","internalType":"address"}]}],"bytecode":{"object":"0x608060405234801561000f575f5ffd5b506040516138cf3803806138cf83398181016040528101906100319190610446565b835f73ffffffffffffffffffffffffffffffffffffffff168173ffffffffffffffffffffffffffffffffffffffff16036100a2575f6040517f1e4fbdf70000000000000000000000000000000000000000000000000000000081526004016100999190610516565b60405180910390fd5b6100b1816101ab60201b60201c565b503360015f6101000a81548173ffffffffffffffffffffffffffffffffffffffff021916908373ffffffffffffffffffffffffffffffffffffffff1602179055508560035f6101000a81548173ffffffffffffffffffffffffffffffffffffffff021916908373ffffffffffffffffffffffffffffffffffffffff1602179055508460025f6101000a81548173ffffffffffffffffffffffffffffffffffffffff021916908373ffffffffffffffffffffffffffffffffffffffff16021790555082600490816101819190610736565b5081600590816101919190610736565b504260068190555080600781905550505050505050610805565b5f5f5f9054906101000a900473ffffffffffffffffffffffffffffffffffffffff169050815f5f6101000a81548173ffffffffffffffffffffffffffffffffffffffff021916908373ffffffffffffffffffffffffffffffffffffffff1602179055508173ffffffffffffffffffffffffffffffffffffffff168173ffffffffffffffffffffffffffffffffffffffff167f8be0079c531659141344cd1fd0a4f28419497f9722a3daafe3b4186f6b6457e060405160405180910390a35050565b5f604051905090565b5f5ffd5b5f5ffd5b5f73ffffffffffffffffffffffffffffffffffffffff82169050919050565b5f6102a68261027d565b9050919050565b6102b68161029c565b81146102c0575f5ffd5b50565b5f815190506102d1816102ad565b92915050565b5f5ffd5b5f5ffd5b5f601f19601f8301169050919050565b7f4e487b71000000000000000000000000000000000000000000000000000000005f52604160045260245ffd5b610325826102df565b810181811067ffffffffffffffff82111715610344576103436102ef565b5b80604052505050565b5f61035661026c565b9050610362828261031c565b919050565b5f67ffffffffffffffff821115610381576103806102ef565b5b61038a826102df565b9050602081019050919050565b8281835e5f83830152505050565b5f6103b76103b284610367565b61034d565b9050828152602081018484840111156103d3576103d26102db565b5b6103de848285610397565b509392505050565b5f82601f8301126103fa576103f96102d7565b5b815161040a8482602086016103a5565b91505092915050565b5f819050919050565b61042581610413565b811461042f575f5ffd5b50565b5f815190506104408161041c565b92915050565b5f5f5f5f5f5f60c087890312156104605761045f610275565b5b5f61046d89828a016102c3565b965050602061047e89828a016102c3565b955050604061048f89828a016102c3565b945050606087015167ffffffffffffffff8111156104b0576104af610279565b5b6104bc89828a016103e6565b935050608087015167ffffffffffffffff8111156104dd576104dc610279565b5b6104e989828a016103e6565b92505060a06104fa89828a01610432565b9150509295509295509295565b6105108161029c565b82525050565b5f6020820190506105295f830184610507565b92915050565b5f81519050919050565b7f4e487b71000000000000000000000000000000000000000000000000000000005f52602260045260245ffd5b5f600282049050600182168061057d57607f821691505b6020821081036105905761058f610539565b5b50919050565b5f819050815f5260205f209050919050565b5f6020601f8301049050919050565b5f82821b905092915050565b5f600883026105f27fffffffffffffffffffffffffffffffffffffffffffffffffffffffffffffffff826105b7565b6105fc86836105b7565b95508019841693508086168417925050509392505050565b5f819050919050565b5f61063761063261062d84610413565b610614565b610413565b9050919050565b5f819050919050565b6106508361061d565b61066461065c8261063e565b8484546105c3565b825550505050565b5f5f905090565b61067b61066c565b610686818484610647565b505050565b5b818110156106a95761069e5f82610673565b60018101905061068c565b5050565b601f8211156106ee576106bf81610596565b6106c8846105a8565b810160208510156106d7578190505b6106eb6106e3856105a8565b83018261068b565b50505b505050565b5f82821c905092915050565b5f61070e5f19846008026106f3565b1980831691505092915050565b5f61072683836106ff565b9150826002028217905092915050565b61073f8261052f565b67ffffffffffffffff811115610758576107576102ef565b5b6107628254610566565b61076d8282856106ad565b5f60209050601f83116001811461079e575f841561078c578287015190505b610796858261071b565b8655506107fd565b601f1984166107ac86610596565b5f5b828110156107d3578489015182556001820191506020850194506020810190506107ae565b868310156107f057848901516107ec601f8916826106ff565b8355505b6001600288020188555050505b505050505050565b6130bd806108125f395ff3fe60806040526004361061014a575f3560e01c80638e7ea5b2116100b5578063c890fa471161006e578063c890fa4714610450578063c9b5773f1461046c578063d06abdd214610496578063f2c298be146104b2578063f2fde38b146104da578063f623d417146105025761014a565b80638e7ea5b214610330578063935289bc1461035a578063a74e573214610384578063b112cd88146103c0578063b9c7fae5146103fc578063bda76b9a146104245761014a565b80636347c900116101075780636347c90014610234578063715018a6146102725780637284e416146102885780637417040e146102b25780637f2870d5146102dc5780638da5cb5b146103065761014a565b8063053f14da1461014e5780632d971e631461017857806335884e5a146101a257806336c2d6de146101cc5780634e71d92d146101f657806352a5f1f81461020c575b5f5ffd5b348015610159575f5ffd5b5061016261052c565b60405161016f9190611a10565b60405180910390f35b348015610183575f5ffd5b5061018c610532565b6040516101999190611a41565b60405180910390f35b3480156101ad575f5ffd5b506101b6610670565b6040516101c39190611c20565b60405180910390f35b3480156101d7575f5ffd5b506101e06107ba565b6040516101ed9190611a41565b60405180910390f35b348015610201575f5ffd5b5061020a6107c0565b005b348015610217575f5ffd5b50610232600480360381019061022d9190611ceb565b6109f9565b005b34801561023f575f5ffd5b5061025a60048036038101906102559190611d65565b610af1565b60405161026993929190611de7565b60405180910390f35b34801561027d575f5ffd5b50610286610bcb565b005b348015610293575f5ffd5b5061029c610bde565b6040516102a99190611e23565b60405180910390f35b3480156102bd575f5ffd5b506102c6610c6a565b6040516102d39190611a41565b60405180910390f35b3480156102e7575f5ffd5b506102f0610c70565b6040516102fd9190611a41565b60405180910390f35b348015610311575f5ffd5b5061031a610c76565b6040516103279190611e43565b60405180910390f35b34801561033b575f5ffd5b50610344610c9d565b6040516103519190611ea9565b60405180910390f35b348015610365575f5ffd5b5061036e610e5a565b60405161037b9190611a41565b60405180910390f35b34801561038f575f5ffd5b506103aa60048036038101906103a59190611ec9565b610e60565b6040516103b79190611f0e565b60405180910390f35b3480156103cb575f5ffd5b506103e660048036038101906103e19190611f27565b610e7d565b6040516103f39190611f0e565b60405180910390f35b348015610407575f5ffd5b50610422600480360381019061041d919061207e565b610e9a565b005b34801561042f575f5ffd5b50610438610f7f565b604051610447939291906120c5565b60405180910390f35b61046a60048036038101906104659190612157565b610f96565b005b348015610477575f5ffd5b506104806111fe565b60405161048d9190611e23565b60405180910390f35b6104b060048036038101906104ab9190611ec9565b61128a565b005b3480156104bd575f5ffd5b506104d860048036038101906104d3919061207e565b611539565b005b3480156104e5575f5ffd5b5061050060048036038101906104fb9190611f27565b61176a565b005b34801561050d575f5ffd5b506105166117ee565b6040516105239190611a41565b60405180910390f35b600a5481565b5f60035f9054906101000a900473ffffffffffffffffffffffffffffffffffffffff1673ffffffffffffffffffffffffffffffffffffffff1663b88c914860035f9054906101000a900473ffffffffffffffffffffffffffffffffffffffff1673ffffffffffffffffffffffffffffffffffffffff166382ee990c6040518163ffffffff1660e01b8152600401602060405180830381865afa1580156105da573d5f5f3e3d5ffd5b505050506040513d601f19601f820116820180604052508101906105fe91906121b6565b6040518263ffffffff1660e01b815260040161061a9190611e43565b602060405180830381865afa158015610635573d5f5f3e3d5ffd5b505050506040513d601f19601f820116820180604052508101906106599190612226565b6fffffffffffffffffffffffffffffffff16905090565b6060600d805480602002602001604051908101604052809291908181526020015f905b828210156107b1578382905f5260205f2090600302016040518060600160405290815f8201548152602001600182015f9054906101000a900473ffffffffffffffffffffffffffffffffffffffff1673ffffffffffffffffffffffffffffffffffffffff1673ffffffffffffffffffffffffffffffffffffffff1681526020016002820180546107229061227e565b80601f016020809104026020016040519081016040528092919081815260200182805461074e9061227e565b80156107995780601f1061077057610100808354040283529160200191610799565b820191905f5260205f20905b81548152906001019060200180831161077c57829003601f168201915b50505050508152505081526020019060010190610693565b50505050905090565b60065481565b3373ffffffffffffffffffffffffffffffffffffffff16600d600954815481106107ed576107ec6122ae565b5b905f5260205f2090600302016001015f9054906101000a900473ffffffffffffffffffffffffffffffffffffffff1673ffffffffffffffffffffffffffffffffffffffff1614610872576040517f08c379a00000000000000000000000000000000000000000000000000000000081526004016108699061234b565b60405180910390fd5b5f60015f9054906101000a900473ffffffffffffffffffffffffffffffffffffffff1673ffffffffffffffffffffffffffffffffffffffff1663b8fcf9376040518163ffffffff1660e01b8152600401602060405180830381865afa1580156108dd573d5f5f3e3d5ffd5b505050506040513d601f19601f8201168201806040525081019061090191906123a4565b90508073ffffffffffffffffffffffffffffffffffffffff1663a9059cbb338373ffffffffffffffffffffffffffffffffffffffff166370a08231306040518263ffffffff1660e01b81526004016109599190611e43565b602060405180830381865afa158015610974573d5f5f3e3d5ffd5b505050506040513d601f19601f8201168201806040525081019061099891906123e3565b6040518363ffffffff1660e01b81526004016109b592919061240e565b6020604051808303815f875af11580156109d1573d5f5f3e3d5ffd5b505050506040513d601f19601f820116820180604052508101906109f5919061245f565b5050565b5f610a026117f4565b90505f73ffffffffffffffffffffffffffffffffffffffff168173ffffffffffffffffffffffffffffffffffffffff1603610a72576040517f08c379a0000000000000000000000000000000000000000000000000000000008152600401610a69906124d4565b60405180910390fd5b8073ffffffffffffffffffffffffffffffffffffffff163373ffffffffffffffffffffffffffffffffffffffff1614610ae0576040517f08c379a0000000000000000000000000000000000000000000000000000000008152600401610ad790612562565b60405180910390fd5b610aeb84848461181c565b50505050565b600d8181548110610b00575f80fd5b905f5260205f2090600302015f91509050805f015490806001015f9054906101000a900473ffffffffffffffffffffffffffffffffffffffff1690806002018054610b4a9061227e565b80601f0160208091040260200160405190810160405280929190818152602001828054610b769061227e565b8015610bc15780601f10610b9857610100808354040283529160200191610bc1565b820191905f5260205f20905b815481529060010190602001808311610ba457829003601f168201915b5050505050905083565b610bd3611874565b610bdc5f6118fb565b565b60058054610beb9061227e565b80601f0160208091040260200160405190810160405280929190818152602001828054610c179061227e565b8015610c625780601f10610c3957610100808354040283529160200191610c62565b820191905f5260205f20905b815481529060010190602001808311610c4557829003601f168201915b505050505081565b60085481565b600c5481565b5f5f5f9054906101000a900473ffffffffffffffffffffffffffffffffffffffff16905090565b610ca56119c3565b600754421115610cea576040517f08c379a0000000000000000000000000000000000000000000000000000000008152600401610ce1906125ca565b60405180910390fd5b5f60095411610d2e576040517f08c379a0000000000000000000000000000000000000000000000000000000008152600401610d2590612632565b60405180910390fd5b600d6001600954610d3f919061267d565b81548110610d5057610d4f6122ae565b5b905f5260205f2090600302016040518060600160405290815f8201548152602001600182015f9054906101000a900473ffffffffffffffffffffffffffffffffffffffff1673ffffffffffffffffffffffffffffffffffffffff1673ffffffffffffffffffffffffffffffffffffffff168152602001600282018054610dd59061227e565b80601f0160208091040260200160405190810160405280929190818152602001828054610e019061227e565b8015610e4c5780601f10610e2357610100808354040283529160200191610e4c565b820191905f5260205f20905b815481529060010190602001808311610e2f57829003601f168201915b505050505081525050905090565b600b5481565b600e602052805f5260405f205f915054906101000a900460ff1681565b600f602052805f5260405f205f915054906101000a900460ff1681565b60015f9054906101000a900473ffffffffffffffffffffffffffffffffffffffff1673ffffffffffffffffffffffffffffffffffffffff1663be56745e336040518263ffffffff1660e01b8152600401610ef49190611e43565b6020604051808303815f875af1158015610f10573d5f5f3e3d5ffd5b505050506040513d601f19601f82011682018060405250810190610f34919061245f565b610f73576040517f08c379a0000000000000000000000000000000000000000000000000000000008152600401610f6a906126fa565b60405180910390fd5b610f7c81611539565b50565b5f5f5f600a54600b54600c54925092509250909192565b5f60025f9054906101000a900473ffffffffffffffffffffffffffffffffffffffff1673ffffffffffffffffffffffffffffffffffffffff1663d47eed4584846040518363ffffffff1660e01b8152600401610ff3929190612870565b602060405180830381865afa15801561100e573d5f5f3e3d5ffd5b505050506040513d601f19601f8201168201806040525081019061103291906123e3565b905060025f9054906101000a900473ffffffffffffffffffffffffffffffffffffffff1673ffffffffffffffffffffffffffffffffffffffff1663ef9e5e288285856040518463ffffffff1660e01b8152600401611091929190612870565b5f604051808303818588803b1580156110a8575f5ffd5b505af11580156110ba573d5f5f3e3d5ffd5b50505050505f7fff61491a931112ddf1bd8147cd1b641375f79f5825126d665480874634fd0ace5f1b90505f60025f9054906101000a900473ffffffffffffffffffffffffffffffffffffffff1673ffffffffffffffffffffffffffffffffffffffff1663a4ae35e083603c6040518363ffffffff1660e01b81526004016111439291906128e3565b608060405180830381865afa15801561115e573d5f5f3e3d5ffd5b505050506040513d601f19601f820116820180604052508101906111829190612a03565b9050805f015160070b600a81905550806020015167ffffffffffffffff16600b819055508060600151600c819055507f6868b56bbbc4c847be9aa8488a92e6fc784e19300474b0f2bbb1cd55bbc365bc815f0151826020015183606001516040516111ef93929190612a4c565b60405180910390a15050505050565b6004805461120b9061227e565b80601f01602080910402602001604051908101604052809291908181526020018280546112379061227e565b80156112825780601f1061125957610100808354040283529160200191611282565b820191905f5260205f20905b81548152906001019060200180831161126557829003601f168201915b505050505081565b6007544210156112cf576040517f08c379a00000000000000000000000000000000000000000000000000000000081526004016112c690612acb565b60405180910390fd5b5f60085411611313576040517f08c379a000000000000000000000000000000000000000000000000000000000815260040161130a90612b33565b60405180910390fd5b5f60035f9054906101000a900473ffffffffffffffffffffffffffffffffffffffff1673ffffffffffffffffffffffffffffffffffffffff166382ee990c6040518163ffffffff1660e01b8152600401602060405180830381865afa15801561137e573d5f5f3e3d5ffd5b505050506040513d601f19601f820116820180604052508101906113a291906121b6565b90505f60035f9054906101000a900473ffffffffffffffffffffffffffffffffffffffff1673ffffffffffffffffffffffffffffffffffffffff1663b88c9148836040518263ffffffff1660e01b81526004016113ff9190611e43565b602060405180830381865afa15801561141a573d5f5f3e3d5ffd5b505050506040513d601f19601f8201168201806040525081019061143e9190612226565b6fffffffffffffffffffffffffffffffff16905080341015611495576040517f08c379a000000000000000000000000000000000000000000000000000000000815260040161148c90612b9b565b60405180910390fd5b60035f9054906101000a900473ffffffffffffffffffffffffffffffffffffffff1673ffffffffffffffffffffffffffffffffffffffff166319cb825f8284866040518463ffffffff1660e01b81526004016114f2929190612bb9565b60206040518083038185885af115801561150e573d5f5f3e3d5ffd5b50505050506040513d601f19601f820116820180604052508101906115339190612be0565b50505050565b60075442111561157e576040517f08c379a000000000000000000000000000000000000000000000000000000000815260040161157590612c55565b60405180910390fd5b5f816040516020016115909190612cad565b6040516020818303038152906040528051906020012090505f1515600e5f8381526020019081526020015f205f9054906101000a900460ff1615151461160b576040517f08c379a000000000000000000000000000000000000000000000000000000000815260040161160290612d0d565b60405180910390fd5b5f604051806060016040528060085481526020013373ffffffffffffffffffffffffffffffffffffffff16815260200184815250905060085f81548092919061165390612d2b565b9190505550600d81908060018154018082558091505060019003905f5260205f2090600302015f909190919091505f820151815f01556020820151816001015f6101000a81548173ffffffffffffffffffffffffffffffffffffffff021916908373ffffffffffffffffffffffffffffffffffffffff16021790555060408201518160020190816116e49190612f09565b5050506001600e5f8481526020019081526020015f205f6101000a81548160ff0219169083151502179055506001600f5f3373ffffffffffffffffffffffffffffffffffffffff1673ffffffffffffffffffffffffffffffffffffffff1681526020019081526020015f205f6101000a81548160ff021916908315150217905550505050565b611772611874565b5f73ffffffffffffffffffffffffffffffffffffffff168173ffffffffffffffffffffffffffffffffffffffff16036117e2575f6040517f1e4fbdf70000000000000000000000000000000000000000000000000000000081526004016117d99190611e43565b60405180910390fd5b6117eb816118fb565b50565b60075481565b5f60035f9054906101000a900473ffffffffffffffffffffffffffffffffffffffff16905090565b5f815f1c9050600854816118309190613005565b6009819055507fae3f88d56af8ef248164ab259baacc4ff82c4a7192a027616cb6e1b474b182d86001604051611866919061306e565b60405180910390a150505050565b61187c6119bc565b73ffffffffffffffffffffffffffffffffffffffff1661189a610c76565b73ffffffffffffffffffffffffffffffffffffffff16146118f9576118bd6119bc565b6040517f118cdaa70000000000000000000000000000000000000000000000000000000081526004016118f09190611e43565b60405180910390fd5b565b5f5f5f9054906101000a900473ffffffffffffffffffffffffffffffffffffffff169050815f5f6101000a81548173ffffffffffffffffffffffffffffffffffffffff021916908373ffffffffffffffffffffffffffffffffffffffff1602179055508173ffffffffffffffffffffffffffffffffffffffff168173ffffffffffffffffffffffffffffffffffffffff167f8be0079c531659141344cd1fd0a4f28419497f9722a3daafe3b4186f6b6457e060405160405180910390a35050565b5f33905090565b60405180606001604052805f81526020015f73ffffffffffffffffffffffffffffffffffffffff168152602001606081525090565b5f819050919050565b611a0a816119f8565b82525050565b5f602082019050611a235f830184611a01565b92915050565b5f819050919050565b611a3b81611a29565b82525050565b5f602082019050611a545f830184611a32565b92915050565b5f81519050919050565b5f82825260208201905092915050565b5f819050602082019050919050565b611a8c81611a29565b82525050565b5f73ffffffffffffffffffffffffffffffffffffffff82169050919050565b5f611abb82611a92565b9050919050565b611acb81611ab1565b82525050565b5f81519050919050565b5f82825260208201905092915050565b8281835e5f83830152505050565b5f601f19601f8301169050919050565b5f611b1382611ad1565b611b1d8185611adb565b9350611b2d818560208601611aeb565b611b3681611af9565b840191505092915050565b5f606083015f830151611b565f860182611a83565b506020830151611b696020860182611ac2565b5060408301518482036040860152611b818282611b09565b9150508091505092915050565b5f611b998383611b41565b905092915050565b5f602082019050919050565b5f611bb782611a5a565b611bc18185611a64565b935083602082028501611bd385611a74565b805f5b85811015611c0e5784840389528151611bef8582611b8e565b9450611bfa83611ba1565b925060208a01995050600181019050611bd6565b50829750879550505050505092915050565b5f6020820190508181035f830152611c388184611bad565b905092915050565b5f604051905090565b5f5ffd5b5f5ffd5b5f67ffffffffffffffff82169050919050565b611c6d81611c51565b8114611c77575f5ffd5b50565b5f81359050611c8881611c64565b92915050565b611c9781611ab1565b8114611ca1575f5ffd5b50565b5f81359050611cb281611c8e565b92915050565b5f819050919050565b611cca81611cb8565b8114611cd4575f5ffd5b50565b5f81359050611ce581611cc1565b92915050565b5f5f5f60608486031215611d0257611d01611c49565b5b5f611d0f86828701611c7a565b9350506020611d2086828701611ca4565b9250506040611d3186828701611cd7565b9150509250925092565b611d4481611a29565b8114611d4e575f5ffd5b50565b5f81359050611d5f81611d3b565b92915050565b5f60208284031215611d7a57611d79611c49565b5b5f611d8784828501611d51565b91505092915050565b611d9981611ab1565b82525050565b5f82825260208201905092915050565b5f611db982611ad1565b611dc38185611d9f565b9350611dd3818560208601611aeb565b611ddc81611af9565b840191505092915050565b5f606082019050611dfa5f830186611a32565b611e076020830185611d90565b8181036040830152611e198184611daf565b9050949350505050565b5f6020820190508181035f830152611e3b8184611daf565b905092915050565b5f602082019050611e565f830184611d90565b92915050565b5f606083015f830151611e715f860182611a83565b506020830151611e846020860182611ac2565b5060408301518482036040860152611e9c8282611b09565b9150508091505092915050565b5f6020820190508181035f830152611ec18184611e5c565b905092915050565b5f60208284031215611ede57611edd611c49565b5b5f611eeb84828501611cd7565b91505092915050565b5f8115159050919050565b611f0881611ef4565b82525050565b5f602082019050611f215f830184611eff565b92915050565b5f60208284031215611f3c57611f3b611c49565b5b5f611f4984828501611ca4565b91505092915050565b5f5ffd5b5f5ffd5b7f4e487b71000000000000000000000000000000000000000000000000000000005f52604160045260245ffd5b611f9082611af9565b810181811067ffffffffffffffff82111715611faf57611fae611f5a565b5b80604052505050565b5f611fc1611c40565b9050611fcd8282611f87565b919050565b5f67ffffffffffffffff821115611fec57611feb611f5a565b5b611ff582611af9565b9050602081019050919050565b828183375f83830152505050565b5f61202261201d84611fd2565b611fb8565b90508281526020810184848401111561203e5761203d611f56565b5b612049848285612002565b509392505050565b5f82601f83011261206557612064611f52565b5b8135612075848260208601612010565b91505092915050565b5f6020828403121561209357612092611c49565b5b5f82013567ffffffffffffffff8111156120b0576120af611c4d565b5b6120bc84828501612051565b91505092915050565b5f6060820190506120d85f830186611a01565b6120e56020830185611a32565b6120f26040830184611a32565b949350505050565b5f5ffd5b5f5ffd5b5f5f83601f84011261211757612116611f52565b5b8235905067ffffffffffffffff811115612134576121336120fa565b5b6020830191508360208202830111156121505761214f6120fe565b5b9250929050565b5f5f6020838503121561216d5761216c611c49565b5b5f83013567ffffffffffffffff81111561218a57612189611c4d565b5b61219685828601612102565b92509250509250929050565b5f815190506121b081611c8e565b92915050565b5f602082840312156121cb576121ca611c49565b5b5f6121d8848285016121a2565b91505092915050565b5f6fffffffffffffffffffffffffffffffff82169050919050565b612205816121e1565b811461220f575f5ffd5b50565b5f81519050612220816121fc565b92915050565b5f6020828403121561223b5761223a611c49565b5b5f61224884828501612212565b91505092915050565b7f4e487b71000000000000000000000000000000000000000000000000000000005f52602260045260245ffd5b5f600282049050600182168061229557607f821691505b6020821081036122a8576122a7612251565b5b50919050565b7f4e487b71000000000000000000000000000000000000000000000000000000005f52603260045260245ffd5b7f596f7520617265206e6f74207468652077696e6e6572206f66207468697320635f8201527f6f6e74656e740000000000000000000000000000000000000000000000000000602082015250565b5f612335602683611d9f565b9150612340826122db565b604082019050919050565b5f6020820190508181035f83015261236281612329565b9050919050565b5f61237382611ab1565b9050919050565b61238381612369565b811461238d575f5ffd5b50565b5f8151905061239e8161237a565b92915050565b5f602082840312156123b9576123b8611c49565b5b5f6123c684828501612390565b91505092915050565b5f815190506123dd81611d3b565b92915050565b5f602082840312156123f8576123f7611c49565b5b5f612405848285016123cf565b91505092915050565b5f6040820190506124215f830185611d90565b61242e6020830184611a32565b9392505050565b61243e81611ef4565b8114612448575f5ffd5b50565b5f8151905061245981612435565b92915050565b5f6020828403121561247457612473611c49565b5b5f6124818482850161244b565b91505092915050565b7f456e74726f70792061646472657373206e6f74207365740000000000000000005f82015250565b5f6124be601783611d9f565b91506124c98261248a565b602082019050919050565b5f6020820190508181035f8301526124eb816124b2565b9050919050565b7f4f6e6c7920456e74726f70792063616e2063616c6c20746869732066756e63745f8201527f696f6e0000000000000000000000000000000000000000000000000000000000602082015250565b5f61254c602383611d9f565b9150612557826124f2565b604082019050919050565b5f6020820190508181035f83015261257981612540565b9050919050565b7f436f6e74657374206973207374696c6c206f6e676f696e6700000000000000005f82015250565b5f6125b4601883611d9f565b91506125bf82612580565b602082019050919050565b5f6020820190508181035f8301526125e1816125a8565b9050919050565b7f57696e6e6572206e6f742063686f73656e2079657400000000000000000000005f82015250565b5f61261c601583611d9f565b9150612627826125e8565b602082019050919050565b5f6020820190508181035f83015261264981612610565b9050919050565b7f4e487b71000000000000000000000000000000000000000000000000000000005f52601160045260245ffd5b5f61268782611a29565b915061269283611a29565b92508282039050818111156126aa576126a9612650565b5b92915050565b7f4e4f545f564552494649455200000000000000000000000000000000000000005f82015250565b5f6126e4600c83611d9f565b91506126ef826126b0565b602082019050919050565b5f6020820190508181035f830152612711816126d8565b9050919050565b5f82825260208201905092915050565b5f819050919050565b5f82825260208201905092915050565b5f61274c8385612731565b9350612759838584612002565b61276283611af9565b840190509392505050565b5f612779848484612741565b90509392505050565b5f5ffd5b5f5ffd5b5f5ffd5b5f5f833560016020038436030381126127aa576127a961278a565b5b83810192508235915060208301925067ffffffffffffffff8211156127d2576127d1612782565b5b6001820236038313156127e8576127e7612786565b5b509250929050565b5f602082019050919050565b5f6128078385612718565b93508360208402850161281984612728565b805f5b8781101561285e578484038952612833828461278e565b61283e86828461276d565b9550612849846127f0565b935060208b019a50505060018101905061281c565b50829750879450505050509392505050565b5f6020820190508181035f8301526128898184866127fc565b90509392505050565b61289b81611cb8565b82525050565b5f819050919050565b5f819050919050565b5f6128cd6128c86128c3846128a1565b6128aa565b611a29565b9050919050565b6128dd816128b3565b82525050565b5f6040820190506128f65f830185612892565b61290360208301846128d4565b9392505050565b5f5ffd5b5f8160070b9050919050565b6129238161290e565b811461292d575f5ffd5b50565b5f8151905061293e8161291a565b92915050565b5f8151905061295281611c64565b92915050565b5f8160030b9050919050565b61296d81612958565b8114612977575f5ffd5b50565b5f8151905061298881612964565b92915050565b5f608082840312156129a3576129a261290a565b5b6129ad6080611fb8565b90505f6129bc84828501612930565b5f8301525060206129cf84828501612944565b60208301525060406129e38482850161297a565b60408301525060606129f7848285016123cf565b60608301525092915050565b5f60808284031215612a1857612a17611c49565b5b5f612a258482850161298e565b91505092915050565b612a378161290e565b82525050565b612a4681611c51565b82525050565b5f606082019050612a5f5f830186612a2e565b612a6c6020830185612a3d565b612a796040830184611a32565b949350505050565b7f636f6e74657374206973207374696c6c206f6e676f696e6700000000000000005f82015250565b5f612ab5601883611d9f565b9150612ac082612a81565b602082019050919050565b5f6020820190508181035f830152612ae281612aa9565b9050919050565b7f4e6f207061727469636970616e747320726567697374657265640000000000005f82015250565b5f612b1d601a83611d9f565b9150612b2882612ae9565b602082019050919050565b5f6020820190508181035f830152612b4a81612b11565b9050919050565b7f6e6f7420656e6f756768206665657300000000000000000000000000000000005f82015250565b5f612b85600f83611d9f565b9150612b9082612b51565b602082019050919050565b5f6020820190508181035f830152612bb281612b79565b9050919050565b5f604082019050612bcc5f830185611d90565b612bd96020830184612892565b9392505050565b5f60208284031215612bf557612bf4611c49565b5b5f612c0284828501612944565b91505092915050565b7f436f6e746573742068617320656e6465640000000000000000000000000000005f82015250565b5f612c3f601183611d9f565b9150612c4a82612c0b565b602082019050919050565b5f6020820190508181035f830152612c6c81612c33565b9050919050565b5f81905092915050565b5f612c8782611ad1565b612c918185612c73565b9350612ca1818560208601611aeb565b80840191505092915050565b5f612cb88284612c7d565b915081905092915050565b7f48616e646c6520616c72656164792072656769737465726564000000000000005f82015250565b5f612cf7601983611d9f565b9150612d0282612cc3565b602082019050919050565b5f6020820190508181035f830152612d2481612ceb565b9050919050565b5f612d3582611a29565b91507fffffffffffffffffffffffffffffffffffffffffffffffffffffffffffffffff8203612d6757612d66612650565b5b600182019050919050565b5f819050815f5260205f209050919050565b5f6020601f8301049050919050565b5f82821b905092915050565b5f60088302612dce7fffffffffffffffffffffffffffffffffffffffffffffffffffffffffffffffff82612d93565b612dd88683612d93565b95508019841693508086168417925050509392505050565b5f612e0a612e05612e0084611a29565b6128aa565b611a29565b9050919050565b5f819050919050565b612e2383612df0565b612e37612e2f82612e11565b848454612d9f565b825550505050565b5f5f905090565b612e4e612e3f565b612e59818484612e1a565b505050565b5b81811015612e7c57612e715f82612e46565b600181019050612e5f565b5050565b601f821115612ec157612e9281612d72565b612e9b84612d84565b81016020851015612eaa578190505b612ebe612eb685612d84565b830182612e5e565b50505b505050565b5f82821c905092915050565b5f612ee15f1984600802612ec6565b1980831691505092915050565b5f612ef98383612ed2565b9150826002028217905092915050565b612f1282611ad1565b67ffffffffffffffff811115612f2b57612f2a611f5a565b5b612f35825461227e565b612f40828285612e80565b5f60209050601f831160018114612f71575f8415612f5f578287015190505b612f698582612eee565b865550612fd0565b601f198416612f7f86612d72565b5f5b82811015612fa657848901518255600182019150602085019450602081019050612f81565b86831015612fc35784890151612fbf601f891682612ed2565b8355505b6001600288020188555050505b505050505050565b7f4e487b71000000000000000000000000000000000000000000000000000000005f52601260045260245ffd5b5f61300f82611a29565b915061301a83611a29565b92508261302a57613029612fd8565b5b828206905092915050565b5f819050919050565b5f61305861305361304e84613035565b6128aa565b611a29565b9050919050565b6130688161303e565b82525050565b5f6020820190506130815f83018461305f565b9291505056fea26469706673582212205281258e1bb01eeee6bd2112100c7da470413ce5226eb32275e6880087442c2264736f6c634300081d0033","linkReferences":{}},"methodIdentifiers":{"_entropyCallback(uint64,address,bytes32)":"52a5f1f8","alreadyRegistered(bytes32)":"a74e5732","claim()":"4e71d92d","description()":"7284e416","endContest(bytes32)":"d06abdd2","endTimeContest()":"f623d417","getEntropyFee()":"2d971e63","getLastETHPrice()":"bda76b9a","getRegistries()":"35884e5a","getWinner()":"8e7ea5b2","hasUserParticipated(address)":"b112cd88","joinContest(string)":"b9c7fae5","lastConf()":"935289bc","lastPrice()":"053f14da","lastPublishTime()":"7f2870d5","numberOfParticipants()":"7417040e","owner()":"8da5cb5b","register(string)":"f2c298be","registries(uint256)":"6347c900","renounceOwnership()":"715018a6","startTimeContest()":"36c2d6de","transferOwnership(address)":"f2fde38b","twitterStatusId()":"c9b5773f","updateETHPrice(bytes[])":"c890fa47"},"id":0}