{"abi":[{"type":"constructor","inputs":[{"name":"entropyAddress","type":"address","internalType":"address"},{"name":"pythContract","type":"address","internalType":"address"},{"name":"_owner","type":"address","internalType":"address"},{"name":"_twitterStatusId","type":"string","internalType":"string"},{"name":"_description","type":"string","internalType":"string"},{"name":"_endTimeContest","type":"uint256","internalType":"uint256"}],"stateMutability":"nonpayable"},{"type":"function","name":"_entropyCallback","inputs":[{"name":"sequence","type":"uint64","internalType":"uint64"},{"name":"provider","type":"address","internalType":"address"},{"name":"randomNumber","type":"bytes32","internalType":"bytes32"}],"outputs":[],"stateMutability":"nonpayable"},{"type":"function","name":"alreadyRegistered","inputs":[{"name":"hashinBytes","type":"bytes32","internalType":"bytes32"}],"outputs":[{"name":"seen","type":"bool","internalType":"bool"}],"stateMutability":"view"},{"type":"function","name":"claim","inputs":[],"outputs":[],"stateMutability":"nonpayable"},{"type":"function","name":"description","inputs":[],"outputs":[{"name":"","type":"string","internalType":"string"}],"stateMutability":"view"},{"type":"function","name":"endContest","inputs":[{"name":"userRandomNumber","type":"bytes32","internalType":"bytes32"}],"outputs":[],"stateMutability":"payable"},{"type":"function","name":"endTimeContest","inputs":[],"outputs":[{"name":"","type":"uint256","internalType":"uint256"}],"stateMutability":"view"},{"type":"function","name":"exampleMethod","inputs":[{"name":"priceUpdate","type":"bytes[]","internalType":"bytes[]"}],"outputs":[],"stateMutability":"payable"},{"type":"function","name":"getEntropyFee","inputs":[{"name":"provider","type":"address","internalType":"address"}],"outputs":[{"name":"","type":"uint256","internalType":"uint256"}],"stateMutability":"view"},{"type":"function","name":"getEntropyProvider","inputs":[],"outputs":[{"name":"","type":"address","internalType":"address"}],"stateMutability":"view"},{"type":"function","name":"getRegistries","inputs":[],"outputs":[{"name":"","type":"tuple[]","internalType":"struct Contest.Registry[]","components":[{"name":"id","type":"uint256","internalType":"uint256"},{"name":"registryAddress","type":"address","internalType":"address"},{"name":"twitterHandle","type":"string","internalType":"string"}]}],"stateMutability":"view"},{"type":"function","name":"getWinner","inputs":[],"outputs":[{"name":"","type":"tuple","internalType":"struct Contest.Registry","components":[{"name":"id","type":"uint256","internalType":"uint256"},{"name":"registryAddress","type":"address","internalType":"address"},{"name":"twitterHandle","type":"string","internalType":"string"}]}],"stateMutability":"view"},{"type":"function","name":"hasUserParticipated","inputs":[{"name":"","type":"address","internalType":"address"}],"outputs":[{"name":"","type":"bool","internalType":"bool"}],"stateMutability":"view"},{"type":"function","name":"numberOfParticipants","inputs":[],"outputs":[{"name":"","type":"uint256","internalType":"uint256"}],"stateMutability":"view"},{"type":"function","name":"owner","inputs":[],"outputs":[{"name":"","type":"address","internalType":"address"}],"stateMutability":"view"},{"type":"function","name":"register","inputs":[{"name":"handle","type":"string","internalType":"string"}],"outputs":[],"stateMutability":"nonpayable"},{"type":"function","name":"registries","inputs":[{"name":"","type":"uint256","internalType":"uint256"}],"outputs":[{"name":"id","type":"uint256","internalType":"uint256"},{"name":"registryAddress","type":"address","internalType":"address"},{"name":"twitterHandle","type":"string","internalType":"string"}],"stateMutability":"view"},{"type":"function","name":"renounceOwnership","inputs":[],"outputs":[],"stateMutability":"nonpayable"},{"type":"function","name":"requestRandomNumber","inputs":[{"name":"userRandomNumber","type":"bytes32","internalType":"bytes32"}],"outputs":[],"stateMutability":"payable"},{"type":"function","name":"startTimeContest","inputs":[],"outputs":[{"name":"","type":"uint256","internalType":"uint256"}],"stateMutability":"view"},{"type":"function","name":"transferOwnership","inputs":[{"name":"newOwner","type":"address","internalType":"address"}],"outputs":[],"stateMutability":"nonpayable"},{"type":"function","name":"twitterStatusId","inputs":[],"outputs":[{"name":"","type":"string","internalType":"string"}],"stateMutability":"view"},{"type":"event","name":"OwnershipTransferred","inputs":[{"name":"previousOwner","type":"address","indexed":true,"internalType":"address"},{"name":"newOwner","type":"address","indexed":true,"internalType":"address"}],"anonymous":false},{"type":"event","name":"PriceUpdated","inputs":[{"name":"price","type":"int64","indexed":false,"internalType":"int64"},{"name":"confidence","type":"uint64","indexed":false,"internalType":"uint64"},{"name":"publishTime","type":"uint256","indexed":false,"internalType":"uint256"}],"anonymous":false},{"type":"event","name":"WinnerChosen","inputs":[{"name":"winningNumber","type":"uint256","indexed":false,"internalType":"uint256"}],"anonymous":false},{"type":"error","name":"OwnableInvalidOwner","inputs":[{"name":"owner","type":"address","internalType":"address"}]},{"type":"error","name":"OwnableUnauthorizedAccount","inputs":[{"name":"account","type":"address","internalType":"address"}]}],"bytecode":{"object":"0x608060405234801561000f575f5ffd5b5060405161347a38038061347a83398181016040528101906100319190610406565b835f73ffffffffffffffffffffffffffffffffffffffff168173ffffffffffffffffffffffffffffffffffffffff16036100a2575f6040517f1e4fbdf700000000000000000000000000000000000000000000000000000000815260040161009991906104d6565b60405180910390fd5b6100b18161016b60201b60201c565b508560025f6101000a81548173ffffffffffffffffffffffffffffffffffffffff021916908373ffffffffffffffffffffffffffffffffffffffff1602179055508460015f6101000a81548173ffffffffffffffffffffffffffffffffffffffff021916908373ffffffffffffffffffffffffffffffffffffffff160217905550826003908161014191906106f6565b50816004908161015191906106f6565b5042600581905550806006819055505050505050506107c5565b5f5f5f9054906101000a900473ffffffffffffffffffffffffffffffffffffffff169050815f5f6101000a81548173ffffffffffffffffffffffffffffffffffffffff021916908373ffffffffffffffffffffffffffffffffffffffff1602179055508173ffffffffffffffffffffffffffffffffffffffff168173ffffffffffffffffffffffffffffffffffffffff167f8be0079c531659141344cd1fd0a4f28419497f9722a3daafe3b4186f6b6457e060405160405180910390a35050565b5f604051905090565b5f5ffd5b5f5ffd5b5f73ffffffffffffffffffffffffffffffffffffffff82169050919050565b5f6102668261023d565b9050919050565b6102768161025c565b8114610280575f5ffd5b50565b5f815190506102918161026d565b92915050565b5f5ffd5b5f5ffd5b5f601f19601f8301169050919050565b7f4e487b71000000000000000000000000000000000000000000000000000000005f52604160045260245ffd5b6102e58261029f565b810181811067ffffffffffffffff82111715610304576103036102af565b5b80604052505050565b5f61031661022c565b905061032282826102dc565b919050565b5f67ffffffffffffffff821115610341576103406102af565b5b61034a8261029f565b9050602081019050919050565b8281835e5f83830152505050565b5f61037761037284610327565b61030d565b9050828152602081018484840111156103935761039261029b565b5b61039e848285610357565b509392505050565b5f82601f8301126103ba576103b9610297565b5b81516103ca848260208601610365565b91505092915050565b5f819050919050565b6103e5816103d3565b81146103ef575f5ffd5b50565b5f81519050610400816103dc565b92915050565b5f5f5f5f5f5f60c087890312156104205761041f610235565b5b5f61042d89828a01610283565b965050602061043e89828a01610283565b955050604061044f89828a01610283565b945050606087015167ffffffffffffffff8111156104705761046f610239565b5b61047c89828a016103a6565b935050608087015167ffffffffffffffff81111561049d5761049c610239565b5b6104a989828a016103a6565b92505060a06104ba89828a016103f2565b9150509295509295509295565b6104d08161025c565b82525050565b5f6020820190506104e95f8301846104c7565b92915050565b5f81519050919050565b7f4e487b71000000000000000000000000000000000000000000000000000000005f52602260045260245ffd5b5f600282049050600182168061053d57607f821691505b6020821081036105505761054f6104f9565b5b50919050565b5f819050815f5260205f209050919050565b5f6020601f8301049050919050565b5f82821b905092915050565b5f600883026105b27fffffffffffffffffffffffffffffffffffffffffffffffffffffffffffffffff82610577565b6105bc8683610577565b95508019841693508086168417925050509392505050565b5f819050919050565b5f6105f76105f26105ed846103d3565b6105d4565b6103d3565b9050919050565b5f819050919050565b610610836105dd565b61062461061c826105fe565b848454610583565b825550505050565b5f5f905090565b61063b61062c565b610646818484610607565b505050565b5b818110156106695761065e5f82610633565b60018101905061064c565b5050565b601f8211156106ae5761067f81610556565b61068884610568565b81016020851015610697578190505b6106ab6106a385610568565b83018261064b565b50505b505050565b5f82821c905092915050565b5f6106ce5f19846008026106b3565b1980831691505092915050565b5f6106e683836106bf565b9150826002028217905092915050565b6106ff826104ef565b67ffffffffffffffff811115610718576107176102af565b5b6107228254610526565b61072d82828561066d565b5f60209050601f83116001811461075e575f841561074c578287015190505b61075685826106db565b8655506107bd565b601f19841661076c86610556565b5f5b828110156107935784890151825560018201915060208501945060208101905061076e565b868310156107b057848901516107ac601f8916826106bf565b8355505b6001600288020188555050505b505050505050565b612ca8806107d25f395ff3fe608060405260043610610129575f3560e01c8063a74e5732116100aa578063d06abdd21161006e578063d06abdd2146103a3578063e0c297c3146103bf578063e15f616f146103db578063f2c298be14610417578063f2fde38b1461043f578063f623d4171461046757610129565b8063a74e5732146102bb578063ace59f4f146102f7578063b112cd8814610321578063bd313d781461035d578063c9b5773f1461037957610129565b8063715018a6116100f1578063715018a6146101fd5780637284e416146102135780637417040e1461023d5780638da5cb5b146102675780638e7ea5b21461029157610129565b806335884e5a1461012d57806336c2d6de146101575780634e71d92d1461018157806352a5f1f8146101975780636347c900146101bf575b5f5ffd5b348015610138575f5ffd5b50610141610491565b60405161014e9190611a1c565b60405180910390f35b348015610162575f5ffd5b5061016b6105db565b6040516101789190611a4b565b60405180910390f35b34801561018c575f5ffd5b506101956105e1565b005b3480156101a2575f5ffd5b506101bd60048036038101906101b89190611b0f565b610695565b005b3480156101ca575f5ffd5b506101e560048036038101906101e09190611b89565b61078d565b6040516101f493929190611c0b565b60405180910390f35b348015610208575f5ffd5b50610211610867565b005b34801561021e575f5ffd5b5061022761087a565b6040516102349190611c47565b60405180910390f35b348015610248575f5ffd5b50610251610906565b60405161025e9190611a4b565b60405180910390f35b348015610272575f5ffd5b5061027b61090c565b6040516102889190611c67565b60405180910390f35b34801561029c575f5ffd5b506102a5610933565b6040516102b29190611ccd565b60405180910390f35b3480156102c6575f5ffd5b506102e160048036038101906102dc9190611ced565b610af0565b6040516102ee9190611d32565b60405180910390f35b348015610302575f5ffd5b5061030b610b0d565b6040516103189190611c67565b60405180910390f35b34801561032c575f5ffd5b5061034760048036038101906103429190611d4b565b610ba1565b6040516103549190611d32565b60405180910390f35b61037760048036038101906103729190611ced565b610bbe565b005b348015610384575f5ffd5b5061038d610da4565b60405161039a9190611c47565b60405180910390f35b6103bd60048036038101906103b89190611ced565b610e30565b005b6103d960048036038101906103d49190611dd7565b61109f565b005b3480156103e6575f5ffd5b5061040160048036038101906103fc9190611d4b565b6112da565b60405161040e9190611a4b565b60405180910390f35b348015610422575f5ffd5b5061043d60048036038101906104389190611f4a565b61138d565b005b34801561044a575f5ffd5b5061046560048036038101906104609190611d4b565b6115be565b005b348015610472575f5ffd5b5061047b611642565b6040516104889190611a4b565b60405180910390f35b60606009805480602002602001604051908101604052809291908181526020015f905b828210156105d2578382905f5260205f2090600302016040518060600160405290815f8201548152602001600182015f9054906101000a900473ffffffffffffffffffffffffffffffffffffffff1673ffffffffffffffffffffffffffffffffffffffff1673ffffffffffffffffffffffffffffffffffffffff16815260200160028201805461054390611fbe565b80601f016020809104026020016040519081016040528092919081815260200182805461056f90611fbe565b80156105ba5780601f10610591576101008083540402835291602001916105ba565b820191905f5260205f20905b81548152906001019060200180831161059d57829003601f168201915b505050505081525050815260200190600101906104b4565b50505050905090565b60055481565b3373ffffffffffffffffffffffffffffffffffffffff1660096008548154811061060e5761060d611fee565b5b905f5260205f2090600302016001015f9054906101000a900473ffffffffffffffffffffffffffffffffffffffff1673ffffffffffffffffffffffffffffffffffffffff1614610693576040517f08c379a000000000000000000000000000000000000000000000000000000000815260040161068a9061208b565b60405180910390fd5b565b5f61069e611648565b90505f73ffffffffffffffffffffffffffffffffffffffff168173ffffffffffffffffffffffffffffffffffffffff160361070e576040517f08c379a0000000000000000000000000000000000000000000000000000000008152600401610705906120f3565b60405180910390fd5b8073ffffffffffffffffffffffffffffffffffffffff163373ffffffffffffffffffffffffffffffffffffffff161461077c576040517f08c379a000000000000000000000000000000000000000000000000000000000815260040161077390612181565b60405180910390fd5b610787848484611670565b50505050565b6009818154811061079c575f80fd5b905f5260205f2090600302015f91509050805f015490806001015f9054906101000a900473ffffffffffffffffffffffffffffffffffffffff16908060020180546107e690611fbe565b80601f016020809104026020016040519081016040528092919081815260200182805461081290611fbe565b801561085d5780601f106108345761010080835404028352916020019161085d565b820191905f5260205f20905b81548152906001019060200180831161084057829003601f168201915b5050505050905083565b61086f6116c9565b6108785f611750565b565b6004805461088790611fbe565b80601f01602080910402602001604051908101604052809291908181526020018280546108b390611fbe565b80156108fe5780601f106108d5576101008083540402835291602001916108fe565b820191905f5260205f20905b8154815290600101906020018083116108e157829003601f168201915b505050505081565b60075481565b5f5f5f9054906101000a900473ffffffffffffffffffffffffffffffffffffffff16905090565b61093b611818565b600654421115610980576040517f08c379a0000000000000000000000000000000000000000000000000000000008152600401610977906121e9565b60405180910390fd5b5f600854116109c4576040517f08c379a00000000000000000000000000000000000000000000000000000000081526004016109bb90612251565b60405180910390fd5b600960016008546109d5919061229c565b815481106109e6576109e5611fee565b5b905f5260205f2090600302016040518060600160405290815f8201548152602001600182015f9054906101000a900473ffffffffffffffffffffffffffffffffffffffff1673ffffffffffffffffffffffffffffffffffffffff1673ffffffffffffffffffffffffffffffffffffffff168152602001600282018054610a6b90611fbe565b80601f0160208091040260200160405190810160405280929190818152602001828054610a9790611fbe565b8015610ae25780601f10610ab957610100808354040283529160200191610ae2565b820191905f5260205f20905b815481529060010190602001808311610ac557829003601f168201915b505050505081525050905090565b600a602052805f5260405f205f915054906101000a900460ff1681565b5f60025f9054906101000a900473ffffffffffffffffffffffffffffffffffffffff1673ffffffffffffffffffffffffffffffffffffffff166382ee990c6040518163ffffffff1660e01b8152600401602060405180830381865afa158015610b78573d5f5f3e3d5ffd5b505050506040513d601f19601f82011682018060405250810190610b9c91906122e3565b905090565b600b602052805f5260405f205f915054906101000a900460ff1681565b5f60025f9054906101000a900473ffffffffffffffffffffffffffffffffffffffff1673ffffffffffffffffffffffffffffffffffffffff166382ee990c6040518163ffffffff1660e01b8152600401602060405180830381865afa158015610c29573d5f5f3e3d5ffd5b505050506040513d601f19601f82011682018060405250810190610c4d91906122e3565b90505f60025f9054906101000a900473ffffffffffffffffffffffffffffffffffffffff1673ffffffffffffffffffffffffffffffffffffffff1663b88c9148836040518263ffffffff1660e01b8152600401610caa9190611c67565b602060405180830381865afa158015610cc5573d5f5f3e3d5ffd5b505050506040513d601f19601f82011682018060405250810190610ce99190612353565b6fffffffffffffffffffffffffffffffff1690505f60025f9054906101000a900473ffffffffffffffffffffffffffffffffffffffff1673ffffffffffffffffffffffffffffffffffffffff166319cb825f8385876040518463ffffffff1660e01b8152600401610d5b92919061238d565b60206040518083038185885af1158015610d77573d5f5f3e3d5ffd5b50505050506040513d601f19601f82011682018060405250810190610d9c91906123c8565b905050505050565b60038054610db190611fbe565b80601f0160208091040260200160405190810160405280929190818152602001828054610ddd90611fbe565b8015610e285780601f10610dff57610100808354040283529160200191610e28565b820191905f5260205f20905b815481529060010190602001808311610e0b57829003601f168201915b505050505081565b600654421015610e75576040517f08c379a0000000000000000000000000000000000000000000000000000000008152600401610e6c9061243d565b60405180910390fd5b5f60075411610eb9576040517f08c379a0000000000000000000000000000000000000000000000000000000008152600401610eb0906124a5565b60405180910390fd5b5f60025f9054906101000a900473ffffffffffffffffffffffffffffffffffffffff1673ffffffffffffffffffffffffffffffffffffffff166382ee990c6040518163ffffffff1660e01b8152600401602060405180830381865afa158015610f24573d5f5f3e3d5ffd5b505050506040513d601f19601f82011682018060405250810190610f4891906122e3565b90505f60025f9054906101000a900473ffffffffffffffffffffffffffffffffffffffff1673ffffffffffffffffffffffffffffffffffffffff1663b88c9148836040518263ffffffff1660e01b8152600401610fa59190611c67565b602060405180830381865afa158015610fc0573d5f5f3e3d5ffd5b505050506040513d601f19601f82011682018060405250810190610fe49190612353565b6fffffffffffffffffffffffffffffffff1690505f60025f9054906101000a900473ffffffffffffffffffffffffffffffffffffffff1673ffffffffffffffffffffffffffffffffffffffff166319cb825f8385876040518463ffffffff1660e01b815260040161105692919061238d565b60206040518083038185885af1158015611072573d5f5f3e3d5ffd5b50505050506040513d601f19601f8201168201806040525081019061109791906123c8565b905050505050565b5f60015f9054906101000a900473ffffffffffffffffffffffffffffffffffffffff1673ffffffffffffffffffffffffffffffffffffffff1663d47eed4584846040518363ffffffff1660e01b81526004016110fc92919061261b565b602060405180830381865afa158015611117573d5f5f3e3d5ffd5b505050506040513d601f19601f8201168201806040525081019061113b9190612651565b905060015f9054906101000a900473ffffffffffffffffffffffffffffffffffffffff1673ffffffffffffffffffffffffffffffffffffffff1663ef9e5e288285856040518463ffffffff1660e01b815260040161119a92919061261b565b5f604051808303818588803b1580156111b1575f5ffd5b505af11580156111c3573d5f5f3e3d5ffd5b50505050505f7fff61491a931112ddf1bd8147cd1b641375f79f5825126d665480874634fd0ace5f1b90505f60015f9054906101000a900473ffffffffffffffffffffffffffffffffffffffff1673ffffffffffffffffffffffffffffffffffffffff1663a4ae35e083603c6040518363ffffffff1660e01b815260040161124c9291906126be565b608060405180830381865afa158015611267573d5f5f3e3d5ffd5b505050506040513d601f19601f8201168201806040525081019061128b91906127ca565b90507f6868b56bbbc4c847be9aa8488a92e6fc784e19300474b0f2bbb1cd55bbc365bc815f0151826020015183606001516040516112cb93929190612813565b60405180910390a15050505050565b5f60025f9054906101000a900473ffffffffffffffffffffffffffffffffffffffff1673ffffffffffffffffffffffffffffffffffffffff1663b88c9148836040518263ffffffff1660e01b81526004016113359190611c67565b602060405180830381865afa158015611350573d5f5f3e3d5ffd5b505050506040513d601f19601f820116820180604052508101906113749190612353565b6fffffffffffffffffffffffffffffffff169050919050565b6006544211156113d2576040517f08c379a00000000000000000000000000000000000000000000000000000000081526004016113c990612892565b60405180910390fd5b5f816040516020016113e491906128ea565b6040516020818303038152906040528051906020012090505f1515600a5f8381526020019081526020015f205f9054906101000a900460ff1615151461145f576040517f08c379a00000000000000000000000000000000000000000000000000000000081526004016114569061294a565b60405180910390fd5b5f604051806060016040528060075481526020013373ffffffffffffffffffffffffffffffffffffffff16815260200184815250905060075f8154809291906114a790612968565b9190505550600981908060018154018082558091505060019003905f5260205f2090600302015f909190919091505f820151815f01556020820151816001015f6101000a81548173ffffffffffffffffffffffffffffffffffffffff021916908373ffffffffffffffffffffffffffffffffffffffff16021790555060408201518160020190816115389190612b46565b5050506001600a5f8481526020019081526020015f205f6101000a81548160ff0219169083151502179055506001600b5f3373ffffffffffffffffffffffffffffffffffffffff1673ffffffffffffffffffffffffffffffffffffffff1681526020019081526020015f205f6101000a81548160ff021916908315150217905550505050565b6115c66116c9565b5f73ffffffffffffffffffffffffffffffffffffffff168173ffffffffffffffffffffffffffffffffffffffff1603611636575f6040517f1e4fbdf700000000000000000000000000000000000000000000000000000000815260040161162d9190611c67565b60405180910390fd5b61163f81611750565b50565b60065481565b5f60025f9054906101000a900473ffffffffffffffffffffffffffffffffffffffff16905090565b5f815f1c9050600754816116849190612c42565b6008819055507fae3f88d56af8ef248164ab259baacc4ff82c4a7192a027616cb6e1b474b182d86008546040516116bb9190611a4b565b60405180910390a150505050565b6116d1611811565b73ffffffffffffffffffffffffffffffffffffffff166116ef61090c565b73ffffffffffffffffffffffffffffffffffffffff161461174e57611712611811565b6040517f118cdaa70000000000000000000000000000000000000000000000000000000081526004016117459190611c67565b60405180910390fd5b565b5f5f5f9054906101000a900473ffffffffffffffffffffffffffffffffffffffff169050815f5f6101000a81548173ffffffffffffffffffffffffffffffffffffffff021916908373ffffffffffffffffffffffffffffffffffffffff1602179055508173ffffffffffffffffffffffffffffffffffffffff168173ffffffffffffffffffffffffffffffffffffffff167f8be0079c531659141344cd1fd0a4f28419497f9722a3daafe3b4186f6b6457e060405160405180910390a35050565b5f33905090565b60405180606001604052805f81526020015f73ffffffffffffffffffffffffffffffffffffffff168152602001606081525090565b5f81519050919050565b5f82825260208201905092915050565b5f819050602082019050919050565b5f819050919050565b61188881611876565b82525050565b5f73ffffffffffffffffffffffffffffffffffffffff82169050919050565b5f6118b78261188e565b9050919050565b6118c7816118ad565b82525050565b5f81519050919050565b5f82825260208201905092915050565b8281835e5f83830152505050565b5f601f19601f8301169050919050565b5f61190f826118cd565b61191981856118d7565b93506119298185602086016118e7565b611932816118f5565b840191505092915050565b5f606083015f8301516119525f86018261187f565b50602083015161196560208601826118be565b506040830151848203604086015261197d8282611905565b9150508091505092915050565b5f611995838361193d565b905092915050565b5f602082019050919050565b5f6119b38261184d565b6119bd8185611857565b9350836020820285016119cf85611867565b805f5b85811015611a0a57848403895281516119eb858261198a565b94506119f68361199d565b925060208a019950506001810190506119d2565b50829750879550505050505092915050565b5f6020820190508181035f830152611a3481846119a9565b905092915050565b611a4581611876565b82525050565b5f602082019050611a5e5f830184611a3c565b92915050565b5f604051905090565b5f5ffd5b5f5ffd5b5f67ffffffffffffffff82169050919050565b611a9181611a75565b8114611a9b575f5ffd5b50565b5f81359050611aac81611a88565b92915050565b611abb816118ad565b8114611ac5575f5ffd5b50565b5f81359050611ad681611ab2565b92915050565b5f819050919050565b611aee81611adc565b8114611af8575f5ffd5b50565b5f81359050611b0981611ae5565b92915050565b5f5f5f60608486031215611b2657611b25611a6d565b5b5f611b3386828701611a9e565b9350506020611b4486828701611ac8565b9250506040611b5586828701611afb565b9150509250925092565b611b6881611876565b8114611b72575f5ffd5b50565b5f81359050611b8381611b5f565b92915050565b5f60208284031215611b9e57611b9d611a6d565b5b5f611bab84828501611b75565b91505092915050565b611bbd816118ad565b82525050565b5f82825260208201905092915050565b5f611bdd826118cd565b611be78185611bc3565b9350611bf78185602086016118e7565b611c00816118f5565b840191505092915050565b5f606082019050611c1e5f830186611a3c565b611c2b6020830185611bb4565b8181036040830152611c3d8184611bd3565b9050949350505050565b5f6020820190508181035f830152611c5f8184611bd3565b905092915050565b5f602082019050611c7a5f830184611bb4565b92915050565b5f606083015f830151611c955f86018261187f565b506020830151611ca860208601826118be565b5060408301518482036040860152611cc08282611905565b9150508091505092915050565b5f6020820190508181035f830152611ce58184611c80565b905092915050565b5f60208284031215611d0257611d01611a6d565b5b5f611d0f84828501611afb565b91505092915050565b5f8115159050919050565b611d2c81611d18565b82525050565b5f602082019050611d455f830184611d23565b92915050565b5f60208284031215611d6057611d5f611a6d565b5b5f611d6d84828501611ac8565b91505092915050565b5f5ffd5b5f5ffd5b5f5ffd5b5f5f83601f840112611d9757611d96611d76565b5b8235905067ffffffffffffffff811115611db457611db3611d7a565b5b602083019150836020820283011115611dd057611dcf611d7e565b5b9250929050565b5f5f60208385031215611ded57611dec611a6d565b5b5f83013567ffffffffffffffff811115611e0a57611e09611a71565b5b611e1685828601611d82565b92509250509250929050565b5f5ffd5b7f4e487b71000000000000000000000000000000000000000000000000000000005f52604160045260245ffd5b611e5c826118f5565b810181811067ffffffffffffffff82111715611e7b57611e7a611e26565b5b80604052505050565b5f611e8d611a64565b9050611e998282611e53565b919050565b5f67ffffffffffffffff821115611eb857611eb7611e26565b5b611ec1826118f5565b9050602081019050919050565b828183375f83830152505050565b5f611eee611ee984611e9e565b611e84565b905082815260208101848484011115611f0a57611f09611e22565b5b611f15848285611ece565b509392505050565b5f82601f830112611f3157611f30611d76565b5b8135611f41848260208601611edc565b91505092915050565b5f60208284031215611f5f57611f5e611a6d565b5b5f82013567ffffffffffffffff811115611f7c57611f7b611a71565b5b611f8884828501611f1d565b91505092915050565b7f4e487b71000000000000000000000000000000000000000000000000000000005f52602260045260245ffd5b5f6002820490506001821680611fd557607f821691505b602082108103611fe857611fe7611f91565b5b50919050565b7f4e487b71000000000000000000000000000000000000000000000000000000005f52603260045260245ffd5b7f596f7520617265206e6f74207468652077696e6e6572206f66207468697320635f8201527f6f6e74656e740000000000000000000000000000000000000000000000000000602082015250565b5f612075602683611bc3565b91506120808261201b565b604082019050919050565b5f6020820190508181035f8301526120a281612069565b9050919050565b7f456e74726f70792061646472657373206e6f74207365740000000000000000005f82015250565b5f6120dd601783611bc3565b91506120e8826120a9565b602082019050919050565b5f6020820190508181035f83015261210a816120d1565b9050919050565b7f4f6e6c7920456e74726f70792063616e2063616c6c20746869732066756e63745f8201527f696f6e0000000000000000000000000000000000000000000000000000000000602082015250565b5f61216b602383611bc3565b915061217682612111565b604082019050919050565b5f6020820190508181035f8301526121988161215f565b9050919050565b7f436f6e74657374206973207374696c6c206f6e676f696e6700000000000000005f82015250565b5f6121d3601883611bc3565b91506121de8261219f565b602082019050919050565b5f6020820190508181035f830152612200816121c7565b9050919050565b7f57696e6e6572206e6f742063686f73656e2079657400000000000000000000005f82015250565b5f61223b601583611bc3565b915061224682612207565b602082019050919050565b5f6020820190508181035f8301526122688161222f565b9050919050565b7f4e487b71000000000000000000000000000000000000000000000000000000005f52601160045260245ffd5b5f6122a682611876565b91506122b183611876565b92508282039050818111156122c9576122c861226f565b5b92915050565b5f815190506122dd81611ab2565b92915050565b5f602082840312156122f8576122f7611a6d565b5b5f612305848285016122cf565b91505092915050565b5f6fffffffffffffffffffffffffffffffff82169050919050565b6123328161230e565b811461233c575f5ffd5b50565b5f8151905061234d81612329565b92915050565b5f6020828403121561236857612367611a6d565b5b5f6123758482850161233f565b91505092915050565b61238781611adc565b82525050565b5f6040820190506123a05f830185611bb4565b6123ad602083018461237e565b9392505050565b5f815190506123c281611a88565b92915050565b5f602082840312156123dd576123dc611a6d565b5b5f6123ea848285016123b4565b91505092915050565b7f636f6e74657374206973207374696c6c206f6e676f696e6700000000000000005f82015250565b5f612427601883611bc3565b9150612432826123f3565b602082019050919050565b5f6020820190508181035f8301526124548161241b565b9050919050565b7f4e6f207061727469636970616e747320726567697374657265640000000000005f82015250565b5f61248f601a83611bc3565b915061249a8261245b565b602082019050919050565b5f6020820190508181035f8301526124bc81612483565b9050919050565b5f82825260208201905092915050565b5f819050919050565b5f82825260208201905092915050565b5f6124f783856124dc565b9350612504838584611ece565b61250d836118f5565b840190509392505050565b5f6125248484846124ec565b90509392505050565b5f5ffd5b5f5ffd5b5f5ffd5b5f5f8335600160200384360303811261255557612554612535565b5b83810192508235915060208301925067ffffffffffffffff82111561257d5761257c61252d565b5b60018202360383131561259357612592612531565b5b509250929050565b5f602082019050919050565b5f6125b283856124c3565b9350836020840285016125c4846124d3565b805f5b878110156126095784840389526125de8284612539565b6125e9868284612518565b95506125f48461259b565b935060208b019a5050506001810190506125c7565b50829750879450505050509392505050565b5f6020820190508181035f8301526126348184866125a7565b90509392505050565b5f8151905061264b81611b5f565b92915050565b5f6020828403121561266657612665611a6d565b5b5f6126738482850161263d565b91505092915050565b5f819050919050565b5f819050919050565b5f6126a86126a361269e8461267c565b612685565b611876565b9050919050565b6126b88161268e565b82525050565b5f6040820190506126d15f83018561237e565b6126de60208301846126af565b9392505050565b5f5ffd5b5f8160070b9050919050565b6126fe816126e9565b8114612708575f5ffd5b50565b5f81519050612719816126f5565b92915050565b5f8160030b9050919050565b6127348161271f565b811461273e575f5ffd5b50565b5f8151905061274f8161272b565b92915050565b5f6080828403121561276a576127696126e5565b5b6127746080611e84565b90505f6127838482850161270b565b5f830152506020612796848285016123b4565b60208301525060406127aa84828501612741565b60408301525060606127be8482850161263d565b60608301525092915050565b5f608082840312156127df576127de611a6d565b5b5f6127ec84828501612755565b91505092915050565b6127fe816126e9565b82525050565b61280d81611a75565b82525050565b5f6060820190506128265f8301866127f5565b6128336020830185612804565b6128406040830184611a3c565b949350505050565b7f436f6e746573742068617320656e6465640000000000000000000000000000005f82015250565b5f61287c601183611bc3565b915061288782612848565b602082019050919050565b5f6020820190508181035f8301526128a981612870565b9050919050565b5f81905092915050565b5f6128c4826118cd565b6128ce81856128b0565b93506128de8185602086016118e7565b80840191505092915050565b5f6128f582846128ba565b915081905092915050565b7f48616e646c6520616c72656164792072656769737465726564000000000000005f82015250565b5f612934601983611bc3565b915061293f82612900565b602082019050919050565b5f6020820190508181035f83015261296181612928565b9050919050565b5f61297282611876565b91507fffffffffffffffffffffffffffffffffffffffffffffffffffffffffffffffff82036129a4576129a361226f565b5b600182019050919050565b5f819050815f5260205f209050919050565b5f6020601f8301049050919050565b5f82821b905092915050565b5f60088302612a0b7fffffffffffffffffffffffffffffffffffffffffffffffffffffffffffffffff826129d0565b612a1586836129d0565b95508019841693508086168417925050509392505050565b5f612a47612a42612a3d84611876565b612685565b611876565b9050919050565b5f819050919050565b612a6083612a2d565b612a74612a6c82612a4e565b8484546129dc565b825550505050565b5f5f905090565b612a8b612a7c565b612a96818484612a57565b505050565b5b81811015612ab957612aae5f82612a83565b600181019050612a9c565b5050565b601f821115612afe57612acf816129af565b612ad8846129c1565b81016020851015612ae7578190505b612afb612af3856129c1565b830182612a9b565b50505b505050565b5f82821c905092915050565b5f612b1e5f1984600802612b03565b1980831691505092915050565b5f612b368383612b0f565b9150826002028217905092915050565b612b4f826118cd565b67ffffffffffffffff811115612b6857612b67611e26565b5b612b728254611fbe565b612b7d828285612abd565b5f60209050601f831160018114612bae575f8415612b9c578287015190505b612ba68582612b2b565b865550612c0d565b601f198416612bbc866129af565b5f5b82811015612be357848901518255600182019150602085019450602081019050612bbe565b86831015612c005784890151612bfc601f891682612b0f565b8355505b6001600288020188555050505b505050505050565b7f4e487b71000000000000000000000000000000000000000000000000000000005f52601260045260245ffd5b5f612c4c82611876565b9150612c5783611876565b925082612c6757612c66612c15565b5b82820690509291505056fea2646970667358221220c7cba28350e515c0a45a3c28895d4a8a570bb329908a45932c81fe83006e6bf664736f6c634300081d0033","linkReferences":{}},"methodIdentifiers":{"_entropyCallback(uint64,address,bytes32)":"52a5f1f8","alreadyRegistered(bytes32)":"a74e5732","claim()":"4e71d92d","description()":"7284e416","endContest(bytes32)":"d06abdd2","endTimeContest()":"f623d417","exampleMethod(bytes[])":"e0c297c3","getEntropyFee(address)":"e15f616f","getEntropyProvider()":"ace59f4f","getRegistries()":"35884e5a","getWinner()":"8e7ea5b2","hasUserParticipated(address)":"b112cd88","numberOfParticipants()":"7417040e","owner()":"8da5cb5b","register(string)":"f2c298be","registries(uint256)":"6347c900","renounceOwnership()":"715018a6","requestRandomNumber(bytes32)":"bd313d78","startTimeContest()":"36c2d6de","transferOwnership(address)":"f2fde38b","twitterStatusId()":"c9b5773f"},"id":0}