{"abi":[{"type":"constructor","inputs":[{"name":"entropyAddress","type":"address","internalType":"address"},{"name":"pythContract","type":"address","internalType":"address"},{"name":"_owner","type":"address","internalType":"address"},{"name":"_twitterStatusId","type":"string","internalType":"string"},{"name":"_description","type":"string","internalType":"string"},{"name":"_endTimeContest","type":"uint256","internalType":"uint256"}],"stateMutability":"nonpayable"},{"type":"function","name":"_entropyCallback","inputs":[{"name":"sequence","type":"uint64","internalType":"uint64"},{"name":"provider","type":"address","internalType":"address"},{"name":"randomNumber","type":"bytes32","internalType":"bytes32"}],"outputs":[],"stateMutability":"nonpayable"},{"type":"function","name":"alreadyRegistered","inputs":[{"name":"hashinBytes","type":"bytes32","internalType":"bytes32"}],"outputs":[{"name":"seen","type":"bool","internalType":"bool"}],"stateMutability":"view"},{"type":"function","name":"claim","inputs":[],"outputs":[],"stateMutability":"nonpayable"},{"type":"function","name":"description","inputs":[],"outputs":[{"name":"","type":"string","internalType":"string"}],"stateMutability":"view"},{"type":"function","name":"endContest","inputs":[{"name":"userRandomNumber","type":"bytes32","internalType":"bytes32"}],"outputs":[],"stateMutability":"payable"},{"type":"function","name":"endTimeContest","inputs":[],"outputs":[{"name":"","type":"uint256","internalType":"uint256"}],"stateMutability":"view"},{"type":"function","name":"getETHPriceForUSD","inputs":[{"name":"priceUpdate","type":"bytes[]","internalType":"bytes[]"}],"outputs":[],"stateMutability":"payable"},{"type":"function","name":"getEntropyFee","inputs":[{"name":"provider","type":"address","internalType":"address"}],"outputs":[{"name":"","type":"uint256","internalType":"uint256"}],"stateMutability":"view"},{"type":"function","name":"getEntropyProvider","inputs":[],"outputs":[{"name":"","type":"address","internalType":"address"}],"stateMutability":"view"},{"type":"function","name":"getRegistries","inputs":[],"outputs":[{"name":"","type":"tuple[]","internalType":"struct Contest.Registry[]","components":[{"name":"id","type":"uint256","internalType":"uint256"},{"name":"registryAddress","type":"address","internalType":"address"},{"name":"twitterHandle","type":"string","internalType":"string"}]}],"stateMutability":"view"},{"type":"function","name":"getWinner","inputs":[],"outputs":[{"name":"","type":"tuple","internalType":"struct Contest.Registry","components":[{"name":"id","type":"uint256","internalType":"uint256"},{"name":"registryAddress","type":"address","internalType":"address"},{"name":"twitterHandle","type":"string","internalType":"string"}]}],"stateMutability":"view"},{"type":"function","name":"hasUserParticipated","inputs":[{"name":"","type":"address","internalType":"address"}],"outputs":[{"name":"","type":"bool","internalType":"bool"}],"stateMutability":"view"},{"type":"function","name":"joinContest","inputs":[],"outputs":[],"stateMutability":"nonpayable"},{"type":"function","name":"numberOfParticipants","inputs":[],"outputs":[{"name":"","type":"uint256","internalType":"uint256"}],"stateMutability":"view"},{"type":"function","name":"owner","inputs":[],"outputs":[{"name":"","type":"address","internalType":"address"}],"stateMutability":"view"},{"type":"function","name":"register","inputs":[{"name":"handle","type":"string","internalType":"string"}],"outputs":[],"stateMutability":"nonpayable"},{"type":"function","name":"registries","inputs":[{"name":"","type":"uint256","internalType":"uint256"}],"outputs":[{"name":"id","type":"uint256","internalType":"uint256"},{"name":"registryAddress","type":"address","internalType":"address"},{"name":"twitterHandle","type":"string","internalType":"string"}],"stateMutability":"view"},{"type":"function","name":"renounceOwnership","inputs":[],"outputs":[],"stateMutability":"nonpayable"},{"type":"function","name":"requestRandomNumber","inputs":[{"name":"userRandomNumber","type":"bytes32","internalType":"bytes32"}],"outputs":[],"stateMutability":"payable"},{"type":"function","name":"startTimeContest","inputs":[],"outputs":[{"name":"","type":"uint256","internalType":"uint256"}],"stateMutability":"view"},{"type":"function","name":"transferOwnership","inputs":[{"name":"newOwner","type":"address","internalType":"address"}],"outputs":[],"stateMutability":"nonpayable"},{"type":"function","name":"twitterStatusId","inputs":[],"outputs":[{"name":"","type":"string","internalType":"string"}],"stateMutability":"view"},{"type":"event","name":"OwnershipTransferred","inputs":[{"name":"previousOwner","type":"address","indexed":true,"internalType":"address"},{"name":"newOwner","type":"address","indexed":true,"internalType":"address"}],"anonymous":false},{"type":"event","name":"PriceUpdated","inputs":[{"name":"price","type":"int64","indexed":false,"internalType":"int64"},{"name":"confidence","type":"uint64","indexed":false,"internalType":"uint64"},{"name":"publishTime","type":"uint256","indexed":false,"internalType":"uint256"}],"anonymous":false},{"type":"event","name":"WinnerChosen","inputs":[{"name":"winningNumber","type":"uint256","indexed":false,"internalType":"uint256"}],"anonymous":false},{"type":"error","name":"OwnableInvalidOwner","inputs":[{"name":"owner","type":"address","internalType":"address"}]},{"type":"error","name":"OwnableUnauthorizedAccount","inputs":[{"name":"account","type":"address","internalType":"address"}]}],"bytecode":{"object":"0x608060405234801561000f575f5ffd5b5060405161367338038061367383398181016040528101906100319190610446565b835f73ffffffffffffffffffffffffffffffffffffffff168173ffffffffffffffffffffffffffffffffffffffff16036100a2575f6040517f1e4fbdf70000000000000000000000000000000000000000000000000000000081526004016100999190610516565b60405180910390fd5b6100b1816101ab60201b60201c565b503360015f6101000a81548173ffffffffffffffffffffffffffffffffffffffff021916908373ffffffffffffffffffffffffffffffffffffffff1602179055508560035f6101000a81548173ffffffffffffffffffffffffffffffffffffffff021916908373ffffffffffffffffffffffffffffffffffffffff1602179055508460025f6101000a81548173ffffffffffffffffffffffffffffffffffffffff021916908373ffffffffffffffffffffffffffffffffffffffff16021790555082600490816101819190610736565b5081600590816101919190610736565b504260068190555080600781905550505050505050610805565b5f5f5f9054906101000a900473ffffffffffffffffffffffffffffffffffffffff169050815f5f6101000a81548173ffffffffffffffffffffffffffffffffffffffff021916908373ffffffffffffffffffffffffffffffffffffffff1602179055508173ffffffffffffffffffffffffffffffffffffffff168173ffffffffffffffffffffffffffffffffffffffff167f8be0079c531659141344cd1fd0a4f28419497f9722a3daafe3b4186f6b6457e060405160405180910390a35050565b5f604051905090565b5f5ffd5b5f5ffd5b5f73ffffffffffffffffffffffffffffffffffffffff82169050919050565b5f6102a68261027d565b9050919050565b6102b68161029c565b81146102c0575f5ffd5b50565b5f815190506102d1816102ad565b92915050565b5f5ffd5b5f5ffd5b5f601f19601f8301169050919050565b7f4e487b71000000000000000000000000000000000000000000000000000000005f52604160045260245ffd5b610325826102df565b810181811067ffffffffffffffff82111715610344576103436102ef565b5b80604052505050565b5f61035661026c565b9050610362828261031c565b919050565b5f67ffffffffffffffff821115610381576103806102ef565b5b61038a826102df565b9050602081019050919050565b8281835e5f83830152505050565b5f6103b76103b284610367565b61034d565b9050828152602081018484840111156103d3576103d26102db565b5b6103de848285610397565b509392505050565b5f82601f8301126103fa576103f96102d7565b5b815161040a8482602086016103a5565b91505092915050565b5f819050919050565b61042581610413565b811461042f575f5ffd5b50565b5f815190506104408161041c565b92915050565b5f5f5f5f5f5f60c087890312156104605761045f610275565b5b5f61046d89828a016102c3565b965050602061047e89828a016102c3565b955050604061048f89828a016102c3565b945050606087015167ffffffffffffffff8111156104b0576104af610279565b5b6104bc89828a016103e6565b935050608087015167ffffffffffffffff8111156104dd576104dc610279565b5b6104e989828a016103e6565b92505060a06104fa89828a01610432565b9150509295509295509295565b6105108161029c565b82525050565b5f6020820190506105295f830184610507565b92915050565b5f81519050919050565b7f4e487b71000000000000000000000000000000000000000000000000000000005f52602260045260245ffd5b5f600282049050600182168061057d57607f821691505b6020821081036105905761058f610539565b5b50919050565b5f819050815f5260205f209050919050565b5f6020601f8301049050919050565b5f82821b905092915050565b5f600883026105f27fffffffffffffffffffffffffffffffffffffffffffffffffffffffffffffffff826105b7565b6105fc86836105b7565b95508019841693508086168417925050509392505050565b5f819050919050565b5f61063761063261062d84610413565b610614565b610413565b9050919050565b5f819050919050565b6106508361061d565b61066461065c8261063e565b8484546105c3565b825550505050565b5f5f905090565b61067b61066c565b610686818484610647565b505050565b5b818110156106a95761069e5f82610673565b60018101905061068c565b5050565b601f8211156106ee576106bf81610596565b6106c8846105a8565b810160208510156106d7578190505b6106eb6106e3856105a8565b83018261068b565b50505b505050565b5f82821c905092915050565b5f61070e5f19846008026106f3565b1980831691505092915050565b5f61072683836106ff565b9150826002028217905092915050565b61073f8261052f565b67ffffffffffffffff811115610758576107576102ef565b5b6107628254610566565b61076d8282856106ad565b5f60209050601f83116001811461079e575f841561078c578287015190505b610796858261071b565b8655506107fd565b601f1984166107ac86610596565b5f5b828110156107d3578489015182556001820191506020850194506020810190506107ae565b868310156107f057848901516107ec601f8916826106ff565b8355505b6001600288020188555050505b505050505050565b612e61806108125f395ff3fe608060405260043610610134575f3560e01c80638e7ea5b2116100aa578063c9b5773f1161006e578063c9b5773f146103b6578063d06abdd2146103e0578063e15f616f146103fc578063f2c298be14610438578063f2fde38b14610460578063f623d4171461048857610134565b80638e7ea5b2146102ce578063a74e5732146102f8578063ace59f4f14610334578063b112cd881461035e578063bd313d781461039a57610134565b80636347c900116100fc5780636347c900146101e05780636f80f2751461021e578063715018a61461023a5780637284e416146102505780637417040e1461027a5780638da5cb5b146102a457610134565b806326bec2de1461013857806335884e5a1461014e57806336c2d6de146101785780634e71d92d146101a257806352a5f1f8146101b8575b5f5ffd5b348015610143575f5ffd5b5061014c6104b2565b005b348015610159575f5ffd5b50610162610593565b60405161016f9190611b18565b60405180910390f35b348015610183575f5ffd5b5061018c6106dd565b6040516101999190611b47565b60405180910390f35b3480156101ad575f5ffd5b506101b66106e3565b005b3480156101c3575f5ffd5b506101de60048036038101906101d99190611c0b565b610797565b005b3480156101eb575f5ffd5b5061020660048036038101906102019190611c85565b61088f565b60405161021593929190611d07565b60405180910390f35b61023860048036038101906102339190611da4565b610969565b005b348015610245575f5ffd5b5061024e610ba4565b005b34801561025b575f5ffd5b50610264610bb7565b6040516102719190611def565b60405180910390f35b348015610285575f5ffd5b5061028e610c43565b60405161029b9190611b47565b60405180910390f35b3480156102af575f5ffd5b506102b8610c49565b6040516102c59190611e0f565b60405180910390f35b3480156102d9575f5ffd5b506102e2610c70565b6040516102ef9190611e75565b60405180910390f35b348015610303575f5ffd5b5061031e60048036038101906103199190611e95565b610e2d565b60405161032b9190611eda565b60405180910390f35b34801561033f575f5ffd5b50610348610e4a565b6040516103559190611e0f565b60405180910390f35b348015610369575f5ffd5b50610384600480360381019061037f9190611ef3565b610ede565b6040516103919190611eda565b60405180910390f35b6103b460048036038101906103af9190611e95565b610efb565b005b3480156103c1575f5ffd5b506103ca6110de565b6040516103d79190611def565b60405180910390f35b6103fa60048036038101906103f59190611e95565b61116a565b005b348015610407575f5ffd5b50610422600480360381019061041d9190611ef3565b6113d6565b60405161042f9190611b47565b60405180910390f35b348015610443575f5ffd5b5061045e60048036038101906104599190612046565b611489565b005b34801561046b575f5ffd5b5061048660048036038101906104819190611ef3565b6116ba565b005b348015610493575f5ffd5b5061049c61173e565b6040516104a99190611b47565b60405180910390f35b60015f9054906101000a900473ffffffffffffffffffffffffffffffffffffffff1673ffffffffffffffffffffffffffffffffffffffff1663be56745e336040518263ffffffff1660e01b815260040161050c9190611e0f565b6020604051808303815f875af1158015610528573d5f5f3e3d5ffd5b505050506040513d601f19601f8201168201806040525081019061054c91906120b7565b61058b576040517f08c379a00000000000000000000000000000000000000000000000000000000081526004016105829061212c565b60405180910390fd5b5f6001905050565b6060600a805480602002602001604051908101604052809291908181526020015f905b828210156106d4578382905f5260205f2090600302016040518060600160405290815f8201548152602001600182015f9054906101000a900473ffffffffffffffffffffffffffffffffffffffff1673ffffffffffffffffffffffffffffffffffffffff1673ffffffffffffffffffffffffffffffffffffffff16815260200160028201805461064590612177565b80601f016020809104026020016040519081016040528092919081815260200182805461067190612177565b80156106bc5780601f10610693576101008083540402835291602001916106bc565b820191905f5260205f20905b81548152906001019060200180831161069f57829003601f168201915b505050505081525050815260200190600101906105b6565b50505050905090565b60065481565b3373ffffffffffffffffffffffffffffffffffffffff16600a600954815481106107105761070f6121a7565b5b905f5260205f2090600302016001015f9054906101000a900473ffffffffffffffffffffffffffffffffffffffff1673ffffffffffffffffffffffffffffffffffffffff1614610795576040517f08c379a000000000000000000000000000000000000000000000000000000000815260040161078c90612244565b60405180910390fd5b565b5f6107a0611744565b90505f73ffffffffffffffffffffffffffffffffffffffff168173ffffffffffffffffffffffffffffffffffffffff1603610810576040517f08c379a0000000000000000000000000000000000000000000000000000000008152600401610807906122ac565b60405180910390fd5b8073ffffffffffffffffffffffffffffffffffffffff163373ffffffffffffffffffffffffffffffffffffffff161461087e576040517f08c379a00000000000000000000000000000000000000000000000000000000081526004016108759061233a565b60405180910390fd5b61088984848461176c565b50505050565b600a818154811061089e575f80fd5b905f5260205f2090600302015f91509050805f015490806001015f9054906101000a900473ffffffffffffffffffffffffffffffffffffffff16908060020180546108e890612177565b80601f016020809104026020016040519081016040528092919081815260200182805461091490612177565b801561095f5780601f106109365761010080835404028352916020019161095f565b820191905f5260205f20905b81548152906001019060200180831161094257829003601f168201915b5050505050905083565b5f60025f9054906101000a900473ffffffffffffffffffffffffffffffffffffffff1673ffffffffffffffffffffffffffffffffffffffff1663d47eed4584846040518363ffffffff1660e01b81526004016109c69291906124b0565b602060405180830381865afa1580156109e1573d5f5f3e3d5ffd5b505050506040513d601f19601f82011682018060405250810190610a0591906124e6565b905060025f9054906101000a900473ffffffffffffffffffffffffffffffffffffffff1673ffffffffffffffffffffffffffffffffffffffff1663ef9e5e288285856040518463ffffffff1660e01b8152600401610a649291906124b0565b5f604051808303818588803b158015610a7b575f5ffd5b505af1158015610a8d573d5f5f3e3d5ffd5b50505050505f7fff61491a931112ddf1bd8147cd1b641375f79f5825126d665480874634fd0ace5f1b90505f60025f9054906101000a900473ffffffffffffffffffffffffffffffffffffffff1673ffffffffffffffffffffffffffffffffffffffff1663a4ae35e083603c6040518363ffffffff1660e01b8152600401610b16929190612562565b608060405180830381865afa158015610b31573d5f5f3e3d5ffd5b505050506040513d601f19601f82011682018060405250810190610b559190612682565b90507f6868b56bbbc4c847be9aa8488a92e6fc784e19300474b0f2bbb1cd55bbc365bc815f015182602001518360600151604051610b95939291906126cb565b60405180910390a15050505050565b610bac6117c5565b610bb55f61184c565b565b60058054610bc490612177565b80601f0160208091040260200160405190810160405280929190818152602001828054610bf090612177565b8015610c3b5780601f10610c1257610100808354040283529160200191610c3b565b820191905f5260205f20905b815481529060010190602001808311610c1e57829003601f168201915b505050505081565b60085481565b5f5f5f9054906101000a900473ffffffffffffffffffffffffffffffffffffffff16905090565b610c78611914565b600754421115610cbd576040517f08c379a0000000000000000000000000000000000000000000000000000000008152600401610cb49061274a565b60405180910390fd5b5f60095411610d01576040517f08c379a0000000000000000000000000000000000000000000000000000000008152600401610cf8906127b2565b60405180910390fd5b600a6001600954610d1291906127fd565b81548110610d2357610d226121a7565b5b905f5260205f2090600302016040518060600160405290815f8201548152602001600182015f9054906101000a900473ffffffffffffffffffffffffffffffffffffffff1673ffffffffffffffffffffffffffffffffffffffff1673ffffffffffffffffffffffffffffffffffffffff168152602001600282018054610da890612177565b80601f0160208091040260200160405190810160405280929190818152602001828054610dd490612177565b8015610e1f5780601f10610df657610100808354040283529160200191610e1f565b820191905f5260205f20905b815481529060010190602001808311610e0257829003601f168201915b505050505081525050905090565b600b602052805f5260405f205f915054906101000a900460ff1681565b5f60035f9054906101000a900473ffffffffffffffffffffffffffffffffffffffff1673ffffffffffffffffffffffffffffffffffffffff166382ee990c6040518163ffffffff1660e01b8152600401602060405180830381865afa158015610eb5573d5f5f3e3d5ffd5b505050506040513d601f19601f82011682018060405250810190610ed99190612844565b905090565b600c602052805f5260405f205f915054906101000a900460ff1681565b5f60035f9054906101000a900473ffffffffffffffffffffffffffffffffffffffff1673ffffffffffffffffffffffffffffffffffffffff166382ee990c6040518163ffffffff1660e01b8152600401602060405180830381865afa158015610f66573d5f5f3e3d5ffd5b505050506040513d601f19601f82011682018060405250810190610f8a9190612844565b90505f60035f9054906101000a900473ffffffffffffffffffffffffffffffffffffffff1673ffffffffffffffffffffffffffffffffffffffff1663b88c9148836040518263ffffffff1660e01b8152600401610fe79190611e0f565b602060405180830381865afa158015611002573d5f5f3e3d5ffd5b505050506040513d601f19601f8201168201806040525081019061102691906128b4565b6fffffffffffffffffffffffffffffffff16905060035f9054906101000a900473ffffffffffffffffffffffffffffffffffffffff1673ffffffffffffffffffffffffffffffffffffffff166319cb825f8284866040518463ffffffff1660e01b81526004016110979291906128df565b60206040518083038185885af11580156110b3573d5f5f3e3d5ffd5b50505050506040513d601f19601f820116820180604052508101906110d89190612906565b50505050565b600480546110eb90612177565b80601f016020809104026020016040519081016040528092919081815260200182805461111790612177565b80156111625780601f1061113957610100808354040283529160200191611162565b820191905f5260205f20905b81548152906001019060200180831161114557829003601f168201915b505050505081565b6007544210156111af576040517f08c379a00000000000000000000000000000000000000000000000000000000081526004016111a69061297b565b60405180910390fd5b5f600854116111f3576040517f08c379a00000000000000000000000000000000000000000000000000000000081526004016111ea906129e3565b60405180910390fd5b5f60035f9054906101000a900473ffffffffffffffffffffffffffffffffffffffff1673ffffffffffffffffffffffffffffffffffffffff166382ee990c6040518163ffffffff1660e01b8152600401602060405180830381865afa15801561125e573d5f5f3e3d5ffd5b505050506040513d601f19601f820116820180604052508101906112829190612844565b90505f60035f9054906101000a900473ffffffffffffffffffffffffffffffffffffffff1673ffffffffffffffffffffffffffffffffffffffff1663b88c9148836040518263ffffffff1660e01b81526004016112df9190611e0f565b602060405180830381865afa1580156112fa573d5f5f3e3d5ffd5b505050506040513d601f19601f8201168201806040525081019061131e91906128b4565b6fffffffffffffffffffffffffffffffff16905060035f9054906101000a900473ffffffffffffffffffffffffffffffffffffffff1673ffffffffffffffffffffffffffffffffffffffff166319cb825f8284866040518463ffffffff1660e01b815260040161138f9291906128df565b60206040518083038185885af11580156113ab573d5f5f3e3d5ffd5b50505050506040513d601f19601f820116820180604052508101906113d09190612906565b50505050565b5f60035f9054906101000a900473ffffffffffffffffffffffffffffffffffffffff1673ffffffffffffffffffffffffffffffffffffffff1663b88c9148836040518263ffffffff1660e01b81526004016114319190611e0f565b602060405180830381865afa15801561144c573d5f5f3e3d5ffd5b505050506040513d601f19601f8201168201806040525081019061147091906128b4565b6fffffffffffffffffffffffffffffffff169050919050565b6007544211156114ce576040517f08c379a00000000000000000000000000000000000000000000000000000000081526004016114c590612a4b565b60405180910390fd5b5f816040516020016114e09190612aa3565b6040516020818303038152906040528051906020012090505f1515600b5f8381526020019081526020015f205f9054906101000a900460ff1615151461155b576040517f08c379a000000000000000000000000000000000000000000000000000000000815260040161155290612b03565b60405180910390fd5b5f604051806060016040528060085481526020013373ffffffffffffffffffffffffffffffffffffffff16815260200184815250905060085f8154809291906115a390612b21565b9190505550600a81908060018154018082558091505060019003905f5260205f2090600302015f909190919091505f820151815f01556020820151816001015f6101000a81548173ffffffffffffffffffffffffffffffffffffffff021916908373ffffffffffffffffffffffffffffffffffffffff16021790555060408201518160020190816116349190612cff565b5050506001600b5f8481526020019081526020015f205f6101000a81548160ff0219169083151502179055506001600c5f3373ffffffffffffffffffffffffffffffffffffffff1673ffffffffffffffffffffffffffffffffffffffff1681526020019081526020015f205f6101000a81548160ff021916908315150217905550505050565b6116c26117c5565b5f73ffffffffffffffffffffffffffffffffffffffff168173ffffffffffffffffffffffffffffffffffffffff1603611732575f6040517f1e4fbdf70000000000000000000000000000000000000000000000000000000081526004016117299190611e0f565b60405180910390fd5b61173b8161184c565b50565b60075481565b5f60035f9054906101000a900473ffffffffffffffffffffffffffffffffffffffff16905090565b5f815f1c9050600854816117809190612dfb565b6009819055507fae3f88d56af8ef248164ab259baacc4ff82c4a7192a027616cb6e1b474b182d86009546040516117b79190611b47565b60405180910390a150505050565b6117cd61190d565b73ffffffffffffffffffffffffffffffffffffffff166117eb610c49565b73ffffffffffffffffffffffffffffffffffffffff161461184a5761180e61190d565b6040517f118cdaa70000000000000000000000000000000000000000000000000000000081526004016118419190611e0f565b60405180910390fd5b565b5f5f5f9054906101000a900473ffffffffffffffffffffffffffffffffffffffff169050815f5f6101000a81548173ffffffffffffffffffffffffffffffffffffffff021916908373ffffffffffffffffffffffffffffffffffffffff1602179055508173ffffffffffffffffffffffffffffffffffffffff168173ffffffffffffffffffffffffffffffffffffffff167f8be0079c531659141344cd1fd0a4f28419497f9722a3daafe3b4186f6b6457e060405160405180910390a35050565b5f33905090565b60405180606001604052805f81526020015f73ffffffffffffffffffffffffffffffffffffffff168152602001606081525090565b5f81519050919050565b5f82825260208201905092915050565b5f819050602082019050919050565b5f819050919050565b61198481611972565b82525050565b5f73ffffffffffffffffffffffffffffffffffffffff82169050919050565b5f6119b38261198a565b9050919050565b6119c3816119a9565b82525050565b5f81519050919050565b5f82825260208201905092915050565b8281835e5f83830152505050565b5f601f19601f8301169050919050565b5f611a0b826119c9565b611a1581856119d3565b9350611a258185602086016119e3565b611a2e816119f1565b840191505092915050565b5f606083015f830151611a4e5f86018261197b565b506020830151611a6160208601826119ba565b5060408301518482036040860152611a798282611a01565b9150508091505092915050565b5f611a918383611a39565b905092915050565b5f602082019050919050565b5f611aaf82611949565b611ab98185611953565b935083602082028501611acb85611963565b805f5b85811015611b065784840389528151611ae78582611a86565b9450611af283611a99565b925060208a01995050600181019050611ace565b50829750879550505050505092915050565b5f6020820190508181035f830152611b308184611aa5565b905092915050565b611b4181611972565b82525050565b5f602082019050611b5a5f830184611b38565b92915050565b5f604051905090565b5f5ffd5b5f5ffd5b5f67ffffffffffffffff82169050919050565b611b8d81611b71565b8114611b97575f5ffd5b50565b5f81359050611ba881611b84565b92915050565b611bb7816119a9565b8114611bc1575f5ffd5b50565b5f81359050611bd281611bae565b92915050565b5f819050919050565b611bea81611bd8565b8114611bf4575f5ffd5b50565b5f81359050611c0581611be1565b92915050565b5f5f5f60608486031215611c2257611c21611b69565b5b5f611c2f86828701611b9a565b9350506020611c4086828701611bc4565b9250506040611c5186828701611bf7565b9150509250925092565b611c6481611972565b8114611c6e575f5ffd5b50565b5f81359050611c7f81611c5b565b92915050565b5f60208284031215611c9a57611c99611b69565b5b5f611ca784828501611c71565b91505092915050565b611cb9816119a9565b82525050565b5f82825260208201905092915050565b5f611cd9826119c9565b611ce38185611cbf565b9350611cf38185602086016119e3565b611cfc816119f1565b840191505092915050565b5f606082019050611d1a5f830186611b38565b611d276020830185611cb0565b8181036040830152611d398184611ccf565b9050949350505050565b5f5ffd5b5f5ffd5b5f5ffd5b5f5f83601f840112611d6457611d63611d43565b5b8235905067ffffffffffffffff811115611d8157611d80611d47565b5b602083019150836020820283011115611d9d57611d9c611d4b565b5b9250929050565b5f5f60208385031215611dba57611db9611b69565b5b5f83013567ffffffffffffffff811115611dd757611dd6611b6d565b5b611de385828601611d4f565b92509250509250929050565b5f6020820190508181035f830152611e078184611ccf565b905092915050565b5f602082019050611e225f830184611cb0565b92915050565b5f606083015f830151611e3d5f86018261197b565b506020830151611e5060208601826119ba565b5060408301518482036040860152611e688282611a01565b9150508091505092915050565b5f6020820190508181035f830152611e8d8184611e28565b905092915050565b5f60208284031215611eaa57611ea9611b69565b5b5f611eb784828501611bf7565b91505092915050565b5f8115159050919050565b611ed481611ec0565b82525050565b5f602082019050611eed5f830184611ecb565b92915050565b5f60208284031215611f0857611f07611b69565b5b5f611f1584828501611bc4565b91505092915050565b5f5ffd5b7f4e487b71000000000000000000000000000000000000000000000000000000005f52604160045260245ffd5b611f58826119f1565b810181811067ffffffffffffffff82111715611f7757611f76611f22565b5b80604052505050565b5f611f89611b60565b9050611f958282611f4f565b919050565b5f67ffffffffffffffff821115611fb457611fb3611f22565b5b611fbd826119f1565b9050602081019050919050565b828183375f83830152505050565b5f611fea611fe584611f9a565b611f80565b90508281526020810184848401111561200657612005611f1e565b5b612011848285611fca565b509392505050565b5f82601f83011261202d5761202c611d43565b5b813561203d848260208601611fd8565b91505092915050565b5f6020828403121561205b5761205a611b69565b5b5f82013567ffffffffffffffff81111561207857612077611b6d565b5b61208484828501612019565b91505092915050565b61209681611ec0565b81146120a0575f5ffd5b50565b5f815190506120b18161208d565b92915050565b5f602082840312156120cc576120cb611b69565b5b5f6120d9848285016120a3565b91505092915050565b7f4e4f545f564552494649455200000000000000000000000000000000000000005f82015250565b5f612116600c83611cbf565b9150612121826120e2565b602082019050919050565b5f6020820190508181035f8301526121438161210a565b9050919050565b7f4e487b71000000000000000000000000000000000000000000000000000000005f52602260045260245ffd5b5f600282049050600182168061218e57607f821691505b6020821081036121a1576121a061214a565b5b50919050565b7f4e487b71000000000000000000000000000000000000000000000000000000005f52603260045260245ffd5b7f596f7520617265206e6f74207468652077696e6e6572206f66207468697320635f8201527f6f6e74656e740000000000000000000000000000000000000000000000000000602082015250565b5f61222e602683611cbf565b9150612239826121d4565b604082019050919050565b5f6020820190508181035f83015261225b81612222565b9050919050565b7f456e74726f70792061646472657373206e6f74207365740000000000000000005f82015250565b5f612296601783611cbf565b91506122a182612262565b602082019050919050565b5f6020820190508181035f8301526122c38161228a565b9050919050565b7f4f6e6c7920456e74726f70792063616e2063616c6c20746869732066756e63745f8201527f696f6e0000000000000000000000000000000000000000000000000000000000602082015250565b5f612324602383611cbf565b915061232f826122ca565b604082019050919050565b5f6020820190508181035f83015261235181612318565b9050919050565b5f82825260208201905092915050565b5f819050919050565b5f82825260208201905092915050565b5f61238c8385612371565b9350612399838584611fca565b6123a2836119f1565b840190509392505050565b5f6123b9848484612381565b90509392505050565b5f5ffd5b5f5ffd5b5f5ffd5b5f5f833560016020038436030381126123ea576123e96123ca565b5b83810192508235915060208301925067ffffffffffffffff821115612412576124116123c2565b5b600182023603831315612428576124276123c6565b5b509250929050565b5f602082019050919050565b5f6124478385612358565b93508360208402850161245984612368565b805f5b8781101561249e57848403895261247382846123ce565b61247e8682846123ad565b955061248984612430565b935060208b019a50505060018101905061245c565b50829750879450505050509392505050565b5f6020820190508181035f8301526124c981848661243c565b90509392505050565b5f815190506124e081611c5b565b92915050565b5f602082840312156124fb576124fa611b69565b5b5f612508848285016124d2565b91505092915050565b61251a81611bd8565b82525050565b5f819050919050565b5f819050919050565b5f61254c61254761254284612520565b612529565b611972565b9050919050565b61255c81612532565b82525050565b5f6040820190506125755f830185612511565b6125826020830184612553565b9392505050565b5f5ffd5b5f8160070b9050919050565b6125a28161258d565b81146125ac575f5ffd5b50565b5f815190506125bd81612599565b92915050565b5f815190506125d181611b84565b92915050565b5f8160030b9050919050565b6125ec816125d7565b81146125f6575f5ffd5b50565b5f81519050612607816125e3565b92915050565b5f6080828403121561262257612621612589565b5b61262c6080611f80565b90505f61263b848285016125af565b5f83015250602061264e848285016125c3565b6020830152506040612662848285016125f9565b6040830152506060612676848285016124d2565b60608301525092915050565b5f6080828403121561269757612696611b69565b5b5f6126a48482850161260d565b91505092915050565b6126b68161258d565b82525050565b6126c581611b71565b82525050565b5f6060820190506126de5f8301866126ad565b6126eb60208301856126bc565b6126f86040830184611b38565b949350505050565b7f436f6e74657374206973207374696c6c206f6e676f696e6700000000000000005f82015250565b5f612734601883611cbf565b915061273f82612700565b602082019050919050565b5f6020820190508181035f83015261276181612728565b9050919050565b7f57696e6e6572206e6f742063686f73656e2079657400000000000000000000005f82015250565b5f61279c601583611cbf565b91506127a782612768565b602082019050919050565b5f6020820190508181035f8301526127c981612790565b9050919050565b7f4e487b71000000000000000000000000000000000000000000000000000000005f52601160045260245ffd5b5f61280782611972565b915061281283611972565b925082820390508181111561282a576128296127d0565b5b92915050565b5f8151905061283e81611bae565b92915050565b5f6020828403121561285957612858611b69565b5b5f61286684828501612830565b91505092915050565b5f6fffffffffffffffffffffffffffffffff82169050919050565b6128938161286f565b811461289d575f5ffd5b50565b5f815190506128ae8161288a565b92915050565b5f602082840312156128c9576128c8611b69565b5b5f6128d6848285016128a0565b91505092915050565b5f6040820190506128f25f830185611cb0565b6128ff6020830184612511565b9392505050565b5f6020828403121561291b5761291a611b69565b5b5f612928848285016125c3565b91505092915050565b7f636f6e74657374206973207374696c6c206f6e676f696e6700000000000000005f82015250565b5f612965601883611cbf565b915061297082612931565b602082019050919050565b5f6020820190508181035f83015261299281612959565b9050919050565b7f4e6f207061727469636970616e747320726567697374657265640000000000005f82015250565b5f6129cd601a83611cbf565b91506129d882612999565b602082019050919050565b5f6020820190508181035f8301526129fa816129c1565b9050919050565b7f436f6e746573742068617320656e6465640000000000000000000000000000005f82015250565b5f612a35601183611cbf565b9150612a4082612a01565b602082019050919050565b5f6020820190508181035f830152612a6281612a29565b9050919050565b5f81905092915050565b5f612a7d826119c9565b612a878185612a69565b9350612a978185602086016119e3565b80840191505092915050565b5f612aae8284612a73565b915081905092915050565b7f48616e646c6520616c72656164792072656769737465726564000000000000005f82015250565b5f612aed601983611cbf565b9150612af882612ab9565b602082019050919050565b5f6020820190508181035f830152612b1a81612ae1565b9050919050565b5f612b2b82611972565b91507fffffffffffffffffffffffffffffffffffffffffffffffffffffffffffffffff8203612b5d57612b5c6127d0565b5b600182019050919050565b5f819050815f5260205f209050919050565b5f6020601f8301049050919050565b5f82821b905092915050565b5f60088302612bc47fffffffffffffffffffffffffffffffffffffffffffffffffffffffffffffffff82612b89565b612bce8683612b89565b95508019841693508086168417925050509392505050565b5f612c00612bfb612bf684611972565b612529565b611972565b9050919050565b5f819050919050565b612c1983612be6565b612c2d612c2582612c07565b848454612b95565b825550505050565b5f5f905090565b612c44612c35565b612c4f818484612c10565b505050565b5b81811015612c7257612c675f82612c3c565b600181019050612c55565b5050565b601f821115612cb757612c8881612b68565b612c9184612b7a565b81016020851015612ca0578190505b612cb4612cac85612b7a565b830182612c54565b50505b505050565b5f82821c905092915050565b5f612cd75f1984600802612cbc565b1980831691505092915050565b5f612cef8383612cc8565b9150826002028217905092915050565b612d08826119c9565b67ffffffffffffffff811115612d2157612d20611f22565b5b612d2b8254612177565b612d36828285612c76565b5f60209050601f831160018114612d67575f8415612d55578287015190505b612d5f8582612ce4565b865550612dc6565b601f198416612d7586612b68565b5f5b82811015612d9c57848901518255600182019150602085019450602081019050612d77565b86831015612db95784890151612db5601f891682612cc8565b8355505b6001600288020188555050505b505050505050565b7f4e487b71000000000000000000000000000000000000000000000000000000005f52601260045260245ffd5b5f612e0582611972565b9150612e1083611972565b925082612e2057612e1f612dce565b5b82820690509291505056fea2646970667358221220397b91e1a83dba4b5d6ba4b73f66dd41229f1ff011d43c7c8740ff4dc5df165364736f6c634300081d0033","linkReferences":{}},"methodIdentifiers":{"_entropyCallback(uint64,address,bytes32)":"52a5f1f8","alreadyRegistered(bytes32)":"a74e5732","claim()":"4e71d92d","description()":"7284e416","endContest(bytes32)":"d06abdd2","endTimeContest()":"f623d417","getETHPriceForUSD(bytes[])":"6f80f275","getEntropyFee(address)":"e15f616f","getEntropyProvider()":"ace59f4f","getRegistries()":"35884e5a","getWinner()":"8e7ea5b2","hasUserParticipated(address)":"b112cd88","joinContest()":"26bec2de","numberOfParticipants()":"7417040e","owner()":"8da5cb5b","register(string)":"f2c298be","registries(uint256)":"6347c900","renounceOwnership()":"715018a6","requestRandomNumber(bytes32)":"bd313d78","startTimeContest()":"36c2d6de","transferOwnership(address)":"f2fde38b","twitterStatusId()":"c9b5773f"},"id":0}