{"abi":[{"type":"constructor","inputs":[{"name":"entropyAddress","type":"address","internalType":"address"},{"name":"pythContract","type":"address","internalType":"address"},{"name":"_owner","type":"address","internalType":"address"},{"name":"_twitterStatusId","type":"string","internalType":"string"},{"name":"_description","type":"string","internalType":"string"},{"name":"_endTimeContest","type":"uint256","internalType":"uint256"}],"stateMutability":"nonpayable"},{"type":"function","name":"_entropyCallback","inputs":[{"name":"sequence","type":"uint64","internalType":"uint64"},{"name":"provider","type":"address","internalType":"address"},{"name":"randomNumber","type":"bytes32","internalType":"bytes32"}],"outputs":[],"stateMutability":"nonpayable"},{"type":"function","name":"alreadyRegistered","inputs":[{"name":"hashinBytes","type":"bytes32","internalType":"bytes32"}],"outputs":[{"name":"seen","type":"bool","internalType":"bool"}],"stateMutability":"view"},{"type":"function","name":"claim","inputs":[],"outputs":[],"stateMutability":"nonpayable"},{"type":"function","name":"description","inputs":[],"outputs":[{"name":"","type":"string","internalType":"string"}],"stateMutability":"view"},{"type":"function","name":"endContest","inputs":[{"name":"userRandomNumber","type":"bytes32","internalType":"bytes32"}],"outputs":[],"stateMutability":"payable"},{"type":"function","name":"endTimeContest","inputs":[],"outputs":[{"name":"","type":"uint256","internalType":"uint256"}],"stateMutability":"view"},{"type":"function","name":"getETHPriceForUSD","inputs":[{"name":"priceUpdate","type":"bytes[]","internalType":"bytes[]"}],"outputs":[],"stateMutability":"payable"},{"type":"function","name":"getEntropyFee","inputs":[],"outputs":[{"name":"","type":"uint256","internalType":"uint256"}],"stateMutability":"view"},{"type":"function","name":"getRegistries","inputs":[],"outputs":[{"name":"","type":"tuple[]","internalType":"struct Contest.Registry[]","components":[{"name":"id","type":"uint256","internalType":"uint256"},{"name":"registryAddress","type":"address","internalType":"address"},{"name":"twitterHandle","type":"string","internalType":"string"}]}],"stateMutability":"view"},{"type":"function","name":"getWinner","inputs":[],"outputs":[{"name":"","type":"tuple","internalType":"struct Contest.Registry","components":[{"name":"id","type":"uint256","internalType":"uint256"},{"name":"registryAddress","type":"address","internalType":"address"},{"name":"twitterHandle","type":"string","internalType":"string"}]}],"stateMutability":"view"},{"type":"function","name":"hasUserParticipated","inputs":[{"name":"","type":"address","internalType":"address"}],"outputs":[{"name":"","type":"bool","internalType":"bool"}],"stateMutability":"view"},{"type":"function","name":"joinContest","inputs":[],"outputs":[],"stateMutability":"nonpayable"},{"type":"function","name":"numberOfParticipants","inputs":[],"outputs":[{"name":"","type":"uint256","internalType":"uint256"}],"stateMutability":"view"},{"type":"function","name":"owner","inputs":[],"outputs":[{"name":"","type":"address","internalType":"address"}],"stateMutability":"view"},{"type":"function","name":"register","inputs":[{"name":"handle","type":"string","internalType":"string"}],"outputs":[],"stateMutability":"nonpayable"},{"type":"function","name":"registries","inputs":[{"name":"","type":"uint256","internalType":"uint256"}],"outputs":[{"name":"id","type":"uint256","internalType":"uint256"},{"name":"registryAddress","type":"address","internalType":"address"},{"name":"twitterHandle","type":"string","internalType":"string"}],"stateMutability":"view"},{"type":"function","name":"renounceOwnership","inputs":[],"outputs":[],"stateMutability":"nonpayable"},{"type":"function","name":"requestRandomNumber","inputs":[{"name":"userRandomNumber","type":"bytes32","internalType":"bytes32"}],"outputs":[],"stateMutability":"payable"},{"type":"function","name":"startTimeContest","inputs":[],"outputs":[{"name":"","type":"uint256","internalType":"uint256"}],"stateMutability":"view"},{"type":"function","name":"transferOwnership","inputs":[{"name":"newOwner","type":"address","internalType":"address"}],"outputs":[],"stateMutability":"nonpayable"},{"type":"function","name":"twitterStatusId","inputs":[],"outputs":[{"name":"","type":"string","internalType":"string"}],"stateMutability":"view"},{"type":"event","name":"OwnershipTransferred","inputs":[{"name":"previousOwner","type":"address","indexed":true,"internalType":"address"},{"name":"newOwner","type":"address","indexed":true,"internalType":"address"}],"anonymous":false},{"type":"event","name":"PriceUpdated","inputs":[{"name":"price","type":"int64","indexed":false,"internalType":"int64"},{"name":"confidence","type":"uint64","indexed":false,"internalType":"uint64"},{"name":"publishTime","type":"uint256","indexed":false,"internalType":"uint256"}],"anonymous":false},{"type":"event","name":"WinnerChosen","inputs":[{"name":"winningNumber","type":"uint256","indexed":false,"internalType":"uint256"}],"anonymous":false},{"type":"error","name":"OwnableInvalidOwner","inputs":[{"name":"owner","type":"address","internalType":"address"}]},{"type":"error","name":"OwnableUnauthorizedAccount","inputs":[{"name":"account","type":"address","internalType":"address"}]}],"bytecode":{"object":"0x608060405234801561000f575f5ffd5b506040516135c53803806135c583398181016040528101906100319190610446565b835f73ffffffffffffffffffffffffffffffffffffffff168173ffffffffffffffffffffffffffffffffffffffff16036100a2575f6040517f1e4fbdf70000000000000000000000000000000000000000000000000000000081526004016100999190610516565b60405180910390fd5b6100b1816101ab60201b60201c565b503360015f6101000a81548173ffffffffffffffffffffffffffffffffffffffff021916908373ffffffffffffffffffffffffffffffffffffffff1602179055508560035f6101000a81548173ffffffffffffffffffffffffffffffffffffffff021916908373ffffffffffffffffffffffffffffffffffffffff1602179055508460025f6101000a81548173ffffffffffffffffffffffffffffffffffffffff021916908373ffffffffffffffffffffffffffffffffffffffff16021790555082600490816101819190610736565b5081600590816101919190610736565b504260068190555080600781905550505050505050610805565b5f5f5f9054906101000a900473ffffffffffffffffffffffffffffffffffffffff169050815f5f6101000a81548173ffffffffffffffffffffffffffffffffffffffff021916908373ffffffffffffffffffffffffffffffffffffffff1602179055508173ffffffffffffffffffffffffffffffffffffffff168173ffffffffffffffffffffffffffffffffffffffff167f8be0079c531659141344cd1fd0a4f28419497f9722a3daafe3b4186f6b6457e060405160405180910390a35050565b5f604051905090565b5f5ffd5b5f5ffd5b5f73ffffffffffffffffffffffffffffffffffffffff82169050919050565b5f6102a68261027d565b9050919050565b6102b68161029c565b81146102c0575f5ffd5b50565b5f815190506102d1816102ad565b92915050565b5f5ffd5b5f5ffd5b5f601f19601f8301169050919050565b7f4e487b71000000000000000000000000000000000000000000000000000000005f52604160045260245ffd5b610325826102df565b810181811067ffffffffffffffff82111715610344576103436102ef565b5b80604052505050565b5f61035661026c565b9050610362828261031c565b919050565b5f67ffffffffffffffff821115610381576103806102ef565b5b61038a826102df565b9050602081019050919050565b8281835e5f83830152505050565b5f6103b76103b284610367565b61034d565b9050828152602081018484840111156103d3576103d26102db565b5b6103de848285610397565b509392505050565b5f82601f8301126103fa576103f96102d7565b5b815161040a8482602086016103a5565b91505092915050565b5f819050919050565b61042581610413565b811461042f575f5ffd5b50565b5f815190506104408161041c565b92915050565b5f5f5f5f5f5f60c087890312156104605761045f610275565b5b5f61046d89828a016102c3565b965050602061047e89828a016102c3565b955050604061048f89828a016102c3565b945050606087015167ffffffffffffffff8111156104b0576104af610279565b5b6104bc89828a016103e6565b935050608087015167ffffffffffffffff8111156104dd576104dc610279565b5b6104e989828a016103e6565b92505060a06104fa89828a01610432565b9150509295509295509295565b6105108161029c565b82525050565b5f6020820190506105295f830184610507565b92915050565b5f81519050919050565b7f4e487b71000000000000000000000000000000000000000000000000000000005f52602260045260245ffd5b5f600282049050600182168061057d57607f821691505b6020821081036105905761058f610539565b5b50919050565b5f819050815f5260205f209050919050565b5f6020601f8301049050919050565b5f82821b905092915050565b5f600883026105f27fffffffffffffffffffffffffffffffffffffffffffffffffffffffffffffffff826105b7565b6105fc86836105b7565b95508019841693508086168417925050509392505050565b5f819050919050565b5f61063761063261062d84610413565b610614565b610413565b9050919050565b5f819050919050565b6106508361061d565b61066461065c8261063e565b8484546105c3565b825550505050565b5f5f905090565b61067b61066c565b610686818484610647565b505050565b5b818110156106a95761069e5f82610673565b60018101905061068c565b5050565b601f8211156106ee576106bf81610596565b6106c8846105a8565b810160208510156106d7578190505b6106eb6106e3856105a8565b83018261068b565b50505b505050565b5f82821c905092915050565b5f61070e5f19846008026106f3565b1980831691505092915050565b5f61072683836106ff565b9150826002028217905092915050565b61073f8261052f565b67ffffffffffffffff811115610758576107576102ef565b5b6107628254610566565b61076d8282856106ad565b5f60209050601f83116001811461079e575f841561078c578287015190505b610796858261071b565b8655506107fd565b601f1984166107ac86610596565b5f5b828110156107d3578489015182556001820191506020850194506020810190506107ae565b868310156107f057848901516107ec601f8916826106ff565b8355505b6001600288020188555050505b505050505050565b612db3806108125f395ff3fe608060405260043610610129575f3560e01c80637417040e116100aa578063bd313d781161006e578063bd313d781461038f578063c9b5773f146103ab578063d06abdd2146103d5578063f2c298be146103f1578063f2fde38b14610419578063f623d4171461044157610129565b80637417040e146102995780638da5cb5b146102c35780638e7ea5b2146102ed578063a74e573214610317578063b112cd881461035357610129565b806352a5f1f8116100f157806352a5f1f8146101d75780636347c900146101ff5780636f80f2751461023d578063715018a6146102595780637284e4161461026f57610129565b806326bec2de1461012d5780632d971e631461014357806335884e5a1461016d57806336c2d6de146101975780634e71d92d146101c1575b5f5ffd5b348015610138575f5ffd5b5061014161046b565b005b34801561014e575f5ffd5b5061015761054c565b60405161016491906118c9565b60405180910390f35b348015610178575f5ffd5b5061018161068a565b60405161018e9190611aa8565b60405180910390f35b3480156101a2575f5ffd5b506101ab6107d4565b6040516101b891906118c9565b60405180910390f35b3480156101cc575f5ffd5b506101d56107da565b005b3480156101e2575f5ffd5b506101fd60048036038101906101f89190611b73565b61088e565b005b34801561020a575f5ffd5b5061022560048036038101906102209190611bed565b610986565b60405161023493929190611c6f565b60405180910390f35b61025760048036038101906102529190611d0c565b610a60565b005b348015610264575f5ffd5b5061026d610c9b565b005b34801561027a575f5ffd5b50610283610cae565b6040516102909190611d57565b60405180910390f35b3480156102a4575f5ffd5b506102ad610d3a565b6040516102ba91906118c9565b60405180910390f35b3480156102ce575f5ffd5b506102d7610d40565b6040516102e49190611d77565b60405180910390f35b3480156102f8575f5ffd5b50610301610d67565b60405161030e9190611ddd565b60405180910390f35b348015610322575f5ffd5b5061033d60048036038101906103389190611dfd565b610f24565b60405161034a9190611e42565b60405180910390f35b34801561035e575f5ffd5b5061037960048036038101906103749190611e5b565b610f41565b6040516103869190611e42565b60405180910390f35b6103a960048036038101906103a49190611dfd565b610f5e565b005b3480156103b6575f5ffd5b506103bf611141565b6040516103cc9190611d57565b60405180910390f35b6103ef60048036038101906103ea9190611dfd565b6111cd565b005b3480156103fc575f5ffd5b5061041760048036038101906104129190611fae565b611437565b005b348015610424575f5ffd5b5061043f600480360381019061043a9190611e5b565b611623565b005b34801561044c575f5ffd5b506104556116a7565b60405161046291906118c9565b60405180910390f35b60015f9054906101000a900473ffffffffffffffffffffffffffffffffffffffff1673ffffffffffffffffffffffffffffffffffffffff1663be56745e336040518263ffffffff1660e01b81526004016104c59190611d77565b6020604051808303815f875af11580156104e1573d5f5f3e3d5ffd5b505050506040513d601f19601f82011682018060405250810190610505919061201f565b610544576040517f08c379a000000000000000000000000000000000000000000000000000000000815260040161053b90612094565b60405180910390fd5b5f6001905050565b5f60035f9054906101000a900473ffffffffffffffffffffffffffffffffffffffff1673ffffffffffffffffffffffffffffffffffffffff1663b88c914860035f9054906101000a900473ffffffffffffffffffffffffffffffffffffffff1673ffffffffffffffffffffffffffffffffffffffff166382ee990c6040518163ffffffff1660e01b8152600401602060405180830381865afa1580156105f4573d5f5f3e3d5ffd5b505050506040513d601f19601f8201168201806040525081019061061891906120c6565b6040518263ffffffff1660e01b81526004016106349190611d77565b602060405180830381865afa15801561064f573d5f5f3e3d5ffd5b505050506040513d601f19601f820116820180604052508101906106739190612136565b6fffffffffffffffffffffffffffffffff16905090565b6060600a805480602002602001604051908101604052809291908181526020015f905b828210156107cb578382905f5260205f2090600302016040518060600160405290815f8201548152602001600182015f9054906101000a900473ffffffffffffffffffffffffffffffffffffffff1673ffffffffffffffffffffffffffffffffffffffff1673ffffffffffffffffffffffffffffffffffffffff16815260200160028201805461073c9061218e565b80601f01602080910402602001604051908101604052809291908181526020018280546107689061218e565b80156107b35780601f1061078a576101008083540402835291602001916107b3565b820191905f5260205f20905b81548152906001019060200180831161079657829003601f168201915b505050505081525050815260200190600101906106ad565b50505050905090565b60065481565b3373ffffffffffffffffffffffffffffffffffffffff16600a60095481548110610807576108066121be565b5b905f5260205f2090600302016001015f9054906101000a900473ffffffffffffffffffffffffffffffffffffffff1673ffffffffffffffffffffffffffffffffffffffff161461088c576040517f08c379a00000000000000000000000000000000000000000000000000000000081526004016108839061225b565b60405180910390fd5b565b5f6108976116ad565b90505f73ffffffffffffffffffffffffffffffffffffffff168173ffffffffffffffffffffffffffffffffffffffff1603610907576040517f08c379a00000000000000000000000000000000000000000000000000000000081526004016108fe906122c3565b60405180910390fd5b8073ffffffffffffffffffffffffffffffffffffffff163373ffffffffffffffffffffffffffffffffffffffff1614610975576040517f08c379a000000000000000000000000000000000000000000000000000000000815260040161096c90612351565b60405180910390fd5b6109808484846116d5565b50505050565b600a8181548110610995575f80fd5b905f5260205f2090600302015f91509050805f015490806001015f9054906101000a900473ffffffffffffffffffffffffffffffffffffffff16908060020180546109df9061218e565b80601f0160208091040260200160405190810160405280929190818152602001828054610a0b9061218e565b8015610a565780601f10610a2d57610100808354040283529160200191610a56565b820191905f5260205f20905b815481529060010190602001808311610a3957829003601f168201915b5050505050905083565b5f60025f9054906101000a900473ffffffffffffffffffffffffffffffffffffffff1673ffffffffffffffffffffffffffffffffffffffff1663d47eed4584846040518363ffffffff1660e01b8152600401610abd9291906124c7565b602060405180830381865afa158015610ad8573d5f5f3e3d5ffd5b505050506040513d601f19601f82011682018060405250810190610afc91906124fd565b905060025f9054906101000a900473ffffffffffffffffffffffffffffffffffffffff1673ffffffffffffffffffffffffffffffffffffffff1663ef9e5e288285856040518463ffffffff1660e01b8152600401610b5b9291906124c7565b5f604051808303818588803b158015610b72575f5ffd5b505af1158015610b84573d5f5f3e3d5ffd5b50505050505f7fff61491a931112ddf1bd8147cd1b641375f79f5825126d665480874634fd0ace5f1b90505f60025f9054906101000a900473ffffffffffffffffffffffffffffffffffffffff1673ffffffffffffffffffffffffffffffffffffffff1663a4ae35e083603c6040518363ffffffff1660e01b8152600401610c0d929190612579565b608060405180830381865afa158015610c28573d5f5f3e3d5ffd5b505050506040513d601f19601f82011682018060405250810190610c4c9190612699565b90507f6868b56bbbc4c847be9aa8488a92e6fc784e19300474b0f2bbb1cd55bbc365bc815f015182602001518360600151604051610c8c939291906126e2565b60405180910390a15050505050565b610ca361172d565b610cac5f6117b4565b565b60058054610cbb9061218e565b80601f0160208091040260200160405190810160405280929190818152602001828054610ce79061218e565b8015610d325780601f10610d0957610100808354040283529160200191610d32565b820191905f5260205f20905b815481529060010190602001808311610d1557829003601f168201915b505050505081565b60085481565b5f5f5f9054906101000a900473ffffffffffffffffffffffffffffffffffffffff16905090565b610d6f61187c565b600754421115610db4576040517f08c379a0000000000000000000000000000000000000000000000000000000008152600401610dab90612761565b60405180910390fd5b5f60095411610df8576040517f08c379a0000000000000000000000000000000000000000000000000000000008152600401610def906127c9565b60405180910390fd5b600a6001600954610e099190612814565b81548110610e1a57610e196121be565b5b905f5260205f2090600302016040518060600160405290815f8201548152602001600182015f9054906101000a900473ffffffffffffffffffffffffffffffffffffffff1673ffffffffffffffffffffffffffffffffffffffff1673ffffffffffffffffffffffffffffffffffffffff168152602001600282018054610e9f9061218e565b80601f0160208091040260200160405190810160405280929190818152602001828054610ecb9061218e565b8015610f165780601f10610eed57610100808354040283529160200191610f16565b820191905f5260205f20905b815481529060010190602001808311610ef957829003601f168201915b505050505081525050905090565b600b602052805f5260405f205f915054906101000a900460ff1681565b600c602052805f5260405f205f915054906101000a900460ff1681565b5f60035f9054906101000a900473ffffffffffffffffffffffffffffffffffffffff1673ffffffffffffffffffffffffffffffffffffffff166382ee990c6040518163ffffffff1660e01b8152600401602060405180830381865afa158015610fc9573d5f5f3e3d5ffd5b505050506040513d601f19601f82011682018060405250810190610fed91906120c6565b90505f60035f9054906101000a900473ffffffffffffffffffffffffffffffffffffffff1673ffffffffffffffffffffffffffffffffffffffff1663b88c9148836040518263ffffffff1660e01b815260040161104a9190611d77565b602060405180830381865afa158015611065573d5f5f3e3d5ffd5b505050506040513d601f19601f820116820180604052508101906110899190612136565b6fffffffffffffffffffffffffffffffff16905060035f9054906101000a900473ffffffffffffffffffffffffffffffffffffffff1673ffffffffffffffffffffffffffffffffffffffff166319cb825f8284866040518463ffffffff1660e01b81526004016110fa929190612847565b60206040518083038185885af1158015611116573d5f5f3e3d5ffd5b50505050506040513d601f19601f8201168201806040525081019061113b919061286e565b50505050565b6004805461114e9061218e565b80601f016020809104026020016040519081016040528092919081815260200182805461117a9061218e565b80156111c55780601f1061119c576101008083540402835291602001916111c5565b820191905f5260205f20905b8154815290600101906020018083116111a857829003601f168201915b505050505081565b5f60085411611211576040517f08c379a0000000000000000000000000000000000000000000000000000000008152600401611208906128e3565b60405180910390fd5b5f60035f9054906101000a900473ffffffffffffffffffffffffffffffffffffffff1673ffffffffffffffffffffffffffffffffffffffff166382ee990c6040518163ffffffff1660e01b8152600401602060405180830381865afa15801561127c573d5f5f3e3d5ffd5b505050506040513d601f19601f820116820180604052508101906112a091906120c6565b90505f60035f9054906101000a900473ffffffffffffffffffffffffffffffffffffffff1673ffffffffffffffffffffffffffffffffffffffff1663b88c9148836040518263ffffffff1660e01b81526004016112fd9190611d77565b602060405180830381865afa158015611318573d5f5f3e3d5ffd5b505050506040513d601f19601f8201168201806040525081019061133c9190612136565b6fffffffffffffffffffffffffffffffff16905080341015611393576040517f08c379a000000000000000000000000000000000000000000000000000000000815260040161138a9061294b565b60405180910390fd5b60035f9054906101000a900473ffffffffffffffffffffffffffffffffffffffff1673ffffffffffffffffffffffffffffffffffffffff166319cb825f8284866040518463ffffffff1660e01b81526004016113f0929190612847565b60206040518083038185885af115801561140c573d5f5f3e3d5ffd5b50505050506040513d601f19601f82011682018060405250810190611431919061286e565b50505050565b5f8160405160200161144991906129a3565b6040516020818303038152906040528051906020012090505f1515600b5f8381526020019081526020015f205f9054906101000a900460ff161515146114c4576040517f08c379a00000000000000000000000000000000000000000000000000000000081526004016114bb90612a03565b60405180910390fd5b5f604051806060016040528060085481526020013373ffffffffffffffffffffffffffffffffffffffff16815260200184815250905060085f81548092919061150c90612a21565b9190505550600a81908060018154018082558091505060019003905f5260205f2090600302015f909190919091505f820151815f01556020820151816001015f6101000a81548173ffffffffffffffffffffffffffffffffffffffff021916908373ffffffffffffffffffffffffffffffffffffffff160217905550604082015181600201908161159d9190612bff565b5050506001600b5f8481526020019081526020015f205f6101000a81548160ff0219169083151502179055506001600c5f3373ffffffffffffffffffffffffffffffffffffffff1673ffffffffffffffffffffffffffffffffffffffff1681526020019081526020015f205f6101000a81548160ff021916908315150217905550505050565b61162b61172d565b5f73ffffffffffffffffffffffffffffffffffffffff168173ffffffffffffffffffffffffffffffffffffffff160361169b575f6040517f1e4fbdf70000000000000000000000000000000000000000000000000000000081526004016116929190611d77565b60405180910390fd5b6116a4816117b4565b50565b60075481565b5f60035f9054906101000a900473ffffffffffffffffffffffffffffffffffffffff16905090565b5f815f1c9050600854816116e99190612cfb565b6009819055507fae3f88d56af8ef248164ab259baacc4ff82c4a7192a027616cb6e1b474b182d8600160405161171f9190612d64565b60405180910390a150505050565b611735611875565b73ffffffffffffffffffffffffffffffffffffffff16611753610d40565b73ffffffffffffffffffffffffffffffffffffffff16146117b257611776611875565b6040517f118cdaa70000000000000000000000000000000000000000000000000000000081526004016117a99190611d77565b60405180910390fd5b565b5f5f5f9054906101000a900473ffffffffffffffffffffffffffffffffffffffff169050815f5f6101000a81548173ffffffffffffffffffffffffffffffffffffffff021916908373ffffffffffffffffffffffffffffffffffffffff1602179055508173ffffffffffffffffffffffffffffffffffffffff168173ffffffffffffffffffffffffffffffffffffffff167f8be0079c531659141344cd1fd0a4f28419497f9722a3daafe3b4186f6b6457e060405160405180910390a35050565b5f33905090565b60405180606001604052805f81526020015f73ffffffffffffffffffffffffffffffffffffffff168152602001606081525090565b5f819050919050565b6118c3816118b1565b82525050565b5f6020820190506118dc5f8301846118ba565b92915050565b5f81519050919050565b5f82825260208201905092915050565b5f819050602082019050919050565b611914816118b1565b82525050565b5f73ffffffffffffffffffffffffffffffffffffffff82169050919050565b5f6119438261191a565b9050919050565b61195381611939565b82525050565b5f81519050919050565b5f82825260208201905092915050565b8281835e5f83830152505050565b5f601f19601f8301169050919050565b5f61199b82611959565b6119a58185611963565b93506119b5818560208601611973565b6119be81611981565b840191505092915050565b5f606083015f8301516119de5f86018261190b565b5060208301516119f1602086018261194a565b5060408301518482036040860152611a098282611991565b9150508091505092915050565b5f611a2183836119c9565b905092915050565b5f602082019050919050565b5f611a3f826118e2565b611a4981856118ec565b935083602082028501611a5b856118fc565b805f5b85811015611a965784840389528151611a778582611a16565b9450611a8283611a29565b925060208a01995050600181019050611a5e565b50829750879550505050505092915050565b5f6020820190508181035f830152611ac08184611a35565b905092915050565b5f604051905090565b5f5ffd5b5f5ffd5b5f67ffffffffffffffff82169050919050565b611af581611ad9565b8114611aff575f5ffd5b50565b5f81359050611b1081611aec565b92915050565b611b1f81611939565b8114611b29575f5ffd5b50565b5f81359050611b3a81611b16565b92915050565b5f819050919050565b611b5281611b40565b8114611b5c575f5ffd5b50565b5f81359050611b6d81611b49565b92915050565b5f5f5f60608486031215611b8a57611b89611ad1565b5b5f611b9786828701611b02565b9350506020611ba886828701611b2c565b9250506040611bb986828701611b5f565b9150509250925092565b611bcc816118b1565b8114611bd6575f5ffd5b50565b5f81359050611be781611bc3565b92915050565b5f60208284031215611c0257611c01611ad1565b5b5f611c0f84828501611bd9565b91505092915050565b611c2181611939565b82525050565b5f82825260208201905092915050565b5f611c4182611959565b611c4b8185611c27565b9350611c5b818560208601611973565b611c6481611981565b840191505092915050565b5f606082019050611c825f8301866118ba565b611c8f6020830185611c18565b8181036040830152611ca18184611c37565b9050949350505050565b5f5ffd5b5f5ffd5b5f5ffd5b5f5f83601f840112611ccc57611ccb611cab565b5b8235905067ffffffffffffffff811115611ce957611ce8611caf565b5b602083019150836020820283011115611d0557611d04611cb3565b5b9250929050565b5f5f60208385031215611d2257611d21611ad1565b5b5f83013567ffffffffffffffff811115611d3f57611d3e611ad5565b5b611d4b85828601611cb7565b92509250509250929050565b5f6020820190508181035f830152611d6f8184611c37565b905092915050565b5f602082019050611d8a5f830184611c18565b92915050565b5f606083015f830151611da55f86018261190b565b506020830151611db8602086018261194a565b5060408301518482036040860152611dd08282611991565b9150508091505092915050565b5f6020820190508181035f830152611df58184611d90565b905092915050565b5f60208284031215611e1257611e11611ad1565b5b5f611e1f84828501611b5f565b91505092915050565b5f8115159050919050565b611e3c81611e28565b82525050565b5f602082019050611e555f830184611e33565b92915050565b5f60208284031215611e7057611e6f611ad1565b5b5f611e7d84828501611b2c565b91505092915050565b5f5ffd5b7f4e487b71000000000000000000000000000000000000000000000000000000005f52604160045260245ffd5b611ec082611981565b810181811067ffffffffffffffff82111715611edf57611ede611e8a565b5b80604052505050565b5f611ef1611ac8565b9050611efd8282611eb7565b919050565b5f67ffffffffffffffff821115611f1c57611f1b611e8a565b5b611f2582611981565b9050602081019050919050565b828183375f83830152505050565b5f611f52611f4d84611f02565b611ee8565b905082815260208101848484011115611f6e57611f6d611e86565b5b611f79848285611f32565b509392505050565b5f82601f830112611f9557611f94611cab565b5b8135611fa5848260208601611f40565b91505092915050565b5f60208284031215611fc357611fc2611ad1565b5b5f82013567ffffffffffffffff811115611fe057611fdf611ad5565b5b611fec84828501611f81565b91505092915050565b611ffe81611e28565b8114612008575f5ffd5b50565b5f8151905061201981611ff5565b92915050565b5f6020828403121561203457612033611ad1565b5b5f6120418482850161200b565b91505092915050565b7f4e4f545f564552494649455200000000000000000000000000000000000000005f82015250565b5f61207e600c83611c27565b91506120898261204a565b602082019050919050565b5f6020820190508181035f8301526120ab81612072565b9050919050565b5f815190506120c081611b16565b92915050565b5f602082840312156120db576120da611ad1565b5b5f6120e8848285016120b2565b91505092915050565b5f6fffffffffffffffffffffffffffffffff82169050919050565b612115816120f1565b811461211f575f5ffd5b50565b5f815190506121308161210c565b92915050565b5f6020828403121561214b5761214a611ad1565b5b5f61215884828501612122565b91505092915050565b7f4e487b71000000000000000000000000000000000000000000000000000000005f52602260045260245ffd5b5f60028204905060018216806121a557607f821691505b6020821081036121b8576121b7612161565b5b50919050565b7f4e487b71000000000000000000000000000000000000000000000000000000005f52603260045260245ffd5b7f596f7520617265206e6f74207468652077696e6e6572206f66207468697320635f8201527f6f6e74656e740000000000000000000000000000000000000000000000000000602082015250565b5f612245602683611c27565b9150612250826121eb565b604082019050919050565b5f6020820190508181035f83015261227281612239565b9050919050565b7f456e74726f70792061646472657373206e6f74207365740000000000000000005f82015250565b5f6122ad601783611c27565b91506122b882612279565b602082019050919050565b5f6020820190508181035f8301526122da816122a1565b9050919050565b7f4f6e6c7920456e74726f70792063616e2063616c6c20746869732066756e63745f8201527f696f6e0000000000000000000000000000000000000000000000000000000000602082015250565b5f61233b602383611c27565b9150612346826122e1565b604082019050919050565b5f6020820190508181035f8301526123688161232f565b9050919050565b5f82825260208201905092915050565b5f819050919050565b5f82825260208201905092915050565b5f6123a38385612388565b93506123b0838584611f32565b6123b983611981565b840190509392505050565b5f6123d0848484612398565b90509392505050565b5f5ffd5b5f5ffd5b5f5ffd5b5f5f83356001602003843603038112612401576124006123e1565b5b83810192508235915060208301925067ffffffffffffffff821115612429576124286123d9565b5b60018202360383131561243f5761243e6123dd565b5b509250929050565b5f602082019050919050565b5f61245e838561236f565b9350836020840285016124708461237f565b805f5b878110156124b557848403895261248a82846123e5565b6124958682846123c4565b95506124a084612447565b935060208b019a505050600181019050612473565b50829750879450505050509392505050565b5f6020820190508181035f8301526124e0818486612453565b90509392505050565b5f815190506124f781611bc3565b92915050565b5f6020828403121561251257612511611ad1565b5b5f61251f848285016124e9565b91505092915050565b61253181611b40565b82525050565b5f819050919050565b5f819050919050565b5f61256361255e61255984612537565b612540565b6118b1565b9050919050565b61257381612549565b82525050565b5f60408201905061258c5f830185612528565b612599602083018461256a565b9392505050565b5f5ffd5b5f8160070b9050919050565b6125b9816125a4565b81146125c3575f5ffd5b50565b5f815190506125d4816125b0565b92915050565b5f815190506125e881611aec565b92915050565b5f8160030b9050919050565b612603816125ee565b811461260d575f5ffd5b50565b5f8151905061261e816125fa565b92915050565b5f60808284031215612639576126386125a0565b5b6126436080611ee8565b90505f612652848285016125c6565b5f830152506020612665848285016125da565b602083015250604061267984828501612610565b604083015250606061268d848285016124e9565b60608301525092915050565b5f608082840312156126ae576126ad611ad1565b5b5f6126bb84828501612624565b91505092915050565b6126cd816125a4565b82525050565b6126dc81611ad9565b82525050565b5f6060820190506126f55f8301866126c4565b61270260208301856126d3565b61270f60408301846118ba565b949350505050565b7f436f6e74657374206973207374696c6c206f6e676f696e6700000000000000005f82015250565b5f61274b601883611c27565b915061275682612717565b602082019050919050565b5f6020820190508181035f8301526127788161273f565b9050919050565b7f57696e6e6572206e6f742063686f73656e2079657400000000000000000000005f82015250565b5f6127b3601583611c27565b91506127be8261277f565b602082019050919050565b5f6020820190508181035f8301526127e0816127a7565b9050919050565b7f4e487b71000000000000000000000000000000000000000000000000000000005f52601160045260245ffd5b5f61281e826118b1565b9150612829836118b1565b9250828203905081811115612841576128406127e7565b5b92915050565b5f60408201905061285a5f830185611c18565b6128676020830184612528565b9392505050565b5f6020828403121561288357612882611ad1565b5b5f612890848285016125da565b91505092915050565b7f4e6f207061727469636970616e747320726567697374657265640000000000005f82015250565b5f6128cd601a83611c27565b91506128d882612899565b602082019050919050565b5f6020820190508181035f8301526128fa816128c1565b9050919050565b7f6e6f7420656e6f756768206665657300000000000000000000000000000000005f82015250565b5f612935600f83611c27565b915061294082612901565b602082019050919050565b5f6020820190508181035f83015261296281612929565b9050919050565b5f81905092915050565b5f61297d82611959565b6129878185612969565b9350612997818560208601611973565b80840191505092915050565b5f6129ae8284612973565b915081905092915050565b7f48616e646c6520616c72656164792072656769737465726564000000000000005f82015250565b5f6129ed601983611c27565b91506129f8826129b9565b602082019050919050565b5f6020820190508181035f830152612a1a816129e1565b9050919050565b5f612a2b826118b1565b91507fffffffffffffffffffffffffffffffffffffffffffffffffffffffffffffffff8203612a5d57612a5c6127e7565b5b600182019050919050565b5f819050815f5260205f209050919050565b5f6020601f8301049050919050565b5f82821b905092915050565b5f60088302612ac47fffffffffffffffffffffffffffffffffffffffffffffffffffffffffffffffff82612a89565b612ace8683612a89565b95508019841693508086168417925050509392505050565b5f612b00612afb612af6846118b1565b612540565b6118b1565b9050919050565b5f819050919050565b612b1983612ae6565b612b2d612b2582612b07565b848454612a95565b825550505050565b5f5f905090565b612b44612b35565b612b4f818484612b10565b505050565b5b81811015612b7257612b675f82612b3c565b600181019050612b55565b5050565b601f821115612bb757612b8881612a68565b612b9184612a7a565b81016020851015612ba0578190505b612bb4612bac85612a7a565b830182612b54565b50505b505050565b5f82821c905092915050565b5f612bd75f1984600802612bbc565b1980831691505092915050565b5f612bef8383612bc8565b9150826002028217905092915050565b612c0882611959565b67ffffffffffffffff811115612c2157612c20611e8a565b5b612c2b825461218e565b612c36828285612b76565b5f60209050601f831160018114612c67575f8415612c55578287015190505b612c5f8582612be4565b865550612cc6565b601f198416612c7586612a68565b5f5b82811015612c9c57848901518255600182019150602085019450602081019050612c77565b86831015612cb95784890151612cb5601f891682612bc8565b8355505b6001600288020188555050505b505050505050565b7f4e487b71000000000000000000000000000000000000000000000000000000005f52601260045260245ffd5b5f612d05826118b1565b9150612d10836118b1565b925082612d2057612d1f612cce565b5b828206905092915050565b5f819050919050565b5f612d4e612d49612d4484612d2b565b612540565b6118b1565b9050919050565b612d5e81612d34565b82525050565b5f602082019050612d775f830184612d55565b9291505056fea264697066735822122006692d37b1945e4cedd7f6c3a31d11f55b213a2214e6cfc48f16e9bdc80482e264736f6c634300081d0033","linkReferences":{}},"methodIdentifiers":{"_entropyCallback(uint64,address,bytes32)":"52a5f1f8","alreadyRegistered(bytes32)":"a74e5732","claim()":"4e71d92d","description()":"7284e416","endContest(bytes32)":"d06abdd2","endTimeContest()":"f623d417","getETHPriceForUSD(bytes[])":"6f80f275","getEntropyFee()":"2d971e63","getRegistries()":"35884e5a","getWinner()":"8e7ea5b2","hasUserParticipated(address)":"b112cd88","joinContest()":"26bec2de","numberOfParticipants()":"7417040e","owner()":"8da5cb5b","register(string)":"f2c298be","registries(uint256)":"6347c900","renounceOwnership()":"715018a6","requestRandomNumber(bytes32)":"bd313d78","startTimeContest()":"36c2d6de","transferOwnership(address)":"f2fde38b","twitterStatusId()":"c9b5773f"},"id":0}