{"abi":[{"type":"constructor","inputs":[{"name":"entropyAddress","type":"address","internalType":"address"},{"name":"pythContract","type":"address","internalType":"address"},{"name":"_owner","type":"address","internalType":"address"},{"name":"_twitterStatusId","type":"string","internalType":"string"},{"name":"_description","type":"string","internalType":"string"},{"name":"_endTimeContest","type":"uint256","internalType":"uint256"}],"stateMutability":"nonpayable"},{"type":"function","name":"_entropyCallback","inputs":[{"name":"sequence","type":"uint64","internalType":"uint64"},{"name":"provider","type":"address","internalType":"address"},{"name":"randomNumber","type":"bytes32","internalType":"bytes32"}],"outputs":[],"stateMutability":"nonpayable"},{"type":"function","name":"alreadyRegistered","inputs":[{"name":"hashinBytes","type":"bytes32","internalType":"bytes32"}],"outputs":[{"name":"seen","type":"bool","internalType":"bool"}],"stateMutability":"view"},{"type":"function","name":"claim","inputs":[],"outputs":[],"stateMutability":"nonpayable"},{"type":"function","name":"description","inputs":[],"outputs":[{"name":"","type":"string","internalType":"string"}],"stateMutability":"view"},{"type":"function","name":"endContest","inputs":[{"name":"userRandomNumber","type":"bytes32","internalType":"bytes32"}],"outputs":[],"stateMutability":"payable"},{"type":"function","name":"endTimeContest","inputs":[],"outputs":[{"name":"","type":"uint256","internalType":"uint256"}],"stateMutability":"view"},{"type":"function","name":"getETHPriceForUSD","inputs":[{"name":"priceUpdate","type":"bytes[]","internalType":"bytes[]"}],"outputs":[],"stateMutability":"payable"},{"type":"function","name":"getEntropyFee","inputs":[{"name":"provider","type":"address","internalType":"address"}],"outputs":[{"name":"","type":"uint256","internalType":"uint256"}],"stateMutability":"view"},{"type":"function","name":"getEntropyProvider","inputs":[],"outputs":[{"name":"","type":"address","internalType":"address"}],"stateMutability":"view"},{"type":"function","name":"getRegistries","inputs":[],"outputs":[{"name":"","type":"tuple[]","internalType":"struct Contest.Registry[]","components":[{"name":"id","type":"uint256","internalType":"uint256"},{"name":"registryAddress","type":"address","internalType":"address"},{"name":"twitterHandle","type":"string","internalType":"string"}]}],"stateMutability":"view"},{"type":"function","name":"getWinner","inputs":[],"outputs":[{"name":"","type":"tuple","internalType":"struct Contest.Registry","components":[{"name":"id","type":"uint256","internalType":"uint256"},{"name":"registryAddress","type":"address","internalType":"address"},{"name":"twitterHandle","type":"string","internalType":"string"}]}],"stateMutability":"view"},{"type":"function","name":"hasUserParticipated","inputs":[{"name":"","type":"address","internalType":"address"}],"outputs":[{"name":"","type":"bool","internalType":"bool"}],"stateMutability":"view"},{"type":"function","name":"joinContest","inputs":[],"outputs":[],"stateMutability":"nonpayable"},{"type":"function","name":"numberOfParticipants","inputs":[],"outputs":[{"name":"","type":"uint256","internalType":"uint256"}],"stateMutability":"view"},{"type":"function","name":"owner","inputs":[],"outputs":[{"name":"","type":"address","internalType":"address"}],"stateMutability":"view"},{"type":"function","name":"register","inputs":[{"name":"handle","type":"string","internalType":"string"}],"outputs":[],"stateMutability":"nonpayable"},{"type":"function","name":"registries","inputs":[{"name":"","type":"uint256","internalType":"uint256"}],"outputs":[{"name":"id","type":"uint256","internalType":"uint256"},{"name":"registryAddress","type":"address","internalType":"address"},{"name":"twitterHandle","type":"string","internalType":"string"}],"stateMutability":"view"},{"type":"function","name":"renounceOwnership","inputs":[],"outputs":[],"stateMutability":"nonpayable"},{"type":"function","name":"startTimeContest","inputs":[],"outputs":[{"name":"","type":"uint256","internalType":"uint256"}],"stateMutability":"view"},{"type":"function","name":"transferOwnership","inputs":[{"name":"newOwner","type":"address","internalType":"address"}],"outputs":[],"stateMutability":"nonpayable"},{"type":"function","name":"twitterStatusId","inputs":[],"outputs":[{"name":"","type":"string","internalType":"string"}],"stateMutability":"view"},{"type":"event","name":"OwnershipTransferred","inputs":[{"name":"previousOwner","type":"address","indexed":true,"internalType":"address"},{"name":"newOwner","type":"address","indexed":true,"internalType":"address"}],"anonymous":false},{"type":"event","name":"PriceUpdated","inputs":[{"name":"price","type":"int64","indexed":false,"internalType":"int64"},{"name":"confidence","type":"uint64","indexed":false,"internalType":"uint64"},{"name":"publishTime","type":"uint256","indexed":false,"internalType":"uint256"}],"anonymous":false},{"type":"event","name":"WinnerChosen","inputs":[{"name":"winningNumber","type":"uint256","indexed":false,"internalType":"uint256"}],"anonymous":false},{"type":"error","name":"OwnableInvalidOwner","inputs":[{"name":"owner","type":"address","internalType":"address"}]},{"type":"error","name":"OwnableUnauthorizedAccount","inputs":[{"name":"account","type":"address","internalType":"address"}]}],"bytecode":{"object":"0x608060405234801561000f575f5ffd5b506040516135aa3803806135aa83398181016040528101906100319190610446565b835f73ffffffffffffffffffffffffffffffffffffffff168173ffffffffffffffffffffffffffffffffffffffff16036100a2575f6040517f1e4fbdf70000000000000000000000000000000000000000000000000000000081526004016100999190610516565b60405180910390fd5b6100b1816101ab60201b60201c565b503360015f6101000a81548173ffffffffffffffffffffffffffffffffffffffff021916908373ffffffffffffffffffffffffffffffffffffffff1602179055508560035f6101000a81548173ffffffffffffffffffffffffffffffffffffffff021916908373ffffffffffffffffffffffffffffffffffffffff1602179055508460025f6101000a81548173ffffffffffffffffffffffffffffffffffffffff021916908373ffffffffffffffffffffffffffffffffffffffff16021790555082600490816101819190610736565b5081600590816101919190610736565b504260068190555080600781905550505050505050610805565b5f5f5f9054906101000a900473ffffffffffffffffffffffffffffffffffffffff169050815f5f6101000a81548173ffffffffffffffffffffffffffffffffffffffff021916908373ffffffffffffffffffffffffffffffffffffffff1602179055508173ffffffffffffffffffffffffffffffffffffffff168173ffffffffffffffffffffffffffffffffffffffff167f8be0079c531659141344cd1fd0a4f28419497f9722a3daafe3b4186f6b6457e060405160405180910390a35050565b5f604051905090565b5f5ffd5b5f5ffd5b5f73ffffffffffffffffffffffffffffffffffffffff82169050919050565b5f6102a68261027d565b9050919050565b6102b68161029c565b81146102c0575f5ffd5b50565b5f815190506102d1816102ad565b92915050565b5f5ffd5b5f5ffd5b5f601f19601f8301169050919050565b7f4e487b71000000000000000000000000000000000000000000000000000000005f52604160045260245ffd5b610325826102df565b810181811067ffffffffffffffff82111715610344576103436102ef565b5b80604052505050565b5f61035661026c565b9050610362828261031c565b919050565b5f67ffffffffffffffff821115610381576103806102ef565b5b61038a826102df565b9050602081019050919050565b8281835e5f83830152505050565b5f6103b76103b284610367565b61034d565b9050828152602081018484840111156103d3576103d26102db565b5b6103de848285610397565b509392505050565b5f82601f8301126103fa576103f96102d7565b5b815161040a8482602086016103a5565b91505092915050565b5f819050919050565b61042581610413565b811461042f575f5ffd5b50565b5f815190506104408161041c565b92915050565b5f5f5f5f5f5f60c087890312156104605761045f610275565b5b5f61046d89828a016102c3565b965050602061047e89828a016102c3565b955050604061048f89828a016102c3565b945050606087015167ffffffffffffffff8111156104b0576104af610279565b5b6104bc89828a016103e6565b935050608087015167ffffffffffffffff8111156104dd576104dc610279565b5b6104e989828a016103e6565b92505060a06104fa89828a01610432565b9150509295509295509295565b6105108161029c565b82525050565b5f6020820190506105295f830184610507565b92915050565b5f81519050919050565b7f4e487b71000000000000000000000000000000000000000000000000000000005f52602260045260245ffd5b5f600282049050600182168061057d57607f821691505b6020821081036105905761058f610539565b5b50919050565b5f819050815f5260205f209050919050565b5f6020601f8301049050919050565b5f82821b905092915050565b5f600883026105f27fffffffffffffffffffffffffffffffffffffffffffffffffffffffffffffffff826105b7565b6105fc86836105b7565b95508019841693508086168417925050509392505050565b5f819050919050565b5f61063761063261062d84610413565b610614565b610413565b9050919050565b5f819050919050565b6106508361061d565b61066461065c8261063e565b8484546105c3565b825550505050565b5f5f905090565b61067b61066c565b610686818484610647565b505050565b5b818110156106a95761069e5f82610673565b60018101905061068c565b5050565b601f8211156106ee576106bf81610596565b6106c8846105a8565b810160208510156106d7578190505b6106eb6106e3856105a8565b83018261068b565b50505b505050565b5f82821c905092915050565b5f61070e5f19846008026106f3565b1980831691505092915050565b5f61072683836106ff565b9150826002028217905092915050565b61073f8261052f565b67ffffffffffffffff811115610758576107576102ef565b5b6107628254610566565b61076d8282856106ad565b5f60209050601f83116001811461079e575f841561078c578287015190505b610796858261071b565b8655506107fd565b601f1984166107ac86610596565b5f5b828110156107d3578489015182556001820191506020850194506020810190506107ae565b868310156107f057848901516107ec601f8916826106ff565b8355505b6001600288020188555050505b505050505050565b612d98806108125f395ff3fe608060405260043610610129575f3560e01c80638da5cb5b116100aa578063c9b5773f1161006e578063c9b5773f1461038f578063d06abdd2146103b9578063e15f616f146103d5578063f2c298be14610411578063f2fde38b14610439578063f623d4171461046157610129565b80638da5cb5b146102995780638e7ea5b2146102c3578063a74e5732146102ed578063ace59f4f14610329578063b112cd881461035357610129565b80636347c900116100f15780636347c900146101d55780636f80f27514610213578063715018a61461022f5780637284e416146102455780637417040e1461026f57610129565b806326bec2de1461012d57806335884e5a1461014357806336c2d6de1461016d5780634e71d92d1461019757806352a5f1f8146101ad575b5f5ffd5b348015610138575f5ffd5b5061014161048b565b005b34801561014e575f5ffd5b5061015761056c565b60405161016491906119e7565b60405180910390f35b348015610178575f5ffd5b506101816106b6565b60405161018e9190611a16565b60405180910390f35b3480156101a2575f5ffd5b506101ab6106bc565b005b3480156101b8575f5ffd5b506101d360048036038101906101ce9190611ada565b610770565b005b3480156101e0575f5ffd5b506101fb60048036038101906101f69190611b54565b610868565b60405161020a93929190611bd6565b60405180910390f35b61022d60048036038101906102289190611c73565b610942565b005b34801561023a575f5ffd5b50610243610b7d565b005b348015610250575f5ffd5b50610259610b90565b6040516102669190611cbe565b60405180910390f35b34801561027a575f5ffd5b50610283610c1c565b6040516102909190611a16565b60405180910390f35b3480156102a4575f5ffd5b506102ad610c22565b6040516102ba9190611cde565b60405180910390f35b3480156102ce575f5ffd5b506102d7610c49565b6040516102e49190611d44565b60405180910390f35b3480156102f8575f5ffd5b50610313600480360381019061030e9190611d64565b610e06565b6040516103209190611da9565b60405180910390f35b348015610334575f5ffd5b5061033d610e23565b60405161034a9190611cde565b60405180910390f35b34801561035e575f5ffd5b5061037960048036038101906103749190611dc2565b610eb7565b6040516103869190611da9565b60405180910390f35b34801561039a575f5ffd5b506103a3610ed4565b6040516103b09190611cbe565b60405180910390f35b6103d360048036038101906103ce9190611d64565b610f60565b005b3480156103e0575f5ffd5b506103fb60048036038101906103f69190611dc2565b6111cc565b6040516104089190611a16565b60405180910390f35b34801561041c575f5ffd5b5061043760048036038101906104329190611f15565b61127f565b005b348015610444575f5ffd5b5061045f600480360381019061045a9190611dc2565b611589565b005b34801561046c575f5ffd5b5061047561160d565b6040516104829190611a16565b60405180910390f35b60015f9054906101000a900473ffffffffffffffffffffffffffffffffffffffff1673ffffffffffffffffffffffffffffffffffffffff1663be56745e336040518263ffffffff1660e01b81526004016104e59190611cde565b6020604051808303815f875af1158015610501573d5f5f3e3d5ffd5b505050506040513d601f19601f820116820180604052508101906105259190611f86565b610564576040517f08c379a000000000000000000000000000000000000000000000000000000000815260040161055b90611ffb565b60405180910390fd5b5f6001905050565b6060600a805480602002602001604051908101604052809291908181526020015f905b828210156106ad578382905f5260205f2090600302016040518060600160405290815f8201548152602001600182015f9054906101000a900473ffffffffffffffffffffffffffffffffffffffff1673ffffffffffffffffffffffffffffffffffffffff1673ffffffffffffffffffffffffffffffffffffffff16815260200160028201805461061e90612046565b80601f016020809104026020016040519081016040528092919081815260200182805461064a90612046565b80156106955780601f1061066c57610100808354040283529160200191610695565b820191905f5260205f20905b81548152906001019060200180831161067857829003601f168201915b5050505050815250508152602001906001019061058f565b50505050905090565b60065481565b3373ffffffffffffffffffffffffffffffffffffffff16600a600954815481106106e9576106e8612076565b5b905f5260205f2090600302016001015f9054906101000a900473ffffffffffffffffffffffffffffffffffffffff1673ffffffffffffffffffffffffffffffffffffffff161461076e576040517f08c379a000000000000000000000000000000000000000000000000000000000815260040161076590612113565b60405180910390fd5b565b5f610779611613565b90505f73ffffffffffffffffffffffffffffffffffffffff168173ffffffffffffffffffffffffffffffffffffffff16036107e9576040517f08c379a00000000000000000000000000000000000000000000000000000000081526004016107e09061217b565b60405180910390fd5b8073ffffffffffffffffffffffffffffffffffffffff163373ffffffffffffffffffffffffffffffffffffffff1614610857576040517f08c379a000000000000000000000000000000000000000000000000000000000815260040161084e90612209565b60405180910390fd5b61086284848461163b565b50505050565b600a8181548110610877575f80fd5b905f5260205f2090600302015f91509050805f015490806001015f9054906101000a900473ffffffffffffffffffffffffffffffffffffffff16908060020180546108c190612046565b80601f01602080910402602001604051908101604052809291908181526020018280546108ed90612046565b80156109385780601f1061090f57610100808354040283529160200191610938565b820191905f5260205f20905b81548152906001019060200180831161091b57829003601f168201915b5050505050905083565b5f60025f9054906101000a900473ffffffffffffffffffffffffffffffffffffffff1673ffffffffffffffffffffffffffffffffffffffff1663d47eed4584846040518363ffffffff1660e01b815260040161099f92919061237f565b602060405180830381865afa1580156109ba573d5f5f3e3d5ffd5b505050506040513d601f19601f820116820180604052508101906109de91906123b5565b905060025f9054906101000a900473ffffffffffffffffffffffffffffffffffffffff1673ffffffffffffffffffffffffffffffffffffffff1663ef9e5e288285856040518463ffffffff1660e01b8152600401610a3d92919061237f565b5f604051808303818588803b158015610a54575f5ffd5b505af1158015610a66573d5f5f3e3d5ffd5b50505050505f7fff61491a931112ddf1bd8147cd1b641375f79f5825126d665480874634fd0ace5f1b90505f60025f9054906101000a900473ffffffffffffffffffffffffffffffffffffffff1673ffffffffffffffffffffffffffffffffffffffff1663a4ae35e083603c6040518363ffffffff1660e01b8152600401610aef929190612431565b608060405180830381865afa158015610b0a573d5f5f3e3d5ffd5b505050506040513d601f19601f82011682018060405250810190610b2e9190612551565b90507f6868b56bbbc4c847be9aa8488a92e6fc784e19300474b0f2bbb1cd55bbc365bc815f015182602001518360600151604051610b6e9392919061259a565b60405180910390a15050505050565b610b85611694565b610b8e5f61171b565b565b60058054610b9d90612046565b80601f0160208091040260200160405190810160405280929190818152602001828054610bc990612046565b8015610c145780601f10610beb57610100808354040283529160200191610c14565b820191905f5260205f20905b815481529060010190602001808311610bf757829003601f168201915b505050505081565b60085481565b5f5f5f9054906101000a900473ffffffffffffffffffffffffffffffffffffffff16905090565b610c516117e3565b600754421115610c96576040517f08c379a0000000000000000000000000000000000000000000000000000000008152600401610c8d90612619565b60405180910390fd5b5f60095411610cda576040517f08c379a0000000000000000000000000000000000000000000000000000000008152600401610cd190612681565b60405180910390fd5b600a6001600954610ceb91906126cc565b81548110610cfc57610cfb612076565b5b905f5260205f2090600302016040518060600160405290815f8201548152602001600182015f9054906101000a900473ffffffffffffffffffffffffffffffffffffffff1673ffffffffffffffffffffffffffffffffffffffff1673ffffffffffffffffffffffffffffffffffffffff168152602001600282018054610d8190612046565b80601f0160208091040260200160405190810160405280929190818152602001828054610dad90612046565b8015610df85780601f10610dcf57610100808354040283529160200191610df8565b820191905f5260205f20905b815481529060010190602001808311610ddb57829003601f168201915b505050505081525050905090565b600b602052805f5260405f205f915054906101000a900460ff1681565b5f60035f9054906101000a900473ffffffffffffffffffffffffffffffffffffffff1673ffffffffffffffffffffffffffffffffffffffff166382ee990c6040518163ffffffff1660e01b8152600401602060405180830381865afa158015610e8e573d5f5f3e3d5ffd5b505050506040513d601f19601f82011682018060405250810190610eb29190612713565b905090565b600c602052805f5260405f205f915054906101000a900460ff1681565b60048054610ee190612046565b80601f0160208091040260200160405190810160405280929190818152602001828054610f0d90612046565b8015610f585780601f10610f2f57610100808354040283529160200191610f58565b820191905f5260205f20905b815481529060010190602001808311610f3b57829003601f168201915b505050505081565b600754421015610fa5576040517f08c379a0000000000000000000000000000000000000000000000000000000008152600401610f9c90612788565b60405180910390fd5b5f60085411610fe9576040517f08c379a0000000000000000000000000000000000000000000000000000000008152600401610fe0906127f0565b60405180910390fd5b5f60035f9054906101000a900473ffffffffffffffffffffffffffffffffffffffff1673ffffffffffffffffffffffffffffffffffffffff166382ee990c6040518163ffffffff1660e01b8152600401602060405180830381865afa158015611054573d5f5f3e3d5ffd5b505050506040513d601f19601f820116820180604052508101906110789190612713565b90505f60035f9054906101000a900473ffffffffffffffffffffffffffffffffffffffff1673ffffffffffffffffffffffffffffffffffffffff1663b88c9148836040518263ffffffff1660e01b81526004016110d59190611cde565b602060405180830381865afa1580156110f0573d5f5f3e3d5ffd5b505050506040513d601f19601f820116820180604052508101906111149190612853565b6fffffffffffffffffffffffffffffffff16905060035f9054906101000a900473ffffffffffffffffffffffffffffffffffffffff1673ffffffffffffffffffffffffffffffffffffffff166319cb825f8284866040518463ffffffff1660e01b815260040161118592919061287e565b60206040518083038185885af11580156111a1573d5f5f3e3d5ffd5b50505050506040513d601f19601f820116820180604052508101906111c691906128a5565b50505050565b5f60035f9054906101000a900473ffffffffffffffffffffffffffffffffffffffff1673ffffffffffffffffffffffffffffffffffffffff1663b88c9148836040518263ffffffff1660e01b81526004016112279190611cde565b602060405180830381865afa158015611242573d5f5f3e3d5ffd5b505050506040513d601f19601f820116820180604052508101906112669190612853565b6fffffffffffffffffffffffffffffffff169050919050565b60015f9054906101000a900473ffffffffffffffffffffffffffffffffffffffff1673ffffffffffffffffffffffffffffffffffffffff1663be56745e336040518263ffffffff1660e01b81526004016112d99190611cde565b6020604051808303815f875af11580156112f5573d5f5f3e3d5ffd5b505050506040513d601f19601f820116820180604052508101906113199190611f86565b611358576040517f08c379a000000000000000000000000000000000000000000000000000000000815260040161134f9061291a565b60405180910390fd5b60075442111561139d576040517f08c379a000000000000000000000000000000000000000000000000000000000815260040161139490612982565b60405180910390fd5b5f816040516020016113af91906129da565b6040516020818303038152906040528051906020012090505f1515600b5f8381526020019081526020015f205f9054906101000a900460ff1615151461142a576040517f08c379a000000000000000000000000000000000000000000000000000000000815260040161142190612a3a565b60405180910390fd5b5f604051806060016040528060085481526020013373ffffffffffffffffffffffffffffffffffffffff16815260200184815250905060085f81548092919061147290612a58565b9190505550600a81908060018154018082558091505060019003905f5260205f2090600302015f909190919091505f820151815f01556020820151816001015f6101000a81548173ffffffffffffffffffffffffffffffffffffffff021916908373ffffffffffffffffffffffffffffffffffffffff16021790555060408201518160020190816115039190612c36565b5050506001600b5f8481526020019081526020015f205f6101000a81548160ff0219169083151502179055506001600c5f3373ffffffffffffffffffffffffffffffffffffffff1673ffffffffffffffffffffffffffffffffffffffff1681526020019081526020015f205f6101000a81548160ff021916908315150217905550505050565b611591611694565b5f73ffffffffffffffffffffffffffffffffffffffff168173ffffffffffffffffffffffffffffffffffffffff1603611601575f6040517f1e4fbdf70000000000000000000000000000000000000000000000000000000081526004016115f89190611cde565b60405180910390fd5b61160a8161171b565b50565b60075481565b5f60035f9054906101000a900473ffffffffffffffffffffffffffffffffffffffff16905090565b5f815f1c90506008548161164f9190612d32565b6009819055507fae3f88d56af8ef248164ab259baacc4ff82c4a7192a027616cb6e1b474b182d86009546040516116869190611a16565b60405180910390a150505050565b61169c6117dc565b73ffffffffffffffffffffffffffffffffffffffff166116ba610c22565b73ffffffffffffffffffffffffffffffffffffffff1614611719576116dd6117dc565b6040517f118cdaa70000000000000000000000000000000000000000000000000000000081526004016117109190611cde565b60405180910390fd5b565b5f5f5f9054906101000a900473ffffffffffffffffffffffffffffffffffffffff169050815f5f6101000a81548173ffffffffffffffffffffffffffffffffffffffff021916908373ffffffffffffffffffffffffffffffffffffffff1602179055508173ffffffffffffffffffffffffffffffffffffffff168173ffffffffffffffffffffffffffffffffffffffff167f8be0079c531659141344cd1fd0a4f28419497f9722a3daafe3b4186f6b6457e060405160405180910390a35050565b5f33905090565b60405180606001604052805f81526020015f73ffffffffffffffffffffffffffffffffffffffff168152602001606081525090565b5f81519050919050565b5f82825260208201905092915050565b5f819050602082019050919050565b5f819050919050565b61185381611841565b82525050565b5f73ffffffffffffffffffffffffffffffffffffffff82169050919050565b5f61188282611859565b9050919050565b61189281611878565b82525050565b5f81519050919050565b5f82825260208201905092915050565b8281835e5f83830152505050565b5f601f19601f8301169050919050565b5f6118da82611898565b6118e481856118a2565b93506118f48185602086016118b2565b6118fd816118c0565b840191505092915050565b5f606083015f83015161191d5f86018261184a565b5060208301516119306020860182611889565b506040830151848203604086015261194882826118d0565b9150508091505092915050565b5f6119608383611908565b905092915050565b5f602082019050919050565b5f61197e82611818565b6119888185611822565b93508360208202850161199a85611832565b805f5b858110156119d557848403895281516119b68582611955565b94506119c183611968565b925060208a0199505060018101905061199d565b50829750879550505050505092915050565b5f6020820190508181035f8301526119ff8184611974565b905092915050565b611a1081611841565b82525050565b5f602082019050611a295f830184611a07565b92915050565b5f604051905090565b5f5ffd5b5f5ffd5b5f67ffffffffffffffff82169050919050565b611a5c81611a40565b8114611a66575f5ffd5b50565b5f81359050611a7781611a53565b92915050565b611a8681611878565b8114611a90575f5ffd5b50565b5f81359050611aa181611a7d565b92915050565b5f819050919050565b611ab981611aa7565b8114611ac3575f5ffd5b50565b5f81359050611ad481611ab0565b92915050565b5f5f5f60608486031215611af157611af0611a38565b5b5f611afe86828701611a69565b9350506020611b0f86828701611a93565b9250506040611b2086828701611ac6565b9150509250925092565b611b3381611841565b8114611b3d575f5ffd5b50565b5f81359050611b4e81611b2a565b92915050565b5f60208284031215611b6957611b68611a38565b5b5f611b7684828501611b40565b91505092915050565b611b8881611878565b82525050565b5f82825260208201905092915050565b5f611ba882611898565b611bb28185611b8e565b9350611bc28185602086016118b2565b611bcb816118c0565b840191505092915050565b5f606082019050611be95f830186611a07565b611bf66020830185611b7f565b8181036040830152611c088184611b9e565b9050949350505050565b5f5ffd5b5f5ffd5b5f5ffd5b5f5f83601f840112611c3357611c32611c12565b5b8235905067ffffffffffffffff811115611c5057611c4f611c16565b5b602083019150836020820283011115611c6c57611c6b611c1a565b5b9250929050565b5f5f60208385031215611c8957611c88611a38565b5b5f83013567ffffffffffffffff811115611ca657611ca5611a3c565b5b611cb285828601611c1e565b92509250509250929050565b5f6020820190508181035f830152611cd68184611b9e565b905092915050565b5f602082019050611cf15f830184611b7f565b92915050565b5f606083015f830151611d0c5f86018261184a565b506020830151611d1f6020860182611889565b5060408301518482036040860152611d3782826118d0565b9150508091505092915050565b5f6020820190508181035f830152611d5c8184611cf7565b905092915050565b5f60208284031215611d7957611d78611a38565b5b5f611d8684828501611ac6565b91505092915050565b5f8115159050919050565b611da381611d8f565b82525050565b5f602082019050611dbc5f830184611d9a565b92915050565b5f60208284031215611dd757611dd6611a38565b5b5f611de484828501611a93565b91505092915050565b5f5ffd5b7f4e487b71000000000000000000000000000000000000000000000000000000005f52604160045260245ffd5b611e27826118c0565b810181811067ffffffffffffffff82111715611e4657611e45611df1565b5b80604052505050565b5f611e58611a2f565b9050611e648282611e1e565b919050565b5f67ffffffffffffffff821115611e8357611e82611df1565b5b611e8c826118c0565b9050602081019050919050565b828183375f83830152505050565b5f611eb9611eb484611e69565b611e4f565b905082815260208101848484011115611ed557611ed4611ded565b5b611ee0848285611e99565b509392505050565b5f82601f830112611efc57611efb611c12565b5b8135611f0c848260208601611ea7565b91505092915050565b5f60208284031215611f2a57611f29611a38565b5b5f82013567ffffffffffffffff811115611f4757611f46611a3c565b5b611f5384828501611ee8565b91505092915050565b611f6581611d8f565b8114611f6f575f5ffd5b50565b5f81519050611f8081611f5c565b92915050565b5f60208284031215611f9b57611f9a611a38565b5b5f611fa884828501611f72565b91505092915050565b7f4e4f545f564552494649455200000000000000000000000000000000000000005f82015250565b5f611fe5600c83611b8e565b9150611ff082611fb1565b602082019050919050565b5f6020820190508181035f83015261201281611fd9565b9050919050565b7f4e487b71000000000000000000000000000000000000000000000000000000005f52602260045260245ffd5b5f600282049050600182168061205d57607f821691505b6020821081036120705761206f612019565b5b50919050565b7f4e487b71000000000000000000000000000000000000000000000000000000005f52603260045260245ffd5b7f596f7520617265206e6f74207468652077696e6e6572206f66207468697320635f8201527f6f6e74656e740000000000000000000000000000000000000000000000000000602082015250565b5f6120fd602683611b8e565b9150612108826120a3565b604082019050919050565b5f6020820190508181035f83015261212a816120f1565b9050919050565b7f456e74726f70792061646472657373206e6f74207365740000000000000000005f82015250565b5f612165601783611b8e565b915061217082612131565b602082019050919050565b5f6020820190508181035f83015261219281612159565b9050919050565b7f4f6e6c7920456e74726f70792063616e2063616c6c20746869732066756e63745f8201527f696f6e0000000000000000000000000000000000000000000000000000000000602082015250565b5f6121f3602383611b8e565b91506121fe82612199565b604082019050919050565b5f6020820190508181035f830152612220816121e7565b9050919050565b5f82825260208201905092915050565b5f819050919050565b5f82825260208201905092915050565b5f61225b8385612240565b9350612268838584611e99565b612271836118c0565b840190509392505050565b5f612288848484612250565b90509392505050565b5f5ffd5b5f5ffd5b5f5ffd5b5f5f833560016020038436030381126122b9576122b8612299565b5b83810192508235915060208301925067ffffffffffffffff8211156122e1576122e0612291565b5b6001820236038313156122f7576122f6612295565b5b509250929050565b5f602082019050919050565b5f6123168385612227565b93508360208402850161232884612237565b805f5b8781101561236d578484038952612342828461229d565b61234d86828461227c565b9550612358846122ff565b935060208b019a50505060018101905061232b565b50829750879450505050509392505050565b5f6020820190508181035f83015261239881848661230b565b90509392505050565b5f815190506123af81611b2a565b92915050565b5f602082840312156123ca576123c9611a38565b5b5f6123d7848285016123a1565b91505092915050565b6123e981611aa7565b82525050565b5f819050919050565b5f819050919050565b5f61241b612416612411846123ef565b6123f8565b611841565b9050919050565b61242b81612401565b82525050565b5f6040820190506124445f8301856123e0565b6124516020830184612422565b9392505050565b5f5ffd5b5f8160070b9050919050565b6124718161245c565b811461247b575f5ffd5b50565b5f8151905061248c81612468565b92915050565b5f815190506124a081611a53565b92915050565b5f8160030b9050919050565b6124bb816124a6565b81146124c5575f5ffd5b50565b5f815190506124d6816124b2565b92915050565b5f608082840312156124f1576124f0612458565b5b6124fb6080611e4f565b90505f61250a8482850161247e565b5f83015250602061251d84828501612492565b6020830152506040612531848285016124c8565b6040830152506060612545848285016123a1565b60608301525092915050565b5f6080828403121561256657612565611a38565b5b5f612573848285016124dc565b91505092915050565b6125858161245c565b82525050565b61259481611a40565b82525050565b5f6060820190506125ad5f83018661257c565b6125ba602083018561258b565b6125c76040830184611a07565b949350505050565b7f436f6e74657374206973207374696c6c206f6e676f696e6700000000000000005f82015250565b5f612603601883611b8e565b915061260e826125cf565b602082019050919050565b5f6020820190508181035f830152612630816125f7565b9050919050565b7f57696e6e6572206e6f742063686f73656e2079657400000000000000000000005f82015250565b5f61266b601583611b8e565b915061267682612637565b602082019050919050565b5f6020820190508181035f8301526126988161265f565b9050919050565b7f4e487b71000000000000000000000000000000000000000000000000000000005f52601160045260245ffd5b5f6126d682611841565b91506126e183611841565b92508282039050818111156126f9576126f861269f565b5b92915050565b5f8151905061270d81611a7d565b92915050565b5f6020828403121561272857612727611a38565b5b5f612735848285016126ff565b91505092915050565b7f636f6e74657374206973207374696c6c206f6e676f696e6700000000000000005f82015250565b5f612772601883611b8e565b915061277d8261273e565b602082019050919050565b5f6020820190508181035f83015261279f81612766565b9050919050565b7f4e6f207061727469636970616e747320726567697374657265640000000000005f82015250565b5f6127da601a83611b8e565b91506127e5826127a6565b602082019050919050565b5f6020820190508181035f830152612807816127ce565b9050919050565b5f6fffffffffffffffffffffffffffffffff82169050919050565b6128328161280e565b811461283c575f5ffd5b50565b5f8151905061284d81612829565b92915050565b5f6020828403121561286857612867611a38565b5b5f6128758482850161283f565b91505092915050565b5f6040820190506128915f830185611b7f565b61289e60208301846123e0565b9392505050565b5f602082840312156128ba576128b9611a38565b5b5f6128c784828501612492565b91505092915050565b7f6e6f745f766572696669656400000000000000000000000000000000000000005f82015250565b5f612904600c83611b8e565b915061290f826128d0565b602082019050919050565b5f6020820190508181035f830152612931816128f8565b9050919050565b7f436f6e746573742068617320656e6465640000000000000000000000000000005f82015250565b5f61296c601183611b8e565b915061297782612938565b602082019050919050565b5f6020820190508181035f83015261299981612960565b9050919050565b5f81905092915050565b5f6129b482611898565b6129be81856129a0565b93506129ce8185602086016118b2565b80840191505092915050565b5f6129e582846129aa565b915081905092915050565b7f48616e646c6520616c72656164792072656769737465726564000000000000005f82015250565b5f612a24601983611b8e565b9150612a2f826129f0565b602082019050919050565b5f6020820190508181035f830152612a5181612a18565b9050919050565b5f612a6282611841565b91507fffffffffffffffffffffffffffffffffffffffffffffffffffffffffffffffff8203612a9457612a9361269f565b5b600182019050919050565b5f819050815f5260205f209050919050565b5f6020601f8301049050919050565b5f82821b905092915050565b5f60088302612afb7fffffffffffffffffffffffffffffffffffffffffffffffffffffffffffffffff82612ac0565b612b058683612ac0565b95508019841693508086168417925050509392505050565b5f612b37612b32612b2d84611841565b6123f8565b611841565b9050919050565b5f819050919050565b612b5083612b1d565b612b64612b5c82612b3e565b848454612acc565b825550505050565b5f5f905090565b612b7b612b6c565b612b86818484612b47565b505050565b5b81811015612ba957612b9e5f82612b73565b600181019050612b8c565b5050565b601f821115612bee57612bbf81612a9f565b612bc884612ab1565b81016020851015612bd7578190505b612beb612be385612ab1565b830182612b8b565b50505b505050565b5f82821c905092915050565b5f612c0e5f1984600802612bf3565b1980831691505092915050565b5f612c268383612bff565b9150826002028217905092915050565b612c3f82611898565b67ffffffffffffffff811115612c5857612c57611df1565b5b612c628254612046565b612c6d828285612bad565b5f60209050601f831160018114612c9e575f8415612c8c578287015190505b612c968582612c1b565b865550612cfd565b601f198416612cac86612a9f565b5f5b82811015612cd357848901518255600182019150602085019450602081019050612cae565b86831015612cf05784890151612cec601f891682612bff565b8355505b6001600288020188555050505b505050505050565b7f4e487b71000000000000000000000000000000000000000000000000000000005f52601260045260245ffd5b5f612d3c82611841565b9150612d4783611841565b925082612d5757612d56612d05565b5b82820690509291505056fea26469706673582212200fb121e1ebc59b71430ec269ebff158af938943012d90831ea2e67c8e652460864736f6c634300081d0033","linkReferences":{}},"methodIdentifiers":{"_entropyCallback(uint64,address,bytes32)":"52a5f1f8","alreadyRegistered(bytes32)":"a74e5732","claim()":"4e71d92d","description()":"7284e416","endContest(bytes32)":"d06abdd2","endTimeContest()":"f623d417","getETHPriceForUSD(bytes[])":"6f80f275","getEntropyFee(address)":"e15f616f","getEntropyProvider()":"ace59f4f","getRegistries()":"35884e5a","getWinner()":"8e7ea5b2","hasUserParticipated(address)":"b112cd88","joinContest()":"26bec2de","numberOfParticipants()":"7417040e","owner()":"8da5cb5b","register(string)":"f2c298be","registries(uint256)":"6347c900","renounceOwnership()":"715018a6","startTimeContest()":"36c2d6de","transferOwnership(address)":"f2fde38b","twitterStatusId()":"c9b5773f"},"id":0}