{
  "_format": "hh-sol-artifact-1",
  "contractName": "ContestFactory",
  "sourceName": "contracts/ContestFactory.sol",
  "abi": [
    {
      "inputs": [
        {
          "internalType": "address",
          "name": "_entropyAddress",
          "type": "address"
        },
        {
          "internalType": "address",
          "name": "_pythContract",
          "type": "address"
        }
      ],
      "stateMutability": "nonpayable",
      "type": "constructor"
    },
    {
      "inputs": [
        {
          "internalType": "uint256",
          "name": "_contestId",
          "type": "uint256"
        }
      ],
      "name": "contestAddress",
      "outputs": [
        {
          "internalType": "address",
          "name": "_contestAddress",
          "type": "address"
        }
      ],
      "stateMutability": "view",
      "type": "function"
    },
    {
      "inputs": [],
      "name": "contestId",
      "outputs": [
        {
          "internalType": "uint256",
          "name": "",
          "type": "uint256"
        }
      ],
      "stateMutability": "view",
      "type": "function"
    },
    {
      "inputs": [
        {
          "internalType": "string",
          "name": "_twitterStatusId",
          "type": "string"
        },
        {
          "internalType": "string",
          "name": "_description",
          "type": "string"
        },
        {
          "internalType": "uint256",
          "name": "_endTimeContest",
          "type": "uint256"
        }
      ],
      "name": "createNewContest",
      "outputs": [],
      "stateMutability": "nonpayable",
      "type": "function"
    }
  ],
  "bytecode": "0x608060405234801561001057600080fd5b50604051613df4380380613df48339818101604052810190610032919061011e565b81600260006101000a81548173ffffffffffffffffffffffffffffffffffffffff021916908373ffffffffffffffffffffffffffffffffffffffff16021790555080600360006101000a81548173ffffffffffffffffffffffffffffffffffffffff021916908373ffffffffffffffffffffffffffffffffffffffff160217905550505061015e565b600080fd5b600073ffffffffffffffffffffffffffffffffffffffff82169050919050565b60006100eb826100c0565b9050919050565b6100fb816100e0565b811461010657600080fd5b50565b600081519050610118816100f2565b92915050565b60008060408385031215610135576101346100bb565b5b600061014385828601610109565b925050602061015485828601610109565b9150509250929050565b613c878061016d6000396000f3fe608060405234801561001057600080fd5b50600436106100415760003560e01c8063b53e4d0b14610046578063ba38ec5614610062578063c61438ad14610092575b600080fd5b610060600480360381019061005b919061037d565b6100b0565b005b61007c60048036038101906100779190610408565b6101a7565b6040516100899190610476565b60405180910390f35b61009a6101da565b6040516100a791906104a0565b60405180910390f35b6000600260009054906101000a900473ffffffffffffffffffffffffffffffffffffffff16600360009054906101000a900473ffffffffffffffffffffffffffffffffffffffff1633868686604051610108906101e0565b6101179695949392919061053a565b604051809103906000f080158015610133573d6000803e3d6000fd5b50905080600080600154815260200190815260200160002060006101000a81548173ffffffffffffffffffffffffffffffffffffffff021916908373ffffffffffffffffffffffffffffffffffffffff1602179055506001600081548092919061019c906105d8565b919050555050505050565b60006020528060005260406000206000915054906101000a900473ffffffffffffffffffffffffffffffffffffffff1681565b60015481565b6136318061062183390190565b6000604051905090565b600080fd5b600080fd5b600080fd5b600080fd5b6000601f19601f8301169050919050565b7f4e487b7100000000000000000000000000000000000000000000000000000000600052604160045260246000fd5b6102548261020b565b810181811067ffffffffffffffff821117156102735761027261021c565b5b80604052505050565b60006102866101ed565b9050610292828261024b565b919050565b600067ffffffffffffffff8211156102b2576102b161021c565b5b6102bb8261020b565b9050602081019050919050565b82818337600083830152505050565b60006102ea6102e584610297565b61027c565b90508281526020810184848401111561030657610305610206565b5b6103118482856102c8565b509392505050565b600082601f83011261032e5761032d610201565b5b813561033e8482602086016102d7565b91505092915050565b6000819050919050565b61035a81610347565b811461036557600080fd5b50565b60008135905061037781610351565b92915050565b600080600060608486031215610396576103956101f7565b5b600084013567ffffffffffffffff8111156103b4576103b36101fc565b5b6103c086828701610319565b935050602084013567ffffffffffffffff8111156103e1576103e06101fc565b5b6103ed86828701610319565b92505060406103fe86828701610368565b9150509250925092565b60006020828403121561041e5761041d6101f7565b5b600061042c84828501610368565b91505092915050565b600073ffffffffffffffffffffffffffffffffffffffff82169050919050565b600061046082610435565b9050919050565b61047081610455565b82525050565b600060208201905061048b6000830184610467565b92915050565b61049a81610347565b82525050565b60006020820190506104b56000830184610491565b92915050565b600081519050919050565b600082825260208201905092915050565b60005b838110156104f55780820151818401526020810190506104da565b60008484015250505050565b600061050c826104bb565b61051681856104c6565b93506105268185602086016104d7565b61052f8161020b565b840191505092915050565b600060c08201905061054f6000830189610467565b61055c6020830188610467565b6105696040830187610467565b818103606083015261057b8186610501565b9050818103608083015261058f8185610501565b905061059e60a0830184610491565b979650505050505050565b7f4e487b7100000000000000000000000000000000000000000000000000000000600052601160045260246000fd5b60006105e382610347565b91507fffffffffffffffffffffffffffffffffffffffffffffffffffffffffffffffff8203610615576106146105a9565b5b60018201905091905056fe608060405234801561001057600080fd5b506040516136313803806136318339818101604052810190610032919061043d565b83600073ffffffffffffffffffffffffffffffffffffffff168173ffffffffffffffffffffffffffffffffffffffff16036100a55760006040517f1e4fbdf700000000000000000000000000000000000000000000000000000000815260040161009c9190610511565b60405180910390fd5b6100b48161017060201b60201c565b5085600260006101000a81548173ffffffffffffffffffffffffffffffffffffffff021916908373ffffffffffffffffffffffffffffffffffffffff16021790555084600160006101000a81548173ffffffffffffffffffffffffffffffffffffffff021916908373ffffffffffffffffffffffffffffffffffffffff16021790555082600390816101469190610743565b5081600490816101569190610743565b504260058190555080600681905550505050505050610815565b60008060009054906101000a900473ffffffffffffffffffffffffffffffffffffffff169050816000806101000a81548173ffffffffffffffffffffffffffffffffffffffff021916908373ffffffffffffffffffffffffffffffffffffffff1602179055508173ffffffffffffffffffffffffffffffffffffffff168173ffffffffffffffffffffffffffffffffffffffff167f8be0079c531659141344cd1fd0a4f28419497f9722a3daafe3b4186f6b6457e060405160405180910390a35050565b6000604051905090565b600080fd5b600080fd5b600073ffffffffffffffffffffffffffffffffffffffff82169050919050565b600061027382610248565b9050919050565b61028381610268565b811461028e57600080fd5b50565b6000815190506102a08161027a565b92915050565b600080fd5b600080fd5b6000601f19601f8301169050919050565b7f4e487b7100000000000000000000000000000000000000000000000000000000600052604160045260246000fd5b6102f9826102b0565b810181811067ffffffffffffffff82111715610318576103176102c1565b5b80604052505050565b600061032b610234565b905061033782826102f0565b919050565b600067ffffffffffffffff821115610357576103566102c1565b5b610360826102b0565b9050602081019050919050565b60005b8381101561038b578082015181840152602081019050610370565b60008484015250505050565b60006103aa6103a58461033c565b610321565b9050828152602081018484840111156103c6576103c56102ab565b5b6103d184828561036d565b509392505050565b600082601f8301126103ee576103ed6102a6565b5b81516103fe848260208601610397565b91505092915050565b6000819050919050565b61041a81610407565b811461042557600080fd5b50565b60008151905061043781610411565b92915050565b60008060008060008060c0878903121561045a5761045961023e565b5b600061046889828a01610291565b965050602061047989828a01610291565b955050604061048a89828a01610291565b945050606087015167ffffffffffffffff8111156104ab576104aa610243565b5b6104b789828a016103d9565b935050608087015167ffffffffffffffff8111156104d8576104d7610243565b5b6104e489828a016103d9565b92505060a06104f589828a01610428565b9150509295509295509295565b61050b81610268565b82525050565b60006020820190506105266000830184610502565b92915050565b600081519050919050565b7f4e487b7100000000000000000000000000000000000000000000000000000000600052602260045260246000fd5b6000600282049050600182168061057e57607f821691505b60208210810361059157610590610537565b5b50919050565b60008190508160005260206000209050919050565b60006020601f8301049050919050565b600082821b905092915050565b6000600883026105f97fffffffffffffffffffffffffffffffffffffffffffffffffffffffffffffffff826105bc565b61060386836105bc565b95508019841693508086168417925050509392505050565b6000819050919050565b600061064061063b61063684610407565b61061b565b610407565b9050919050565b6000819050919050565b61065a83610625565b61066e61066682610647565b8484546105c9565b825550505050565b600090565b610683610676565b61068e818484610651565b505050565b5b818110156106b2576106a760008261067b565b600181019050610694565b5050565b601f8211156106f7576106c881610597565b6106d1846105ac565b810160208510156106e0578190505b6106f46106ec856105ac565b830182610693565b50505b505050565b600082821c905092915050565b600061071a600019846008026106fc565b1980831691505092915050565b60006107338383610709565b9150826002028217905092915050565b61074c8261052c565b67ffffffffffffffff811115610765576107646102c1565b5b61076f8254610566565b61077a8282856106b6565b600060209050601f8311600181146107ad576000841561079b578287015190505b6107a58582610727565b86555061080d565b601f1984166107bb86610597565b60005b828110156107e3578489015182556001820191506020850194506020810190506107be565b8683101561080057848901516107fc601f891682610709565b8355505b6001600288020188555050505b505050505050565b612e0d806108246000396000f3fe60806040526004361061012a5760003560e01c8063a74e5732116100ab578063d06abdd21161006f578063d06abdd2146103b3578063e0c297c3146103cf578063e15f616f146103eb578063f2c298be14610428578063f2fde38b14610451578063f623d4171461047a5761012a565b8063a74e5732146102c7578063ace59f4f14610304578063b112cd881461032f578063bd313d781461036c578063c9b5773f146103885761012a565b8063715018a6116100f2578063715018a6146102045780637284e4161461021b5780637417040e146102465780638da5cb5b146102715780638e7ea5b21461029c5761012a565b806335884e5a1461012f57806336c2d6de1461015a5780634e71d92d1461018557806352a5f1f81461019c5780636347c900146101c5575b600080fd5b34801561013b57600080fd5b506101446104a5565b6040516101519190611ad5565b60405180910390f35b34801561016657600080fd5b5061016f6105f6565b60405161017c9190611b06565b60405180910390f35b34801561019157600080fd5b5061019a6105fc565b005b3480156101a857600080fd5b506101c360048036038101906101be9190611bd7565b6106b3565b005b3480156101d157600080fd5b506101ec60048036038101906101e79190611c56565b6107ad565b6040516101fb93929190611cdc565b60405180910390f35b34801561021057600080fd5b5061021961088f565b005b34801561022757600080fd5b506102306108a3565b60405161023d9190611d1a565b60405180910390f35b34801561025257600080fd5b5061025b610931565b6040516102689190611b06565b60405180910390f35b34801561027d57600080fd5b50610286610937565b6040516102939190611d3c565b60405180910390f35b3480156102a857600080fd5b506102b1610960565b6040516102be9190611da7565b60405180910390f35b3480156102d357600080fd5b506102ee60048036038101906102e99190611dc9565b610b24565b6040516102fb9190611e11565b60405180910390f35b34801561031057600080fd5b50610319610b44565b6040516103269190611d3c565b60405180910390f35b34801561033b57600080fd5b5061035660048036038101906103519190611e2c565b610bdc565b6040516103639190611e11565b60405180910390f35b61038660048036038101906103819190611dc9565b610bfc565b005b34801561039457600080fd5b5061039d610dee565b6040516103aa9190611d1a565b60405180910390f35b6103cd60048036038101906103c89190611dc9565b610e7c565b005b6103e960048036038101906103e49190611ebe565b6110f8565b005b3480156103f757600080fd5b50610412600480360381019061040d9190611e2c565b611343565b60405161041f9190611b06565b60405180910390f35b34801561043457600080fd5b5061044f600480360381019061044a919061203b565b6113fa565b005b34801561045d57600080fd5b5061047860048036038101906104739190611e2c565b61163e565b005b34801561048657600080fd5b5061048f6116c4565b60405161049c9190611b06565b60405180910390f35b60606009805480602002602001604051908101604052809291908181526020016000905b828210156105ed5783829060005260206000209060030201604051806060016040529081600082015481526020016001820160009054906101000a900473ffffffffffffffffffffffffffffffffffffffff1673ffffffffffffffffffffffffffffffffffffffff1673ffffffffffffffffffffffffffffffffffffffff16815260200160028201805461055c906120b3565b80601f0160208091040260200160405190810160405280929190818152602001828054610588906120b3565b80156105d55780601f106105aa576101008083540402835291602001916105d5565b820191906000526020600020905b8154815290600101906020018083116105b857829003601f168201915b505050505081525050815260200190600101906104c9565b50505050905090565b60055481565b3373ffffffffffffffffffffffffffffffffffffffff16600960085481548110610629576106286120e4565b5b906000526020600020906003020160010160009054906101000a900473ffffffffffffffffffffffffffffffffffffffff1673ffffffffffffffffffffffffffffffffffffffff16146106b1576040517f08c379a00000000000000000000000000000000000000000000000000000000081526004016106a890612185565b60405180910390fd5b565b60006106bd6116ca565b9050600073ffffffffffffffffffffffffffffffffffffffff168173ffffffffffffffffffffffffffffffffffffffff160361072e576040517f08c379a0000000000000000000000000000000000000000000000000000000008152600401610725906121f1565b60405180910390fd5b8073ffffffffffffffffffffffffffffffffffffffff163373ffffffffffffffffffffffffffffffffffffffff161461079c576040517f08c379a000000000000000000000000000000000000000000000000000000000815260040161079390612283565b60405180910390fd5b6107a78484846116f4565b50505050565b600981815481106107bd57600080fd5b90600052602060002090600302016000915090508060000154908060010160009054906101000a900473ffffffffffffffffffffffffffffffffffffffff169080600201805461080c906120b3565b80601f0160208091040260200160405190810160405280929190818152602001828054610838906120b3565b80156108855780601f1061085a57610100808354040283529160200191610885565b820191906000526020600020905b81548152906001019060200180831161086857829003601f168201915b5050505050905083565b61089761174f565b6108a160006117d6565b565b600480546108b0906120b3565b80601f01602080910402602001604051908101604052809291908181526020018280546108dc906120b3565b80156109295780601f106108fe57610100808354040283529160200191610929565b820191906000526020600020905b81548152906001019060200180831161090c57829003601f168201915b505050505081565b60075481565b60008060009054906101000a900473ffffffffffffffffffffffffffffffffffffffff16905090565b6109686118a2565b6006544211156109ad576040517f08c379a00000000000000000000000000000000000000000000000000000000081526004016109a4906122ef565b60405180910390fd5b6000600854116109f2576040517f08c379a00000000000000000000000000000000000000000000000000000000081526004016109e99061235b565b60405180910390fd5b60096001600854610a0391906123aa565b81548110610a1457610a136120e4565b5b9060005260206000209060030201604051806060016040529081600082015481526020016001820160009054906101000a900473ffffffffffffffffffffffffffffffffffffffff1673ffffffffffffffffffffffffffffffffffffffff1673ffffffffffffffffffffffffffffffffffffffff168152602001600282018054610a9d906120b3565b80601f0160208091040260200160405190810160405280929190818152602001828054610ac9906120b3565b8015610b165780601f10610aeb57610100808354040283529160200191610b16565b820191906000526020600020905b815481529060010190602001808311610af957829003601f168201915b505050505081525050905090565b600a6020528060005260406000206000915054906101000a900460ff1681565b6000600260009054906101000a900473ffffffffffffffffffffffffffffffffffffffff1673ffffffffffffffffffffffffffffffffffffffff166382ee990c6040518163ffffffff1660e01b8152600401602060405180830381865afa158015610bb3573d6000803e3d6000fd5b505050506040513d601f19601f82011682018060405250810190610bd791906123f3565b905090565b600b6020528060005260406000206000915054906101000a900460ff1681565b6000600260009054906101000a900473ffffffffffffffffffffffffffffffffffffffff1673ffffffffffffffffffffffffffffffffffffffff166382ee990c6040518163ffffffff1660e01b8152600401602060405180830381865afa158015610c6b573d6000803e3d6000fd5b505050506040513d601f19601f82011682018060405250810190610c8f91906123f3565b90506000600260009054906101000a900473ffffffffffffffffffffffffffffffffffffffff1673ffffffffffffffffffffffffffffffffffffffff1663b88c9148836040518263ffffffff1660e01b8152600401610cee9190611d3c565b602060405180830381865afa158015610d0b573d6000803e3d6000fd5b505050506040513d601f19601f82011682018060405250810190610d2f9190612468565b6fffffffffffffffffffffffffffffffff1690506000600260009054906101000a900473ffffffffffffffffffffffffffffffffffffffff1673ffffffffffffffffffffffffffffffffffffffff166319cb825f8385876040518463ffffffff1660e01b8152600401610da39291906124a4565b60206040518083038185885af1158015610dc1573d6000803e3d6000fd5b50505050506040513d601f19601f82011682018060405250810190610de691906124e2565b905050505050565b60038054610dfb906120b3565b80601f0160208091040260200160405190810160405280929190818152602001828054610e27906120b3565b8015610e745780601f10610e4957610100808354040283529160200191610e74565b820191906000526020600020905b815481529060010190602001808311610e5757829003601f168201915b505050505081565b600654421015610ec1576040517f08c379a0000000000000000000000000000000000000000000000000000000008152600401610eb89061255b565b60405180910390fd5b600060075411610f06576040517f08c379a0000000000000000000000000000000000000000000000000000000008152600401610efd906125c7565b60405180910390fd5b6000600260009054906101000a900473ffffffffffffffffffffffffffffffffffffffff1673ffffffffffffffffffffffffffffffffffffffff166382ee990c6040518163ffffffff1660e01b8152600401602060405180830381865afa158015610f75573d6000803e3d6000fd5b505050506040513d601f19601f82011682018060405250810190610f9991906123f3565b90506000600260009054906101000a900473ffffffffffffffffffffffffffffffffffffffff1673ffffffffffffffffffffffffffffffffffffffff1663b88c9148836040518263ffffffff1660e01b8152600401610ff89190611d3c565b602060405180830381865afa158015611015573d6000803e3d6000fd5b505050506040513d601f19601f820116820180604052508101906110399190612468565b6fffffffffffffffffffffffffffffffff1690506000600260009054906101000a900473ffffffffffffffffffffffffffffffffffffffff1673ffffffffffffffffffffffffffffffffffffffff166319cb825f8385876040518463ffffffff1660e01b81526004016110ad9291906124a4565b60206040518083038185885af11580156110cb573d6000803e3d6000fd5b50505050506040513d601f19601f820116820180604052508101906110f091906124e2565b905050505050565b6000600160009054906101000a900473ffffffffffffffffffffffffffffffffffffffff1673ffffffffffffffffffffffffffffffffffffffff1663d47eed4584846040518363ffffffff1660e01b815260040161115792919061274b565b602060405180830381865afa158015611174573d6000803e3d6000fd5b505050506040513d601f19601f820116820180604052508101906111989190612784565b9050600160009054906101000a900473ffffffffffffffffffffffffffffffffffffffff1673ffffffffffffffffffffffffffffffffffffffff1663ef9e5e288285856040518463ffffffff1660e01b81526004016111f892919061274b565b6000604051808303818588803b15801561121157600080fd5b505af1158015611225573d6000803e3d6000fd5b505050505060007fff61491a931112ddf1bd8147cd1b641375f79f5825126d665480874634fd0ace60001b90506000600160009054906101000a900473ffffffffffffffffffffffffffffffffffffffff1673ffffffffffffffffffffffffffffffffffffffff1663a4ae35e083603c6040518363ffffffff1660e01b81526004016112b29291906127f6565b608060405180830381865afa1580156112cf573d6000803e3d6000fd5b505050506040513d601f19601f820116820180604052508101906112f3919061290e565b90507f6868b56bbbc4c847be9aa8488a92e6fc784e19300474b0f2bbb1cd55bbc365bc81600001518260200151836060015160405161133493929190612959565b60405180910390a15050505050565b6000600260009054906101000a900473ffffffffffffffffffffffffffffffffffffffff1673ffffffffffffffffffffffffffffffffffffffff1663b88c9148836040518263ffffffff1660e01b81526004016113a09190611d3c565b602060405180830381865afa1580156113bd573d6000803e3d6000fd5b505050506040513d601f19601f820116820180604052508101906113e19190612468565b6fffffffffffffffffffffffffffffffff169050919050565b60065442111561143f576040517f08c379a0000000000000000000000000000000000000000000000000000000008152600401611436906129dc565b60405180910390fd5b6000816040516020016114529190612a38565b60405160208183030381529060405280519060200120905060001515600a600083815260200190815260200160002060009054906101000a900460ff161515146114d1576040517f08c379a00000000000000000000000000000000000000000000000000000000081526004016114c890612a9b565b60405180910390fd5b6000604051806060016040528060075481526020013373ffffffffffffffffffffffffffffffffffffffff1681526020018481525090506007600081548092919061151b90612abb565b919050555060098190806001815401808255809150506001900390600052602060002090600302016000909190919091506000820151816000015560208201518160010160006101000a81548173ffffffffffffffffffffffffffffffffffffffff021916908373ffffffffffffffffffffffffffffffffffffffff16021790555060408201518160020190816115b29190612ca5565b5050506001600a600084815260200190815260200160002060006101000a81548160ff0219169083151502179055506001600b60003373ffffffffffffffffffffffffffffffffffffffff1673ffffffffffffffffffffffffffffffffffffffff16815260200190815260200160002060006101000a81548160ff021916908315150217905550505050565b61164661174f565b600073ffffffffffffffffffffffffffffffffffffffff168173ffffffffffffffffffffffffffffffffffffffff16036116b85760006040517f1e4fbdf70000000000000000000000000000000000000000000000000000000081526004016116af9190611d3c565b60405180910390fd5b6116c1816117d6565b50565b60065481565b6000600260009054906101000a900473ffffffffffffffffffffffffffffffffffffffff16905090565b60008160001c90506007548161170a9190612da6565b6008819055507fae3f88d56af8ef248164ab259baacc4ff82c4a7192a027616cb6e1b474b182d86008546040516117419190611b06565b60405180910390a150505050565b61175761189a565b73ffffffffffffffffffffffffffffffffffffffff16611775610937565b73ffffffffffffffffffffffffffffffffffffffff16146117d45761179861189a565b6040517f118cdaa70000000000000000000000000000000000000000000000000000000081526004016117cb9190611d3c565b60405180910390fd5b565b60008060009054906101000a900473ffffffffffffffffffffffffffffffffffffffff169050816000806101000a81548173ffffffffffffffffffffffffffffffffffffffff021916908373ffffffffffffffffffffffffffffffffffffffff1602179055508173ffffffffffffffffffffffffffffffffffffffff168173ffffffffffffffffffffffffffffffffffffffff167f8be0079c531659141344cd1fd0a4f28419497f9722a3daafe3b4186f6b6457e060405160405180910390a35050565b600033905090565b604051806060016040528060008152602001600073ffffffffffffffffffffffffffffffffffffffff168152602001606081525090565b600081519050919050565b600082825260208201905092915050565b6000819050602082019050919050565b6000819050919050565b61191881611905565b82525050565b600073ffffffffffffffffffffffffffffffffffffffff82169050919050565b60006119498261191e565b9050919050565b6119598161193e565b82525050565b600081519050919050565b600082825260208201905092915050565b60005b8381101561199957808201518184015260208101905061197e565b60008484015250505050565b6000601f19601f8301169050919050565b60006119c18261195f565b6119cb818561196a565b93506119db81856020860161197b565b6119e4816119a5565b840191505092915050565b6000606083016000830151611a07600086018261190f565b506020830151611a1a6020860182611950565b5060408301518482036040860152611a3282826119b6565b9150508091505092915050565b6000611a4b83836119ef565b905092915050565b6000602082019050919050565b6000611a6b826118d9565b611a7581856118e4565b935083602082028501611a87856118f5565b8060005b85811015611ac35784840389528151611aa48582611a3f565b9450611aaf83611a53565b925060208a01995050600181019050611a8b565b50829750879550505050505092915050565b60006020820190508181036000830152611aef8184611a60565b905092915050565b611b0081611905565b82525050565b6000602082019050611b1b6000830184611af7565b92915050565b6000604051905090565b600080fd5b600080fd5b600067ffffffffffffffff82169050919050565b611b5281611b35565b8114611b5d57600080fd5b50565b600081359050611b6f81611b49565b92915050565b611b7e8161193e565b8114611b8957600080fd5b50565b600081359050611b9b81611b75565b92915050565b6000819050919050565b611bb481611ba1565b8114611bbf57600080fd5b50565b600081359050611bd181611bab565b92915050565b600080600060608486031215611bf057611bef611b2b565b5b6000611bfe86828701611b60565b9350506020611c0f86828701611b8c565b9250506040611c2086828701611bc2565b9150509250925092565b611c3381611905565b8114611c3e57600080fd5b50565b600081359050611c5081611c2a565b92915050565b600060208284031215611c6c57611c6b611b2b565b5b6000611c7a84828501611c41565b91505092915050565b611c8c8161193e565b82525050565b600082825260208201905092915050565b6000611cae8261195f565b611cb88185611c92565b9350611cc881856020860161197b565b611cd1816119a5565b840191505092915050565b6000606082019050611cf16000830186611af7565b611cfe6020830185611c83565b8181036040830152611d108184611ca3565b9050949350505050565b60006020820190508181036000830152611d348184611ca3565b905092915050565b6000602082019050611d516000830184611c83565b92915050565b6000606083016000830151611d6f600086018261190f565b506020830151611d826020860182611950565b5060408301518482036040860152611d9a82826119b6565b9150508091505092915050565b60006020820190508181036000830152611dc18184611d57565b905092915050565b600060208284031215611ddf57611dde611b2b565b5b6000611ded84828501611bc2565b91505092915050565b60008115159050919050565b611e0b81611df6565b82525050565b6000602082019050611e266000830184611e02565b92915050565b600060208284031215611e4257611e41611b2b565b5b6000611e5084828501611b8c565b91505092915050565b600080fd5b600080fd5b600080fd5b60008083601f840112611e7e57611e7d611e59565b5b8235905067ffffffffffffffff811115611e9b57611e9a611e5e565b5b602083019150836020820283011115611eb757611eb6611e63565b5b9250929050565b60008060208385031215611ed557611ed4611b2b565b5b600083013567ffffffffffffffff811115611ef357611ef2611b30565b5b611eff85828601611e68565b92509250509250929050565b600080fd5b7f4e487b7100000000000000000000000000000000000000000000000000000000600052604160045260246000fd5b611f48826119a5565b810181811067ffffffffffffffff82111715611f6757611f66611f10565b5b80604052505050565b6000611f7a611b21565b9050611f868282611f3f565b919050565b600067ffffffffffffffff821115611fa657611fa5611f10565b5b611faf826119a5565b9050602081019050919050565b82818337600083830152505050565b6000611fde611fd984611f8b565b611f70565b905082815260208101848484011115611ffa57611ff9611f0b565b5b612005848285611fbc565b509392505050565b600082601f83011261202257612021611e59565b5b8135612032848260208601611fcb565b91505092915050565b60006020828403121561205157612050611b2b565b5b600082013567ffffffffffffffff81111561206f5761206e611b30565b5b61207b8482850161200d565b91505092915050565b7f4e487b7100000000000000000000000000000000000000000000000000000000600052602260045260246000fd5b600060028204905060018216806120cb57607f821691505b6020821081036120de576120dd612084565b5b50919050565b7f4e487b7100000000000000000000000000000000000000000000000000000000600052603260045260246000fd5b7f596f7520617265206e6f74207468652077696e6e6572206f662074686973206360008201527f6f6e74656e740000000000000000000000000000000000000000000000000000602082015250565b600061216f602683611c92565b915061217a82612113565b604082019050919050565b6000602082019050818103600083015261219e81612162565b9050919050565b7f456e74726f70792061646472657373206e6f7420736574000000000000000000600082015250565b60006121db601783611c92565b91506121e6826121a5565b602082019050919050565b6000602082019050818103600083015261220a816121ce565b9050919050565b7f4f6e6c7920456e74726f70792063616e2063616c6c20746869732066756e637460008201527f696f6e0000000000000000000000000000000000000000000000000000000000602082015250565b600061226d602383611c92565b915061227882612211565b604082019050919050565b6000602082019050818103600083015261229c81612260565b9050919050565b7f436f6e74657374206973207374696c6c206f6e676f696e670000000000000000600082015250565b60006122d9601883611c92565b91506122e4826122a3565b602082019050919050565b60006020820190508181036000830152612308816122cc565b9050919050565b7f57696e6e6572206e6f742063686f73656e207965740000000000000000000000600082015250565b6000612345601583611c92565b91506123508261230f565b602082019050919050565b6000602082019050818103600083015261237481612338565b9050919050565b7f4e487b7100000000000000000000000000000000000000000000000000000000600052601160045260246000fd5b60006123b582611905565b91506123c083611905565b92508282039050818111156123d8576123d761237b565b5b92915050565b6000815190506123ed81611b75565b92915050565b60006020828403121561240957612408611b2b565b5b6000612417848285016123de565b91505092915050565b60006fffffffffffffffffffffffffffffffff82169050919050565b61244581612420565b811461245057600080fd5b50565b6000815190506124628161243c565b92915050565b60006020828403121561247e5761247d611b2b565b5b600061248c84828501612453565b91505092915050565b61249e81611ba1565b82525050565b60006040820190506124b96000830185611c83565b6124c66020830184612495565b9392505050565b6000815190506124dc81611b49565b92915050565b6000602082840312156124f8576124f7611b2b565b5b6000612506848285016124cd565b91505092915050565b7f636f6e74657374206973207374696c6c206f6e676f696e670000000000000000600082015250565b6000612545601883611c92565b91506125508261250f565b602082019050919050565b6000602082019050818103600083015261257481612538565b9050919050565b7f4e6f207061727469636970616e74732072656769737465726564000000000000600082015250565b60006125b1601a83611c92565b91506125bc8261257b565b602082019050919050565b600060208201905081810360008301526125e0816125a4565b9050919050565b600082825260208201905092915050565b6000819050919050565b600082825260208201905092915050565b600061261f8385612602565b935061262c838584611fbc565b612635836119a5565b840190509392505050565b600061264d848484612613565b90509392505050565b600080fd5b600080fd5b600080fd5b6000808335600160200384360303811261268257612681612660565b5b83810192508235915060208301925067ffffffffffffffff8211156126aa576126a9612656565b5b6001820236038313156126c0576126bf61265b565b5b509250929050565b6000602082019050919050565b60006126e183856125e7565b9350836020840285016126f3846125f8565b8060005b8781101561273957848403895261270e8284612665565b612719868284612640565b9550612724846126c8565b935060208b019a5050506001810190506126f7565b50829750879450505050509392505050565b600060208201905081810360008301526127668184866126d5565b90509392505050565b60008151905061277e81611c2a565b92915050565b60006020828403121561279a57612799611b2b565b5b60006127a88482850161276f565b91505092915050565b6000819050919050565b6000819050919050565b60006127e06127db6127d6846127b1565b6127bb565b611905565b9050919050565b6127f0816127c5565b82525050565b600060408201905061280b6000830185612495565b61281860208301846127e7565b9392505050565b600080fd5b60008160070b9050919050565b61283a81612824565b811461284557600080fd5b50565b60008151905061285781612831565b92915050565b60008160030b9050919050565b6128738161285d565b811461287e57600080fd5b50565b6000815190506128908161286a565b92915050565b6000608082840312156128ac576128ab61281f565b5b6128b66080611f70565b905060006128c684828501612848565b60008301525060206128da848285016124cd565b60208301525060406128ee84828501612881565b60408301525060606129028482850161276f565b60608301525092915050565b60006080828403121561292457612923611b2b565b5b600061293284828501612896565b91505092915050565b61294481612824565b82525050565b61295381611b35565b82525050565b600060608201905061296e600083018661293b565b61297b602083018561294a565b6129886040830184611af7565b949350505050565b7f436f6e746573742068617320656e646564000000000000000000000000000000600082015250565b60006129c6601183611c92565b91506129d182612990565b602082019050919050565b600060208201905081810360008301526129f5816129b9565b9050919050565b600081905092915050565b6000612a128261195f565b612a1c81856129fc565b9350612a2c81856020860161197b565b80840191505092915050565b6000612a448284612a07565b915081905092915050565b7f48616e646c6520616c7265616479207265676973746572656400000000000000600082015250565b6000612a85601983611c92565b9150612a9082612a4f565b602082019050919050565b60006020820190508181036000830152612ab481612a78565b9050919050565b6000612ac682611905565b91507fffffffffffffffffffffffffffffffffffffffffffffffffffffffffffffffff8203612af857612af761237b565b5b600182019050919050565b60008190508160005260206000209050919050565b60006020601f8301049050919050565b600082821b905092915050565b600060088302612b657fffffffffffffffffffffffffffffffffffffffffffffffffffffffffffffffff82612b28565b612b6f8683612b28565b95508019841693508086168417925050509392505050565b6000612ba2612b9d612b9884611905565b6127bb565b611905565b9050919050565b6000819050919050565b612bbc83612b87565b612bd0612bc882612ba9565b848454612b35565b825550505050565b600090565b612be5612bd8565b612bf0818484612bb3565b505050565b5b81811015612c1457612c09600082612bdd565b600181019050612bf6565b5050565b601f821115612c5957612c2a81612b03565b612c3384612b18565b81016020851015612c42578190505b612c56612c4e85612b18565b830182612bf5565b50505b505050565b600082821c905092915050565b6000612c7c60001984600802612c5e565b1980831691505092915050565b6000612c958383612c6b565b9150826002028217905092915050565b612cae8261195f565b67ffffffffffffffff811115612cc757612cc6611f10565b5b612cd182546120b3565b612cdc828285612c18565b600060209050601f831160018114612d0f5760008415612cfd578287015190505b612d078582612c89565b865550612d6f565b601f198416612d1d86612b03565b60005b82811015612d4557848901518255600182019150602085019450602081019050612d20565b86831015612d625784890151612d5e601f891682612c6b565b8355505b6001600288020188555050505b505050505050565b7f4e487b7100000000000000000000000000000000000000000000000000000000600052601260045260246000fd5b6000612db182611905565b9150612dbc83611905565b925082612dcc57612dcb612d77565b5b82820690509291505056fea2646970667358221220155dd6653df509958ddd76e8138d519bdb46b69e06d1d0539f83783110945d5764736f6c634300081b0033a2646970667358221220e09e3aebc2c3b81ab4f5dd893664c697c836814d9b20cb0cd557bc320a701caa64736f6c634300081b0033",
  "linkReferences": {},
  "deployedLinkReferences": {}
}