{"abi":[{"type":"constructor","inputs":[{"name":"_twitterProverAddress","type":"address","internalType":"address"},{"name":"_twitterAccountVerifierAddress","type":"address","internalType":"address"},{"name":"_entropyAddress","type":"address","internalType":"address"},{"name":"_pythContract","type":"address","internalType":"address"},{"name":"_myTokenAddress","type":"address","internalType":"address"}],"stateMutability":"nonpayable"},{"type":"function","name":"contestAddress","inputs":[{"name":"_contestId","type":"uint256","internalType":"uint256"}],"outputs":[{"name":"_contestAddress","type":"address","internalType":"address"}],"stateMutability":"view"},{"type":"function","name":"contestId","inputs":[],"outputs":[{"name":"","type":"uint256","internalType":"uint256"}],"stateMutability":"view"},{"type":"function","name":"createNewContest","inputs":[{"name":"_twitterStatusId","type":"string","internalType":"string"},{"name":"_description","type":"string","internalType":"string"},{"name":"_endTimeContest","type":"uint256","internalType":"uint256"}],"outputs":[],"stateMutability":"nonpayable"},{"type":"function","name":"getLastETHPrice","inputs":[],"outputs":[{"name":"price","type":"int256","internalType":"int256"},{"name":"conf","type":"uint256","internalType":"uint256"},{"name":"publishTime","type":"uint256","internalType":"uint256"}],"stateMutability":"view"},{"type":"function","name":"isTwitterAccountVerified","inputs":[{"name":"account","type":"address","internalType":"address"}],"outputs":[{"name":"","type":"bool","internalType":"bool"}],"stateMutability":"nonpayable"},{"type":"function","name":"lastConf","inputs":[],"outputs":[{"name":"","type":"uint256","internalType":"uint256"}],"stateMutability":"view"},{"type":"function","name":"lastPrice","inputs":[],"outputs":[{"name":"","type":"int256","internalType":"int256"}],"stateMutability":"view"},{"type":"function","name":"lastPublishTime","inputs":[],"outputs":[{"name":"","type":"uint256","internalType":"uint256"}],"stateMutability":"view"},{"type":"function","name":"myToken","inputs":[],"outputs":[{"name":"","type":"address","internalType":"contract MyToken"}],"stateMutability":"view"},{"type":"function","name":"twitterAccountVerifierAddress","inputs":[],"outputs":[{"name":"","type":"address","internalType":"address"}],"stateMutability":"view"},{"type":"function","name":"twitterProverAddress","inputs":[],"outputs":[{"name":"","type":"address","internalType":"address"}],"stateMutability":"view"},{"type":"function","name":"updateETHPrice","inputs":[{"name":"priceUpdate","type":"bytes[]","internalType":"bytes[]"}],"outputs":[],"stateMutability":"payable"},{"type":"event","name":"PriceUpdated","inputs":[{"name":"price","type":"int64","indexed":false,"internalType":"int64"},{"name":"confidence","type":"uint64","indexed":false,"internalType":"uint64"},{"name":"publishTime","type":"uint256","indexed":false,"internalType":"uint256"}],"anonymous":false}],"bytecode":{"object":"0x608060405234801561000f575f5ffd5b5060405161487438038061487483398181016040528101906100319190610239565b60075f9054906101000a900473ffffffffffffffffffffffffffffffffffffffff165f5f6101000a81548173ffffffffffffffffffffffffffffffffffffffff021916908373ffffffffffffffffffffffffffffffffffffffff1602179055508460025f6101000a81548173ffffffffffffffffffffffffffffffffffffffff021916908373ffffffffffffffffffffffffffffffffffffffff1602179055508360035f6101000a81548173ffffffffffffffffffffffffffffffffffffffff021916908373ffffffffffffffffffffffffffffffffffffffff1602179055508260065f6101000a81548173ffffffffffffffffffffffffffffffffffffffff021916908373ffffffffffffffffffffffffffffffffffffffff1602179055508160075f6101000a81548173ffffffffffffffffffffffffffffffffffffffff021916908373ffffffffffffffffffffffffffffffffffffffff1602179055508060015f6101000a81548173ffffffffffffffffffffffffffffffffffffffff021916908373ffffffffffffffffffffffffffffffffffffffff16021790555050505050506102b0565b5f5ffd5b5f73ffffffffffffffffffffffffffffffffffffffff82169050919050565b5f610208826101df565b9050919050565b610218816101fe565b8114610222575f5ffd5b50565b5f815190506102338161020f565b92915050565b5f5f5f5f5f60a08688031215610252576102516101db565b5b5f61025f88828901610225565b955050602061027088828901610225565b945050604061028188828901610225565b935050606061029288828901610225565b92505060806102a388828901610225565b9150509295509295909350565b6145b7806102bd5f395ff3fe6080604052600436106100a6575f3560e01c8063ba38ec5611610063578063ba38ec56146101a4578063bda76b9a146101e0578063be56745e1461020c578063c61438ad14610248578063c890fa4714610272578063d8e09da91461028e576100a6565b8063053f14da146100aa5780631186f738146100d45780637f2870d5146100fe578063935289bc14610128578063b53e4d0b14610152578063b8fcf9371461017a575b5f5ffd5b3480156100b5575f5ffd5b506100be6102b8565b6040516100cb91906108ce565b60405180910390f35b3480156100df575f5ffd5b506100e86102be565b6040516100f59190610926565b60405180910390f35b348015610109575f5ffd5b506101126102e3565b60405161011f9190610957565b60405180910390f35b348015610133575f5ffd5b5061013c6102e9565b6040516101499190610957565b60405180910390f35b34801561015d575f5ffd5b5061017860048036038101906101739190610ae7565b6102ef565b005b348015610185575f5ffd5b5061018e61050b565b60405161019b9190610bca565b60405180910390f35b3480156101af575f5ffd5b506101ca60048036038101906101c59190610be3565b610530565b6040516101d79190610926565b60405180910390f35b3480156101eb575f5ffd5b506101f4610560565b60405161020393929190610c0e565b60405180910390f35b348015610217575f5ffd5b50610232600480360381019061022d9190610c6d565b610577565b60405161023f9190610cb2565b60405180910390f35b348015610253575f5ffd5b5061025c610619565b6040516102699190610957565b60405180910390f35b61028c60048036038101906102879190610d28565b61061f565b005b348015610299575f5ffd5b506102a2610884565b6040516102af9190610926565b60405180910390f35b60095481565b60035f9054906101000a900473ffffffffffffffffffffffffffffffffffffffff1681565b600b5481565b600a5481565b5f60065f9054906101000a900473ffffffffffffffffffffffffffffffffffffffff1660075f9054906101000a900473ffffffffffffffffffffffffffffffffffffffff1633868686604051610344906108a9565b61035396959493929190610dd3565b604051809103905ff08015801561036c573d5f5f3e3d5ffd5b5090508060045f60055481526020019081526020015f205f6101000a81548173ffffffffffffffffffffffffffffffffffffffff021916908373ffffffffffffffffffffffffffffffffffffffff16021790555060015f9054906101000a900473ffffffffffffffffffffffffffffffffffffffff1673ffffffffffffffffffffffffffffffffffffffff166340c10f198260015f9054906101000a900473ffffffffffffffffffffffffffffffffffffffff1673ffffffffffffffffffffffffffffffffffffffff1663313ce5676040518163ffffffff1660e01b8152600401602060405180830381865afa158015610468573d5f5f3e3d5ffd5b505050506040513d601f19601f8201168201806040525081019061048c9190610e76565b600a6104989190610ffd565b60016104a49190611047565b6040518363ffffffff1660e01b81526004016104c1929190611088565b5f604051808303815f87803b1580156104d8575f5ffd5b505af11580156104ea573d5f5f3e3d5ffd5b5050505060055f815480929190610500906110af565b919050555050505050565b60015f9054906101000a900473ffffffffffffffffffffffffffffffffffffffff1681565b6004602052805f5260405f205f915054906101000a900473ffffffffffffffffffffffffffffffffffffffff1681565b5f5f5f600954600a54600b54925092509250909192565b5f60035f9054906101000a900473ffffffffffffffffffffffffffffffffffffffff1673ffffffffffffffffffffffffffffffffffffffff1663b9209e33836040518263ffffffff1660e01b81526004016105d29190610926565b6020604051808303815f875af11580156105ee573d5f5f3e3d5ffd5b505050506040513d601f19601f820116820180604052508101906106129190611120565b9050919050565b60055481565b5f5f5f9054906101000a900473ffffffffffffffffffffffffffffffffffffffff1673ffffffffffffffffffffffffffffffffffffffff1663d47eed4584846040518363ffffffff1660e01b815260040161067b9291906112a3565b602060405180830381865afa158015610696573d5f5f3e3d5ffd5b505050506040513d601f19601f820116820180604052508101906106ba91906112d9565b90505f5f9054906101000a900473ffffffffffffffffffffffffffffffffffffffff1673ffffffffffffffffffffffffffffffffffffffff1663ef9e5e288285856040518463ffffffff1660e01b81526004016107189291906112a3565b5f604051808303818588803b15801561072f575f5ffd5b505af1158015610741573d5f5f3e3d5ffd5b50505050505f7fff61491a931112ddf1bd8147cd1b641375f79f5825126d665480874634fd0ace5f1b90505f5f5f9054906101000a900473ffffffffffffffffffffffffffffffffffffffff1673ffffffffffffffffffffffffffffffffffffffff1663a4ae35e083603c6040518363ffffffff1660e01b81526004016107c9929190611355565b608060405180830381865afa1580156107e4573d5f5f3e3d5ffd5b505050506040513d601f19601f82011682018060405250810190610808919061149e565b9050805f015160070b600981905550806020015167ffffffffffffffff16600a819055508060600151600b819055507f6868b56bbbc4c847be9aa8488a92e6fc784e19300474b0f2bbb1cd55bbc365bc815f015182602001518360600151604051610875939291906114e7565b60405180910390a15050505050565b60025f9054906101000a900473ffffffffffffffffffffffffffffffffffffffff1681565b6130658061151d83390190565b5f819050919050565b6108c8816108b6565b82525050565b5f6020820190506108e15f8301846108bf565b92915050565b5f73ffffffffffffffffffffffffffffffffffffffff82169050919050565b5f610910826108e7565b9050919050565b61092081610906565b82525050565b5f6020820190506109395f830184610917565b92915050565b5f819050919050565b6109518161093f565b82525050565b5f60208201905061096a5f830184610948565b92915050565b5f604051905090565b5f5ffd5b5f5ffd5b5f5ffd5b5f5ffd5b5f601f19601f8301169050919050565b7f4e487b71000000000000000000000000000000000000000000000000000000005f52604160045260245ffd5b6109cf82610989565b810181811067ffffffffffffffff821117156109ee576109ed610999565b5b80604052505050565b5f610a00610970565b9050610a0c82826109c6565b919050565b5f67ffffffffffffffff821115610a2b57610a2a610999565b5b610a3482610989565b9050602081019050919050565b828183375f83830152505050565b5f610a61610a5c84610a11565b6109f7565b905082815260208101848484011115610a7d57610a7c610985565b5b610a88848285610a41565b509392505050565b5f82601f830112610aa457610aa3610981565b5b8135610ab4848260208601610a4f565b91505092915050565b610ac68161093f565b8114610ad0575f5ffd5b50565b5f81359050610ae181610abd565b92915050565b5f5f5f60608486031215610afe57610afd610979565b5b5f84013567ffffffffffffffff811115610b1b57610b1a61097d565b5b610b2786828701610a90565b935050602084013567ffffffffffffffff811115610b4857610b4761097d565b5b610b5486828701610a90565b9250506040610b6586828701610ad3565b9150509250925092565b5f819050919050565b5f610b92610b8d610b88846108e7565b610b6f565b6108e7565b9050919050565b5f610ba382610b78565b9050919050565b5f610bb482610b99565b9050919050565b610bc481610baa565b82525050565b5f602082019050610bdd5f830184610bbb565b92915050565b5f60208284031215610bf857610bf7610979565b5b5f610c0584828501610ad3565b91505092915050565b5f606082019050610c215f8301866108bf565b610c2e6020830185610948565b610c3b6040830184610948565b949350505050565b610c4c81610906565b8114610c56575f5ffd5b50565b5f81359050610c6781610c43565b92915050565b5f60208284031215610c8257610c81610979565b5b5f610c8f84828501610c59565b91505092915050565b5f8115159050919050565b610cac81610c98565b82525050565b5f602082019050610cc55f830184610ca3565b92915050565b5f5ffd5b5f5ffd5b5f5f83601f840112610ce857610ce7610981565b5b8235905067ffffffffffffffff811115610d0557610d04610ccb565b5b602083019150836020820283011115610d2157610d20610ccf565b5b9250929050565b5f5f60208385031215610d3e57610d3d610979565b5b5f83013567ffffffffffffffff811115610d5b57610d5a61097d565b5b610d6785828601610cd3565b92509250509250929050565b5f81519050919050565b5f82825260208201905092915050565b8281835e5f83830152505050565b5f610da582610d73565b610daf8185610d7d565b9350610dbf818560208601610d8d565b610dc881610989565b840191505092915050565b5f60c082019050610de65f830189610917565b610df36020830188610917565b610e006040830187610917565b8181036060830152610e128186610d9b565b90508181036080830152610e268185610d9b565b9050610e3560a0830184610948565b979650505050505050565b5f60ff82169050919050565b610e5581610e40565b8114610e5f575f5ffd5b50565b5f81519050610e7081610e4c565b92915050565b5f60208284031215610e8b57610e8a610979565b5b5f610e9884828501610e62565b91505092915050565b7f4e487b71000000000000000000000000000000000000000000000000000000005f52601160045260245ffd5b5f8160011c9050919050565b5f5f8291508390505b6001851115610f2357808604811115610eff57610efe610ea1565b5b6001851615610f0e5780820291505b8081029050610f1c85610ece565b9450610ee3565b94509492505050565b5f82610f3b5760019050610ff6565b81610f48575f9050610ff6565b8160018114610f5e5760028114610f6857610f97565b6001915050610ff6565b60ff841115610f7a57610f79610ea1565b5b8360020a915084821115610f9157610f90610ea1565b5b50610ff6565b5060208310610133831016604e8410600b8410161715610fcc5782820a905083811115610fc757610fc6610ea1565b5b610ff6565b610fd98484846001610eda565b92509050818404811115610ff057610fef610ea1565b5b81810290505b9392505050565b5f6110078261093f565b915061101283610e40565b925061103f7fffffffffffffffffffffffffffffffffffffffffffffffffffffffffffffffff8484610f2c565b905092915050565b5f6110518261093f565b915061105c8361093f565b925082820261106a8161093f565b9150828204841483151761108157611080610ea1565b5b5092915050565b5f60408201905061109b5f830185610917565b6110a86020830184610948565b9392505050565b5f6110b98261093f565b91507fffffffffffffffffffffffffffffffffffffffffffffffffffffffffffffffff82036110eb576110ea610ea1565b5b600182019050919050565b6110ff81610c98565b8114611109575f5ffd5b50565b5f8151905061111a816110f6565b92915050565b5f6020828403121561113557611134610979565b5b5f6111428482850161110c565b91505092915050565b5f82825260208201905092915050565b5f819050919050565b5f82825260208201905092915050565b5f61117f8385611164565b935061118c838584610a41565b61119583610989565b840190509392505050565b5f6111ac848484611174565b90509392505050565b5f5ffd5b5f5ffd5b5f5ffd5b5f5f833560016020038436030381126111dd576111dc6111bd565b5b83810192508235915060208301925067ffffffffffffffff821115611205576112046111b5565b5b60018202360383131561121b5761121a6111b9565b5b509250929050565b5f602082019050919050565b5f61123a838561114b565b93508360208402850161124c8461115b565b805f5b8781101561129157848403895261126682846111c1565b6112718682846111a0565b955061127c84611223565b935060208b019a50505060018101905061124f565b50829750879450505050509392505050565b5f6020820190508181035f8301526112bc81848661122f565b90509392505050565b5f815190506112d381610abd565b92915050565b5f602082840312156112ee576112ed610979565b5b5f6112fb848285016112c5565b91505092915050565b5f819050919050565b61131681611304565b82525050565b5f819050919050565b5f61133f61133a6113358461131c565b610b6f565b61093f565b9050919050565b61134f81611325565b82525050565b5f6040820190506113685f83018561130d565b6113756020830184611346565b9392505050565b5f5ffd5b5f8160070b9050919050565b61139581611380565b811461139f575f5ffd5b50565b5f815190506113b08161138c565b92915050565b5f67ffffffffffffffff82169050919050565b6113d2816113b6565b81146113dc575f5ffd5b50565b5f815190506113ed816113c9565b92915050565b5f8160030b9050919050565b611408816113f3565b8114611412575f5ffd5b50565b5f81519050611423816113ff565b92915050565b5f6080828403121561143e5761143d61137c565b5b61144860806109f7565b90505f611457848285016113a2565b5f83015250602061146a848285016113df565b602083015250604061147e84828501611415565b6040830152506060611492848285016112c5565b60608301525092915050565b5f608082840312156114b3576114b2610979565b5b5f6114c084828501611429565b91505092915050565b6114d281611380565b82525050565b6114e1816113b6565b82525050565b5f6060820190506114fa5f8301866114c9565b61150760208301856114d8565b6115146040830184610948565b94935050505056fe608060405234801561000f575f5ffd5b5060405161306538038061306583398181016040528101906100319190610406565b835f73ffffffffffffffffffffffffffffffffffffffff168173ffffffffffffffffffffffffffffffffffffffff16036100a2575f6040517f1e4fbdf700000000000000000000000000000000000000000000000000000000815260040161009991906104d6565b60405180910390fd5b6100b18161016b60201b60201c565b503360015f6101000a81548173ffffffffffffffffffffffffffffffffffffffff021916908373ffffffffffffffffffffffffffffffffffffffff1602179055508560025f6101000a81548173ffffffffffffffffffffffffffffffffffffffff021916908373ffffffffffffffffffffffffffffffffffffffff160217905550826003908161014191906106f6565b50816004908161015191906106f6565b5042600581905550806006819055505050505050506107c5565b5f5f5f9054906101000a900473ffffffffffffffffffffffffffffffffffffffff169050815f5f6101000a81548173ffffffffffffffffffffffffffffffffffffffff021916908373ffffffffffffffffffffffffffffffffffffffff1602179055508173ffffffffffffffffffffffffffffffffffffffff168173ffffffffffffffffffffffffffffffffffffffff167f8be0079c531659141344cd1fd0a4f28419497f9722a3daafe3b4186f6b6457e060405160405180910390a35050565b5f604051905090565b5f5ffd5b5f5ffd5b5f73ffffffffffffffffffffffffffffffffffffffff82169050919050565b5f6102668261023d565b9050919050565b6102768161025c565b8114610280575f5ffd5b50565b5f815190506102918161026d565b92915050565b5f5ffd5b5f5ffd5b5f601f19601f8301169050919050565b7f4e487b71000000000000000000000000000000000000000000000000000000005f52604160045260245ffd5b6102e58261029f565b810181811067ffffffffffffffff82111715610304576103036102af565b5b80604052505050565b5f61031661022c565b905061032282826102dc565b919050565b5f67ffffffffffffffff821115610341576103406102af565b5b61034a8261029f565b9050602081019050919050565b8281835e5f83830152505050565b5f61037761037284610327565b61030d565b9050828152602081018484840111156103935761039261029b565b5b61039e848285610357565b509392505050565b5f82601f8301126103ba576103b9610297565b5b81516103ca848260208601610365565b91505092915050565b5f819050919050565b6103e5816103d3565b81146103ef575f5ffd5b50565b5f81519050610400816103dc565b92915050565b5f5f5f5f5f5f60c087890312156104205761041f610235565b5b5f61042d89828a01610283565b965050602061043e89828a01610283565b955050604061044f89828a01610283565b945050606087015167ffffffffffffffff8111156104705761046f610239565b5b61047c89828a016103a6565b935050608087015167ffffffffffffffff81111561049d5761049c610239565b5b6104a989828a016103a6565b92505060a06104ba89828a016103f2565b9150509295509295509295565b6104d08161025c565b82525050565b5f6020820190506104e95f8301846104c7565b92915050565b5f81519050919050565b7f4e487b71000000000000000000000000000000000000000000000000000000005f52602260045260245ffd5b5f600282049050600182168061053d57607f821691505b6020821081036105505761054f6104f9565b5b50919050565b5f819050815f5260205f209050919050565b5f6020601f8301049050919050565b5f82821b905092915050565b5f600883026105b27fffffffffffffffffffffffffffffffffffffffffffffffffffffffffffffffff82610577565b6105bc8683610577565b95508019841693508086168417925050509392505050565b5f819050919050565b5f6105f76105f26105ed846103d3565b6105d4565b6103d3565b9050919050565b5f819050919050565b610610836105dd565b61062461061c826105fe565b848454610583565b825550505050565b5f5f905090565b61063b61062c565b610646818484610607565b505050565b5b818110156106695761065e5f82610633565b60018101905061064c565b5050565b601f8211156106ae5761067f81610556565b61068884610568565b81016020851015610697578190505b6106ab6106a385610568565b83018261064b565b50505b505050565b5f82821c905092915050565b5f6106ce5f19846008026106b3565b1980831691505092915050565b5f6106e683836106bf565b9150826002028217905092915050565b6106ff826104ef565b67ffffffffffffffff811115610718576107176102af565b5b6107228254610526565b61072d82828561066d565b5f60209050601f83116001811461075e575f841561074c578287015190505b61075685826106db565b8655506107bd565b601f19841661076c86610556565b5f5b828110156107935784890151825560018201915060208501945060208101905061076e565b868310156107b057848901516107ac601f8916826106bf565b8355505b6001600288020188555050505b505050505050565b612893806107d25f395ff3fe608060405260043610610113575f3560e01c80638da5cb5b1161009f578063c9b5773f11610063578063c9b5773f1461036f578063d06abdd214610399578063f2c298be146103b5578063f2fde38b146103dd578063f623d4171461040557610113565b80638da5cb5b1461027b5780638e7ea5b2146102a5578063a74e5732146102cf578063b112cd881461030b578063b9c7fae51461034757610113565b806352a5f1f8116100e657806352a5f1f8146101ab5780636347c900146101d3578063715018a6146102115780637284e416146102275780637417040e1461025157610113565b80632d971e631461011757806335884e5a1461014157806336c2d6de1461016b5780634e71d92d14610195575b5f5ffd5b348015610122575f5ffd5b5061012b61042f565b6040516101389190611683565b60405180910390f35b34801561014c575f5ffd5b5061015561056d565b6040516101629190611862565b60405180910390f35b348015610176575f5ffd5b5061017f6106b7565b60405161018c9190611683565b60405180910390f35b3480156101a0575f5ffd5b506101a96106bd565b005b3480156101b6575f5ffd5b506101d160048036038101906101cc919061192d565b6108f6565b005b3480156101de575f5ffd5b506101f960048036038101906101f491906119a7565b6109ee565b60405161020893929190611a29565b60405180910390f35b34801561021c575f5ffd5b50610225610ac8565b005b348015610232575f5ffd5b5061023b610adb565b6040516102489190611a65565b60405180910390f35b34801561025c575f5ffd5b50610265610b67565b6040516102729190611683565b60405180910390f35b348015610286575f5ffd5b5061028f610b6d565b60405161029c9190611a85565b60405180910390f35b3480156102b0575f5ffd5b506102b9610b94565b6040516102c69190611aeb565b60405180910390f35b3480156102da575f5ffd5b506102f560048036038101906102f09190611b0b565b610d51565b6040516103029190611b50565b60405180910390f35b348015610316575f5ffd5b50610331600480360381019061032c9190611b69565b610d6e565b60405161033e9190611b50565b60405180910390f35b348015610352575f5ffd5b5061036d60048036038101906103689190611cc0565b610d8b565b005b34801561037a575f5ffd5b50610383610e70565b6040516103909190611a65565b60405180910390f35b6103b360048036038101906103ae9190611b0b565b610efc565b005b3480156103c0575f5ffd5b506103db60048036038101906103d69190611cc0565b6111ab565b005b3480156103e8575f5ffd5b5061040360048036038101906103fe9190611b69565b6113dc565b005b348015610410575f5ffd5b50610419611460565b6040516104269190611683565b60405180910390f35b5f60025f9054906101000a900473ffffffffffffffffffffffffffffffffffffffff1673ffffffffffffffffffffffffffffffffffffffff1663b88c914860025f9054906101000a900473ffffffffffffffffffffffffffffffffffffffff1673ffffffffffffffffffffffffffffffffffffffff166382ee990c6040518163ffffffff1660e01b8152600401602060405180830381865afa1580156104d7573d5f5f3e3d5ffd5b505050506040513d601f19601f820116820180604052508101906104fb9190611d1b565b6040518263ffffffff1660e01b81526004016105179190611a85565b602060405180830381865afa158015610532573d5f5f3e3d5ffd5b505050506040513d601f19601f820116820180604052508101906105569190611d8b565b6fffffffffffffffffffffffffffffffff16905090565b60606009805480602002602001604051908101604052809291908181526020015f905b828210156106ae578382905f5260205f2090600302016040518060600160405290815f8201548152602001600182015f9054906101000a900473ffffffffffffffffffffffffffffffffffffffff1673ffffffffffffffffffffffffffffffffffffffff1673ffffffffffffffffffffffffffffffffffffffff16815260200160028201805461061f90611de3565b80601f016020809104026020016040519081016040528092919081815260200182805461064b90611de3565b80156106965780601f1061066d57610100808354040283529160200191610696565b820191905f5260205f20905b81548152906001019060200180831161067957829003601f168201915b50505050508152505081526020019060010190610590565b50505050905090565b60055481565b3373ffffffffffffffffffffffffffffffffffffffff166009600854815481106106ea576106e9611e13565b5b905f5260205f2090600302016001015f9054906101000a900473ffffffffffffffffffffffffffffffffffffffff1673ffffffffffffffffffffffffffffffffffffffff161461076f576040517f08c379a000000000000000000000000000000000000000000000000000000000815260040161076690611eb0565b60405180910390fd5b5f60015f9054906101000a900473ffffffffffffffffffffffffffffffffffffffff1673ffffffffffffffffffffffffffffffffffffffff1663b8fcf9376040518163ffffffff1660e01b8152600401602060405180830381865afa1580156107da573d5f5f3e3d5ffd5b505050506040513d601f19601f820116820180604052508101906107fe9190611f09565b90508073ffffffffffffffffffffffffffffffffffffffff1663a9059cbb338373ffffffffffffffffffffffffffffffffffffffff166370a08231306040518263ffffffff1660e01b81526004016108569190611a85565b602060405180830381865afa158015610871573d5f5f3e3d5ffd5b505050506040513d601f19601f820116820180604052508101906108959190611f48565b6040518363ffffffff1660e01b81526004016108b2929190611f73565b6020604051808303815f875af11580156108ce573d5f5f3e3d5ffd5b505050506040513d601f19601f820116820180604052508101906108f29190611fc4565b5050565b5f6108ff611466565b90505f73ffffffffffffffffffffffffffffffffffffffff168173ffffffffffffffffffffffffffffffffffffffff160361096f576040517f08c379a000000000000000000000000000000000000000000000000000000000815260040161096690612039565b60405180910390fd5b8073ffffffffffffffffffffffffffffffffffffffff163373ffffffffffffffffffffffffffffffffffffffff16146109dd576040517f08c379a00000000000000000000000000000000000000000000000000000000081526004016109d4906120c7565b60405180910390fd5b6109e884848461148e565b50505050565b600981815481106109fd575f80fd5b905f5260205f2090600302015f91509050805f015490806001015f9054906101000a900473ffffffffffffffffffffffffffffffffffffffff1690806002018054610a4790611de3565b80601f0160208091040260200160405190810160405280929190818152602001828054610a7390611de3565b8015610abe5780601f10610a9557610100808354040283529160200191610abe565b820191905f5260205f20905b815481529060010190602001808311610aa157829003601f168201915b5050505050905083565b610ad06114e7565b610ad95f61156e565b565b60048054610ae890611de3565b80601f0160208091040260200160405190810160405280929190818152602001828054610b1490611de3565b8015610b5f5780601f10610b3657610100808354040283529160200191610b5f565b820191905f5260205f20905b815481529060010190602001808311610b4257829003601f168201915b505050505081565b60075481565b5f5f5f9054906101000a900473ffffffffffffffffffffffffffffffffffffffff16905090565b610b9c611636565b600654421115610be1576040517f08c379a0000000000000000000000000000000000000000000000000000000008152600401610bd89061212f565b60405180910390fd5b5f60085411610c25576040517f08c379a0000000000000000000000000000000000000000000000000000000008152600401610c1c90612197565b60405180910390fd5b60096001600854610c3691906121e2565b81548110610c4757610c46611e13565b5b905f5260205f2090600302016040518060600160405290815f8201548152602001600182015f9054906101000a900473ffffffffffffffffffffffffffffffffffffffff1673ffffffffffffffffffffffffffffffffffffffff1673ffffffffffffffffffffffffffffffffffffffff168152602001600282018054610ccc90611de3565b80601f0160208091040260200160405190810160405280929190818152602001828054610cf890611de3565b8015610d435780601f10610d1a57610100808354040283529160200191610d43565b820191905f5260205f20905b815481529060010190602001808311610d2657829003601f168201915b505050505081525050905090565b600a602052805f5260405f205f915054906101000a900460ff1681565b600b602052805f5260405f205f915054906101000a900460ff1681565b60015f9054906101000a900473ffffffffffffffffffffffffffffffffffffffff1673ffffffffffffffffffffffffffffffffffffffff1663be56745e336040518263ffffffff1660e01b8152600401610de59190611a85565b6020604051808303815f875af1158015610e01573d5f5f3e3d5ffd5b505050506040513d601f19601f82011682018060405250810190610e259190611fc4565b610e64576040517f08c379a0000000000000000000000000000000000000000000000000000000008152600401610e5b9061225f565b60405180910390fd5b610e6d816111ab565b50565b60038054610e7d90611de3565b80601f0160208091040260200160405190810160405280929190818152602001828054610ea990611de3565b8015610ef45780601f10610ecb57610100808354040283529160200191610ef4565b820191905f5260205f20905b815481529060010190602001808311610ed757829003601f168201915b505050505081565b600654421015610f41576040517f08c379a0000000000000000000000000000000000000000000000000000000008152600401610f38906122c7565b60405180910390fd5b5f60075411610f85576040517f08c379a0000000000000000000000000000000000000000000000000000000008152600401610f7c9061232f565b60405180910390fd5b5f60025f9054906101000a900473ffffffffffffffffffffffffffffffffffffffff1673ffffffffffffffffffffffffffffffffffffffff166382ee990c6040518163ffffffff1660e01b8152600401602060405180830381865afa158015610ff0573d5f5f3e3d5ffd5b505050506040513d601f19601f820116820180604052508101906110149190611d1b565b90505f60025f9054906101000a900473ffffffffffffffffffffffffffffffffffffffff1673ffffffffffffffffffffffffffffffffffffffff1663b88c9148836040518263ffffffff1660e01b81526004016110719190611a85565b602060405180830381865afa15801561108c573d5f5f3e3d5ffd5b505050506040513d601f19601f820116820180604052508101906110b09190611d8b565b6fffffffffffffffffffffffffffffffff16905080341015611107576040517f08c379a00000000000000000000000000000000000000000000000000000000081526004016110fe90612397565b60405180910390fd5b60025f9054906101000a900473ffffffffffffffffffffffffffffffffffffffff1673ffffffffffffffffffffffffffffffffffffffff166319cb825f8284866040518463ffffffff1660e01b81526004016111649291906123c4565b60206040518083038185885af1158015611180573d5f5f3e3d5ffd5b50505050506040513d601f19601f820116820180604052508101906111a591906123ff565b50505050565b6006544211156111f0576040517f08c379a00000000000000000000000000000000000000000000000000000000081526004016111e790612474565b60405180910390fd5b5f8160405160200161120291906124cc565b6040516020818303038152906040528051906020012090505f1515600a5f8381526020019081526020015f205f9054906101000a900460ff1615151461127d576040517f08c379a00000000000000000000000000000000000000000000000000000000081526004016112749061252c565b60405180910390fd5b5f604051806060016040528060075481526020013373ffffffffffffffffffffffffffffffffffffffff16815260200184815250905060075f8154809291906112c59061254a565b9190505550600981908060018154018082558091505060019003905f5260205f2090600302015f909190919091505f820151815f01556020820151816001015f6101000a81548173ffffffffffffffffffffffffffffffffffffffff021916908373ffffffffffffffffffffffffffffffffffffffff16021790555060408201518160020190816113569190612731565b5050506001600a5f8481526020019081526020015f205f6101000a81548160ff0219169083151502179055506001600b5f3373ffffffffffffffffffffffffffffffffffffffff1673ffffffffffffffffffffffffffffffffffffffff1681526020019081526020015f205f6101000a81548160ff021916908315150217905550505050565b6113e46114e7565b5f73ffffffffffffffffffffffffffffffffffffffff168173ffffffffffffffffffffffffffffffffffffffff1603611454575f6040517f1e4fbdf700000000000000000000000000000000000000000000000000000000815260040161144b9190611a85565b60405180910390fd5b61145d8161156e565b50565b60065481565b5f60025f9054906101000a900473ffffffffffffffffffffffffffffffffffffffff16905090565b5f815f1c9050600754816114a2919061282d565b6008819055507fae3f88d56af8ef248164ab259baacc4ff82c4a7192a027616cb6e1b474b182d86008546040516114d99190611683565b60405180910390a150505050565b6114ef61162f565b73ffffffffffffffffffffffffffffffffffffffff1661150d610b6d565b73ffffffffffffffffffffffffffffffffffffffff161461156c5761153061162f565b6040517f118cdaa70000000000000000000000000000000000000000000000000000000081526004016115639190611a85565b60405180910390fd5b565b5f5f5f9054906101000a900473ffffffffffffffffffffffffffffffffffffffff169050815f5f6101000a81548173ffffffffffffffffffffffffffffffffffffffff021916908373ffffffffffffffffffffffffffffffffffffffff1602179055508173ffffffffffffffffffffffffffffffffffffffff168173ffffffffffffffffffffffffffffffffffffffff167f8be0079c531659141344cd1fd0a4f28419497f9722a3daafe3b4186f6b6457e060405160405180910390a35050565b5f33905090565b60405180606001604052805f81526020015f73ffffffffffffffffffffffffffffffffffffffff168152602001606081525090565b5f819050919050565b61167d8161166b565b82525050565b5f6020820190506116965f830184611674565b92915050565b5f81519050919050565b5f82825260208201905092915050565b5f819050602082019050919050565b6116ce8161166b565b82525050565b5f73ffffffffffffffffffffffffffffffffffffffff82169050919050565b5f6116fd826116d4565b9050919050565b61170d816116f3565b82525050565b5f81519050919050565b5f82825260208201905092915050565b8281835e5f83830152505050565b5f601f19601f8301169050919050565b5f61175582611713565b61175f818561171d565b935061176f81856020860161172d565b6117788161173b565b840191505092915050565b5f606083015f8301516117985f8601826116c5565b5060208301516117ab6020860182611704565b50604083015184820360408601526117c3828261174b565b9150508091505092915050565b5f6117db8383611783565b905092915050565b5f602082019050919050565b5f6117f98261169c565b61180381856116a6565b935083602082028501611815856116b6565b805f5b85811015611850578484038952815161183185826117d0565b945061183c836117e3565b925060208a01995050600181019050611818565b50829750879550505050505092915050565b5f6020820190508181035f83015261187a81846117ef565b905092915050565b5f604051905090565b5f5ffd5b5f5ffd5b5f67ffffffffffffffff82169050919050565b6118af81611893565b81146118b9575f5ffd5b50565b5f813590506118ca816118a6565b92915050565b6118d9816116f3565b81146118e3575f5ffd5b50565b5f813590506118f4816118d0565b92915050565b5f819050919050565b61190c816118fa565b8114611916575f5ffd5b50565b5f8135905061192781611903565b92915050565b5f5f5f606084860312156119445761194361188b565b5b5f611951868287016118bc565b9350506020611962868287016118e6565b925050604061197386828701611919565b9150509250925092565b6119868161166b565b8114611990575f5ffd5b50565b5f813590506119a18161197d565b92915050565b5f602082840312156119bc576119bb61188b565b5b5f6119c984828501611993565b91505092915050565b6119db816116f3565b82525050565b5f82825260208201905092915050565b5f6119fb82611713565b611a0581856119e1565b9350611a1581856020860161172d565b611a1e8161173b565b840191505092915050565b5f606082019050611a3c5f830186611674565b611a4960208301856119d2565b8181036040830152611a5b81846119f1565b9050949350505050565b5f6020820190508181035f830152611a7d81846119f1565b905092915050565b5f602082019050611a985f8301846119d2565b92915050565b5f606083015f830151611ab35f8601826116c5565b506020830151611ac66020860182611704565b5060408301518482036040860152611ade828261174b565b9150508091505092915050565b5f6020820190508181035f830152611b038184611a9e565b905092915050565b5f60208284031215611b2057611b1f61188b565b5b5f611b2d84828501611919565b91505092915050565b5f8115159050919050565b611b4a81611b36565b82525050565b5f602082019050611b635f830184611b41565b92915050565b5f60208284031215611b7e57611b7d61188b565b5b5f611b8b848285016118e6565b91505092915050565b5f5ffd5b5f5ffd5b7f4e487b71000000000000000000000000000000000000000000000000000000005f52604160045260245ffd5b611bd28261173b565b810181811067ffffffffffffffff82111715611bf157611bf0611b9c565b5b80604052505050565b5f611c03611882565b9050611c0f8282611bc9565b919050565b5f67ffffffffffffffff821115611c2e57611c2d611b9c565b5b611c378261173b565b9050602081019050919050565b828183375f83830152505050565b5f611c64611c5f84611c14565b611bfa565b905082815260208101848484011115611c8057611c7f611b98565b5b611c8b848285611c44565b509392505050565b5f82601f830112611ca757611ca6611b94565b5b8135611cb7848260208601611c52565b91505092915050565b5f60208284031215611cd557611cd461188b565b5b5f82013567ffffffffffffffff811115611cf257611cf161188f565b5b611cfe84828501611c93565b91505092915050565b5f81519050611d15816118d0565b92915050565b5f60208284031215611d3057611d2f61188b565b5b5f611d3d84828501611d07565b91505092915050565b5f6fffffffffffffffffffffffffffffffff82169050919050565b611d6a81611d46565b8114611d74575f5ffd5b50565b5f81519050611d8581611d61565b92915050565b5f60208284031215611da057611d9f61188b565b5b5f611dad84828501611d77565b91505092915050565b7f4e487b71000000000000000000000000000000000000000000000000000000005f52602260045260245ffd5b5f6002820490506001821680611dfa57607f821691505b602082108103611e0d57611e0c611db6565b5b50919050565b7f4e487b71000000000000000000000000000000000000000000000000000000005f52603260045260245ffd5b7f596f7520617265206e6f74207468652077696e6e6572206f66207468697320635f8201527f6f6e74656e740000000000000000000000000000000000000000000000000000602082015250565b5f611e9a6026836119e1565b9150611ea582611e40565b604082019050919050565b5f6020820190508181035f830152611ec781611e8e565b9050919050565b5f611ed8826116f3565b9050919050565b611ee881611ece565b8114611ef2575f5ffd5b50565b5f81519050611f0381611edf565b92915050565b5f60208284031215611f1e57611f1d61188b565b5b5f611f2b84828501611ef5565b91505092915050565b5f81519050611f428161197d565b92915050565b5f60208284031215611f5d57611f5c61188b565b5b5f611f6a84828501611f34565b91505092915050565b5f604082019050611f865f8301856119d2565b611f936020830184611674565b9392505050565b611fa381611b36565b8114611fad575f5ffd5b50565b5f81519050611fbe81611f9a565b92915050565b5f60208284031215611fd957611fd861188b565b5b5f611fe684828501611fb0565b91505092915050565b7f456e74726f70792061646472657373206e6f74207365740000000000000000005f82015250565b5f6120236017836119e1565b915061202e82611fef565b602082019050919050565b5f6020820190508181035f83015261205081612017565b9050919050565b7f4f6e6c7920456e74726f70792063616e2063616c6c20746869732066756e63745f8201527f696f6e0000000000000000000000000000000000000000000000000000000000602082015250565b5f6120b16023836119e1565b91506120bc82612057565b604082019050919050565b5f6020820190508181035f8301526120de816120a5565b9050919050565b7f436f6e74657374206973207374696c6c206f6e676f696e6700000000000000005f82015250565b5f6121196018836119e1565b9150612124826120e5565b602082019050919050565b5f6020820190508181035f8301526121468161210d565b9050919050565b7f57696e6e6572206e6f742063686f73656e2079657400000000000000000000005f82015250565b5f6121816015836119e1565b915061218c8261214d565b602082019050919050565b5f6020820190508181035f8301526121ae81612175565b9050919050565b7f4e487b71000000000000000000000000000000000000000000000000000000005f52601160045260245ffd5b5f6121ec8261166b565b91506121f78361166b565b925082820390508181111561220f5761220e6121b5565b5b92915050565b7f4e4f545f564552494649455200000000000000000000000000000000000000005f82015250565b5f612249600c836119e1565b915061225482612215565b602082019050919050565b5f6020820190508181035f8301526122768161223d565b9050919050565b7f636f6e74657374206973207374696c6c206f6e676f696e6700000000000000005f82015250565b5f6122b16018836119e1565b91506122bc8261227d565b602082019050919050565b5f6020820190508181035f8301526122de816122a5565b9050919050565b7f4e6f207061727469636970616e747320726567697374657265640000000000005f82015250565b5f612319601a836119e1565b9150612324826122e5565b602082019050919050565b5f6020820190508181035f8301526123468161230d565b9050919050565b7f6e6f7420656e6f756768206665657300000000000000000000000000000000005f82015250565b5f612381600f836119e1565b915061238c8261234d565b602082019050919050565b5f6020820190508181035f8301526123ae81612375565b9050919050565b6123be816118fa565b82525050565b5f6040820190506123d75f8301856119d2565b6123e460208301846123b5565b9392505050565b5f815190506123f9816118a6565b92915050565b5f602082840312156124145761241361188b565b5b5f612421848285016123eb565b91505092915050565b7f436f6e746573742068617320656e6465640000000000000000000000000000005f82015250565b5f61245e6011836119e1565b91506124698261242a565b602082019050919050565b5f6020820190508181035f83015261248b81612452565b9050919050565b5f81905092915050565b5f6124a682611713565b6124b08185612492565b93506124c081856020860161172d565b80840191505092915050565b5f6124d7828461249c565b915081905092915050565b7f48616e646c6520616c72656164792072656769737465726564000000000000005f82015250565b5f6125166019836119e1565b9150612521826124e2565b602082019050919050565b5f6020820190508181035f8301526125438161250a565b9050919050565b5f6125548261166b565b91507fffffffffffffffffffffffffffffffffffffffffffffffffffffffffffffffff8203612586576125856121b5565b5b600182019050919050565b5f819050815f5260205f209050919050565b5f6020601f8301049050919050565b5f82821b905092915050565b5f600883026125ed7fffffffffffffffffffffffffffffffffffffffffffffffffffffffffffffffff826125b2565b6125f786836125b2565b95508019841693508086168417925050509392505050565b5f819050919050565b5f61263261262d6126288461166b565b61260f565b61166b565b9050919050565b5f819050919050565b61264b83612618565b61265f61265782612639565b8484546125be565b825550505050565b5f5f905090565b612676612667565b612681818484612642565b505050565b5b818110156126a4576126995f8261266e565b600181019050612687565b5050565b601f8211156126e9576126ba81612591565b6126c3846125a3565b810160208510156126d2578190505b6126e66126de856125a3565b830182612686565b50505b505050565b5f82821c905092915050565b5f6127095f19846008026126ee565b1980831691505092915050565b5f61272183836126fa565b9150826002028217905092915050565b61273a82611713565b67ffffffffffffffff81111561275357612752611b9c565b5b61275d8254611de3565b6127688282856126a8565b5f60209050601f831160018114612799575f8415612787578287015190505b6127918582612716565b8655506127f8565b601f1984166127a786612591565b5f5b828110156127ce578489015182556001820191506020850194506020810190506127a9565b868310156127eb57848901516127e7601f8916826126fa565b8355505b6001600288020188555050505b505050505050565b7f4e487b71000000000000000000000000000000000000000000000000000000005f52601260045260245ffd5b5f6128378261166b565b91506128428361166b565b92508261285257612851612800565b5b82820690509291505056fea2646970667358221220626309c718d82603e9696824392b11c9dfef167dd993712e5b85debe69a136a964736f6c634300081d0033a2646970667358221220074465b85bb5f122e18033c1a6596f92c16d75db7d3b79f7c24000f876ea603a64736f6c634300081d0033","linkReferences":{}},"methodIdentifiers":{"contestAddress(uint256)":"ba38ec56","contestId()":"c61438ad","createNewContest(string,string,uint256)":"b53e4d0b","getLastETHPrice()":"bda76b9a","isTwitterAccountVerified(address)":"be56745e","lastConf()":"935289bc","lastPrice()":"053f14da","lastPublishTime()":"7f2870d5","myToken()":"b8fcf937","twitterAccountVerifierAddress()":"1186f738","twitterProverAddress()":"d8e09da9","updateETHPrice(bytes[])":"c890fa47"},"id":1}