{
  "_format": "hh-sol-artifact-1",
  "contractName": "Contest",
  "sourceName": "contracts/Contest.sol",
  "abi": [
    {
      "inputs": [
        {
          "internalType": "address",
          "name": "entropyAddress",
          "type": "address"
        },
        {
          "internalType": "address",
          "name": "pythContract",
          "type": "address"
        },
        {
          "internalType": "address",
          "name": "_owner",
          "type": "address"
        },
        {
          "internalType": "string",
          "name": "_twitterStatusId",
          "type": "string"
        },
        {
          "internalType": "string",
          "name": "_description",
          "type": "string"
        },
        {
          "internalType": "uint256",
          "name": "_endTimeContest",
          "type": "uint256"
        }
      ],
      "stateMutability": "nonpayable",
      "type": "constructor"
    },
    {
      "inputs": [
        {
          "internalType": "address",
          "name": "owner",
          "type": "address"
        }
      ],
      "name": "OwnableInvalidOwner",
      "type": "error"
    },
    {
      "inputs": [
        {
          "internalType": "address",
          "name": "account",
          "type": "address"
        }
      ],
      "name": "OwnableUnauthorizedAccount",
      "type": "error"
    },
    {
      "anonymous": false,
      "inputs": [
        {
          "indexed": true,
          "internalType": "address",
          "name": "previousOwner",
          "type": "address"
        },
        {
          "indexed": true,
          "internalType": "address",
          "name": "newOwner",
          "type": "address"
        }
      ],
      "name": "OwnershipTransferred",
      "type": "event"
    },
    {
      "anonymous": false,
      "inputs": [
        {
          "indexed": false,
          "internalType": "int64",
          "name": "price",
          "type": "int64"
        },
        {
          "indexed": false,
          "internalType": "uint64",
          "name": "confidence",
          "type": "uint64"
        },
        {
          "indexed": false,
          "internalType": "uint256",
          "name": "publishTime",
          "type": "uint256"
        }
      ],
      "name": "PriceUpdated",
      "type": "event"
    },
    {
      "anonymous": false,
      "inputs": [
        {
          "indexed": false,
          "internalType": "uint256",
          "name": "winningNumber",
          "type": "uint256"
        }
      ],
      "name": "WinnerChosen",
      "type": "event"
    },
    {
      "inputs": [
        {
          "internalType": "uint64",
          "name": "sequence",
          "type": "uint64"
        },
        {
          "internalType": "address",
          "name": "provider",
          "type": "address"
        },
        {
          "internalType": "bytes32",
          "name": "randomNumber",
          "type": "bytes32"
        }
      ],
      "name": "_entropyCallback",
      "outputs": [],
      "stateMutability": "nonpayable",
      "type": "function"
    },
    {
      "inputs": [
        {
          "internalType": "string",
          "name": "",
          "type": "string"
        }
      ],
      "name": "addressOfHandle",
      "outputs": [
        {
          "internalType": "address",
          "name": "",
          "type": "address"
        }
      ],
      "stateMutability": "view",
      "type": "function"
    },
    {
      "inputs": [],
      "name": "claim",
      "outputs": [],
      "stateMutability": "nonpayable",
      "type": "function"
    },
    {
      "inputs": [],
      "name": "description",
      "outputs": [
        {
          "internalType": "string",
          "name": "",
          "type": "string"
        }
      ],
      "stateMutability": "view",
      "type": "function"
    },
    {
      "inputs": [
        {
          "internalType": "bytes32",
          "name": "userRandomNumber",
          "type": "bytes32"
        }
      ],
      "name": "endContest",
      "outputs": [],
      "stateMutability": "payable",
      "type": "function"
    },
    {
      "inputs": [],
      "name": "endTimeContest",
      "outputs": [
        {
          "internalType": "uint256",
          "name": "",
          "type": "uint256"
        }
      ],
      "stateMutability": "view",
      "type": "function"
    },
    {
      "inputs": [
        {
          "internalType": "bytes[]",
          "name": "priceUpdate",
          "type": "bytes[]"
        }
      ],
      "name": "exampleMethod",
      "outputs": [],
      "stateMutability": "payable",
      "type": "function"
    },
    {
      "inputs": [
        {
          "internalType": "address",
          "name": "provider",
          "type": "address"
        }
      ],
      "name": "getEntropyFee",
      "outputs": [
        {
          "internalType": "uint256",
          "name": "",
          "type": "uint256"
        }
      ],
      "stateMutability": "view",
      "type": "function"
    },
    {
      "inputs": [],
      "name": "getRegistries",
      "outputs": [
        {
          "components": [
            {
              "internalType": "uint256",
              "name": "id",
              "type": "uint256"
            },
            {
              "internalType": "address",
              "name": "registryAddress",
              "type": "address"
            },
            {
              "internalType": "string",
              "name": "twitterHandle",
              "type": "string"
            }
          ],
          "internalType": "struct Contest.Registry[]",
          "name": "",
          "type": "tuple[]"
        }
      ],
      "stateMutability": "view",
      "type": "function"
    },
    {
      "inputs": [],
      "name": "getWinner",
      "outputs": [
        {
          "components": [
            {
              "internalType": "uint256",
              "name": "id",
              "type": "uint256"
            },
            {
              "internalType": "address",
              "name": "registryAddress",
              "type": "address"
            },
            {
              "internalType": "string",
              "name": "twitterHandle",
              "type": "string"
            }
          ],
          "internalType": "struct Contest.Registry",
          "name": "",
          "type": "tuple"
        }
      ],
      "stateMutability": "view",
      "type": "function"
    },
    {
      "inputs": [],
      "name": "owner",
      "outputs": [
        {
          "internalType": "address",
          "name": "",
          "type": "address"
        }
      ],
      "stateMutability": "view",
      "type": "function"
    },
    {
      "inputs": [
        {
          "internalType": "string",
          "name": "handle",
          "type": "string"
        }
      ],
      "name": "register",
      "outputs": [],
      "stateMutability": "nonpayable",
      "type": "function"
    },
    {
      "inputs": [
        {
          "internalType": "uint256",
          "name": "",
          "type": "uint256"
        }
      ],
      "name": "registries",
      "outputs": [
        {
          "internalType": "uint256",
          "name": "id",
          "type": "uint256"
        },
        {
          "internalType": "address",
          "name": "registryAddress",
          "type": "address"
        },
        {
          "internalType": "string",
          "name": "twitterHandle",
          "type": "string"
        }
      ],
      "stateMutability": "view",
      "type": "function"
    },
    {
      "inputs": [],
      "name": "renounceOwnership",
      "outputs": [],
      "stateMutability": "nonpayable",
      "type": "function"
    },
    {
      "inputs": [
        {
          "internalType": "bytes32",
          "name": "userRandomNumber",
          "type": "bytes32"
        }
      ],
      "name": "requestRandomNumber",
      "outputs": [],
      "stateMutability": "payable",
      "type": "function"
    },
    {
      "inputs": [
        {
          "internalType": "address",
          "name": "newOwner",
          "type": "address"
        }
      ],
      "name": "transferOwnership",
      "outputs": [],
      "stateMutability": "nonpayable",
      "type": "function"
    },
    {
      "inputs": [],
      "name": "twitterStatusId",
      "outputs": [
        {
          "internalType": "string",
          "name": "",
          "type": "string"
        }
      ],
      "stateMutability": "view",
      "type": "function"
    }
  ],
  "bytecode": "0x608060405260016006556001600760006101000a81548160ff02191690831515021790555034801561003057600080fd5b5060405161341438038061341483398181016040528101906100529190610456565b83600073ffffffffffffffffffffffffffffffffffffffff168173ffffffffffffffffffffffffffffffffffffffff16036100c55760006040517f1e4fbdf70000000000000000000000000000000000000000000000000000000081526004016100bc919061052a565b60405180910390fd5b6100d48161018960201b60201c565b5085600260006101000a81548173ffffffffffffffffffffffffffffffffffffffff021916908373ffffffffffffffffffffffffffffffffffffffff16021790555084600160006101000a81548173ffffffffffffffffffffffffffffffffffffffff021916908373ffffffffffffffffffffffffffffffffffffffff1602179055508260039081610166919061075c565b508160049081610176919061075c565b508060058190555050505050505061082e565b60008060009054906101000a900473ffffffffffffffffffffffffffffffffffffffff169050816000806101000a81548173ffffffffffffffffffffffffffffffffffffffff021916908373ffffffffffffffffffffffffffffffffffffffff1602179055508173ffffffffffffffffffffffffffffffffffffffff168173ffffffffffffffffffffffffffffffffffffffff167f8be0079c531659141344cd1fd0a4f28419497f9722a3daafe3b4186f6b6457e060405160405180910390a35050565b6000604051905090565b600080fd5b600080fd5b600073ffffffffffffffffffffffffffffffffffffffff82169050919050565b600061028c82610261565b9050919050565b61029c81610281565b81146102a757600080fd5b50565b6000815190506102b981610293565b92915050565b600080fd5b600080fd5b6000601f19601f8301169050919050565b7f4e487b7100000000000000000000000000000000000000000000000000000000600052604160045260246000fd5b610312826102c9565b810181811067ffffffffffffffff82111715610331576103306102da565b5b80604052505050565b600061034461024d565b90506103508282610309565b919050565b600067ffffffffffffffff8211156103705761036f6102da565b5b610379826102c9565b9050602081019050919050565b60005b838110156103a4578082015181840152602081019050610389565b60008484015250505050565b60006103c36103be84610355565b61033a565b9050828152602081018484840111156103df576103de6102c4565b5b6103ea848285610386565b509392505050565b600082601f830112610407576104066102bf565b5b81516104178482602086016103b0565b91505092915050565b6000819050919050565b61043381610420565b811461043e57600080fd5b50565b6000815190506104508161042a565b92915050565b60008060008060008060c0878903121561047357610472610257565b5b600061048189828a016102aa565b965050602061049289828a016102aa565b95505060406104a389828a016102aa565b945050606087015167ffffffffffffffff8111156104c4576104c361025c565b5b6104d089828a016103f2565b935050608087015167ffffffffffffffff8111156104f1576104f061025c565b5b6104fd89828a016103f2565b92505060a061050e89828a01610441565b9150509295509295509295565b61052481610281565b82525050565b600060208201905061053f600083018461051b565b92915050565b600081519050919050565b7f4e487b7100000000000000000000000000000000000000000000000000000000600052602260045260246000fd5b6000600282049050600182168061059757607f821691505b6020821081036105aa576105a9610550565b5b50919050565b60008190508160005260206000209050919050565b60006020601f8301049050919050565b600082821b905092915050565b6000600883026106127fffffffffffffffffffffffffffffffffffffffffffffffffffffffffffffffff826105d5565b61061c86836105d5565b95508019841693508086168417925050509392505050565b6000819050919050565b600061065961065461064f84610420565b610634565b610420565b9050919050565b6000819050919050565b6106738361063e565b61068761067f82610660565b8484546105e2565b825550505050565b600090565b61069c61068f565b6106a781848461066a565b505050565b5b818110156106cb576106c0600082610694565b6001810190506106ad565b5050565b601f821115610710576106e1816105b0565b6106ea846105c5565b810160208510156106f9578190505b61070d610705856105c5565b8301826106ac565b50505b505050565b600082821c905092915050565b600061073360001984600802610715565b1980831691505092915050565b600061074c8383610722565b9150826002028217905092915050565b61076582610545565b67ffffffffffffffff81111561077e5761077d6102da565b5b610788825461057f565b6107938282856106cf565b600060209050601f8311600181146107c657600084156107b4578287015190505b6107be8582610740565b865550610826565b601f1984166107d4866105b0565b60005b828110156107fc578489015182556001820191506020850194506020810190506107d7565b868310156108195784890151610815601f891682610722565b8355505b6001600288020188555050505b505050505050565b612bd78061083d6000396000f3fe6080604052600436106100fe5760003560e01c8063b2eca89c11610095578063e0c297c311610064578063e0c297c3146102e5578063e15f616f14610301578063f2c298be1461033e578063f2fde38b14610367578063f623d41714610390576100fe565b8063b2eca89c14610245578063bd313d7814610282578063c9b5773f1461029e578063d06abdd2146102c9576100fe565b8063715018a6116100d1578063715018a6146101ad5780637284e416146101c45780638da5cb5b146101ef5780638e7ea5b21461021a576100fe565b806335884e5a146101035780634e71d92d1461012e57806352a5f1f8146101455780636347c9001461016e575b600080fd5b34801561010f57600080fd5b506101186103bb565b60405161012591906118e7565b60405180910390f35b34801561013a57600080fd5b5061014361050c565b005b34801561015157600080fd5b5061016c600480360381019061016791906119bf565b6105c3565b005b34801561017a57600080fd5b5061019560048036038101906101909190611a3e565b6106bd565b6040516101a493929190611ad3565b60405180910390f35b3480156101b957600080fd5b506101c261079f565b005b3480156101d057600080fd5b506101d96107b3565b6040516101e69190611b11565b60405180910390f35b3480156101fb57600080fd5b50610204610841565b6040516102119190611b33565b60405180910390f35b34801561022657600080fd5b5061022f61086a565b60405161023c9190611b9e565b60405180910390f35b34801561025157600080fd5b5061026c60048036038101906102679190611cf5565b6109e9565b6040516102799190611b33565b60405180910390f35b61029c60048036038101906102979190611d3e565b610a32565b005b3480156102aa57600080fd5b506102b3610c24565b6040516102c09190611b11565b60405180910390f35b6102e360048036038101906102de9190611d3e565b610cb2565b005b6102ff60048036038101906102fa9190611dcb565b610f57565b005b34801561030d57600080fd5b5061032860048036038101906103239190611e18565b6111a2565b6040516103359190611e45565b60405180910390f35b34801561034a57600080fd5b5061036560048036038101906103609190611cf5565b611259565b005b34801561037357600080fd5b5061038e60048036038101906103899190611e18565b6113f4565b005b34801561039c57600080fd5b506103a561147a565b6040516103b29190611e45565b60405180910390f35b60606009805480602002602001604051908101604052809291908181526020016000905b828210156105035783829060005260206000209060030201604051806060016040529081600082015481526020016001820160009054906101000a900473ffffffffffffffffffffffffffffffffffffffff1673ffffffffffffffffffffffffffffffffffffffff1673ffffffffffffffffffffffffffffffffffffffff16815260200160028201805461047290611e8f565b80601f016020809104026020016040519081016040528092919081815260200182805461049e90611e8f565b80156104eb5780601f106104c0576101008083540402835291602001916104eb565b820191906000526020600020905b8154815290600101906020018083116104ce57829003601f168201915b505050505081525050815260200190600101906103df565b50505050905090565b3373ffffffffffffffffffffffffffffffffffffffff1660096008548154811061053957610538611ec0565b5b906000526020600020906003020160010160009054906101000a900473ffffffffffffffffffffffffffffffffffffffff1673ffffffffffffffffffffffffffffffffffffffff16146105c1576040517f08c379a00000000000000000000000000000000000000000000000000000000081526004016105b890611f61565b60405180910390fd5b565b60006105cd611480565b9050600073ffffffffffffffffffffffffffffffffffffffff168173ffffffffffffffffffffffffffffffffffffffff160361063e576040517f08c379a000000000000000000000000000000000000000000000000000000000815260040161063590611fcd565b60405180910390fd5b8073ffffffffffffffffffffffffffffffffffffffff163373ffffffffffffffffffffffffffffffffffffffff16146106ac576040517f08c379a00000000000000000000000000000000000000000000000000000000081526004016106a39061205f565b60405180910390fd5b6106b78484846114aa565b50505050565b600981815481106106cd57600080fd5b90600052602060002090600302016000915090508060000154908060010160009054906101000a900473ffffffffffffffffffffffffffffffffffffffff169080600201805461071c90611e8f565b80601f016020809104026020016040519081016040528092919081815260200182805461074890611e8f565b80156107955780601f1061076a57610100808354040283529160200191610795565b820191906000526020600020905b81548152906001019060200180831161077857829003601f168201915b5050505050905083565b6107a7611561565b6107b160006115e8565b565b600480546107c090611e8f565b80601f01602080910402602001604051908101604052809291908181526020018280546107ec90611e8f565b80156108395780601f1061080e57610100808354040283529160200191610839565b820191906000526020600020905b81548152906001019060200180831161081c57829003601f168201915b505050505081565b60008060009054906101000a900473ffffffffffffffffffffffffffffffffffffffff16905090565b6108726116b4565b6000600854116108b7576040517f08c379a00000000000000000000000000000000000000000000000000000000081526004016108ae906120cb565b60405180910390fd5b600960016008546108c8919061211a565b815481106108d9576108d8611ec0565b5b9060005260206000209060030201604051806060016040529081600082015481526020016001820160009054906101000a900473ffffffffffffffffffffffffffffffffffffffff1673ffffffffffffffffffffffffffffffffffffffff1673ffffffffffffffffffffffffffffffffffffffff16815260200160028201805461096290611e8f565b80601f016020809104026020016040519081016040528092919081815260200182805461098e90611e8f565b80156109db5780601f106109b0576101008083540402835291602001916109db565b820191906000526020600020905b8154815290600101906020018083116109be57829003601f168201915b505050505081525050905090565b600b818051602081018201805184825260208301602085012081835280955050505050506000915054906101000a900473ffffffffffffffffffffffffffffffffffffffff1681565b6000600260009054906101000a900473ffffffffffffffffffffffffffffffffffffffff1673ffffffffffffffffffffffffffffffffffffffff166382ee990c6040518163ffffffff1660e01b8152600401602060405180830381865afa158015610aa1573d6000803e3d6000fd5b505050506040513d601f19601f82011682018060405250810190610ac59190612163565b90506000600260009054906101000a900473ffffffffffffffffffffffffffffffffffffffff1673ffffffffffffffffffffffffffffffffffffffff1663b88c9148836040518263ffffffff1660e01b8152600401610b249190611b33565b602060405180830381865afa158015610b41573d6000803e3d6000fd5b505050506040513d601f19601f82011682018060405250810190610b6591906121d8565b6fffffffffffffffffffffffffffffffff1690506000600260009054906101000a900473ffffffffffffffffffffffffffffffffffffffff1673ffffffffffffffffffffffffffffffffffffffff166319cb825f8385876040518463ffffffff1660e01b8152600401610bd9929190612214565b60206040518083038185885af1158015610bf7573d6000803e3d6000fd5b50505050506040513d601f19601f82011682018060405250810190610c1c9190612252565b905050505050565b60038054610c3190611e8f565b80601f0160208091040260200160405190810160405280929190818152602001828054610c5d90611e8f565b8015610caa5780601f10610c7f57610100808354040283529160200191610caa565b820191906000526020600020905b815481529060010190602001808311610c8d57829003601f168201915b505050505081565b610cba611561565b600760009054906101000a900460ff16610d09576040517f08c379a0000000000000000000000000000000000000000000000000000000008152600401610d00906122cb565b60405180910390fd5b600160065411610d4e576040517f08c379a0000000000000000000000000000000000000000000000000000000008152600401610d4590612337565b60405180910390fd5b6000600760006101000a81548160ff0219169083151502179055506000600260009054906101000a900473ffffffffffffffffffffffffffffffffffffffff1673ffffffffffffffffffffffffffffffffffffffff166382ee990c6040518163ffffffff1660e01b8152600401602060405180830381865afa158015610dd8573d6000803e3d6000fd5b505050506040513d601f19601f82011682018060405250810190610dfc9190612163565b90506000600260009054906101000a900473ffffffffffffffffffffffffffffffffffffffff1673ffffffffffffffffffffffffffffffffffffffff1663b88c9148836040518263ffffffff1660e01b8152600401610e5b9190611b33565b602060405180830381865afa158015610e78573d6000803e3d6000fd5b505050506040513d601f19601f82011682018060405250810190610e9c91906121d8565b6fffffffffffffffffffffffffffffffff169050600260009054906101000a900473ffffffffffffffffffffffffffffffffffffffff1673ffffffffffffffffffffffffffffffffffffffff166319cb825f8284866040518463ffffffff1660e01b8152600401610f0e929190612214565b60206040518083038185885af1158015610f2c573d6000803e3d6000fd5b50505050506040513d601f19601f82011682018060405250810190610f519190612252565b50505050565b6000600160009054906101000a900473ffffffffffffffffffffffffffffffffffffffff1673ffffffffffffffffffffffffffffffffffffffff1663d47eed4584846040518363ffffffff1660e01b8152600401610fb69291906124bb565b602060405180830381865afa158015610fd3573d6000803e3d6000fd5b505050506040513d601f19601f82011682018060405250810190610ff791906124f4565b9050600160009054906101000a900473ffffffffffffffffffffffffffffffffffffffff1673ffffffffffffffffffffffffffffffffffffffff1663ef9e5e288285856040518463ffffffff1660e01b81526004016110579291906124bb565b6000604051808303818588803b15801561107057600080fd5b505af1158015611084573d6000803e3d6000fd5b505050505060007fff61491a931112ddf1bd8147cd1b641375f79f5825126d665480874634fd0ace60001b90506000600160009054906101000a900473ffffffffffffffffffffffffffffffffffffffff1673ffffffffffffffffffffffffffffffffffffffff1663a4ae35e083603c6040518363ffffffff1660e01b8152600401611111929190612566565b608060405180830381865afa15801561112e573d6000803e3d6000fd5b505050506040513d601f19601f82011682018060405250810190611152919061267e565b90507f6868b56bbbc4c847be9aa8488a92e6fc784e19300474b0f2bbb1cd55bbc365bc816000015182602001518360600151604051611193939291906126c9565b60405180910390a15050505050565b6000600260009054906101000a900473ffffffffffffffffffffffffffffffffffffffff1673ffffffffffffffffffffffffffffffffffffffff1663b88c9148836040518263ffffffff1660e01b81526004016111ff9190611b33565b602060405180830381865afa15801561121c573d6000803e3d6000fd5b505050506040513d601f19601f8201168201806040525081019061124091906121d8565b6fffffffffffffffffffffffffffffffff169050919050565b60011515600760009054906101000a900460ff161515146112af576040517f08c379a00000000000000000000000000000000000000000000000000000000081526004016112a69061274c565b60405180910390fd5b6000604051806060016040528060065481526020013373ffffffffffffffffffffffffffffffffffffffff16815260200183815250905060098190806001815401808255809150506001900390600052602060002090600302016000909190919091506000820151816000015560208201518160010160006101000a81548173ffffffffffffffffffffffffffffffffffffffff021916908373ffffffffffffffffffffffffffffffffffffffff1602179055506040820151816002019081611378919061290e565b5050506006600081548092919061138e906129e0565b919050555033600b836040516113a49190612a64565b908152602001604051809103902060006101000a81548173ffffffffffffffffffffffffffffffffffffffff021916908373ffffffffffffffffffffffffffffffffffffffff1602179055505050565b6113fc611561565b600073ffffffffffffffffffffffffffffffffffffffff168173ffffffffffffffffffffffffffffffffffffffff160361146e5760006040517f1e4fbdf70000000000000000000000000000000000000000000000000000000081526004016114659190611b33565b60405180910390fd5b611477816115e8565b50565b60055481565b6000600260009054906101000a900473ffffffffffffffffffffffffffffffffffffffff16905090565b600760009054906101000a900460ff16156114fa576040517f08c379a00000000000000000000000000000000000000000000000000000000081526004016114f190612aed565b60405180910390fd5b60008160001c90506001600654826115129190612b3c565b61151c9190612b6d565b6008819055507fae3f88d56af8ef248164ab259baacc4ff82c4a7192a027616cb6e1b474b182d86008546040516115539190611e45565b60405180910390a150505050565b6115696116ac565b73ffffffffffffffffffffffffffffffffffffffff16611587610841565b73ffffffffffffffffffffffffffffffffffffffff16146115e6576115aa6116ac565b6040517f118cdaa70000000000000000000000000000000000000000000000000000000081526004016115dd9190611b33565b60405180910390fd5b565b60008060009054906101000a900473ffffffffffffffffffffffffffffffffffffffff169050816000806101000a81548173ffffffffffffffffffffffffffffffffffffffff021916908373ffffffffffffffffffffffffffffffffffffffff1602179055508173ffffffffffffffffffffffffffffffffffffffff168173ffffffffffffffffffffffffffffffffffffffff167f8be0079c531659141344cd1fd0a4f28419497f9722a3daafe3b4186f6b6457e060405160405180910390a35050565b600033905090565b604051806060016040528060008152602001600073ffffffffffffffffffffffffffffffffffffffff168152602001606081525090565b600081519050919050565b600082825260208201905092915050565b6000819050602082019050919050565b6000819050919050565b61172a81611717565b82525050565b600073ffffffffffffffffffffffffffffffffffffffff82169050919050565b600061175b82611730565b9050919050565b61176b81611750565b82525050565b600081519050919050565b600082825260208201905092915050565b60005b838110156117ab578082015181840152602081019050611790565b60008484015250505050565b6000601f19601f8301169050919050565b60006117d382611771565b6117dd818561177c565b93506117ed81856020860161178d565b6117f6816117b7565b840191505092915050565b60006060830160008301516118196000860182611721565b50602083015161182c6020860182611762565b506040830151848203604086015261184482826117c8565b9150508091505092915050565b600061185d8383611801565b905092915050565b6000602082019050919050565b600061187d826116eb565b61188781856116f6565b93508360208202850161189985611707565b8060005b858110156118d557848403895281516118b68582611851565b94506118c183611865565b925060208a0199505060018101905061189d565b50829750879550505050505092915050565b600060208201905081810360008301526119018184611872565b905092915050565b6000604051905090565b600080fd5b600080fd5b600067ffffffffffffffff82169050919050565b61193a8161191d565b811461194557600080fd5b50565b60008135905061195781611931565b92915050565b61196681611750565b811461197157600080fd5b50565b6000813590506119838161195d565b92915050565b6000819050919050565b61199c81611989565b81146119a757600080fd5b50565b6000813590506119b981611993565b92915050565b6000806000606084860312156119d8576119d7611913565b5b60006119e686828701611948565b93505060206119f786828701611974565b9250506040611a08868287016119aa565b9150509250925092565b611a1b81611717565b8114611a2657600080fd5b50565b600081359050611a3881611a12565b92915050565b600060208284031215611a5457611a53611913565b5b6000611a6284828501611a29565b91505092915050565b611a7481611717565b82525050565b611a8381611750565b82525050565b600082825260208201905092915050565b6000611aa582611771565b611aaf8185611a89565b9350611abf81856020860161178d565b611ac8816117b7565b840191505092915050565b6000606082019050611ae86000830186611a6b565b611af56020830185611a7a565b8181036040830152611b078184611a9a565b9050949350505050565b60006020820190508181036000830152611b2b8184611a9a565b905092915050565b6000602082019050611b486000830184611a7a565b92915050565b6000606083016000830151611b666000860182611721565b506020830151611b796020860182611762565b5060408301518482036040860152611b9182826117c8565b9150508091505092915050565b60006020820190508181036000830152611bb88184611b4e565b905092915050565b600080fd5b600080fd5b7f4e487b7100000000000000000000000000000000000000000000000000000000600052604160045260246000fd5b611c02826117b7565b810181811067ffffffffffffffff82111715611c2157611c20611bca565b5b80604052505050565b6000611c34611909565b9050611c408282611bf9565b919050565b600067ffffffffffffffff821115611c6057611c5f611bca565b5b611c69826117b7565b9050602081019050919050565b82818337600083830152505050565b6000611c98611c9384611c45565b611c2a565b905082815260208101848484011115611cb457611cb3611bc5565b5b611cbf848285611c76565b509392505050565b600082601f830112611cdc57611cdb611bc0565b5b8135611cec848260208601611c85565b91505092915050565b600060208284031215611d0b57611d0a611913565b5b600082013567ffffffffffffffff811115611d2957611d28611918565b5b611d3584828501611cc7565b91505092915050565b600060208284031215611d5457611d53611913565b5b6000611d62848285016119aa565b91505092915050565b600080fd5b600080fd5b60008083601f840112611d8b57611d8a611bc0565b5b8235905067ffffffffffffffff811115611da857611da7611d6b565b5b602083019150836020820283011115611dc457611dc3611d70565b5b9250929050565b60008060208385031215611de257611de1611913565b5b600083013567ffffffffffffffff811115611e0057611dff611918565b5b611e0c85828601611d75565b92509250509250929050565b600060208284031215611e2e57611e2d611913565b5b6000611e3c84828501611974565b91505092915050565b6000602082019050611e5a6000830184611a6b565b92915050565b7f4e487b7100000000000000000000000000000000000000000000000000000000600052602260045260246000fd5b60006002820490506001821680611ea757607f821691505b602082108103611eba57611eb9611e60565b5b50919050565b7f4e487b7100000000000000000000000000000000000000000000000000000000600052603260045260246000fd5b7f596f7520617265206e6f74207468652077696e6e6572206f662074686973206360008201527f6f6e74656e740000000000000000000000000000000000000000000000000000602082015250565b6000611f4b602683611a89565b9150611f5682611eef565b604082019050919050565b60006020820190508181036000830152611f7a81611f3e565b9050919050565b7f456e74726f70792061646472657373206e6f7420736574000000000000000000600082015250565b6000611fb7601783611a89565b9150611fc282611f81565b602082019050919050565b60006020820190508181036000830152611fe681611faa565b9050919050565b7f4f6e6c7920456e74726f70792063616e2063616c6c20746869732066756e637460008201527f696f6e0000000000000000000000000000000000000000000000000000000000602082015250565b6000612049602383611a89565b915061205482611fed565b604082019050919050565b600060208201905081810360008301526120788161203c565b9050919050565b7f57696e6e6572206e6f742063686f73656e207965740000000000000000000000600082015250565b60006120b5601583611a89565b91506120c08261207f565b602082019050919050565b600060208201905081810360008301526120e4816120a8565b9050919050565b7f4e487b7100000000000000000000000000000000000000000000000000000000600052601160045260246000fd5b600061212582611717565b915061213083611717565b9250828203905081811115612148576121476120eb565b5b92915050565b60008151905061215d8161195d565b92915050565b60006020828403121561217957612178611913565b5b60006121878482850161214e565b91505092915050565b60006fffffffffffffffffffffffffffffffff82169050919050565b6121b581612190565b81146121c057600080fd5b50565b6000815190506121d2816121ac565b92915050565b6000602082840312156121ee576121ed611913565b5b60006121fc848285016121c3565b91505092915050565b61220e81611989565b82525050565b60006040820190506122296000830185611a7a565b6122366020830184612205565b9392505050565b60008151905061224c81611931565b92915050565b60006020828403121561226857612267611913565b5b60006122768482850161223d565b91505092915050565b7f4e6f20636f6e74657374206f6e676f696e670000000000000000000000000000600082015250565b60006122b5601283611a89565b91506122c08261227f565b602082019050919050565b600060208201905081810360008301526122e4816122a8565b9050919050565b7f4e6f207061727469636970616e74730000000000000000000000000000000000600082015250565b6000612321600f83611a89565b915061232c826122eb565b602082019050919050565b6000602082019050818103600083015261235081612314565b9050919050565b600082825260208201905092915050565b6000819050919050565b600082825260208201905092915050565b600061238f8385612372565b935061239c838584611c76565b6123a5836117b7565b840190509392505050565b60006123bd848484612383565b90509392505050565b600080fd5b600080fd5b600080fd5b600080833560016020038436030381126123f2576123f16123d0565b5b83810192508235915060208301925067ffffffffffffffff82111561241a576124196123c6565b5b6001820236038313156124305761242f6123cb565b5b509250929050565b6000602082019050919050565b60006124518385612357565b93508360208402850161246384612368565b8060005b878110156124a957848403895261247e82846123d5565b6124898682846123b0565b955061249484612438565b935060208b019a505050600181019050612467565b50829750879450505050509392505050565b600060208201905081810360008301526124d6818486612445565b90509392505050565b6000815190506124ee81611a12565b92915050565b60006020828403121561250a57612509611913565b5b6000612518848285016124df565b91505092915050565b6000819050919050565b6000819050919050565b600061255061254b61254684612521565b61252b565b611717565b9050919050565b61256081612535565b82525050565b600060408201905061257b6000830185612205565b6125886020830184612557565b9392505050565b600080fd5b60008160070b9050919050565b6125aa81612594565b81146125b557600080fd5b50565b6000815190506125c7816125a1565b92915050565b60008160030b9050919050565b6125e3816125cd565b81146125ee57600080fd5b50565b600081519050612600816125da565b92915050565b60006080828403121561261c5761261b61258f565b5b6126266080611c2a565b90506000612636848285016125b8565b600083015250602061264a8482850161223d565b602083015250604061265e848285016125f1565b6040830152506060612672848285016124df565b60608301525092915050565b60006080828403121561269457612693611913565b5b60006126a284828501612606565b91505092915050565b6126b481612594565b82525050565b6126c38161191d565b82525050565b60006060820190506126de60008301866126ab565b6126eb60208301856126ba565b6126f86040830184611a6b565b949350505050565b7f436f6e74657374206973206e6f74206f70656e00000000000000000000000000600082015250565b6000612736601383611a89565b915061274182612700565b602082019050919050565b6000602082019050818103600083015261276581612729565b9050919050565b60008190508160005260206000209050919050565b60006020601f8301049050919050565b600082821b905092915050565b6000600883026127ce7fffffffffffffffffffffffffffffffffffffffffffffffffffffffffffffffff82612791565b6127d88683612791565b95508019841693508086168417925050509392505050565b600061280b61280661280184611717565b61252b565b611717565b9050919050565b6000819050919050565b612825836127f0565b61283961283182612812565b84845461279e565b825550505050565b600090565b61284e612841565b61285981848461281c565b505050565b5b8181101561287d57612872600082612846565b60018101905061285f565b5050565b601f8211156128c2576128938161276c565b61289c84612781565b810160208510156128ab578190505b6128bf6128b785612781565b83018261285e565b50505b505050565b600082821c905092915050565b60006128e5600019846008026128c7565b1980831691505092915050565b60006128fe83836128d4565b9150826002028217905092915050565b61291782611771565b67ffffffffffffffff8111156129305761292f611bca565b5b61293a8254611e8f565b612945828285612881565b600060209050601f8311600181146129785760008415612966578287015190505b61297085826128f2565b8655506129d8565b601f1984166129868661276c565b60005b828110156129ae57848901518255600182019150602085019450602081019050612989565b868310156129cb57848901516129c7601f8916826128d4565b8355505b6001600288020188555050505b505050505050565b60006129eb82611717565b91507fffffffffffffffffffffffffffffffffffffffffffffffffffffffffffffffff8203612a1d57612a1c6120eb565b5b600182019050919050565b600081905092915050565b6000612a3e82611771565b612a488185612a28565b9350612a5881856020860161178d565b80840191505092915050565b6000612a708284612a33565b915081905092915050565b7f436f6e74657374206d75737420626520656e646564206265666f72652072657360008201527f6f6c76696e672077696e6e657200000000000000000000000000000000000000602082015250565b6000612ad7602d83611a89565b9150612ae282612a7b565b604082019050919050565b60006020820190508181036000830152612b0681612aca565b9050919050565b7f4e487b7100000000000000000000000000000000000000000000000000000000600052601260045260246000fd5b6000612b4782611717565b9150612b5283611717565b925082612b6257612b61612b0d565b5b828206905092915050565b6000612b7882611717565b9150612b8383611717565b9250828201905080821115612b9b57612b9a6120eb565b5b9291505056fea26469706673582212202c3b6da7b42570d6c496f210d69f6c9532b2055b053d568fca6ea553a38a6eb364736f6c634300081b0033",
  "linkReferences": {},
  "deployedLinkReferences": {}
}