{
  "_format": "hh-sol-artifact-1",
  "contractName": "Contest",
  "sourceName": "contracts/Contest.sol",
  "abi": [
    {
      "inputs": [
        {
          "internalType": "address",
          "name": "entropyAddress",
          "type": "address"
        },
        {
          "internalType": "address",
          "name": "pythContract",
          "type": "address"
        },
        {
          "internalType": "address",
          "name": "_owner",
          "type": "address"
        },
        {
          "internalType": "string",
          "name": "_twitterStatusId",
          "type": "string"
        },
        {
          "internalType": "string",
          "name": "_description",
          "type": "string"
        },
        {
          "internalType": "uint256",
          "name": "_endTimeContest",
          "type": "uint256"
        }
      ],
      "stateMutability": "nonpayable",
      "type": "constructor"
    },
    {
      "inputs": [
        {
          "internalType": "address",
          "name": "owner",
          "type": "address"
        }
      ],
      "name": "OwnableInvalidOwner",
      "type": "error"
    },
    {
      "inputs": [
        {
          "internalType": "address",
          "name": "account",
          "type": "address"
        }
      ],
      "name": "OwnableUnauthorizedAccount",
      "type": "error"
    },
    {
      "anonymous": false,
      "inputs": [
        {
          "indexed": true,
          "internalType": "address",
          "name": "previousOwner",
          "type": "address"
        },
        {
          "indexed": true,
          "internalType": "address",
          "name": "newOwner",
          "type": "address"
        }
      ],
      "name": "OwnershipTransferred",
      "type": "event"
    },
    {
      "anonymous": false,
      "inputs": [
        {
          "indexed": false,
          "internalType": "int64",
          "name": "price",
          "type": "int64"
        },
        {
          "indexed": false,
          "internalType": "uint64",
          "name": "confidence",
          "type": "uint64"
        },
        {
          "indexed": false,
          "internalType": "uint256",
          "name": "publishTime",
          "type": "uint256"
        }
      ],
      "name": "PriceUpdated",
      "type": "event"
    },
    {
      "anonymous": false,
      "inputs": [
        {
          "indexed": false,
          "internalType": "uint256",
          "name": "winningNumber",
          "type": "uint256"
        }
      ],
      "name": "WinnerChosen",
      "type": "event"
    },
    {
      "inputs": [
        {
          "internalType": "uint64",
          "name": "sequence",
          "type": "uint64"
        },
        {
          "internalType": "address",
          "name": "provider",
          "type": "address"
        },
        {
          "internalType": "bytes32",
          "name": "randomNumber",
          "type": "bytes32"
        }
      ],
      "name": "_entropyCallback",
      "outputs": [],
      "stateMutability": "nonpayable",
      "type": "function"
    },
    {
      "inputs": [
        {
          "internalType": "string",
          "name": "",
          "type": "string"
        }
      ],
      "name": "addressOfHandle",
      "outputs": [
        {
          "internalType": "address",
          "name": "",
          "type": "address"
        }
      ],
      "stateMutability": "view",
      "type": "function"
    },
    {
      "inputs": [],
      "name": "claim",
      "outputs": [],
      "stateMutability": "nonpayable",
      "type": "function"
    },
    {
      "inputs": [],
      "name": "description",
      "outputs": [
        {
          "internalType": "string",
          "name": "",
          "type": "string"
        }
      ],
      "stateMutability": "view",
      "type": "function"
    },
    {
      "inputs": [
        {
          "internalType": "bytes32",
          "name": "userRandomNumber",
          "type": "bytes32"
        }
      ],
      "name": "endContest",
      "outputs": [],
      "stateMutability": "payable",
      "type": "function"
    },
    {
      "inputs": [],
      "name": "endTimeContest",
      "outputs": [
        {
          "internalType": "uint256",
          "name": "",
          "type": "uint256"
        }
      ],
      "stateMutability": "view",
      "type": "function"
    },
    {
      "inputs": [
        {
          "internalType": "bytes[]",
          "name": "priceUpdate",
          "type": "bytes[]"
        }
      ],
      "name": "exampleMethod",
      "outputs": [],
      "stateMutability": "payable",
      "type": "function"
    },
    {
      "inputs": [
        {
          "internalType": "address",
          "name": "provider",
          "type": "address"
        }
      ],
      "name": "getEntropyFee",
      "outputs": [
        {
          "internalType": "uint256",
          "name": "",
          "type": "uint256"
        }
      ],
      "stateMutability": "view",
      "type": "function"
    },
    {
      "inputs": [],
      "name": "getRegistries",
      "outputs": [
        {
          "components": [
            {
              "internalType": "uint256",
              "name": "id",
              "type": "uint256"
            },
            {
              "internalType": "address",
              "name": "registryAddress",
              "type": "address"
            },
            {
              "internalType": "string",
              "name": "twitterHandle",
              "type": "string"
            }
          ],
          "internalType": "struct Contest.Registry[]",
          "name": "",
          "type": "tuple[]"
        }
      ],
      "stateMutability": "view",
      "type": "function"
    },
    {
      "inputs": [],
      "name": "getWinner",
      "outputs": [
        {
          "components": [
            {
              "internalType": "uint256",
              "name": "id",
              "type": "uint256"
            },
            {
              "internalType": "address",
              "name": "registryAddress",
              "type": "address"
            },
            {
              "internalType": "string",
              "name": "twitterHandle",
              "type": "string"
            }
          ],
          "internalType": "struct Contest.Registry",
          "name": "",
          "type": "tuple"
        }
      ],
      "stateMutability": "view",
      "type": "function"
    },
    {
      "inputs": [],
      "name": "owner",
      "outputs": [
        {
          "internalType": "address",
          "name": "",
          "type": "address"
        }
      ],
      "stateMutability": "view",
      "type": "function"
    },
    {
      "inputs": [
        {
          "internalType": "string",
          "name": "handle",
          "type": "string"
        }
      ],
      "name": "register",
      "outputs": [],
      "stateMutability": "nonpayable",
      "type": "function"
    },
    {
      "inputs": [
        {
          "internalType": "uint256",
          "name": "",
          "type": "uint256"
        }
      ],
      "name": "registries",
      "outputs": [
        {
          "internalType": "uint256",
          "name": "id",
          "type": "uint256"
        },
        {
          "internalType": "address",
          "name": "registryAddress",
          "type": "address"
        },
        {
          "internalType": "string",
          "name": "twitterHandle",
          "type": "string"
        }
      ],
      "stateMutability": "view",
      "type": "function"
    },
    {
      "inputs": [],
      "name": "renounceOwnership",
      "outputs": [],
      "stateMutability": "nonpayable",
      "type": "function"
    },
    {
      "inputs": [
        {
          "internalType": "bytes32",
          "name": "userRandomNumber",
          "type": "bytes32"
        }
      ],
      "name": "requestRandomNumber",
      "outputs": [],
      "stateMutability": "payable",
      "type": "function"
    },
    {
      "inputs": [],
      "name": "startTimeContest",
      "outputs": [
        {
          "internalType": "uint256",
          "name": "",
          "type": "uint256"
        }
      ],
      "stateMutability": "view",
      "type": "function"
    },
    {
      "inputs": [
        {
          "internalType": "address",
          "name": "newOwner",
          "type": "address"
        }
      ],
      "name": "transferOwnership",
      "outputs": [],
      "stateMutability": "nonpayable",
      "type": "function"
    },
    {
      "inputs": [],
      "name": "twitterStatusId",
      "outputs": [
        {
          "internalType": "string",
          "name": "",
          "type": "string"
        }
      ],
      "stateMutability": "view",
      "type": "function"
    }
  ],
  "bytecode": "0x608060405260016007556001600860006101000a81548160ff02191690831515021790555034801561003057600080fd5b506040516134573803806134578339818101604052810190610052919061045d565b83600073ffffffffffffffffffffffffffffffffffffffff168173ffffffffffffffffffffffffffffffffffffffff16036100c55760006040517f1e4fbdf70000000000000000000000000000000000000000000000000000000081526004016100bc9190610531565b60405180910390fd5b6100d48161019060201b60201c565b5085600260006101000a81548173ffffffffffffffffffffffffffffffffffffffff021916908373ffffffffffffffffffffffffffffffffffffffff16021790555084600160006101000a81548173ffffffffffffffffffffffffffffffffffffffff021916908373ffffffffffffffffffffffffffffffffffffffff16021790555082600390816101669190610763565b5081600490816101769190610763565b504260058190555080600681905550505050505050610835565b60008060009054906101000a900473ffffffffffffffffffffffffffffffffffffffff169050816000806101000a81548173ffffffffffffffffffffffffffffffffffffffff021916908373ffffffffffffffffffffffffffffffffffffffff1602179055508173ffffffffffffffffffffffffffffffffffffffff168173ffffffffffffffffffffffffffffffffffffffff167f8be0079c531659141344cd1fd0a4f28419497f9722a3daafe3b4186f6b6457e060405160405180910390a35050565b6000604051905090565b600080fd5b600080fd5b600073ffffffffffffffffffffffffffffffffffffffff82169050919050565b600061029382610268565b9050919050565b6102a381610288565b81146102ae57600080fd5b50565b6000815190506102c08161029a565b92915050565b600080fd5b600080fd5b6000601f19601f8301169050919050565b7f4e487b7100000000000000000000000000000000000000000000000000000000600052604160045260246000fd5b610319826102d0565b810181811067ffffffffffffffff82111715610338576103376102e1565b5b80604052505050565b600061034b610254565b90506103578282610310565b919050565b600067ffffffffffffffff821115610377576103766102e1565b5b610380826102d0565b9050602081019050919050565b60005b838110156103ab578082015181840152602081019050610390565b60008484015250505050565b60006103ca6103c58461035c565b610341565b9050828152602081018484840111156103e6576103e56102cb565b5b6103f184828561038d565b509392505050565b600082601f83011261040e5761040d6102c6565b5b815161041e8482602086016103b7565b91505092915050565b6000819050919050565b61043a81610427565b811461044557600080fd5b50565b60008151905061045781610431565b92915050565b60008060008060008060c0878903121561047a5761047961025e565b5b600061048889828a016102b1565b965050602061049989828a016102b1565b95505060406104aa89828a016102b1565b945050606087015167ffffffffffffffff8111156104cb576104ca610263565b5b6104d789828a016103f9565b935050608087015167ffffffffffffffff8111156104f8576104f7610263565b5b61050489828a016103f9565b92505060a061051589828a01610448565b9150509295509295509295565b61052b81610288565b82525050565b60006020820190506105466000830184610522565b92915050565b600081519050919050565b7f4e487b7100000000000000000000000000000000000000000000000000000000600052602260045260246000fd5b6000600282049050600182168061059e57607f821691505b6020821081036105b1576105b0610557565b5b50919050565b60008190508160005260206000209050919050565b60006020601f8301049050919050565b600082821b905092915050565b6000600883026106197fffffffffffffffffffffffffffffffffffffffffffffffffffffffffffffffff826105dc565b61062386836105dc565b95508019841693508086168417925050509392505050565b6000819050919050565b600061066061065b61065684610427565b61063b565b610427565b9050919050565b6000819050919050565b61067a83610645565b61068e61068682610667565b8484546105e9565b825550505050565b600090565b6106a3610696565b6106ae818484610671565b505050565b5b818110156106d2576106c760008261069b565b6001810190506106b4565b5050565b601f821115610717576106e8816105b7565b6106f1846105cc565b81016020851015610700578190505b61071461070c856105cc565b8301826106b3565b50505b505050565b600082821c905092915050565b600061073a6000198460080261071c565b1980831691505092915050565b60006107538383610729565b9150826002028217905092915050565b61076c8261054c565b67ffffffffffffffff811115610785576107846102e1565b5b61078f8254610586565b61079a8282856106d6565b600060209050601f8311600181146107cd57600084156107bb578287015190505b6107c58582610747565b86555061082d565b601f1984166107db866105b7565b60005b82811015610803578489015182556001820191506020850194506020810190506107de565b86831015610820578489015161081c601f891682610729565b8355505b6001600288020188555050505b505050505050565b612c13806108446000396000f3fe6080604052600436106101095760003560e01c8063b2eca89c11610095578063e0c297c311610064578063e0c297c31461031b578063e15f616f14610337578063f2c298be14610374578063f2fde38b1461039d578063f623d417146103c657610109565b8063b2eca89c1461027b578063bd313d78146102b8578063c9b5773f146102d4578063d06abdd2146102ff57610109565b80636347c900116100dc5780636347c900146101a4578063715018a6146101e35780637284e416146101fa5780638da5cb5b146102255780638e7ea5b21461025057610109565b806335884e5a1461010e57806336c2d6de146101395780634e71d92d1461016457806352a5f1f81461017b575b600080fd5b34801561011a57600080fd5b506101236103f1565b6040516101309190611923565b60405180910390f35b34801561014557600080fd5b5061014e610542565b60405161015b9190611954565b60405180910390f35b34801561017057600080fd5b50610179610548565b005b34801561018757600080fd5b506101a2600480360381019061019d9190611a25565b6105ff565b005b3480156101b057600080fd5b506101cb60048036038101906101c69190611aa4565b6106f9565b6040516101da93929190611b2a565b60405180910390f35b3480156101ef57600080fd5b506101f86107db565b005b34801561020657600080fd5b5061020f6107ef565b60405161021c9190611b68565b60405180910390f35b34801561023157600080fd5b5061023a61087d565b6040516102479190611b8a565b60405180910390f35b34801561025c57600080fd5b506102656108a6565b6040516102729190611bf5565b60405180910390f35b34801561028757600080fd5b506102a2600480360381019061029d9190611d4c565b610a25565b6040516102af9190611b8a565b60405180910390f35b6102d260048036038101906102cd9190611d95565b610a6e565b005b3480156102e057600080fd5b506102e9610c60565b6040516102f69190611b68565b60405180910390f35b61031960048036038101906103149190611d95565b610cee565b005b61033560048036038101906103309190611e22565b610f93565b005b34801561034357600080fd5b5061035e60048036038101906103599190611e6f565b6111de565b60405161036b9190611954565b60405180910390f35b34801561038057600080fd5b5061039b60048036038101906103969190611d4c565b611295565b005b3480156103a957600080fd5b506103c460048036038101906103bf9190611e6f565b611430565b005b3480156103d257600080fd5b506103db6114b6565b6040516103e89190611954565b60405180910390f35b6060600a805480602002602001604051908101604052809291908181526020016000905b828210156105395783829060005260206000209060030201604051806060016040529081600082015481526020016001820160009054906101000a900473ffffffffffffffffffffffffffffffffffffffff1673ffffffffffffffffffffffffffffffffffffffff1673ffffffffffffffffffffffffffffffffffffffff1681526020016002820180546104a890611ecb565b80601f01602080910402602001604051908101604052809291908181526020018280546104d490611ecb565b80156105215780601f106104f657610100808354040283529160200191610521565b820191906000526020600020905b81548152906001019060200180831161050457829003601f168201915b50505050508152505081526020019060010190610415565b50505050905090565b60055481565b3373ffffffffffffffffffffffffffffffffffffffff16600a6009548154811061057557610574611efc565b5b906000526020600020906003020160010160009054906101000a900473ffffffffffffffffffffffffffffffffffffffff1673ffffffffffffffffffffffffffffffffffffffff16146105fd576040517f08c379a00000000000000000000000000000000000000000000000000000000081526004016105f490611f9d565b60405180910390fd5b565b60006106096114bc565b9050600073ffffffffffffffffffffffffffffffffffffffff168173ffffffffffffffffffffffffffffffffffffffff160361067a576040517f08c379a000000000000000000000000000000000000000000000000000000000815260040161067190612009565b60405180910390fd5b8073ffffffffffffffffffffffffffffffffffffffff163373ffffffffffffffffffffffffffffffffffffffff16146106e8576040517f08c379a00000000000000000000000000000000000000000000000000000000081526004016106df9061209b565b60405180910390fd5b6106f38484846114e6565b50505050565b600a818154811061070957600080fd5b90600052602060002090600302016000915090508060000154908060010160009054906101000a900473ffffffffffffffffffffffffffffffffffffffff169080600201805461075890611ecb565b80601f016020809104026020016040519081016040528092919081815260200182805461078490611ecb565b80156107d15780601f106107a6576101008083540402835291602001916107d1565b820191906000526020600020905b8154815290600101906020018083116107b457829003601f168201915b5050505050905083565b6107e361159d565b6107ed6000611624565b565b600480546107fc90611ecb565b80601f016020809104026020016040519081016040528092919081815260200182805461082890611ecb565b80156108755780601f1061084a57610100808354040283529160200191610875565b820191906000526020600020905b81548152906001019060200180831161085857829003601f168201915b505050505081565b60008060009054906101000a900473ffffffffffffffffffffffffffffffffffffffff16905090565b6108ae6116f0565b6000600954116108f3576040517f08c379a00000000000000000000000000000000000000000000000000000000081526004016108ea90612107565b60405180910390fd5b600a60016009546109049190612156565b8154811061091557610914611efc565b5b9060005260206000209060030201604051806060016040529081600082015481526020016001820160009054906101000a900473ffffffffffffffffffffffffffffffffffffffff1673ffffffffffffffffffffffffffffffffffffffff1673ffffffffffffffffffffffffffffffffffffffff16815260200160028201805461099e90611ecb565b80601f01602080910402602001604051908101604052809291908181526020018280546109ca90611ecb565b8015610a175780601f106109ec57610100808354040283529160200191610a17565b820191906000526020600020905b8154815290600101906020018083116109fa57829003601f168201915b505050505081525050905090565b600c818051602081018201805184825260208301602085012081835280955050505050506000915054906101000a900473ffffffffffffffffffffffffffffffffffffffff1681565b6000600260009054906101000a900473ffffffffffffffffffffffffffffffffffffffff1673ffffffffffffffffffffffffffffffffffffffff166382ee990c6040518163ffffffff1660e01b8152600401602060405180830381865afa158015610add573d6000803e3d6000fd5b505050506040513d601f19601f82011682018060405250810190610b01919061219f565b90506000600260009054906101000a900473ffffffffffffffffffffffffffffffffffffffff1673ffffffffffffffffffffffffffffffffffffffff1663b88c9148836040518263ffffffff1660e01b8152600401610b609190611b8a565b602060405180830381865afa158015610b7d573d6000803e3d6000fd5b505050506040513d601f19601f82011682018060405250810190610ba19190612214565b6fffffffffffffffffffffffffffffffff1690506000600260009054906101000a900473ffffffffffffffffffffffffffffffffffffffff1673ffffffffffffffffffffffffffffffffffffffff166319cb825f8385876040518463ffffffff1660e01b8152600401610c15929190612250565b60206040518083038185885af1158015610c33573d6000803e3d6000fd5b50505050506040513d601f19601f82011682018060405250810190610c58919061228e565b905050505050565b60038054610c6d90611ecb565b80601f0160208091040260200160405190810160405280929190818152602001828054610c9990611ecb565b8015610ce65780601f10610cbb57610100808354040283529160200191610ce6565b820191906000526020600020905b815481529060010190602001808311610cc957829003601f168201915b505050505081565b610cf661159d565b600860009054906101000a900460ff16610d45576040517f08c379a0000000000000000000000000000000000000000000000000000000008152600401610d3c90612307565b60405180910390fd5b600160075411610d8a576040517f08c379a0000000000000000000000000000000000000000000000000000000008152600401610d8190612373565b60405180910390fd5b6000600860006101000a81548160ff0219169083151502179055506000600260009054906101000a900473ffffffffffffffffffffffffffffffffffffffff1673ffffffffffffffffffffffffffffffffffffffff166382ee990c6040518163ffffffff1660e01b8152600401602060405180830381865afa158015610e14573d6000803e3d6000fd5b505050506040513d601f19601f82011682018060405250810190610e38919061219f565b90506000600260009054906101000a900473ffffffffffffffffffffffffffffffffffffffff1673ffffffffffffffffffffffffffffffffffffffff1663b88c9148836040518263ffffffff1660e01b8152600401610e979190611b8a565b602060405180830381865afa158015610eb4573d6000803e3d6000fd5b505050506040513d601f19601f82011682018060405250810190610ed89190612214565b6fffffffffffffffffffffffffffffffff169050600260009054906101000a900473ffffffffffffffffffffffffffffffffffffffff1673ffffffffffffffffffffffffffffffffffffffff166319cb825f8284866040518463ffffffff1660e01b8152600401610f4a929190612250565b60206040518083038185885af1158015610f68573d6000803e3d6000fd5b50505050506040513d601f19601f82011682018060405250810190610f8d919061228e565b50505050565b6000600160009054906101000a900473ffffffffffffffffffffffffffffffffffffffff1673ffffffffffffffffffffffffffffffffffffffff1663d47eed4584846040518363ffffffff1660e01b8152600401610ff29291906124f7565b602060405180830381865afa15801561100f573d6000803e3d6000fd5b505050506040513d601f19601f820116820180604052508101906110339190612530565b9050600160009054906101000a900473ffffffffffffffffffffffffffffffffffffffff1673ffffffffffffffffffffffffffffffffffffffff1663ef9e5e288285856040518463ffffffff1660e01b81526004016110939291906124f7565b6000604051808303818588803b1580156110ac57600080fd5b505af11580156110c0573d6000803e3d6000fd5b505050505060007fff61491a931112ddf1bd8147cd1b641375f79f5825126d665480874634fd0ace60001b90506000600160009054906101000a900473ffffffffffffffffffffffffffffffffffffffff1673ffffffffffffffffffffffffffffffffffffffff1663a4ae35e083603c6040518363ffffffff1660e01b815260040161114d9291906125a2565b608060405180830381865afa15801561116a573d6000803e3d6000fd5b505050506040513d601f19601f8201168201806040525081019061118e91906126ba565b90507f6868b56bbbc4c847be9aa8488a92e6fc784e19300474b0f2bbb1cd55bbc365bc8160000151826020015183606001516040516111cf93929190612705565b60405180910390a15050505050565b6000600260009054906101000a900473ffffffffffffffffffffffffffffffffffffffff1673ffffffffffffffffffffffffffffffffffffffff1663b88c9148836040518263ffffffff1660e01b815260040161123b9190611b8a565b602060405180830381865afa158015611258573d6000803e3d6000fd5b505050506040513d601f19601f8201168201806040525081019061127c9190612214565b6fffffffffffffffffffffffffffffffff169050919050565b60011515600860009054906101000a900460ff161515146112eb576040517f08c379a00000000000000000000000000000000000000000000000000000000081526004016112e290612788565b60405180910390fd5b6000604051806060016040528060075481526020013373ffffffffffffffffffffffffffffffffffffffff168152602001838152509050600a8190806001815401808255809150506001900390600052602060002090600302016000909190919091506000820151816000015560208201518160010160006101000a81548173ffffffffffffffffffffffffffffffffffffffff021916908373ffffffffffffffffffffffffffffffffffffffff16021790555060408201518160020190816113b4919061294a565b505050600760008154809291906113ca90612a1c565b919050555033600c836040516113e09190612aa0565b908152602001604051809103902060006101000a81548173ffffffffffffffffffffffffffffffffffffffff021916908373ffffffffffffffffffffffffffffffffffffffff1602179055505050565b61143861159d565b600073ffffffffffffffffffffffffffffffffffffffff168173ffffffffffffffffffffffffffffffffffffffff16036114aa5760006040517f1e4fbdf70000000000000000000000000000000000000000000000000000000081526004016114a19190611b8a565b60405180910390fd5b6114b381611624565b50565b60065481565b6000600260009054906101000a900473ffffffffffffffffffffffffffffffffffffffff16905090565b600860009054906101000a900460ff1615611536576040517f08c379a000000000000000000000000000000000000000000000000000000000815260040161152d90612b29565b60405180910390fd5b60008160001c905060016007548261154e9190612b78565b6115589190612ba9565b6009819055507fae3f88d56af8ef248164ab259baacc4ff82c4a7192a027616cb6e1b474b182d860095460405161158f9190611954565b60405180910390a150505050565b6115a56116e8565b73ffffffffffffffffffffffffffffffffffffffff166115c361087d565b73ffffffffffffffffffffffffffffffffffffffff1614611622576115e66116e8565b6040517f118cdaa70000000000000000000000000000000000000000000000000000000081526004016116199190611b8a565b60405180910390fd5b565b60008060009054906101000a900473ffffffffffffffffffffffffffffffffffffffff169050816000806101000a81548173ffffffffffffffffffffffffffffffffffffffff021916908373ffffffffffffffffffffffffffffffffffffffff1602179055508173ffffffffffffffffffffffffffffffffffffffff168173ffffffffffffffffffffffffffffffffffffffff167f8be0079c531659141344cd1fd0a4f28419497f9722a3daafe3b4186f6b6457e060405160405180910390a35050565b600033905090565b604051806060016040528060008152602001600073ffffffffffffffffffffffffffffffffffffffff168152602001606081525090565b600081519050919050565b600082825260208201905092915050565b6000819050602082019050919050565b6000819050919050565b61176681611753565b82525050565b600073ffffffffffffffffffffffffffffffffffffffff82169050919050565b60006117978261176c565b9050919050565b6117a78161178c565b82525050565b600081519050919050565b600082825260208201905092915050565b60005b838110156117e75780820151818401526020810190506117cc565b60008484015250505050565b6000601f19601f8301169050919050565b600061180f826117ad565b61181981856117b8565b93506118298185602086016117c9565b611832816117f3565b840191505092915050565b6000606083016000830151611855600086018261175d565b506020830151611868602086018261179e565b50604083015184820360408601526118808282611804565b9150508091505092915050565b6000611899838361183d565b905092915050565b6000602082019050919050565b60006118b982611727565b6118c38185611732565b9350836020820285016118d585611743565b8060005b8581101561191157848403895281516118f2858261188d565b94506118fd836118a1565b925060208a019950506001810190506118d9565b50829750879550505050505092915050565b6000602082019050818103600083015261193d81846118ae565b905092915050565b61194e81611753565b82525050565b60006020820190506119696000830184611945565b92915050565b6000604051905090565b600080fd5b600080fd5b600067ffffffffffffffff82169050919050565b6119a081611983565b81146119ab57600080fd5b50565b6000813590506119bd81611997565b92915050565b6119cc8161178c565b81146119d757600080fd5b50565b6000813590506119e9816119c3565b92915050565b6000819050919050565b611a02816119ef565b8114611a0d57600080fd5b50565b600081359050611a1f816119f9565b92915050565b600080600060608486031215611a3e57611a3d611979565b5b6000611a4c868287016119ae565b9350506020611a5d868287016119da565b9250506040611a6e86828701611a10565b9150509250925092565b611a8181611753565b8114611a8c57600080fd5b50565b600081359050611a9e81611a78565b92915050565b600060208284031215611aba57611ab9611979565b5b6000611ac884828501611a8f565b91505092915050565b611ada8161178c565b82525050565b600082825260208201905092915050565b6000611afc826117ad565b611b068185611ae0565b9350611b168185602086016117c9565b611b1f816117f3565b840191505092915050565b6000606082019050611b3f6000830186611945565b611b4c6020830185611ad1565b8181036040830152611b5e8184611af1565b9050949350505050565b60006020820190508181036000830152611b828184611af1565b905092915050565b6000602082019050611b9f6000830184611ad1565b92915050565b6000606083016000830151611bbd600086018261175d565b506020830151611bd0602086018261179e565b5060408301518482036040860152611be88282611804565b9150508091505092915050565b60006020820190508181036000830152611c0f8184611ba5565b905092915050565b600080fd5b600080fd5b7f4e487b7100000000000000000000000000000000000000000000000000000000600052604160045260246000fd5b611c59826117f3565b810181811067ffffffffffffffff82111715611c7857611c77611c21565b5b80604052505050565b6000611c8b61196f565b9050611c978282611c50565b919050565b600067ffffffffffffffff821115611cb757611cb6611c21565b5b611cc0826117f3565b9050602081019050919050565b82818337600083830152505050565b6000611cef611cea84611c9c565b611c81565b905082815260208101848484011115611d0b57611d0a611c1c565b5b611d16848285611ccd565b509392505050565b600082601f830112611d3357611d32611c17565b5b8135611d43848260208601611cdc565b91505092915050565b600060208284031215611d6257611d61611979565b5b600082013567ffffffffffffffff811115611d8057611d7f61197e565b5b611d8c84828501611d1e565b91505092915050565b600060208284031215611dab57611daa611979565b5b6000611db984828501611a10565b91505092915050565b600080fd5b600080fd5b60008083601f840112611de257611de1611c17565b5b8235905067ffffffffffffffff811115611dff57611dfe611dc2565b5b602083019150836020820283011115611e1b57611e1a611dc7565b5b9250929050565b60008060208385031215611e3957611e38611979565b5b600083013567ffffffffffffffff811115611e5757611e5661197e565b5b611e6385828601611dcc565b92509250509250929050565b600060208284031215611e8557611e84611979565b5b6000611e93848285016119da565b91505092915050565b7f4e487b7100000000000000000000000000000000000000000000000000000000600052602260045260246000fd5b60006002820490506001821680611ee357607f821691505b602082108103611ef657611ef5611e9c565b5b50919050565b7f4e487b7100000000000000000000000000000000000000000000000000000000600052603260045260246000fd5b7f596f7520617265206e6f74207468652077696e6e6572206f662074686973206360008201527f6f6e74656e740000000000000000000000000000000000000000000000000000602082015250565b6000611f87602683611ae0565b9150611f9282611f2b565b604082019050919050565b60006020820190508181036000830152611fb681611f7a565b9050919050565b7f456e74726f70792061646472657373206e6f7420736574000000000000000000600082015250565b6000611ff3601783611ae0565b9150611ffe82611fbd565b602082019050919050565b6000602082019050818103600083015261202281611fe6565b9050919050565b7f4f6e6c7920456e74726f70792063616e2063616c6c20746869732066756e637460008201527f696f6e0000000000000000000000000000000000000000000000000000000000602082015250565b6000612085602383611ae0565b915061209082612029565b604082019050919050565b600060208201905081810360008301526120b481612078565b9050919050565b7f57696e6e6572206e6f742063686f73656e207965740000000000000000000000600082015250565b60006120f1601583611ae0565b91506120fc826120bb565b602082019050919050565b60006020820190508181036000830152612120816120e4565b9050919050565b7f4e487b7100000000000000000000000000000000000000000000000000000000600052601160045260246000fd5b600061216182611753565b915061216c83611753565b925082820390508181111561218457612183612127565b5b92915050565b600081519050612199816119c3565b92915050565b6000602082840312156121b5576121b4611979565b5b60006121c38482850161218a565b91505092915050565b60006fffffffffffffffffffffffffffffffff82169050919050565b6121f1816121cc565b81146121fc57600080fd5b50565b60008151905061220e816121e8565b92915050565b60006020828403121561222a57612229611979565b5b6000612238848285016121ff565b91505092915050565b61224a816119ef565b82525050565b60006040820190506122656000830185611ad1565b6122726020830184612241565b9392505050565b60008151905061228881611997565b92915050565b6000602082840312156122a4576122a3611979565b5b60006122b284828501612279565b91505092915050565b7f4e6f20636f6e74657374206f6e676f696e670000000000000000000000000000600082015250565b60006122f1601283611ae0565b91506122fc826122bb565b602082019050919050565b60006020820190508181036000830152612320816122e4565b9050919050565b7f4e6f207061727469636970616e74730000000000000000000000000000000000600082015250565b600061235d600f83611ae0565b915061236882612327565b602082019050919050565b6000602082019050818103600083015261238c81612350565b9050919050565b600082825260208201905092915050565b6000819050919050565b600082825260208201905092915050565b60006123cb83856123ae565b93506123d8838584611ccd565b6123e1836117f3565b840190509392505050565b60006123f98484846123bf565b90509392505050565b600080fd5b600080fd5b600080fd5b6000808335600160200384360303811261242e5761242d61240c565b5b83810192508235915060208301925067ffffffffffffffff82111561245657612455612402565b5b60018202360383131561246c5761246b612407565b5b509250929050565b6000602082019050919050565b600061248d8385612393565b93508360208402850161249f846123a4565b8060005b878110156124e55784840389526124ba8284612411565b6124c58682846123ec565b95506124d084612474565b935060208b019a5050506001810190506124a3565b50829750879450505050509392505050565b60006020820190508181036000830152612512818486612481565b90509392505050565b60008151905061252a81611a78565b92915050565b60006020828403121561254657612545611979565b5b60006125548482850161251b565b91505092915050565b6000819050919050565b6000819050919050565b600061258c6125876125828461255d565b612567565b611753565b9050919050565b61259c81612571565b82525050565b60006040820190506125b76000830185612241565b6125c46020830184612593565b9392505050565b600080fd5b60008160070b9050919050565b6125e6816125d0565b81146125f157600080fd5b50565b600081519050612603816125dd565b92915050565b60008160030b9050919050565b61261f81612609565b811461262a57600080fd5b50565b60008151905061263c81612616565b92915050565b600060808284031215612658576126576125cb565b5b6126626080611c81565b90506000612672848285016125f4565b600083015250602061268684828501612279565b602083015250604061269a8482850161262d565b60408301525060606126ae8482850161251b565b60608301525092915050565b6000608082840312156126d0576126cf611979565b5b60006126de84828501612642565b91505092915050565b6126f0816125d0565b82525050565b6126ff81611983565b82525050565b600060608201905061271a60008301866126e7565b61272760208301856126f6565b6127346040830184611945565b949350505050565b7f436f6e74657374206973206e6f74206f70656e00000000000000000000000000600082015250565b6000612772601383611ae0565b915061277d8261273c565b602082019050919050565b600060208201905081810360008301526127a181612765565b9050919050565b60008190508160005260206000209050919050565b60006020601f8301049050919050565b600082821b905092915050565b60006008830261280a7fffffffffffffffffffffffffffffffffffffffffffffffffffffffffffffffff826127cd565b61281486836127cd565b95508019841693508086168417925050509392505050565b600061284761284261283d84611753565b612567565b611753565b9050919050565b6000819050919050565b6128618361282c565b61287561286d8261284e565b8484546127da565b825550505050565b600090565b61288a61287d565b612895818484612858565b505050565b5b818110156128b9576128ae600082612882565b60018101905061289b565b5050565b601f8211156128fe576128cf816127a8565b6128d8846127bd565b810160208510156128e7578190505b6128fb6128f3856127bd565b83018261289a565b50505b505050565b600082821c905092915050565b600061292160001984600802612903565b1980831691505092915050565b600061293a8383612910565b9150826002028217905092915050565b612953826117ad565b67ffffffffffffffff81111561296c5761296b611c21565b5b6129768254611ecb565b6129818282856128bd565b600060209050601f8311600181146129b457600084156129a2578287015190505b6129ac858261292e565b865550612a14565b601f1984166129c2866127a8565b60005b828110156129ea578489015182556001820191506020850194506020810190506129c5565b86831015612a075784890151612a03601f891682612910565b8355505b6001600288020188555050505b505050505050565b6000612a2782611753565b91507fffffffffffffffffffffffffffffffffffffffffffffffffffffffffffffffff8203612a5957612a58612127565b5b600182019050919050565b600081905092915050565b6000612a7a826117ad565b612a848185612a64565b9350612a948185602086016117c9565b80840191505092915050565b6000612aac8284612a6f565b915081905092915050565b7f436f6e74657374206d75737420626520656e646564206265666f72652072657360008201527f6f6c76696e672077696e6e657200000000000000000000000000000000000000602082015250565b6000612b13602d83611ae0565b9150612b1e82612ab7565b604082019050919050565b60006020820190508181036000830152612b4281612b06565b9050919050565b7f4e487b7100000000000000000000000000000000000000000000000000000000600052601260045260246000fd5b6000612b8382611753565b9150612b8e83611753565b925082612b9e57612b9d612b49565b5b828206905092915050565b6000612bb482611753565b9150612bbf83611753565b9250828201905080821115612bd757612bd6612127565b5b9291505056fea2646970667358221220b53ffc0ff363f300dcb0fb415bf84c17069aa7d15964362ff768c004766dd94b64736f6c634300081b0033",
  "linkReferences": {},
  "deployedLinkReferences": {}
}