{
  "_format": "hh-sol-artifact-1",
  "contractName": "TwitterAccountVerifier",
  "sourceName": "contracts/proof/TwitterAccountVerifier.sol",
  "abi": [
    {
      "inputs": [
        {
          "internalType": "address",
          "name": "_twitterProver",
          "type": "address"
        }
      ],
      "stateMutability": "nonpayable",
      "type": "constructor"
    },
    {
      "inputs": [],
      "name": "InvalidChainId",
      "type": "error"
    },
    {
      "inputs": [
        {
          "internalType": "contract IProofVerifier",
          "name": "newVerifier",
          "type": "address"
        }
      ],
      "name": "_setTestVerifier",
      "outputs": [],
      "stateMutability": "nonpayable",
      "type": "function"
    },
    {
      "inputs": [
        {
          "internalType": "bytes32",
          "name": "",
          "type": "bytes32"
        }
      ],
      "name": "handleToUser",
      "outputs": [
        {
          "internalType": "address",
          "name": "",
          "type": "address"
        }
      ],
      "stateMutability": "view",
      "type": "function"
    },
    {
      "inputs": [
        {
          "internalType": "address",
          "name": "account",
          "type": "address"
        }
      ],
      "name": "isVerified",
      "outputs": [
        {
          "internalType": "bool",
          "name": "",
          "type": "bool"
        }
      ],
      "stateMutability": "nonpayable",
      "type": "function"
    },
    {
      "inputs": [
        {
          "internalType": "address",
          "name": "",
          "type": "address"
        }
      ],
      "name": "userToHandle",
      "outputs": [
        {
          "internalType": "bytes32",
          "name": "",
          "type": "bytes32"
        }
      ],
      "stateMutability": "view",
      "type": "function"
    },
    {
      "inputs": [],
      "name": "verifier",
      "outputs": [
        {
          "internalType": "contract IProofVerifier",
          "name": "",
          "type": "address"
        }
      ],
      "stateMutability": "view",
      "type": "function"
    },
    {
      "inputs": [
        {
          "components": [
            {
              "components": [
                {
                  "internalType": "bytes4",
                  "name": "verifierSelector",
                  "type": "bytes4"
                },
                {
                  "internalType": "bytes32[8]",
                  "name": "seal",
                  "type": "bytes32[8]"
                },
                {
                  "internalType": "enum ProofMode",
                  "name": "mode",
                  "type": "uint8"
                }
              ],
              "internalType": "struct Seal",
              "name": "seal",
              "type": "tuple"
            },
            {
              "internalType": "bytes32",
              "name": "callGuestId",
              "type": "bytes32"
            },
            {
              "internalType": "uint256",
              "name": "length",
              "type": "uint256"
            },
            {
              "components": [
                {
                  "internalType": "address",
                  "name": "proverContractAddress",
                  "type": "address"
                },
                {
                  "internalType": "bytes4",
                  "name": "functionSelector",
                  "type": "bytes4"
                },
                {
                  "internalType": "uint256",
                  "name": "settleChainId",
                  "type": "uint256"
                },
                {
                  "internalType": "uint256",
                  "name": "settleBlockNumber",
                  "type": "uint256"
                },
                {
                  "internalType": "bytes32",
                  "name": "settleBlockHash",
                  "type": "bytes32"
                }
              ],
              "internalType": "struct CallAssumptions",
              "name": "callAssumptions",
              "type": "tuple"
            }
          ],
          "internalType": "struct Proof",
          "name": "",
          "type": "tuple"
        },
        {
          "internalType": "string",
          "name": "handle",
          "type": "string"
        }
      ],
      "name": "verifyTwitterAccount",
      "outputs": [],
      "stateMutability": "nonpayable",
      "type": "function"
    }
  ],
  "bytecode": "0x60a060405234801561001057600080fd5b50604051616d4a380380616d4a83398181016040528101906100329190610582565b6100406100fa60201b60201c565b6000806101000a81548173ffffffffffffffffffffffffffffffffffffffff021916908373ffffffffffffffffffffffffffffffffffffffff1602179055503373ffffffffffffffffffffffffffffffffffffffff1660808173ffffffffffffffffffffffffffffffffffffffff168152505080600160006101000a81548173ffffffffffffffffffffffffffffffffffffffff021916908373ffffffffffffffffffffffffffffffffffffffff160217905550506107b7565b600061010a6102a660201b60201c565b15610213576000303060405161011f90610505565b61012a9291906105be565b604051809103906000f080158015610146573d6000803e3d6000fd5b5090508073ffffffffffffffffffffffffffffffffffffffff166384cf84e17fdcb00648ecc90d8bfe92aa8d51061beb0bcb110d274fc4a517e526574233d36b60001b6040518263ffffffff1660e01b81526004016101a59190610600565b600060405180830381600087803b1580156101bf57600080fd5b505af11580156101d3573d6000803e3d6000fd5b50505050806040516101e490610512565b6101ee919061067a565b604051809103906000f08015801561020a573d6000803e3d6000fd5b509150506102a3565b6102216102d060201b60201c565b1561024157600061023661033960201b60201c565b9050809150506102a3565b61024f61035a60201b60201c565b156102715760006102646103bf60201b60201c565b92505050809150506102a3565b6040517f7a47c9a200000000000000000000000000000000000000000000000000000000815260040160405180910390fd5b90565b60006102b661041f60201b60201c565b806102cb57506102ca61043860201b60201c565b5b905090565b600060014614806102e15750600a46145b806102ec5750608946145b806102f8575061014446145b8061030457506101e046145b80610310575061210546145b8061031c575061a4b146145b80610328575061a4ba46145b80610334575061e70846145b905090565b600080735553cf6ce25e3f80fad2866f6230346159ecd89c90508091505090565b600062aa36a746148061036e575061012c46145b8061037a57506112c146145b80610386575061e70546145b8061039357506201388246145b806103a0575062014a3446145b806103ad575062066eee46145b806103ba575062aa37dc46145b905090565b600080600080739e30dc3e49c4d47f982902710616dcc4b6ff7bf590506000737e231cfc3e3b549633d5ad61c30f07dd4d408ad390506000738972b6ff413ac04e61e19f07d7f3bd980d0cc3219050828282955095509550505050909192565b6000617a6946148061043357506204991946145b905090565b6000806000601e73f4e4fdca9d5d55e64525e314391996a15f7ec60061045e91906106c4565b73ffffffffffffffffffffffffffffffffffffffff166040516104809061073d565b600060405180830381855afa9150503d80600081146104bb576040519150601f19603f3d011682016040523d82523d6000602084013e6104c0565b606091505b50915091508115806104d3575060008151145b156104e357600092505050610502565b6000818060200190518101906104f9919061078a565b90508093505050505b90565b6121098061243b83390190565b6128068061454483390190565b600080fd5b600073ffffffffffffffffffffffffffffffffffffffff82169050919050565b600061054f82610524565b9050919050565b61055f81610544565b811461056a57600080fd5b50565b60008151905061057c81610556565b92915050565b6000602082840312156105985761059761051f565b5b60006105a68482850161056d565b91505092915050565b6105b881610544565b82525050565b60006040820190506105d360008301856105af565b6105e060208301846105af565b9392505050565b6000819050919050565b6105fa816105e7565b82525050565b600060208201905061061560008301846105f1565b92915050565b6000819050919050565b600061064061063b61063684610524565b61061b565b610524565b9050919050565b600061065282610625565b9050919050565b600061066482610647565b9050919050565b61067481610659565b82525050565b600060208201905061068f600083018461066b565b92915050565b7f4e487b7100000000000000000000000000000000000000000000000000000000600052601160045260246000fd5b60006106cf82610524565b91506106da83610524565b9250828201905073ffffffffffffffffffffffffffffffffffffffff81111561070657610705610695565b5b92915050565b600081905092915050565b50565b600061072760008361070c565b915061073282610717565b600082019050919050565b60006107488261071a565b9150819050919050565b60008115159050919050565b61076781610752565b811461077257600080fd5b50565b6000815190506107848161075e565b92915050565b6000602082840312156107a05761079f61051f565b5b60006107ae84828501610775565b91505092915050565b608051611c696107d260003960006103120152611c696000f3fe608060405234801561001057600080fd5b50600436106100625760003560e01c80632b7ac3f3146100675780632bdf6ffd146100855780639b8b30c8146100a1578063b9209e33146100bd578063d5d462bf146100ed578063e5d34bbd1461011d575b600080fd5b61006f61014d565b60405161007c9190610cf7565b60405180910390f35b61009f600480360381019061009a9190610e91565b610171565b005b6100bb60048036038101906100b69190610f3f565b610310565b005b6100d760048036038101906100d29190610f98565b610514565b6040516100e49190610fe0565b60405180910390f35b61010760048036038101906101029190611031565b610563565b604051610114919061106d565b60405180910390f35b61013760048036038101906101329190610f98565b610596565b6040516101449190611097565b60405180910390f35b60008054906101000a900473ffffffffffffffffffffffffffffffffffffffff1681565b600160009054906101000a900473ffffffffffffffffffffffffffffffffffffffff1663121bb4d460e01b6101a682826105ae565b6000836040516020016101b99190611123565b604051602081830303815290604052805190602001209050600073ffffffffffffffffffffffffffffffffffffffff166002600083815260200190815260200160002060009054906101000a900473ffffffffffffffffffffffffffffffffffffffff1673ffffffffffffffffffffffffffffffffffffffff1614610273576040517f08c379a000000000000000000000000000000000000000000000000000000000815260040161026a90611197565b60405180910390fd5b336002600083815260200190815260200160002060006101000a81548173ffffffffffffffffffffffffffffffffffffffff021916908373ffffffffffffffffffffffffffffffffffffffff16021790555080600360003373ffffffffffffffffffffffffffffffffffffffff1673ffffffffffffffffffffffffffffffffffffffff168152602001908152602001600020819055505050505050565b7f000000000000000000000000000000000000000000000000000000000000000073ffffffffffffffffffffffffffffffffffffffff163373ffffffffffffffffffffffffffffffffffffffff161461039e576040517f08c379a000000000000000000000000000000000000000000000000000000000815260040161039590611229565b60405180910390fd5b6103a6610652565b806103b557506103b4610670565b5b6103f4576040517f08c379a00000000000000000000000000000000000000000000000000000000081526004016103eb906112bb565b60405180910390fd5b600073ffffffffffffffffffffffffffffffffffffffff168173ffffffffffffffffffffffffffffffffffffffff16633fd66f226040518163ffffffff1660e01b8152600401602060405180830381865afa158015610457573d6000803e3d6000fd5b505050506040513d601f19601f8201168201806040525081019061047b9190611319565b73ffffffffffffffffffffffffffffffffffffffff16036104d1576040517f08c379a00000000000000000000000000000000000000000000000000000000081526004016104c8906113b8565b60405180910390fd5b806000806101000a81548173ffffffffffffffffffffffffffffffffffffffff021916908373ffffffffffffffffffffffffffffffffffffffff16021790555050565b60008060001b600360008473ffffffffffffffffffffffffffffffffffffffff1673ffffffffffffffffffffffffffffffffffffffff1681526020019081526020016000205414159050919050565b60026020528060005260406000206000915054906101000a900473ffffffffffffffffffffffffffffffffffffffff1681565b60036020528060005260406000206000915090505481565b6000806105b96106d5565b9150915060008054906101000a900473ffffffffffffffffffffffffffffffffffffffff1673ffffffffffffffffffffffffffffffffffffffff1663c4fa74e5838387876040518563ffffffff1660e01b815260040161061c9493929190611671565b60006040518083038186803b15801561063457600080fd5b505afa158015610648573d6000803e3d6000fd5b5050505050505050565b600061065c610a62565b8061066b575061066a610a7b565b5b905090565b600062aa36a7461480610684575061012c46145b8061069057506112c146145b8061069c575061e70546145b806106a957506201388246145b806106b6575062014a3446145b806106c3575062066eee46145b806106d0575062aa37dc46145b905090565b6106dd610b5f565b60008060003660049080926106f4939291906116c4565b81019061070191906119a5565b9050600060208060208060206107179190611a02565b6107219190611a02565b61072b9190611a02565b6107359190611a02565b602080602061010060206107499190611a02565b6107539190611a02565b61075d9190611a02565b6107679190611a02565b60046107739190611a02565b61077d9190611a02565b9050600060208060208060206107939190611a02565b61079d9190611a02565b6107a79190611a02565b6107b19190611a02565b60208060208060206107c39190611a02565b6107cd9190611a02565b6107d79190611a02565b6107e19190611a02565b602080602061010060206107f59190611a02565b6107ff9190611a02565b6108099190611a02565b6108139190611a02565b61081d9190611a02565b846040015161082c9190611a36565b6108369190611a36565b9050600081836108469190611a02565b905060008036602080602061010060206108609190611a02565b61086a9190611a02565b6108749190611a02565b61087e9190611a02565b600461088a9190611a02565b90602080602080602061089d9190611a02565b6108a79190611a02565b6108b19190611a02565b6108bb9190611a02565b602080602061010060206108cf9190611a02565b6108d99190611a02565b6108e39190611a02565b6108ed9190611a02565b60046108f99190611a02565b6109039190611a02565b92610910939291906116c4565b8080601f016020809104026020016040519081016040528093929190818152602001838380828437600081840152601f19601f8201169050808301925050505050505090506000803686908592610969939291906116c4565b8080601f016020809104026020016040519081016040528093929190818152602001838380828437600081840152601f19601f8201169050808301925050505050505090506000826109b9610b48565b6040516020016109c99190611a6a565b604051602081830303815290604052836040516020016109eb93929190611acd565b60405160208183030381529060405290506000600282604051610a0e9190611afe565b602060405180830381855afa158015610a2b573d6000803e3d6000fd5b5050506040513d601f19601f82011682018060405250810190610a4e9190611b2a565b905087819950995050505050505050509091565b6000617a69461480610a7657506204991946145b905090565b6000806000601e73f4e4fdca9d5d55e64525e314391996a15f7ec600610aa19190611b57565b73ffffffffffffffffffffffffffffffffffffffff16604051610ac390611bc5565b600060405180830381855afa9150503d8060008114610afe576040519150601f19603f3d011682016040523d82523d6000602084013e610b03565b606091505b5091509150811580610b16575060008151145b15610b2657600092505050610b45565b600081806020019051810190610b3c9190611c06565b90508093505050505b90565b610b50610b5f565b610b58610b5f565b8091505090565b6040518060800160405280610b72610b96565b81526020016000801916815260200160008152602001610b90610bee565b81525090565b604051806060016040528060007bffffffffffffffffffffffffffffffffffffffffffffffffffffffff19168152602001610bcf610c55565b815260200160006001811115610be857610be76114be565b5b81525090565b6040518060a00160405280600073ffffffffffffffffffffffffffffffffffffffff16815260200160007bffffffffffffffffffffffffffffffffffffffffffffffffffffffff191681526020016000815260200160008152602001600080191681525090565b604051806101000160405280600890602082028036833780820191505090505090565b600073ffffffffffffffffffffffffffffffffffffffff82169050919050565b6000819050919050565b6000610cbd610cb8610cb384610c78565b610c98565b610c78565b9050919050565b6000610ccf82610ca2565b9050919050565b6000610ce182610cc4565b9050919050565b610cf181610cd6565b82525050565b6000602082019050610d0c6000830184610ce8565b92915050565b6000604051905090565b600080fd5b600080fd5b600080fd5b60006102208284031215610d4257610d41610d26565b5b81905092915050565b600080fd5b600080fd5b6000601f19601f8301169050919050565b7f4e487b7100000000000000000000000000000000000000000000000000000000600052604160045260246000fd5b610d9e82610d55565b810181811067ffffffffffffffff82111715610dbd57610dbc610d66565b5b80604052505050565b6000610dd0610d12565b9050610ddc8282610d95565b919050565b600067ffffffffffffffff821115610dfc57610dfb610d66565b5b610e0582610d55565b9050602081019050919050565b82818337600083830152505050565b6000610e34610e2f84610de1565b610dc6565b905082815260208101848484011115610e5057610e4f610d50565b5b610e5b848285610e12565b509392505050565b600082601f830112610e7857610e77610d4b565b5b8135610e88848260208601610e21565b91505092915050565b6000806102408385031215610ea957610ea8610d1c565b5b6000610eb785828601610d2b565b92505061022083013567ffffffffffffffff811115610ed957610ed8610d21565b5b610ee585828601610e63565b9150509250929050565b6000610efa82610c78565b9050919050565b6000610f0c82610eef565b9050919050565b610f1c81610f01565b8114610f2757600080fd5b50565b600081359050610f3981610f13565b92915050565b600060208284031215610f5557610f54610d1c565b5b6000610f6384828501610f2a565b91505092915050565b610f7581610eef565b8114610f8057600080fd5b50565b600081359050610f9281610f6c565b92915050565b600060208284031215610fae57610fad610d1c565b5b6000610fbc84828501610f83565b91505092915050565b60008115159050919050565b610fda81610fc5565b82525050565b6000602082019050610ff56000830184610fd1565b92915050565b6000819050919050565b61100e81610ffb565b811461101957600080fd5b50565b60008135905061102b81611005565b92915050565b60006020828403121561104757611046610d1c565b5b60006110558482850161101c565b91505092915050565b61106781610eef565b82525050565b6000602082019050611082600083018461105e565b92915050565b61109181610ffb565b82525050565b60006020820190506110ac6000830184611088565b92915050565b600081519050919050565b600081905092915050565b60005b838110156110e65780820151818401526020810190506110cb565b60008484015250505050565b60006110fd826110b2565b61110781856110bd565b93506111178185602086016110c8565b80840191505092915050565b600061112f82846110f2565b915081905092915050565b600082825260208201905092915050565b7f616c72656164795f726567697374657200000000000000000000000000000000600082015250565b600061118160108361113a565b915061118c8261114b565b602082019050919050565b600060208201905081810360008301526111b081611174565b9050919050565b7f4f6e6c79206465706c6f7965722063616e206368616e6765207665726966696560008201527f7200000000000000000000000000000000000000000000000000000000000000602082015250565b600061121360218361113a565b915061121e826111b7565b604082019050919050565b6000602082019050818103600083015261124281611206565b9050919050565b7f4368616e67696e6720766572696669657273206973206f6e6c7920616c6c6f7760008201527f6564206f6e206465766e6574206f7220746573746e6574000000000000000000602082015250565b60006112a560378361113a565b91506112b082611249565b604082019050919050565b600060208201905081810360008301526112d481611298565b9050919050565b60006112e682610eef565b9050919050565b6112f6816112db565b811461130157600080fd5b50565b600081519050611313816112ed565b92915050565b60006020828403121561132f5761132e610d1c565b5b600061133d84828501611304565b91505092915050565b7f56657269666965722773207265706f7369746f7279206164647265737320697360008201527f206e6f7420736574000000000000000000000000000000000000000000000000602082015250565b60006113a260288361113a565b91506113ad82611346565b604082019050919050565b600060208201905081810360008301526113d181611395565b9050919050565b60007fffffffff0000000000000000000000000000000000000000000000000000000082169050919050565b61140d816113d8565b82525050565b600060089050919050565b600081905092915050565b6000819050919050565b61143c81610ffb565b82525050565b600061144e8383611433565b60208301905092915050565b6000602082019050919050565b61147081611413565b61147a818461141e565b925061148582611429565b8060005b838110156114b657815161149d8782611442565b96506114a88361145a565b925050600181019050611489565b505050505050565b7f4e487b7100000000000000000000000000000000000000000000000000000000600052602160045260246000fd5b600281106114fe576114fd6114be565b5b50565b600081905061150f826114ed565b919050565b600061151f82611501565b9050919050565b61152f81611514565b82525050565b6101408201600082015161154c6000850182611404565b50602082015161155f6020850182611467565b506040820151611573610120850182611526565b50505050565b6000819050919050565b61158c81611579565b82525050565b61159b81610eef565b82525050565b60a0820160008201516115b76000850182611592565b5060208201516115ca6020850182611404565b5060408201516115dd6040850182611583565b5060608201516115f06060850182611583565b5060808201516116036080850182611433565b50505050565b610220820160008201516116206000850182611535565b506020820151611634610140850182611433565b506040820151611648610160850182611583565b50606082015161165c6101808501826115a1565b50505050565b61166b816113d8565b82525050565b6000610280820190506116876000830187611609565b611695610220830186611088565b6116a361024083018561105e565b6116b1610260830184611662565b95945050505050565b600080fd5b600080fd5b600080858511156116d8576116d76116ba565b5b838611156116e9576116e86116bf565b5b6001850283019150848603905094509492505050565b600080fd5b61170d816113d8565b811461171857600080fd5b50565b60008135905061172a81611704565b92915050565b600067ffffffffffffffff82111561174b5761174a610d66565b5b602082029050919050565b600080fd5b600061176e61176984611730565b610dc6565b9050806020840283018581111561178857611787611756565b5b835b818110156117b1578061179d888261101c565b84526020840193505060208101905061178a565b5050509392505050565b600082601f8301126117d0576117cf610d4b565b5b60086117dd84828561175b565b91505092915050565b600281106117f357600080fd5b50565b600081359050611805816117e6565b92915050565b60006101408284031215611822576118216116ff565b5b61182c6060610dc6565b9050600061183c8482850161171b565b6000830152506020611850848285016117bb565b602083015250610120611865848285016117f6565b60408301525092915050565b61187a81611579565b811461188557600080fd5b50565b60008135905061189781611871565b92915050565b600060a082840312156118b3576118b26116ff565b5b6118bd60a0610dc6565b905060006118cd84828501610f83565b60008301525060206118e18482850161171b565b60208301525060406118f584828501611888565b604083015250606061190984828501611888565b606083015250608061191d8482850161101c565b60808301525092915050565b600061022082840312156119405761193f6116ff565b5b61194a6080610dc6565b9050600061195a8482850161180b565b60008301525061014061196f8482850161101c565b60208301525061016061198484828501611888565b6040830152506101806119998482850161189d565b60608301525092915050565b600061022082840312156119bc576119bb610d1c565b5b60006119ca84828501611929565b91505092915050565b7f4e487b7100000000000000000000000000000000000000000000000000000000600052601160045260246000fd5b6000611a0d82611579565b9150611a1883611579565b9250828201905080821115611a3057611a2f6119d3565b5b92915050565b6000611a4182611579565b9150611a4c83611579565b9250828203905081811115611a6457611a636119d3565b5b92915050565b600061022082019050611a806000830184611609565b92915050565b600081519050919050565b600081905092915050565b6000611aa782611a86565b611ab18185611a91565b9350611ac18185602086016110c8565b80840191505092915050565b6000611ad98286611a9c565b9150611ae58285611a9c565b9150611af18284611a9c565b9150819050949350505050565b6000611b0a8284611a9c565b915081905092915050565b600081519050611b2481611005565b92915050565b600060208284031215611b4057611b3f610d1c565b5b6000611b4e84828501611b15565b91505092915050565b6000611b6282610c78565b9150611b6d83610c78565b9250828201905073ffffffffffffffffffffffffffffffffffffffff811115611b9957611b986119d3565b5b92915050565b50565b6000611baf600083611a91565b9150611bba82611b9f565b600082019050919050565b6000611bd082611ba2565b9150819050919050565b611be381610fc5565b8114611bee57600080fd5b50565b600081519050611c0081611bda565b92915050565b600060208284031215611c1c57611c1b610d1c565b5b6000611c2a84828501611bf1565b9150509291505056fea2646970667358221220b0f42973e593f94cde8b4a28748d3a373d9d4eaa71f9a8843b43f8473ce905ce64736f6c634300081b0033608060405234801561001057600080fd5b506040516121093803806121098339818101604052810190610032919061036b565b6100456000801b8361007e60201b60201c565b506100767fb19546dff01e856fb3f010c267a7b1c60363cf8a4664e21cc89c26224620214e8261007e60201b60201c565b5050506103ab565b60008061009184846100ca60201b60201c565b905080156100c0576100be83600160008781526020019081526020016000206101c760201b90919060201c565b505b8091505092915050565b60006100dc83836101fd60201b60201c565b6101bc57600160008085815260200190815260200160002060000160008473ffffffffffffffffffffffffffffffffffffffff1673ffffffffffffffffffffffffffffffffffffffff16815260200190815260200160002060006101000a81548160ff02191690831515021790555061015961026760201b60201c565b73ffffffffffffffffffffffffffffffffffffffff168273ffffffffffffffffffffffffffffffffffffffff16847f2f8788117e7eff1d82e926ec794901d17c78024a50270940304540a733656f0d60405160405180910390a4600190506101c1565b600090505b92915050565b60006101f5836000018373ffffffffffffffffffffffffffffffffffffffff1660001b61026f60201b60201c565b905092915050565b600080600084815260200190815260200160002060000160008373ffffffffffffffffffffffffffffffffffffffff1673ffffffffffffffffffffffffffffffffffffffff16815260200190815260200160002060009054906101000a900460ff16905092915050565b600033905090565b600061028183836102e560201b60201c565b6102da5782600001829080600181540180825580915050600190039060005260206000200160009091909190915055826000018054905083600101600084815260200190815260200160002081905550600190506102df565b600090505b92915050565b600080836001016000848152602001908152602001600020541415905092915050565b600080fd5b600073ffffffffffffffffffffffffffffffffffffffff82169050919050565b60006103388261030d565b9050919050565b6103488161032d565b811461035357600080fd5b50565b6000815190506103658161033f565b92915050565b6000806040838503121561038257610381610308565b5b600061039085828601610356565b92505060206103a185828601610356565b9150509250929050565b611d4f806103ba6000396000f3fe608060405234801561001057600080fd5b50600436106101375760003560e01c8063853b5d19116100b8578063c5df91b51161007c578063c5df91b51461036e578063ca0d53581461038a578063ca15c873146103a6578063d547741f146103d6578063e58378bb146103f2578063f2fde38b1461041057610137565b8063853b5d19146102b85780639010d07c146102d457806391d1485414610304578063a217fddf14610334578063ada8f9191461035257610137565b80632f2ff15d116100ff5780632f2ff15d1461021857806336568abe14610234578063755e936f1461025057806381e4c9a31461026c57806384cf84e11461029c57610137565b806301ffc9a71461013c5780631af6c4311461016c578063248a9ca31461019c5780632505a3bd146101cc5780632ad82eea146101fc575b600080fd5b61015660048036038101906101519190611443565b61042c565b604051610163919061148b565b60405180910390f35b610186600480360381019061018191906114dc565b6104a6565b604051610193919061148b565b60405180910390f35b6101b660048036038101906101b191906114dc565b6104d0565b6040516101c39190611518565b60405180910390f35b6101e660048036038101906101e19190611679565b6104ef565b6040516101f3919061148b565b60405180910390f35b61021660048036038101906102119190611679565b610520565b005b610232600480360381019061022d9190611720565b610636565b005b61024e60048036038101906102499190611720565b610658565b005b61026a60048036038101906102659190611801565b6106d3565b005b61028660048036038101906102819190611801565b6107e8565b604051610293919061148b565b60405180910390f35b6102b660048036038101906102b191906114dc565b610819565b005b6102d260048036038101906102cd9190611801565b6108f3565b005b6102ee60048036038101906102e99190611880565b610a09565b6040516102fb91906118cf565b60405180910390f35b61031e60048036038101906103199190611720565b610a38565b60405161032b919061148b565b60405180910390f35b61033c610aa2565b6040516103499190611518565b60405180910390f35b61036c600480360381019061036791906118ea565b610aa9565b005b610388600480360381019061038391906114dc565b610ac6565b005b6103a4600480360381019061039f9190611679565b610b9f565b005b6103c060048036038101906103bb91906114dc565b610cb4565b6040516103cd9190611926565b60405180910390f35b6103f060048036038101906103eb9190611720565b610cd8565b005b6103fa610cfa565b6040516104079190611518565b60405180910390f35b61042a600480360381019061042591906118ea565b610d1e565b005b60007f5a05180f000000000000000000000000000000000000000000000000000000007bffffffffffffffffffffffffffffffffffffffffffffffffffffffff1916827bffffffffffffffffffffffffffffffffffffffffffffffffffffffff1916148061049f575061049e82610da5565b5b9050919050565b60006003600083815260200190815260200160002060009054906101000a900460ff169050919050565b6000806000838152602001908152602001600020600101549050919050565b6000600460008380519060200120815260200190815260200160002060009054906101000a900460ff169050919050565b7fb19546dff01e856fb3f010c267a7b1c60363cf8a4664e21cc89c26224620214e61054a81610e1f565b6000828051906020012090506004600082815260200190815260200160002060009054906101000a900460ff16156105b7576040517f08c379a00000000000000000000000000000000000000000000000000000000081526004016105ae9061199e565b60405180910390fd5b60016004600083815260200190815260200160002060006101000a81548160ff0219169083151502179055503373ffffffffffffffffffffffffffffffffffffffff167fcbfa55581c230aeb174d969838d927cdd297755dfb967a33134312f1377ee71d846040516106299190611a2c565b60405180910390a2505050565b61063f826104d0565b61064881610e1f565b6106528383610e33565b50505050565b610660610e79565b73ffffffffffffffffffffffffffffffffffffffff168173ffffffffffffffffffffffffffffffffffffffff16146106c4576040517f6697b23200000000000000000000000000000000000000000000000000000000815260040160405180910390fd5b6106ce8282610e81565b505050565b7fb19546dff01e856fb3f010c267a7b1c60363cf8a4664e21cc89c26224620214e6106fd81610e1f565b6000828051906020012090506002600082815260200190815260200160002060009054906101000a900460ff16610769576040517f08c379a000000000000000000000000000000000000000000000000000000000815260040161076090611a9a565b60405180910390fd5b60006002600083815260200190815260200160002060006101000a81548160ff0219169083151502179055503373ffffffffffffffffffffffffffffffffffffffff167f66e43f8252a3257fe010a4fd6ae50f57624762cc64a6eceadb04b18cfdefac7d846040516107db9190611b0f565b60405180910390a2505050565b6000600260008380519060200120815260200190815260200160002060009054906101000a900460ff169050919050565b7fb19546dff01e856fb3f010c267a7b1c60363cf8a4664e21cc89c26224620214e61084381610e1f565b61084c826104a6565b1561088c576040517f08c379a000000000000000000000000000000000000000000000000000000000815260040161088390611b7d565b60405180910390fd5b60016003600084815260200190815260200160002060006101000a81548160ff0219169083151502179055507f010120d82c0c66b257c0ea628d405b1d3c2d37bb8dd9141f6c5c12cb0375c572826040516108e79190611518565b60405180910390a15050565b7fb19546dff01e856fb3f010c267a7b1c60363cf8a4664e21cc89c26224620214e61091d81610e1f565b6000828051906020012090506002600082815260200190815260200160002060009054906101000a900460ff161561098a576040517f08c379a00000000000000000000000000000000000000000000000000000000081526004016109819061199e565b60405180910390fd5b60016002600083815260200190815260200160002060006101000a81548160ff0219169083151502179055503373ffffffffffffffffffffffffffffffffffffffff167f0a249d4766726d36cb6d6ac22cf998dc9fc02bb4ff9fda73ec1e3061c8a1db09846040516109fc9190611b0f565b60405180910390a2505050565b6000610a308260016000868152602001908152602001600020610ec790919063ffffffff16565b905092915050565b600080600084815260200190815260200160002060000160008373ffffffffffffffffffffffffffffffffffffffff1673ffffffffffffffffffffffffffffffffffffffff16815260200190815260200160002060009054906101000a900460ff16905092915050565b6000801b81565b610ab66000801b82610636565b610ac36000801b33610658565b50565b7fb19546dff01e856fb3f010c267a7b1c60363cf8a4664e21cc89c26224620214e610af081610e1f565b610af9826104a6565b610b38576040517f08c379a0000000000000000000000000000000000000000000000000000000008152600401610b2f90611c0f565b60405180910390fd5b60006003600084815260200190815260200160002060006101000a81548160ff0219169083151502179055507f4072861add20da436ef0a8274b90d102aea17b603f972cc8196d51f1a5d5617982604051610b939190611518565b60405180910390a15050565b7fb19546dff01e856fb3f010c267a7b1c60363cf8a4664e21cc89c26224620214e610bc981610e1f565b6000828051906020012090506004600082815260200190815260200160002060009054906101000a900460ff16610c35576040517f08c379a0000000000000000000000000000000000000000000000000000000008152600401610c2c90611a9a565b60405180910390fd5b60006004600083815260200190815260200160002060006101000a81548160ff0219169083151502179055503373ffffffffffffffffffffffffffffffffffffffff167f69c40cdda8ad6e074bf320a4a76804a6652eb5231bda91b690dcb98010b2707984604051610ca79190611a2c565b60405180910390a2505050565b6000610cd160016000848152602001908152602001600020610ee1565b9050919050565b610ce1826104d0565b610cea81610e1f565b610cf48383610e81565b50505050565b7fb19546dff01e856fb3f010c267a7b1c60363cf8a4664e21cc89c26224620214e81565b6000610d4b7fb19546dff01e856fb3f010c267a7b1c60363cf8a4664e21cc89c26224620214e6000610a09565b9050610d777fb19546dff01e856fb3f010c267a7b1c60363cf8a4664e21cc89c26224620214e82610cd8565b610da17fb19546dff01e856fb3f010c267a7b1c60363cf8a4664e21cc89c26224620214e83610636565b5050565b60007f7965db0b000000000000000000000000000000000000000000000000000000007bffffffffffffffffffffffffffffffffffffffffffffffffffffffff1916827bffffffffffffffffffffffffffffffffffffffffffffffffffffffff19161480610e185750610e1782610ef6565b5b9050919050565b610e3081610e2b610e79565b610f60565b50565b600080610e408484610fb1565b90508015610e6f57610e6d83600160008781526020019081526020016000206110a290919063ffffffff16565b505b8091505092915050565b600033905090565b600080610e8e84846110d2565b90508015610ebd57610ebb83600160008781526020019081526020016000206111c490919063ffffffff16565b505b8091505092915050565b6000610ed683600001836111f4565b60001c905092915050565b6000610eef8260000161121f565b9050919050565b60007f01ffc9a7000000000000000000000000000000000000000000000000000000007bffffffffffffffffffffffffffffffffffffffffffffffffffffffff1916827bffffffffffffffffffffffffffffffffffffffffffffffffffffffff1916149050919050565b610f6a8282610a38565b610fad5780826040517fe2517d3f000000000000000000000000000000000000000000000000000000008152600401610fa4929190611c2f565b60405180910390fd5b5050565b6000610fbd8383610a38565b61109757600160008085815260200190815260200160002060000160008473ffffffffffffffffffffffffffffffffffffffff1673ffffffffffffffffffffffffffffffffffffffff16815260200190815260200160002060006101000a81548160ff021916908315150217905550611034610e79565b73ffffffffffffffffffffffffffffffffffffffff168273ffffffffffffffffffffffffffffffffffffffff16847f2f8788117e7eff1d82e926ec794901d17c78024a50270940304540a733656f0d60405160405180910390a46001905061109c565b600090505b92915050565b60006110ca836000018373ffffffffffffffffffffffffffffffffffffffff1660001b611230565b905092915050565b60006110de8383610a38565b156111b957600080600085815260200190815260200160002060000160008473ffffffffffffffffffffffffffffffffffffffff1673ffffffffffffffffffffffffffffffffffffffff16815260200190815260200160002060006101000a81548160ff021916908315150217905550611156610e79565b73ffffffffffffffffffffffffffffffffffffffff168273ffffffffffffffffffffffffffffffffffffffff16847ff6391f5c32d9c69d2a47ea670b442974b53935d1edc7fd64eb21e047a839171b60405160405180910390a4600190506111be565b600090505b92915050565b60006111ec836000018373ffffffffffffffffffffffffffffffffffffffff1660001b6112a0565b905092915050565b600082600001828154811061120c5761120b611c58565b5b9060005260206000200154905092915050565b600081600001805490509050919050565b600061123c83836113b4565b61129557826000018290806001815401808255809150506001900390600052602060002001600090919091909150558260000180549050836001016000848152602001908152602001600020819055506001905061129a565b600090505b92915050565b600080836001016000848152602001908152602001600020549050600081146113a85760006001826112d29190611cb6565b90506000600186600001805490506112ea9190611cb6565b905080821461135957600086600001828154811061130b5761130a611c58565b5b906000526020600020015490508087600001848154811061132f5761132e611c58565b5b90600052602060002001819055508387600101600083815260200190815260200160002081905550505b8560000180548061136d5761136c611cea565b5b6001900381819060005260206000200160009055905585600101600086815260200190815260200160002060009055600193505050506113ae565b60009150505b92915050565b600080836001016000848152602001908152602001600020541415905092915050565b6000604051905090565b600080fd5b600080fd5b60007fffffffff0000000000000000000000000000000000000000000000000000000082169050919050565b611420816113eb565b811461142b57600080fd5b50565b60008135905061143d81611417565b92915050565b600060208284031215611459576114586113e1565b5b60006114678482850161142e565b91505092915050565b60008115159050919050565b61148581611470565b82525050565b60006020820190506114a0600083018461147c565b92915050565b6000819050919050565b6114b9816114a6565b81146114c457600080fd5b50565b6000813590506114d6816114b0565b92915050565b6000602082840312156114f2576114f16113e1565b5b6000611500848285016114c7565b91505092915050565b611512816114a6565b82525050565b600060208201905061152d6000830184611509565b92915050565b600080fd5b600080fd5b6000601f19601f8301169050919050565b7f4e487b7100000000000000000000000000000000000000000000000000000000600052604160045260246000fd5b6115868261153d565b810181811067ffffffffffffffff821117156115a5576115a461154e565b5b80604052505050565b60006115b86113d7565b90506115c4828261157d565b919050565b600067ffffffffffffffff8211156115e4576115e361154e565b5b6115ed8261153d565b9050602081019050919050565b82818337600083830152505050565b600061161c611617846115c9565b6115ae565b90508281526020810184848401111561163857611637611538565b5b6116438482856115fa565b509392505050565b600082601f8301126116605761165f611533565b5b8135611670848260208601611609565b91505092915050565b60006020828403121561168f5761168e6113e1565b5b600082013567ffffffffffffffff8111156116ad576116ac6113e6565b5b6116b98482850161164b565b91505092915050565b600073ffffffffffffffffffffffffffffffffffffffff82169050919050565b60006116ed826116c2565b9050919050565b6116fd816116e2565b811461170857600080fd5b50565b60008135905061171a816116f4565b92915050565b60008060408385031215611737576117366113e1565b5b6000611745858286016114c7565b92505060206117568582860161170b565b9150509250929050565b600067ffffffffffffffff82111561177b5761177a61154e565b5b6117848261153d565b9050602081019050919050565b60006117a461179f84611760565b6115ae565b9050828152602081018484840111156117c0576117bf611538565b5b6117cb8482856115fa565b509392505050565b600082601f8301126117e8576117e7611533565b5b81356117f8848260208601611791565b91505092915050565b600060208284031215611817576118166113e1565b5b600082013567ffffffffffffffff811115611835576118346113e6565b5b611841848285016117d3565b91505092915050565b6000819050919050565b61185d8161184a565b811461186857600080fd5b50565b60008135905061187a81611854565b92915050565b60008060408385031215611897576118966113e1565b5b60006118a5858286016114c7565b92505060206118b68582860161186b565b9150509250929050565b6118c9816116e2565b82525050565b60006020820190506118e460008301846118c0565b92915050565b600060208284031215611900576118ff6113e1565b5b600061190e8482850161170b565b91505092915050565b6119208161184a565b82525050565b600060208201905061193b6000830184611917565b92915050565b600082825260208201905092915050565b7f4b657920697320616c72656164792076616c6964000000000000000000000000600082015250565b6000611988601483611941565b915061199382611952565b602082019050919050565b600060208201905081810360008301526119b78161197b565b9050919050565b600081519050919050565b60005b838110156119e75780820151818401526020810190506119cc565b60008484015250505050565b60006119fe826119be565b611a088185611941565b9350611a188185602086016119c9565b611a218161153d565b840191505092915050565b60006020820190508181036000830152611a4681846119f3565b905092915050565b7f43616e6e6f74207265766f6b6520696e76616c6964206b657900000000000000600082015250565b6000611a84601983611941565b9150611a8f82611a4e565b602082019050919050565b60006020820190508181036000830152611ab381611a77565b9050919050565b600081519050919050565b600082825260208201905092915050565b6000611ae182611aba565b611aeb8185611ac5565b9350611afb8185602086016119c9565b611b048161153d565b840191505092915050565b60006020820190508181036000830152611b298184611ad6565b905092915050565b7f496d616765494420697320616c726561647920737570706f7274656400000000600082015250565b6000611b67601c83611941565b9150611b7282611b31565b602082019050919050565b60006020820190508181036000830152611b9681611b5a565b9050919050565b7f43616e6e6f74207265766f6b6520756e737570706f7274656420496d6167654960008201527f4400000000000000000000000000000000000000000000000000000000000000602082015250565b6000611bf9602183611941565b9150611c0482611b9d565b604082019050919050565b60006020820190508181036000830152611c2881611bec565b9050919050565b6000604082019050611c4460008301856118c0565b611c516020830184611509565b9392505050565b7f4e487b7100000000000000000000000000000000000000000000000000000000600052603260045260246000fd5b7f4e487b7100000000000000000000000000000000000000000000000000000000600052601160045260246000fd5b6000611cc18261184a565b9150611ccc8361184a565b9250828203905081811115611ce457611ce3611c87565b5b92915050565b7f4e487b7100000000000000000000000000000000000000000000000000000000600052603160045260246000fdfea26469706673582212201b471d86c6c39872256eb0b09d4797a8c1e454d6895ad9546b3f15908fe9c65164736f6c634300081b003360e060405234801561001057600080fd5b5060405161280638038061280683398181016040528101906100329190610238565b808073ffffffffffffffffffffffffffffffffffffffff1660c08173ffffffffffffffffffffffffffffffffffffffff16815250505061007661014d60201b60201c565b156100ad576040517f7a47c9a200000000000000000000000000000000000000000000000000000000815260040160405180910390fd5b63deafbeef60e01b6040516100c1906101b6565b6100cb91906102a0565b604051809103906000f0801580156100e7573d6000803e3d6000fd5b5073ffffffffffffffffffffffffffffffffffffffff1660a08173ffffffffffffffffffffffffffffffffffffffff168152505060018081111561012e5761012d6102bb565b5b6080816001811115610143576101426102bb565b5b81525050506102ea565b6000600146148061015e5750600a46145b806101695750608946145b80610175575061014446145b8061018157506101e046145b8061018d575061210546145b80610199575061a4b146145b806101a5575061a4ba46145b806101b1575061e70846145b905090565b6110988061176e83390190565b600080fd5b600073ffffffffffffffffffffffffffffffffffffffff82169050919050565b60006101f3826101c8565b9050919050565b6000610205826101e8565b9050919050565b610215816101fa565b811461022057600080fd5b50565b6000815190506102328161020c565b92915050565b60006020828403121561024e5761024d6101c3565b5b600061025c84828501610223565b91505092915050565b60007fffffffff0000000000000000000000000000000000000000000000000000000082169050919050565b61029a81610265565b82525050565b60006020820190506102b56000830184610291565b92915050565b7f4e487b7100000000000000000000000000000000000000000000000000000000600052602160045260246000fd5b60805160a05160c05161143a6103346000396000818161011801528181610249015261053f01526000818160f2015261019601526000818161013e015261026d015261143a6000f3fe608060405234801561001057600080fd5b50600436106100575760003560e01c806308c84e701461005c5780633fd66f221461007a5780639a44ea8414610098578063c4fa74e5146100b6578063f4cbae94146100d2575b600080fd5b6100646100f0565b604051610071919061075e565b60405180910390f35b610082610114565b60405161008f919061079a565b60405180910390f35b6100a061013c565b6040516100ad919061082c565b60405180910390f35b6100d060048036038101906100cb9190610947565b610160565b005b6100da610247565b6040516100e7919061079a565b60405180910390f35b7f000000000000000000000000000000000000000000000000000000000000000081565b60007f0000000000000000000000000000000000000000000000000000000000000000905090565b7f000000000000000000000000000000000000000000000000000000000000000081565b610179848036038101906101749190610cc7565b61026b565b6101948480360381019061018d9190610cc7565b8383610300565b7f000000000000000000000000000000000000000000000000000000000000000073ffffffffffffffffffffffffffffffffffffffff1663ab750e756101ec866000018036038101906101e79190610cf5565b61061f565b866101400135866040518463ffffffff1660e01b815260040161021193929190610db1565b60006040518083038186803b15801561022957600080fd5b505afa15801561023d573d6000803e3d6000fd5b5050505050505050565b7f000000000000000000000000000000000000000000000000000000000000000081565b7f0000000000000000000000000000000000000000000000000000000000000000600181111561029e5761029d6107b5565b5b6102ab82600001516106d1565b60018111156102bd576102bc6107b5565b5b146102fd576040517f08c379a00000000000000000000000000000000000000000000000000000000081526004016102f490610e4c565b60405180910390fd5b50565b8173ffffffffffffffffffffffffffffffffffffffff1683606001516000015173ffffffffffffffffffffffffffffffffffffffff1614610376576040517f08c379a000000000000000000000000000000000000000000000000000000000815260040161036d90610eb8565b60405180910390fd5b807bffffffffffffffffffffffffffffffffffffffffffffffffffffffff19168360600151602001517bffffffffffffffffffffffffffffffffffffffffffffffffffffffff1916146103fe576040517f08c379a00000000000000000000000000000000000000000000000000000000081526004016103f590610f24565b60405180910390fd5b4683606001516040015114610448576040517f08c379a000000000000000000000000000000000000000000000000000000000815260040161043f90610f90565b60405180910390fd5b4383606001516060015110610492576040517f08c379a000000000000000000000000000000000000000000000000000000000815260040161048990611022565b60405180910390fd5b436101008460600151606001516104a99190611071565b10156104ea576040517f08c379a00000000000000000000000000000000000000000000000000000000081526004016104e190611117565b60405180910390fd5b826060015160600151408360600151608001511461053d576040517f08c379a000000000000000000000000000000000000000000000000000000000815260040161053490611183565b60405180910390fd5b7f000000000000000000000000000000000000000000000000000000000000000073ffffffffffffffffffffffffffffffffffffffff16631af6c43184602001516040518263ffffffff1660e01b815260040161059a91906111a3565b602060405180830381865afa1580156105b7573d6000803e3d6000fd5b505050506040513d601f19601f820116820180604052508101906105db91906111f6565b61061a576040517f08c379a00000000000000000000000000000000000000000000000000000000081526004016106119061126f565b60405180910390fd5b505050565b6060600180811115610634576106336107b5565b5b8260400151600181111561064b5761064a6107b5565b5b0361069f576000826020015160006008811061066a5761066961128f565b5b60200201519050826000015181604051602001610688929190611300565b6040516020818303038152906040529150506106cc565b816000015182602001516040516020016106ba9291906113d7565b60405160208183030381529060405290505b919050565b600081604001519050919050565b600073ffffffffffffffffffffffffffffffffffffffff82169050919050565b6000819050919050565b600061072461071f61071a846106df565b6106ff565b6106df565b9050919050565b600061073682610709565b9050919050565b60006107488261072b565b9050919050565b6107588161073d565b82525050565b6000602082019050610773600083018461074f565b92915050565b60006107848261072b565b9050919050565b61079481610779565b82525050565b60006020820190506107af600083018461078b565b92915050565b7f4e487b7100000000000000000000000000000000000000000000000000000000600052602160045260246000fd5b600281106107f5576107f46107b5565b5b50565b6000819050610806826107e4565b919050565b6000610816826107f8565b9050919050565b6108268161080b565b82525050565b6000602082019050610841600083018461081d565b92915050565b6000604051905090565b600080fd5b600080fd5b6000610220828403121561087257610871610856565b5b81905092915050565b6000819050919050565b61088e8161087b565b811461089957600080fd5b50565b6000813590506108ab81610885565b92915050565b60006108bc826106df565b9050919050565b6108cc816108b1565b81146108d757600080fd5b50565b6000813590506108e9816108c3565b92915050565b60007fffffffff0000000000000000000000000000000000000000000000000000000082169050919050565b610924816108ef565b811461092f57600080fd5b50565b6000813590506109418161091b565b92915050565b600080600080610280858703121561096257610961610851565b5b60006109708782880161085b565b9450506102206109828782880161089c565b935050610240610994878288016108da565b9250506102606109a687828801610932565b91505092959194509250565b600080fd5b6000601f19601f8301169050919050565b7f4e487b7100000000000000000000000000000000000000000000000000000000600052604160045260246000fd5b610a00826109b7565b810181811067ffffffffffffffff82111715610a1f57610a1e6109c8565b5b80604052505050565b6000610a32610847565b9050610a3e82826109f7565b919050565b600080fd5b600067ffffffffffffffff821115610a6357610a626109c8565b5b602082029050919050565b600080fd5b6000610a86610a8184610a48565b610a28565b90508060208402830185811115610aa057610a9f610a6e565b5b835b81811015610ac95780610ab5888261089c565b845260208401935050602081019050610aa2565b5050509392505050565b600082601f830112610ae857610ae7610a43565b5b6008610af5848285610a73565b91505092915050565b60028110610b0b57600080fd5b50565b600081359050610b1d81610afe565b92915050565b60006101408284031215610b3a57610b396109b2565b5b610b446060610a28565b90506000610b5484828501610932565b6000830152506020610b6884828501610ad3565b602083015250610120610b7d84828501610b0e565b60408301525092915050565b6000819050919050565b610b9c81610b89565b8114610ba757600080fd5b50565b600081359050610bb981610b93565b92915050565b600060a08284031215610bd557610bd46109b2565b5b610bdf60a0610a28565b90506000610bef848285016108da565b6000830152506020610c0384828501610932565b6020830152506040610c1784828501610baa565b6040830152506060610c2b84828501610baa565b6060830152506080610c3f8482850161089c565b60808301525092915050565b60006102208284031215610c6257610c616109b2565b5b610c6c6080610a28565b90506000610c7c84828501610b23565b600083015250610140610c918482850161089c565b602083015250610160610ca684828501610baa565b604083015250610180610cbb84828501610bbf565b60608301525092915050565b60006102208284031215610cde57610cdd610851565b5b6000610cec84828501610c4b565b91505092915050565b60006101408284031215610d0c57610d0b610851565b5b6000610d1a84828501610b23565b91505092915050565b600081519050919050565b600082825260208201905092915050565b60005b83811015610d5d578082015181840152602081019050610d42565b60008484015250505050565b6000610d7482610d23565b610d7e8185610d2e565b9350610d8e818560208601610d3f565b610d97816109b7565b840191505092915050565b610dab8161087b565b82525050565b60006060820190508181036000830152610dcb8186610d69565b9050610dda6020830185610da2565b610de76040830184610da2565b949350505050565b600082825260208201905092915050565b7f496e76616c69642070726f6f66206d6f64650000000000000000000000000000600082015250565b6000610e36601283610def565b9150610e4182610e00565b602082019050919050565b60006020820190508181036000830152610e6581610e29565b9050919050565b7f496e76616c69642070726f766572000000000000000000000000000000000000600082015250565b6000610ea2600e83610def565b9150610ead82610e6c565b602082019050919050565b60006020820190508181036000830152610ed181610e95565b9050919050565b7f496e76616c69642073656c6563746f7200000000000000000000000000000000600082015250565b6000610f0e601083610def565b9150610f1982610ed8565b602082019050919050565b60006020820190508181036000830152610f3d81610f01565b9050919050565b7f496e76616c696420636861696e20696400000000000000000000000000000000600082015250565b6000610f7a601083610def565b9150610f8582610f44565b602082019050919050565b60006020820190508181036000830152610fa981610f6d565b9050919050565b7f496e76616c696420626c6f636b206e756d6265723a20626c6f636b2066726f6d60008201527f2066757475726500000000000000000000000000000000000000000000000000602082015250565b600061100c602783610def565b915061101782610fb0565b604082019050919050565b6000602082019050818103600083015261103b81610fff565b9050919050565b7f4e487b7100000000000000000000000000000000000000000000000000000000600052601160045260246000fd5b600061107c82610b89565b915061108783610b89565b925082820190508082111561109f5761109e611042565b5b92915050565b7f496e76616c696420626c6f636b206e756d6265723a20626c6f636b20746f6f2060008201527f6f6c640000000000000000000000000000000000000000000000000000000000602082015250565b6000611101602383610def565b915061110c826110a5565b604082019050919050565b60006020820190508181036000830152611130816110f4565b9050919050565b7f496e76616c696420626c6f636b20686173680000000000000000000000000000600082015250565b600061116d601283610def565b915061117882611137565b602082019050919050565b6000602082019050818103600083015261119c81611160565b9050919050565b60006020820190506111b86000830184610da2565b92915050565b60008115159050919050565b6111d3816111be565b81146111de57600080fd5b50565b6000815190506111f0816111ca565b92915050565b60006020828403121561120c5761120b610851565b5b600061121a848285016111e1565b91505092915050565b7f556e737570706f727465642043616c6c47756573744964000000000000000000600082015250565b6000611259601783610def565b915061126482611223565b602082019050919050565b600060208201905081810360008301526112888161124c565b9050919050565b7f4e487b7100000000000000000000000000000000000000000000000000000000600052603260045260246000fd5b6000819050919050565b6112d96112d4826108ef565b6112be565b82525050565b6000819050919050565b6112fa6112f58261087b565b6112df565b82525050565b600061130c82856112c8565b60048201915061131c82846112e9565b6020820191508190509392505050565b600060089050919050565b600081905092915050565b6000819050919050565b6113558161087b565b82525050565b6000611367838361134c565b60208301905092915050565b6000602082019050919050565b6113898161132c565b6113938184611337565b925061139e82611342565b8060005b838110156113cf5781516113b6878261135b565b96506113c183611373565b9250506001810190506113a2565b505050505050565b60006113e382856112c8565b6004820191506113f38284611380565b61010082019150819050939250505056fea2646970667358221220e215ddd6f0d550071086c2e90d06cf69608cc926c54347fcc169efee247379fa64736f6c634300081b003360a060405234801561001057600080fd5b50604051611098380380611098833981810160405281019061003291906100db565b807bffffffffffffffffffffffffffffffffffffffffffffffffffffffff19166080817bffffffffffffffffffffffffffffffffffffffffffffffffffffffff19168152505050610108565b600080fd5b60007fffffffff0000000000000000000000000000000000000000000000000000000082169050919050565b6100b881610083565b81146100c357600080fd5b50565b6000815190506100d5816100af565b92915050565b6000602082840312156100f1576100f061007e565b5b60006100ff848285016100c6565b91505092915050565b608051610f60610138600039600081816101140152818161016b0152818161024701526102ab0152610f606000f3fe608060405234801561001057600080fd5b50600436106100575760003560e01c8063053c238d1461005c5780631599ead51461007a5780633a115bb11461009657806366cf0e4b146100c6578063ab750e75146100f6575b600080fd5b610064610112565b6040516100719190610701565b60405180910390f35b610094600480360381019061008f919061074a565b610136565b005b6100b060048036038101906100ab91906107c9565b610156565b6040516100bd91906108d2565b60405180910390f35b6100e060048036038101906100db91906108f4565b6101bb565b6040516100ed91906108d2565b60405180910390f35b610110600480360381019061010b9190610999565b6101e5565b005b7f000000000000000000000000000000000000000000000000000000000000000081565b6101538180600001906101499190610a1c565b8360200135610207565b50565b61015e610639565b60405180604001604052807f00000000000000000000000000000000000000000000000000000000000000008460405160200161019c929190610ac1565b6040516020818303038152906040528152602001838152509050919050565b6101c3610639565b6101dd6101d86101d38585610393565b61043a565b610156565b905092915050565b61020184846101fc6101f78686610393565b61043a565b610207565b50505050565b828260009060049261021b93929190610af7565b906102269190610b4a565b7bffffffffffffffffffffffffffffffffffffffffffffffffffffffff19167f00000000000000000000000000000000000000000000000000000000000000007bffffffffffffffffffffffffffffffffffffffffffffffffffffffff19161461030757828260009060049261029e93929190610af7565b906102a99190610b4a565b7f00000000000000000000000000000000000000000000000000000000000000006040517fb8b38d4c0000000000000000000000000000000000000000000000000000000081526004016102fe929190610ba9565b60405180910390fd5b806040516020016103189190610bd2565b604051602081830303815290604052805190602001208383600490809261034193929190610af7565b60405161034f929190610c2c565b60405180910390201461038e576040517f439cc0cd00000000000000000000000000000000000000000000000000000000815260040160405180910390fd5b505050565b61039b610656565b6040518060a001604052808481526020017fa3acc27117418996340b84e5a90f3ef4c49d22c79e44aad822ec9c313e1eb8e260001b81526020016040518060400160405280600060028111156103f4576103f3610c45565b5b8152602001600060ff1681525081526020016000801b815260200161042f60405180604001604052808681526020016000801b81525061055e565b815250905092915050565b600060028060405161044b90610cc0565b602060405180830381855afa158015610468573d6000803e3d6000fd5b5050506040513d601f19601f8201168201806040525081019061048b9190610cea565b8360600151846000015185602001518660800151601888604001516000015160028111156104bc576104bb610c45565b5b63ffffffff16901b601889604001516020015160ff1663ffffffff16901b6008600461ffff16901b6040516020016104fb989796959493929190610da1565b6040516020818303038152906040526040516105179190610e64565b602060405180830381855afa158015610534573d6000803e3d6000fd5b5050506040513d601f19601f820116820180604052508101906105579190610cea565b9050919050565b600060028060405161056f90610ec7565b602060405180830381855afa15801561058c573d6000803e3d6000fd5b5050506040513d601f19601f820116820180604052508101906105af9190610cea565b836000015184602001516008600261ffff16901b6040516020016105d69493929190610edc565b6040516020818303038152906040526040516105f29190610e64565b602060405180830381855afa15801561060f573d6000803e3d6000fd5b5050506040513d601f19601f820116820180604052508101906106329190610cea565b9050919050565b604051806040016040528060608152602001600080191681525090565b6040518060a00160405280600080191681526020016000801916815260200161067d610697565b815260200160008019168152602001600080191681525090565b6040518060400160405280600060028111156106b6576106b5610c45565b5b8152602001600060ff1681525090565b60007fffffffff0000000000000000000000000000000000000000000000000000000082169050919050565b6106fb816106c6565b82525050565b600060208201905061071660008301846106f2565b92915050565b600080fd5b600080fd5b600080fd5b60006040828403121561074157610740610726565b5b81905092915050565b6000602082840312156107605761075f61071c565b5b600082013567ffffffffffffffff81111561077e5761077d610721565b5b61078a8482850161072b565b91505092915050565b6000819050919050565b6107a681610793565b81146107b157600080fd5b50565b6000813590506107c38161079d565b92915050565b6000602082840312156107df576107de61071c565b5b60006107ed848285016107b4565b91505092915050565b600081519050919050565b600082825260208201905092915050565b60005b83811015610830578082015181840152602081019050610815565b60008484015250505050565b6000601f19601f8301169050919050565b6000610858826107f6565b6108628185610801565b9350610872818560208601610812565b61087b8161083c565b840191505092915050565b61088f81610793565b82525050565b600060408301600083015184820360008601526108b2828261084d565b91505060208301516108c76020860182610886565b508091505092915050565b600060208201905081810360008301526108ec8184610895565b905092915050565b6000806040838503121561090b5761090a61071c565b5b6000610919858286016107b4565b925050602061092a858286016107b4565b9150509250929050565b600080fd5b600080fd5b600080fd5b60008083601f84011261095957610958610934565b5b8235905067ffffffffffffffff81111561097657610975610939565b5b6020830191508360018202830111156109925761099161093e565b5b9250929050565b600080600080606085870312156109b3576109b261071c565b5b600085013567ffffffffffffffff8111156109d1576109d0610721565b5b6109dd87828801610943565b945094505060206109f0878288016107b4565b9250506040610a01878288016107b4565b91505092959194509250565b600080fd5b600080fd5b600080fd5b60008083356001602003843603038112610a3957610a38610a0d565b5b80840192508235915067ffffffffffffffff821115610a5b57610a5a610a12565b5b602083019250600182023603831315610a7757610a76610a17565b5b509250929050565b6000819050919050565b610a9a610a95826106c6565b610a7f565b82525050565b6000819050919050565b610abb610ab682610793565b610aa0565b82525050565b6000610acd8285610a89565b600482019150610add8284610aaa565b6020820191508190509392505050565b600080fd5b600080fd5b60008085851115610b0b57610b0a610aed565b5b83861115610b1c57610b1b610af2565b5b6001850283019150848603905094509492505050565b600082905092915050565b600082821b905092915050565b6000610b568383610b32565b82610b6181356106c6565b92506004821015610ba157610b9c7fffffffff0000000000000000000000000000000000000000000000000000000083600403600802610b3d565b831692505b505092915050565b6000604082019050610bbe60008301856106f2565b610bcb60208301846106f2565b9392505050565b6000610bde8284610aaa565b60208201915081905092915050565b600081905092915050565b82818337600083830152505050565b6000610c138385610bed565b9350610c20838584610bf8565b82840190509392505050565b6000610c39828486610c07565b91508190509392505050565b7f4e487b7100000000000000000000000000000000000000000000000000000000600052602160045260246000fd5b7f72697363302e52656365697074436c61696d0000000000000000000000000000600082015250565b6000610caa601283610bed565b9150610cb582610c74565b601282019050919050565b6000610ccb82610c9d565b9150819050919050565b600081519050610ce48161079d565b92915050565b600060208284031215610d0057610cff61071c565b5b6000610d0e84828501610cd5565b91505092915050565b600063ffffffff82169050919050565b60008160e01b9050919050565b6000610d3f82610d27565b9050919050565b610d57610d5282610d17565b610d34565b82525050565b600061ffff82169050919050565b60008160f01b9050919050565b6000610d8382610d6b565b9050919050565b610d9b610d9682610d5d565b610d78565b82525050565b6000610dad828b610aaa565b602082019150610dbd828a610aaa565b602082019150610dcd8289610aaa565b602082019150610ddd8288610aaa565b602082019150610ded8287610aaa565b602082019150610dfd8286610d46565b600482019150610e0d8285610d46565b600482019150610e1d8284610d8a565b6002820191508190509998505050505050505050565b6000610e3e826107f6565b610e488185610bed565b9350610e58818560208601610812565b80840191505092915050565b6000610e708284610e33565b915081905092915050565b7f72697363302e4f75747075740000000000000000000000000000000000000000600082015250565b6000610eb1600c83610bed565b9150610ebc82610e7b565b600c82019050919050565b6000610ed282610ea4565b9150819050919050565b6000610ee88287610aaa565b602082019150610ef88286610aaa565b602082019150610f088285610aaa565b602082019150610f188284610d8a565b6002820191508190509594505050505056fea26469706673582212209b52048445bdebc96f93b4f2ed7e4272c73dc54a1258e5afa49b2b2082b1312a64736f6c634300081b0033",
  "linkReferences": {},
  "deployedLinkReferences": {}
}