{
  "_format": "hh-sol-artifact-1",
  "contractName": "TwitterProver",
  "sourceName": "contracts/proof/TwitterProver.sol",
  "abi": [
    {
      "inputs": [],
      "name": "FailedInnerCall",
      "type": "error"
    },
    {
      "inputs": [],
      "name": "proof",
      "outputs": [
        {
          "components": [
            {
              "components": [
                {
                  "internalType": "bytes4",
                  "name": "verifierSelector",
                  "type": "bytes4"
                },
                {
                  "internalType": "bytes32[8]",
                  "name": "seal",
                  "type": "bytes32[8]"
                },
                {
                  "internalType": "enum ProofMode",
                  "name": "mode",
                  "type": "uint8"
                }
              ],
              "internalType": "struct Seal",
              "name": "seal",
              "type": "tuple"
            },
            {
              "internalType": "bytes32",
              "name": "callGuestId",
              "type": "bytes32"
            },
            {
              "internalType": "uint256",
              "name": "length",
              "type": "uint256"
            },
            {
              "components": [
                {
                  "internalType": "address",
                  "name": "proverContractAddress",
                  "type": "address"
                },
                {
                  "internalType": "bytes4",
                  "name": "functionSelector",
                  "type": "bytes4"
                },
                {
                  "internalType": "uint256",
                  "name": "settleChainId",
                  "type": "uint256"
                },
                {
                  "internalType": "uint256",
                  "name": "settleBlockNumber",
                  "type": "uint256"
                },
                {
                  "internalType": "bytes32",
                  "name": "settleBlockHash",
                  "type": "bytes32"
                }
              ],
              "internalType": "struct CallAssumptions",
              "name": "callAssumptions",
              "type": "tuple"
            }
          ],
          "internalType": "struct Proof",
          "name": "",
          "type": "tuple"
        }
      ],
      "stateMutability": "pure",
      "type": "function"
    },
    {
      "inputs": [
        {
          "components": [
            {
              "internalType": "string",
              "name": "webProofJson",
              "type": "string"
            }
          ],
          "internalType": "struct WebProof",
          "name": "webProof",
          "type": "tuple"
        }
      ],
      "name": "proofOfAccount",
      "outputs": [
        {
          "components": [
            {
              "components": [
                {
                  "internalType": "bytes4",
                  "name": "verifierSelector",
                  "type": "bytes4"
                },
                {
                  "internalType": "bytes32[8]",
                  "name": "seal",
                  "type": "bytes32[8]"
                },
                {
                  "internalType": "enum ProofMode",
                  "name": "mode",
                  "type": "uint8"
                }
              ],
              "internalType": "struct Seal",
              "name": "seal",
              "type": "tuple"
            },
            {
              "internalType": "bytes32",
              "name": "callGuestId",
              "type": "bytes32"
            },
            {
              "internalType": "uint256",
              "name": "length",
              "type": "uint256"
            },
            {
              "components": [
                {
                  "internalType": "address",
                  "name": "proverContractAddress",
                  "type": "address"
                },
                {
                  "internalType": "bytes4",
                  "name": "functionSelector",
                  "type": "bytes4"
                },
                {
                  "internalType": "uint256",
                  "name": "settleChainId",
                  "type": "uint256"
                },
                {
                  "internalType": "uint256",
                  "name": "settleBlockNumber",
                  "type": "uint256"
                },
                {
                  "internalType": "bytes32",
                  "name": "settleBlockHash",
                  "type": "bytes32"
                }
              ],
              "internalType": "struct CallAssumptions",
              "name": "callAssumptions",
              "type": "tuple"
            }
          ],
          "internalType": "struct Proof",
          "name": "",
          "type": "tuple"
        },
        {
          "internalType": "string",
          "name": "",
          "type": "string"
        }
      ],
      "stateMutability": "view",
      "type": "function"
    },
    {
      "inputs": [
        {
          "components": [
            {
              "internalType": "string",
              "name": "webProofJson",
              "type": "string"
            }
          ],
          "internalType": "struct WebProof",
          "name": "webProof",
          "type": "tuple"
        },
        {
          "internalType": "address",
          "name": "account",
          "type": "address"
        }
      ],
      "name": "proofOfPost",
      "outputs": [
        {
          "components": [
            {
              "components": [
                {
                  "internalType": "bytes4",
                  "name": "verifierSelector",
                  "type": "bytes4"
                },
                {
                  "internalType": "bytes32[8]",
                  "name": "seal",
                  "type": "bytes32[8]"
                },
                {
                  "internalType": "enum ProofMode",
                  "name": "mode",
                  "type": "uint8"
                }
              ],
              "internalType": "struct Seal",
              "name": "seal",
              "type": "tuple"
            },
            {
              "internalType": "bytes32",
              "name": "callGuestId",
              "type": "bytes32"
            },
            {
              "internalType": "uint256",
              "name": "length",
              "type": "uint256"
            },
            {
              "components": [
                {
                  "internalType": "address",
                  "name": "proverContractAddress",
                  "type": "address"
                },
                {
                  "internalType": "bytes4",
                  "name": "functionSelector",
                  "type": "bytes4"
                },
                {
                  "internalType": "uint256",
                  "name": "settleChainId",
                  "type": "uint256"
                },
                {
                  "internalType": "uint256",
                  "name": "settleBlockNumber",
                  "type": "uint256"
                },
                {
                  "internalType": "bytes32",
                  "name": "settleBlockHash",
                  "type": "bytes32"
                }
              ],
              "internalType": "struct CallAssumptions",
              "name": "callAssumptions",
              "type": "tuple"
            }
          ],
          "internalType": "struct Proof",
          "name": "",
          "type": "tuple"
        },
        {
          "internalType": "string",
          "name": "",
          "type": "string"
        },
        {
          "internalType": "address",
          "name": "",
          "type": "address"
        }
      ],
      "stateMutability": "view",
      "type": "function"
    },
    {
      "inputs": [
        {
          "internalType": "uint256",
          "name": "blockNo",
          "type": "uint256"
        }
      ],
      "name": "setBlock",
      "outputs": [],
      "stateMutability": "nonpayable",
      "type": "function"
    },
    {
      "inputs": [
        {
          "internalType": "uint256",
          "name": "chainId",
          "type": "uint256"
        },
        {
          "internalType": "uint256",
          "name": "blockNo",
          "type": "uint256"
        }
      ],
      "name": "setChain",
      "outputs": [],
      "stateMutability": "nonpayable",
      "type": "function"
    }
  ],
  "bytecode": "0x60806040526040518060600160405280602b8152602001612068602b91396000908161002b919061028e565b5034801561003857600080fd5b50610360565b600081519050919050565b7f4e487b7100000000000000000000000000000000000000000000000000000000600052604160045260246000fd5b7f4e487b7100000000000000000000000000000000000000000000000000000000600052602260045260246000fd5b600060028204905060018216806100bf57607f821691505b6020821081036100d2576100d1610078565b5b50919050565b60008190508160005260206000209050919050565b60006020601f8301049050919050565b600082821b905092915050565b60006008830261013a7fffffffffffffffffffffffffffffffffffffffffffffffffffffffffffffffff826100fd565b61014486836100fd565b95508019841693508086168417925050509392505050565b6000819050919050565b6000819050919050565b600061018b6101866101818461015c565b610166565b61015c565b9050919050565b6000819050919050565b6101a583610170565b6101b96101b182610192565b84845461010a565b825550505050565b600090565b6101ce6101c1565b6101d981848461019c565b505050565b5b818110156101fd576101f26000826101c6565b6001810190506101df565b5050565b601f82111561024257610213816100d8565b61021c846100ed565b8101602085101561022b578190505b61023f610237856100ed565b8301826101de565b50505b505050565b600082821c905092915050565b600061026560001984600802610247565b1980831691505092915050565b600061027e8383610254565b9150826002028217905092915050565b6102978261003e565b67ffffffffffffffff8111156102b0576102af610049565b5b6102ba82546100a7565b6102c5828285610201565b600060209050601f8311600181146102f857600084156102e6578287015190505b6102f08582610272565b865550610358565b601f198416610306866100d8565b60005b8281101561032e57848901518255600182019150602085019450602081019050610309565b8683101561034b5784890151610347601f891682610254565b8355505b6001600288020188555050505b505050505050565b611cf98061036f6000396000f3fe608060405234801561001057600080fd5b50600436106100575760003560e01c8063121bb4d41461005c57806387cea3ae1461008d578063acfd5786146100a9578063faf924cf146100db578063ffbc5638146100f9575b600080fd5b61007660048036038101906100719190610cf4565b610115565b604051610084929190611093565b60405180910390f35b6100a760048036038101906100a291906110f1565b610229565b005b6100c360048036038101906100be919061114a565b61030a565b6040516100d2939291906111b5565b60405180910390f35b6100e361031d565b6040516100f091906111f6565b60405180910390f35b610113600480360381019061010e9190611212565b610332565b005b61011d610b82565b606060006101c76000805461013190611281565b80601f016020809104026020016040519081016040528092919081815260200182805461015d90611281565b80156101aa5780601f1061017f576101008083540402835291602001916101aa565b820191906000526020600020905b81548152906001019060200180831161018d57829003601f168201915b5050505050856101b990611449565b61041690919063ffffffff16565b905060006102136040518060400160405280600b81526020017f73637265656e5f6e616d650000000000000000000000000000000000000000008152508361049b90919063ffffffff16565b905061021d61031d565b81935093505050915091565b7f2ae215ce9fde588adfdea92976dc9aa45aa006a0f63942d8f9f21bd4537972a360001c73ffffffffffffffffffffffffffffffffffffffff166387cea3ae826040518263ffffffff1660e01b8152600401610285919061146b565b6020604051808303816000875af11580156102a4573d6000803e3d6000fd5b505050506040513d601f19601f820116820180604052508101906102c891906114be565b610307576040517f08c379a00000000000000000000000000000000000000000000000000000000081526004016102fe90611537565b60405180910390fd5b50565b610312610b82565b606060009250925092565b610325610b82565b61032d6105d8565b905090565b7f2ae215ce9fde588adfdea92976dc9aa45aa006a0f63942d8f9f21bd4537972a360001c73ffffffffffffffffffffffffffffffffffffffff1663ffbc563883836040518363ffffffff1660e01b8152600401610390929190611557565b6020604051808303816000875af11580156103af573d6000803e3d6000fd5b505050506040513d601f19601f820116820180604052508101906103d391906114be565b610412576040517f08c379a000000000000000000000000000000000000000000000000000000000815260040161040990611537565b60405180910390fd5b5050565b61041e610bb9565b600061042c846000806105ef565b905061043b8160200151610739565b61045283826040015161094c90919063ffffffff16565b610491576040517f08c379a0000000000000000000000000000000000000000000000000000000008152600401610488906115cc565b60405180910390fd5b8091505092915050565b60606000836000015151116104e5576040517f08c379a00000000000000000000000000000000000000000000000000000000081526004016104dc90611638565b60405180910390fd5b6000604051806040016040528085600001518152602001848152506040516020016105109190611758565b6040516020818303038152906040529050600080600273f4e4fdca9d5d55e64525e314391996a15f7ec60061054591906117a9565b73ffffffffffffffffffffffffffffffffffffffff16836040516105699190611838565b600060405180830381855afa9150503d80600081146105a4576040519150601f19603f3d011682016040523d82523d6000602084013e6105a9565b606091505b50915091506105b88282610974565b50808060200190518101906105cd91906118bf565b935050505092915050565b6105e0610b82565b6105e8610b82565b8091505090565b6105f7610bb9565b600080600073f4e4fdca9d5d55e64525e314391996a15f7ec60061061b91906117a9565b73ffffffffffffffffffffffffffffffffffffffff16868686604051602001610646939291906119c2565b6040516020818303038152906040526040516106629190611838565b600060405180830381855afa9150503d806000811461069d576040519150601f19603f3d011682016040523d82523d6000602084013e6106a2565b606091505b50915091506106b18282610974565b506000818060200190518101906106c89190611ad4565b90506040518060600160405280826002600481106106e9576106e8611b1d565b5b602002015181526020018260036004811061070757610706611b1d565b5b602002015181526020018260006004811061072557610724611b1d565b5b602002015181525093505050509392505050565b610741610998565b156107b557610771816040518060e0016040528060ae8152602001611c1660ae913961094c90919063ffffffff16565b6107b0576040517f08c379a00000000000000000000000000000000000000000000000000000000081526004016107a790611b98565b60405180910390fd5b610949565b6107bd6109b6565b15610887576107ca610a1f565b73ffffffffffffffffffffffffffffffffffffffff16632505a3bd826040518263ffffffff1660e01b81526004016108029190611bb8565b602060405180830381865afa15801561081f573d6000803e3d6000fd5b505050506040513d601f19601f8201168201806040525081019061084391906114be565b610882576040517f08c379a000000000000000000000000000000000000000000000000000000000815260040161087990611b98565b60405180910390fd5b610948565b61088f610a3b565b73ffffffffffffffffffffffffffffffffffffffff16632505a3bd826040518263ffffffff1660e01b81526004016108c79190611bb8565b602060405180830381865afa1580156108e4573d6000803e3d6000fd5b505050506040513d601f19601f8201168201806040525081019061090891906114be565b610947576040517f08c379a000000000000000000000000000000000000000000000000000000000815260040161093e90611b98565b60405180910390fd5b5b5b50565b60008151835114801561096c575081805190602001208380519060200120145b905092915050565b6060826109895761098482610a57565b610991565b819050610992565b5b92915050565b60006109a2610a9c565b806109b157506109b0610ab5565b5b905090565b600060014614806109c75750600a46145b806109d25750608946145b806109de575061014446145b806109ea57506101e046145b806109f6575061210546145b80610a02575061a4b146145b80610a0e575061a4ba46145b80610a1a575061e70846145b905090565b600073565dca92902ea0ca597b5e62df0b47886b6b7d4d905090565b600073c4e4dc291a5c4debe9ff5a3372f3fdd2e42bac86905090565b600081511115610a6a5780518082602001fd5b6040517f1425ea4200000000000000000000000000000000000000000000000000000000815260040160405180910390fd5b6000617a69461480610ab057506204991946145b905090565b6000806000601e73f4e4fdca9d5d55e64525e314391996a15f7ec600610adb91906117a9565b73ffffffffffffffffffffffffffffffffffffffff16604051610afd90611c00565b600060405180830381855afa9150503d8060008114610b38576040519150601f19603f3d011682016040523d82523d6000602084013e610b3d565b606091505b5091509150811580610b50575060008151145b15610b6057600092505050610b7f565b600081806020019051810190610b7691906114be565b90508093505050505b90565b6040518060800160405280610b95610bda565b81526020016000801916815260200160008152602001610bb3610c32565b81525090565b60405180606001604052806060815260200160608152602001606081525090565b604051806060016040528060007bffffffffffffffffffffffffffffffffffffffffffffffffffffffff19168152602001610c13610c99565b815260200160006001811115610c2c57610c2b610e2d565b5b81525090565b6040518060a00160405280600073ffffffffffffffffffffffffffffffffffffffff16815260200160007bffffffffffffffffffffffffffffffffffffffffffffffffffffffff191681526020016000815260200160008152602001600080191681525090565b604051806101000160405280600890602082028036833780820191505090505090565b6000604051905090565b600080fd5b600080fd5b600080fd5b600060208284031215610ceb57610cea610cd0565b5b81905092915050565b600060208284031215610d0a57610d09610cc6565b5b600082013567ffffffffffffffff811115610d2857610d27610ccb565b5b610d3484828501610cd5565b91505092915050565b60007fffffffff0000000000000000000000000000000000000000000000000000000082169050919050565b610d7281610d3d565b82525050565b600060089050919050565b600081905092915050565b6000819050919050565b6000819050919050565b610dab81610d98565b82525050565b6000610dbd8383610da2565b60208301905092915050565b6000602082019050919050565b610ddf81610d78565b610de98184610d83565b9250610df482610d8e565b8060005b83811015610e25578151610e0c8782610db1565b9650610e1783610dc9565b925050600181019050610df8565b505050505050565b7f4e487b7100000000000000000000000000000000000000000000000000000000600052602160045260246000fd5b60028110610e6d57610e6c610e2d565b5b50565b6000819050610e7e82610e5c565b919050565b6000610e8e82610e70565b9050919050565b610e9e81610e83565b82525050565b61014082016000820151610ebb6000850182610d69565b506020820151610ece6020850182610dd6565b506040820151610ee2610120850182610e95565b50505050565b6000819050919050565b610efb81610ee8565b82525050565b600073ffffffffffffffffffffffffffffffffffffffff82169050919050565b6000610f2c82610f01565b9050919050565b610f3c81610f21565b82525050565b60a082016000820151610f586000850182610f33565b506020820151610f6b6020850182610d69565b506040820151610f7e6040850182610ef2565b506060820151610f916060850182610ef2565b506080820151610fa46080850182610da2565b50505050565b61022082016000820151610fc16000850182610ea4565b506020820151610fd5610140850182610da2565b506040820151610fe9610160850182610ef2565b506060820151610ffd610180850182610f42565b50505050565b600081519050919050565b600082825260208201905092915050565b60005b8381101561103d578082015181840152602081019050611022565b60008484015250505050565b6000601f19601f8301169050919050565b600061106582611003565b61106f818561100e565b935061107f81856020860161101f565b61108881611049565b840191505092915050565b6000610240820190506110a96000830185610faa565b8181036102208301526110bc818461105a565b90509392505050565b6110ce81610ee8565b81146110d957600080fd5b50565b6000813590506110eb816110c5565b92915050565b60006020828403121561110757611106610cc6565b5b6000611115848285016110dc565b91505092915050565b61112781610f21565b811461113257600080fd5b50565b6000813590506111448161111e565b92915050565b6000806040838503121561116157611160610cc6565b5b600083013567ffffffffffffffff81111561117f5761117e610ccb565b5b61118b85828601610cd5565b925050602061119c85828601611135565b9150509250929050565b6111af81610f21565b82525050565b6000610260820190506111cb6000830186610faa565b8181036102208301526111de818561105a565b90506111ee6102408301846111a6565b949350505050565b60006102208201905061120c6000830184610faa565b92915050565b6000806040838503121561122957611228610cc6565b5b6000611237858286016110dc565b9250506020611248858286016110dc565b9150509250929050565b7f4e487b7100000000000000000000000000000000000000000000000000000000600052602260045260246000fd5b6000600282049050600182168061129957607f821691505b6020821081036112ac576112ab611252565b5b50919050565b600080fd5b7f4e487b7100000000000000000000000000000000000000000000000000000000600052604160045260246000fd5b6112ef82611049565b810181811067ffffffffffffffff8211171561130e5761130d6112b7565b5b80604052505050565b6000611321610cbc565b905061132d82826112e6565b919050565b600080fd5b600080fd5b600080fd5b600067ffffffffffffffff82111561135c5761135b6112b7565b5b61136582611049565b9050602081019050919050565b82818337600083830152505050565b600061139461138f84611341565b611317565b9050828152602081018484840111156113b0576113af61133c565b5b6113bb848285611372565b509392505050565b600082601f8301126113d8576113d7611337565b5b81356113e8848260208601611381565b91505092915050565b600060208284031215611407576114066112b2565b5b6114116020611317565b9050600082013567ffffffffffffffff81111561143157611430611332565b5b61143d848285016113c3565b60008301525092915050565b600061145536836113f1565b9050919050565b61146581610ee8565b82525050565b6000602082019050611480600083018461145c565b92915050565b60008115159050919050565b61149b81611486565b81146114a657600080fd5b50565b6000815190506114b881611492565b92915050565b6000602082840312156114d4576114d3610cc6565b5b60006114e2848285016114a9565b91505092915050565b7f4661696c6564206368656174636f646520696e766f636174696f6e0000000000600082015250565b6000611521601b8361100e565b915061152c826114eb565b602082019050919050565b6000602082019050818103600083015261155081611514565b9050919050565b600060408201905061156c600083018561145c565b611579602083018461145c565b9392505050565b7f55524c206d69736d617463680000000000000000000000000000000000000000600082015250565b60006115b6600c8361100e565b91506115c182611580565b602082019050919050565b600060208201905081810360008301526115e5816115a9565b9050919050565b7f426f647920697320656d70747900000000000000000000000000000000000000600082015250565b6000611622600d8361100e565b915061162d826115ec565b602082019050919050565b6000602082019050818103600083015261165181611615565b9050919050565b600060029050919050565b600081905092915050565b6000819050919050565b600082825260208201905092915050565b600061169482611003565b61169e8185611678565b93506116ae81856020860161101f565b6116b781611049565b840191505092915050565b60006116ce8383611689565b905092915050565b6000602082019050919050565b60006116ee82611658565b6116f88185611663565b93508360208202850161170a8561166e565b8060005b85811015611746578484038952815161172785826116c2565b9450611732836116d6565b925060208a0199505060018101905061170e565b50829750879550505050505092915050565b6000602082019050818103600083015261177281846116e3565b905092915050565b7f4e487b7100000000000000000000000000000000000000000000000000000000600052601160045260246000fd5b60006117b482610f01565b91506117bf83610f01565b9250828201905073ffffffffffffffffffffffffffffffffffffffff8111156117eb576117ea61177a565b5b92915050565b600081519050919050565b600081905092915050565b6000611812826117f1565b61181c81856117fc565b935061182c81856020860161101f565b80840191505092915050565b60006118448284611807565b915081905092915050565b600061186261185d84611341565b611317565b90508281526020810184848401111561187e5761187d61133c565b5b61188984828561101f565b509392505050565b600082601f8301126118a6576118a5611337565b5b81516118b684826020860161184f565b91505092915050565b6000602082840312156118d5576118d4610cc6565b5b600082015167ffffffffffffffff8111156118f3576118f2610ccb565b5b6118ff84828501611891565b91505092915050565b600060208301600083015184820360008601526119258282611689565b9150508091505092915050565b6002811061194357611942610e2d565b5b50565b600081905061195482611932565b919050565b600061196482611946565b9050919050565b61197481611959565b82525050565b6002811061198b5761198a610e2d565b5b50565b600081905061199c8261197a565b919050565b60006119ac8261198e565b9050919050565b6119bc816119a1565b82525050565b600060608201905081810360008301526119dc8186611908565b90506119eb602083018561196b565b6119f860408301846119b3565b949350505050565b600067ffffffffffffffff821115611a1b57611a1a6112b7565b5b602082029050919050565b600080fd5b6000611a3e611a3984611a00565b611317565b90508060208402830185811115611a5857611a57611a26565b5b835b81811015611a9f57805167ffffffffffffffff811115611a7d57611a7c611337565b5b808601611a8a8982611891565b85526020850194505050602081019050611a5a565b5050509392505050565b600082601f830112611abe57611abd611337565b5b6004611acb848285611a2b565b91505092915050565b600060208284031215611aea57611ae9610cc6565b5b600082015167ffffffffffffffff811115611b0857611b07610ccb565b5b611b1484828501611aa9565b91505092915050565b7f4e487b7100000000000000000000000000000000000000000000000000000000600052603260045260246000fd5b7f496e76616c6964206e6f74617279207075626c6963206b657900000000000000600082015250565b6000611b8260198361100e565b9150611b8d82611b4c565b602082019050919050565b60006020820190508181036000830152611bb181611b75565b9050919050565b60006020820190508181036000830152611bd2818461105a565b905092915050565b50565b6000611bea6000836117fc565b9150611bf582611bda565b600082019050919050565b6000611c0b82611bdd565b915081905091905056fe2d2d2d2d2d424547494e205055424c4943204b45592d2d2d2d2d0a4d465977454159484b6f5a497a6a3043415159464b34454541416f445167414565306a786e424f6261496a37586a673654584c434d3147472f566859353635300a4f72532f6a6763624275666f2f51446646764c2f69727a4976314a536d684769566373434843776f6c684458576367653776324973513d3d0a2d2d2d2d2d454e44205055424c4943204b45592d2d2d2d2d0aa26469706673582212208d9d07d47578097d2dff62714808e5d2fc85420b9841e8b13344de1ebf8fb1f964736f6c634300081b003368747470733a2f2f6170692e782e636f6d2f312e312f6163636f756e742f73657474696e67732e6a736f6e",
  "linkReferences": {},
  "deployedLinkReferences": {}
}