{"abi":[{"type":"constructor","inputs":[{"name":"_fakeProofVerifier","type":"address","internalType":"contract FakeProofVerifier"},{"name":"_groth16ProofVerifier","type":"address","internalType":"contract Groth16ProofVerifier"}],"stateMutability":"nonpayable"},{"type":"function","name":"FAKE_PROOF_VERIFIER","inputs":[],"outputs":[{"name":"","type":"address","internalType":"contract FakeProofVerifier"}],"stateMutability":"view"},{"type":"function","name":"GROTH16_PROOF_VERIFIER","inputs":[],"outputs":[{"name":"","type":"address","internalType":"contract Groth16ProofVerifier"}],"stateMutability":"view"},{"type":"function","name":"imageIdRepository","inputs":[],"outputs":[{"name":"","type":"address","internalType":"contract IImageIdRepository"}],"stateMutability":"view"},{"type":"function","name":"verify","inputs":[{"name":"proof","type":"tuple","internalType":"struct Proof","components":[{"name":"seal","type":"tuple","internalType":"struct Seal","components":[{"name":"verifierSelector","type":"bytes4","internalType":"bytes4"},{"name":"seal","type":"bytes32[8]","internalType":"bytes32[8]"},{"name":"mode","type":"uint8","internalType":"enum ProofMode"}]},{"name":"callGuestId","type":"bytes32","internalType":"bytes32"},{"name":"length","type":"uint256","internalType":"uint256"},{"name":"callAssumptions","type":"tuple","internalType":"struct CallAssumptions","components":[{"name":"proverContractAddress","type":"address","internalType":"address"},{"name":"functionSelector","type":"bytes4","internalType":"bytes4"},{"name":"settleChainId","type":"uint256","internalType":"uint256"},{"name":"settleBlockNumber","type":"uint256","internalType":"uint256"},{"name":"settleBlockHash","type":"bytes32","internalType":"bytes32"}]}]},{"name":"journalHash","type":"bytes32","internalType":"bytes32"},{"name":"expectedProver","type":"address","internalType":"address"},{"name":"expectedSelector","type":"bytes4","internalType":"bytes4"}],"outputs":[],"stateMutability":"view"}],"bytecode":{"object":"0x60c060405234801561000f575f5ffd5b50604051610fae380380610fae83398181016040528101906100319190610290565b8173ffffffffffffffffffffffffffffffffffffffff16633fd66f226040518163ffffffff1660e01b8152600401602060405180830381865afa15801561007a573d5f5f3e3d5ffd5b505050506040513d601f19601f8201168201806040525081019061009e9190610309565b73ffffffffffffffffffffffffffffffffffffffff168173ffffffffffffffffffffffffffffffffffffffff16633fd66f226040518163ffffffff1660e01b8152600401602060405180830381865afa1580156100fd573d5f5f3e3d5ffd5b505050506040513d601f19601f820116820180604052508101906101219190610309565b73ffffffffffffffffffffffffffffffffffffffff1614610177576040517f08c379a000000000000000000000000000000000000000000000000000000000815260040161016e906103b4565b60405180910390fd5b8173ffffffffffffffffffffffffffffffffffffffff1660808173ffffffffffffffffffffffffffffffffffffffff16815250508073ffffffffffffffffffffffffffffffffffffffff1660a08173ffffffffffffffffffffffffffffffffffffffff168152505050506103d2565b5f5ffd5b5f73ffffffffffffffffffffffffffffffffffffffff82169050919050565b5f610213826101ea565b9050919050565b5f61022482610209565b9050919050565b6102348161021a565b811461023e575f5ffd5b50565b5f8151905061024f8161022b565b92915050565b5f61025f82610209565b9050919050565b61026f81610255565b8114610279575f5ffd5b50565b5f8151905061028a81610266565b92915050565b5f5f604083850312156102a6576102a56101e6565b5b5f6102b385828601610241565b92505060206102c48582860161027c565b9150509250929050565b5f6102d882610209565b9050919050565b6102e8816102ce565b81146102f2575f5ffd5b50565b5f81519050610303816102df565b92915050565b5f6020828403121561031e5761031d6101e6565b5b5f61032b848285016102f5565b91505092915050565b5f82825260208201905092915050565b7f5665726966696572732073686f756c64207573652073616d65207265706f73695f8201527f746f727900000000000000000000000000000000000000000000000000000000602082015250565b5f61039e602483610334565b91506103a982610344565b604082019050919050565b5f6020820190508181035f8301526103cb81610392565b9050919050565b60805160a051610ba86104065f395f818160c60152818160eb015261029701525f81816101c2015261032a0152610ba85ff3fe608060405234801561000f575f5ffd5b506004361061004a575f3560e01c806319f9dd0a1461004e5780633fd66f221461006c578063c4fa74e51461008a578063d06da682146100a6575b5f5ffd5b6100566100c4565b60405161006391906103d3565b60405180910390f35b6100746100e8565b604051610081919061040c565b60405180910390f35b6100a4600480360381019061009f9190610518565b61017b565b005b6100ae610328565b6040516100bb91906105a0565b60405180910390f35b7f000000000000000000000000000000000000000000000000000000000000000081565b5f7f000000000000000000000000000000000000000000000000000000000000000073ffffffffffffffffffffffffffffffffffffffff16633fd66f226040518163ffffffff1660e01b8152600401602060405180830381865afa158015610152573d5f5f3e3d5ffd5b505050506040513d601f19601f8201168201806040525081019061017691906105f4565b905090565b60018081111561018e5761018d61061f565b5b6101a9855f018036038101906101a49190610814565b61034c565b60018111156101bb576101ba61061f565b5b03610250577f000000000000000000000000000000000000000000000000000000000000000073ffffffffffffffffffffffffffffffffffffffff1663c4fa74e5858585856040518563ffffffff1660e01b815260040161021f9493929190610b2b565b5f6040518083038186803b158015610235575f5ffd5b505afa158015610247573d5f5f3e3d5ffd5b50505050610322565b5f60018111156102635761026261061f565b5b61027e855f018036038101906102799190610814565b61034c565b60018111156102905761028f61061f565b5b03610321577f000000000000000000000000000000000000000000000000000000000000000073ffffffffffffffffffffffffffffffffffffffff1663c4fa74e5858585856040518563ffffffff1660e01b81526004016102f49493929190610b2b565b5f6040518083038186803b15801561030a575f5ffd5b505afa15801561031c573d5f5f3e3d5ffd5b505050505b5b50505050565b7f000000000000000000000000000000000000000000000000000000000000000081565b5f81604001519050919050565b5f73ffffffffffffffffffffffffffffffffffffffff82169050919050565b5f819050919050565b5f61039b61039661039184610359565b610378565b610359565b9050919050565b5f6103ac82610381565b9050919050565b5f6103bd826103a2565b9050919050565b6103cd816103b3565b82525050565b5f6020820190506103e65f8301846103c4565b92915050565b5f6103f6826103a2565b9050919050565b610406816103ec565b82525050565b5f60208201905061041f5f8301846103fd565b92915050565b5f604051905090565b5f5ffd5b5f5ffd5b5f610220828403121561044c5761044b610432565b5b81905092915050565b5f819050919050565b61046781610455565b8114610471575f5ffd5b50565b5f813590506104828161045e565b92915050565b5f61049282610359565b9050919050565b6104a281610488565b81146104ac575f5ffd5b50565b5f813590506104bd81610499565b92915050565b5f7fffffffff0000000000000000000000000000000000000000000000000000000082169050919050565b6104f7816104c3565b8114610501575f5ffd5b50565b5f81359050610512816104ee565b92915050565b5f5f5f5f61028085870312156105315761053061042e565b5b5f61053e87828801610436565b94505061022061055087828801610474565b935050610240610562878288016104af565b92505061026061057487828801610504565b91505092959194509250565b5f61058a826103a2565b9050919050565b61059a81610580565b82525050565b5f6020820190506105b35f830184610591565b92915050565b5f6105c382610488565b9050919050565b6105d3816105b9565b81146105dd575f5ffd5b50565b5f815190506105ee816105ca565b92915050565b5f602082840312156106095761060861042e565b5b5f610616848285016105e0565b91505092915050565b7f4e487b71000000000000000000000000000000000000000000000000000000005f52602160045260245ffd5b5f5ffd5b5f601f19601f8301169050919050565b7f4e487b71000000000000000000000000000000000000000000000000000000005f52604160045260245ffd5b61069682610650565b810181811067ffffffffffffffff821117156106b5576106b4610660565b5b80604052505050565b5f6106c7610425565b90506106d3828261068d565b919050565b5f5ffd5b5f67ffffffffffffffff8211156106f6576106f5610660565b5b602082029050919050565b5f5ffd5b5f610717610712846106dc565b6106be565b9050806020840283018581111561073157610730610701565b5b835b8181101561075a57806107468882610474565b845260208401935050602081019050610733565b5050509392505050565b5f82601f830112610778576107776106d8565b5b6008610785848285610705565b91505092915050565b6002811061079a575f5ffd5b50565b5f813590506107ab8161078e565b92915050565b5f61014082840312156107c7576107c661064c565b5b6107d160606106be565b90505f6107e084828501610504565b5f8301525060206107f384828501610764565b6020830152506101206108088482850161079d565b60408301525092915050565b5f610140828403121561082a5761082961042e565b5b5f610837848285016107b1565b91505092915050565b5f82905092915050565b5f6108586020840184610504565b905092915050565b610869816104c3565b82525050565b5f82905092915050565b82818337505050565b61088f6101008383610879565b5050565b5f6108a1602084018461079d565b905092915050565b600281106108ba576108b961061f565b5b50565b5f8190506108ca826108a9565b919050565b5f6108d9826108bd565b9050919050565b6108e9816108cf565b82525050565b61014082016109005f83018361084a565b61090c5f850182610860565b5061091a602083018361086f565b6109276020850182610882565b50610936610120830183610893565b6109446101208501826108e0565b50505050565b5f6109586020840184610474565b905092915050565b61096981610455565b82525050565b5f819050919050565b6109818161096f565b811461098b575f5ffd5b50565b5f8135905061099c81610978565b92915050565b5f6109b0602084018461098e565b905092915050565b6109c18161096f565b82525050565b5f82905092915050565b5f6109df60208401846104af565b905092915050565b6109f081610488565b82525050565b60a08201610a065f8301836109d1565b610a125f8501826109e7565b50610a20602083018361084a565b610a2d6020850182610860565b50610a3b60408301836109a2565b610a4860408501826109b8565b50610a5660608301836109a2565b610a6360608501826109b8565b50610a71608083018361094a565b610a7e6080850182610960565b50505050565b6102208201610a955f830183610840565b610aa15f8501826108ef565b50610ab061014083018361094a565b610abe610140850182610960565b50610acd6101608301836109a2565b610adb6101608501826109b8565b50610aea6101808301836109c7565b610af86101808501826109f6565b50505050565b610b0781610455565b82525050565b610b1681610488565b82525050565b610b25816104c3565b82525050565b5f61028082019050610b3f5f830187610a84565b610b4d610220830186610afe565b610b5b610240830185610b0d565b610b69610260830184610b1c565b9594505050505056fea2646970667358221220ef34cf5572cad2ad56e66078d752d895917b00cce8761de02961d0aa5f613e6964736f6c634300081d0033","linkReferences":{}},"methodIdentifiers":{"FAKE_PROOF_VERIFIER()":"d06da682","GROTH16_PROOF_VERIFIER()":"19f9dd0a","imageIdRepository()":"3fd66f22","verify(((bytes4,bytes32[8],uint8),bytes32,uint256,(address,bytes4,uint256,uint256,bytes32)),bytes32,address,bytes4)":"c4fa74e5"},"id":55}