{"abi":[{"type":"function","name":"main","inputs":[{"name":"webProof","type":"tuple","internalType":"struct WebProof","components":[{"name":"webProofJson","type":"string","internalType":"string"}]},{"name":"account","type":"address","internalType":"address"}],"outputs":[{"name":"","type":"tuple","internalType":"struct Proof","components":[{"name":"seal","type":"tuple","internalType":"struct Seal","components":[{"name":"verifierSelector","type":"bytes4","internalType":"bytes4"},{"name":"seal","type":"bytes32[8]","internalType":"bytes32[8]"},{"name":"mode","type":"uint8","internalType":"enum ProofMode"}]},{"name":"callGuestId","type":"bytes32","internalType":"bytes32"},{"name":"length","type":"uint256","internalType":"uint256"},{"name":"callAssumptions","type":"tuple","internalType":"struct CallAssumptions","components":[{"name":"proverContractAddress","type":"address","internalType":"address"},{"name":"functionSelector","type":"bytes4","internalType":"bytes4"},{"name":"settleChainId","type":"uint256","internalType":"uint256"},{"name":"settleBlockNumber","type":"uint256","internalType":"uint256"},{"name":"settleBlockHash","type":"bytes32","internalType":"bytes32"}]}]},{"name":"","type":"string","internalType":"string"},{"name":"","type":"address","internalType":"address"}],"stateMutability":"view"},{"type":"function","name":"proof","inputs":[],"outputs":[{"name":"","type":"tuple","internalType":"struct Proof","components":[{"name":"seal","type":"tuple","internalType":"struct Seal","components":[{"name":"verifierSelector","type":"bytes4","internalType":"bytes4"},{"name":"seal","type":"bytes32[8]","internalType":"bytes32[8]"},{"name":"mode","type":"uint8","internalType":"enum ProofMode"}]},{"name":"callGuestId","type":"bytes32","internalType":"bytes32"},{"name":"length","type":"uint256","internalType":"uint256"},{"name":"callAssumptions","type":"tuple","internalType":"struct CallAssumptions","components":[{"name":"proverContractAddress","type":"address","internalType":"address"},{"name":"functionSelector","type":"bytes4","internalType":"bytes4"},{"name":"settleChainId","type":"uint256","internalType":"uint256"},{"name":"settleBlockNumber","type":"uint256","internalType":"uint256"},{"name":"settleBlockHash","type":"bytes32","internalType":"bytes32"}]}]}],"stateMutability":"pure"},{"type":"function","name":"setBlock","inputs":[{"name":"blockNo","type":"uint256","internalType":"uint256"}],"outputs":[],"stateMutability":"nonpayable"},{"type":"function","name":"setChain","inputs":[{"name":"chainId","type":"uint256","internalType":"uint256"},{"name":"blockNo","type":"uint256","internalType":"uint256"}],"outputs":[],"stateMutability":"nonpayable"},{"type":"error","name":"FailedInnerCall","inputs":[]}],"bytecode":{"object":"0x60806040526040518060600160405280602b8152602001611ea7602b91395f908161002a9190610279565b50348015610036575f5ffd5b50610348565b5f81519050919050565b7f4e487b71000000000000000000000000000000000000000000000000000000005f52604160045260245ffd5b7f4e487b71000000000000000000000000000000000000000000000000000000005f52602260045260245ffd5b5f60028204905060018216806100b757607f821691505b6020821081036100ca576100c9610073565b5b50919050565b5f819050815f5260205f209050919050565b5f6020601f8301049050919050565b5f82821b905092915050565b5f6008830261012c7fffffffffffffffffffffffffffffffffffffffffffffffffffffffffffffffff826100f1565b61013686836100f1565b95508019841693508086168417925050509392505050565b5f819050919050565b5f819050919050565b5f61017a6101756101708461014e565b610157565b61014e565b9050919050565b5f819050919050565b61019383610160565b6101a761019f82610181565b8484546100fd565b825550505050565b5f5f905090565b6101be6101af565b6101c981848461018a565b505050565b5b818110156101ec576101e15f826101b6565b6001810190506101cf565b5050565b601f82111561023157610202816100d0565b61020b846100e2565b8101602085101561021a578190505b61022e610226856100e2565b8301826101ce565b50505b505050565b5f82821c905092915050565b5f6102515f1984600802610236565b1980831691505092915050565b5f6102698383610242565b9150826002028217905092915050565b6102828261003c565b67ffffffffffffffff81111561029b5761029a610046565b5b6102a582546100a0565b6102b08282856101f0565b5f60209050601f8311600181146102e1575f84156102cf578287015190505b6102d9858261025e565b865550610340565b601f1984166102ef866100d0565b5f5b82811015610316578489015182556001820191506020850194506020810190506102f1565b86831015610333578489015161032f601f891682610242565b8355505b6001600288020188555050505b505050505050565b611b52806103555f395ff3fe608060405234801561000f575f5ffd5b506004361061004a575f3560e01c806387cea3ae1461004e578063c822d5ef1461006a578063faf924cf1461009c578063ffbc5638146100ba575b5f5ffd5b61006860048036038101906100639190610c74565b6100d6565b005b610084600480360381019061007f9190610d1b565b6101b3565b6040516100939392919061106c565b60405180910390f35b6100a46102c8565b6040516100b191906110ab565b60405180910390f35b6100d460048036038101906100cf91906110c5565b6102dd565b005b7f2ae215ce9fde588adfdea92976dc9aa45aa006a0f63942d8f9f21bd4537972a35f1c73ffffffffffffffffffffffffffffffffffffffff166387cea3ae826040518263ffffffff1660e01b81526004016101319190611112565b6020604051808303815f875af115801561014d573d5f5f3e3d5ffd5b505050506040513d601f19601f820116820180604052508101906101719190611160565b6101b0576040517f08c379a00000000000000000000000000000000000000000000000000000000081526004016101a7906111d5565b60405180910390fd5b50565b6101bb610b05565b60605f5f6102625f80546101ce90611220565b80601f01602080910402602001604051908101604052809291908181526020018280546101fa90611220565b80156102455780601f1061021c57610100808354040283529160200191610245565b820191905f5260205f20905b81548152906001019060200180831161022857829003601f168201915b505050505087610254906113d9565b6103bd90919063ffffffff16565b90505f6102ad6040518060400160405280600b81526020017f73637265656e5f6e616d650000000000000000000000000000000000000000008152508361044090919063ffffffff16565b90506102b76102c8565b818794509450945050509250925092565b6102d0610b05565b6102d8610575565b905090565b7f2ae215ce9fde588adfdea92976dc9aa45aa006a0f63942d8f9f21bd4537972a35f1c73ffffffffffffffffffffffffffffffffffffffff1663ffbc563883836040518363ffffffff1660e01b815260040161033a9291906113eb565b6020604051808303815f875af1158015610356573d5f5f3e3d5ffd5b505050506040513d601f19601f8201168201806040525081019061037a9190611160565b6103b9576040517f08c379a00000000000000000000000000000000000000000000000000000000081526004016103b0906111d5565b60405180910390fd5b5050565b6103c5610b37565b5f6103d1845f5f61058c565b90506103e081602001516106cf565b6103f78382604001516108de90919063ffffffff16565b610436576040517f08c379a000000000000000000000000000000000000000000000000000000000815260040161042d9061145c565b60405180910390fd5b8091505092915050565b60605f835f01515111610488576040517f08c379a000000000000000000000000000000000000000000000000000000000815260040161047f906114c4565b60405180910390fd5b5f6040518060400160405280855f01518152602001848152506040516020016104b191906115d9565b60405160208183030381529060405290505f5f600273f4e4fdca9d5d55e64525e314391996a15f7ec6006104e59190611626565b73ffffffffffffffffffffffffffffffffffffffff168360405161050991906116b1565b5f60405180830381855afa9150503d805f8114610541576040519150601f19603f3d011682016040523d82523d5f602084013e610546565b606091505b50915091506105558282610905565b508080602001905181019061056a9190611735565b935050505092915050565b61057d610b05565b610585610b05565b8091505090565b610594610b37565b5f5f5f73f4e4fdca9d5d55e64525e314391996a15f7ec6006105b69190611626565b73ffffffffffffffffffffffffffffffffffffffff168686866040516020016105e19392919061182f565b6040516020818303038152906040526040516105fd91906116b1565b5f60405180830381855afa9150503d805f8114610635576040519150601f19603f3d011682016040523d82523d5f602084013e61063a565b606091505b50915091506106498282610905565b505f8180602001905181019061065f919061193b565b90506040518060600160405280826002600481106106805761067f611982565b5b602002015181526020018260036004811061069e5761069d611982565b5b60200201518152602001825f600481106106bb576106ba611982565b5b602002015181525093505050509392505050565b6106d7610929565b1561074b57610707816040518060e0016040528060ae8152602001611a6f60ae91396108de90919063ffffffff16565b610746576040517f08c379a000000000000000000000000000000000000000000000000000000000815260040161073d906119f9565b60405180910390fd5b6108db565b610753610946565b1561081b576107606109ae565b73ffffffffffffffffffffffffffffffffffffffff16632505a3bd826040518263ffffffff1660e01b81526004016107989190611a17565b602060405180830381865afa1580156107b3573d5f5f3e3d5ffd5b505050506040513d601f19601f820116820180604052508101906107d79190611160565b610816576040517f08c379a000000000000000000000000000000000000000000000000000000000815260040161080d906119f9565b60405180910390fd5b6108da565b6108236109c9565b73ffffffffffffffffffffffffffffffffffffffff16632505a3bd826040518263ffffffff1660e01b815260040161085b9190611a17565b602060405180830381865afa158015610876573d5f5f3e3d5ffd5b505050506040513d601f19601f8201168201806040525081019061089a9190611160565b6108d9576040517f08c379a00000000000000000000000000000000000000000000000000000000081526004016108d0906119f9565b60405180910390fd5b5b5b50565b5f815183511480156108fd575081805190602001208380519060200120145b905092915050565b60608261091a57610915826109e4565b610922565b819050610923565b5b92915050565b5f610932610a28565b806109415750610940610a40565b5b905090565b5f60014614806109565750600a46145b806109615750608946145b8061096d575061014446145b8061097957506101e046145b80610985575061210546145b80610991575061a4b146145b8061099d575061a4ba46145b806109a9575061e70846145b905090565b5f73565dca92902ea0ca597b5e62df0b47886b6b7d4d905090565b5f73c4e4dc291a5c4debe9ff5a3372f3fdd2e42bac86905090565b5f815111156109f65780518082602001fd5b6040517f1425ea4200000000000000000000000000000000000000000000000000000000815260040160405180910390fd5b5f617a69461480610a3b57506204991946145b905090565b5f5f5f601e73f4e4fdca9d5d55e64525e314391996a15f7ec600610a649190611626565b73ffffffffffffffffffffffffffffffffffffffff16604051610a8690611a5a565b5f60405180830381855afa9150503d805f8114610abe576040519150601f19603f3d011682016040523d82523d5f602084013e610ac3565b606091505b5091509150811580610ad557505f8151145b15610ae4575f92505050610b02565b5f81806020019051810190610af99190611160565b90508093505050505b90565b6040518060800160405280610b18610b58565b81526020015f81526020015f8152602001610b31610bae565b81525090565b60405180606001604052806060815260200160608152602001606081525090565b60405180606001604052805f7bffffffffffffffffffffffffffffffffffffffffffffffffffffffff19168152602001610b90610c0d565b81526020015f6001811115610ba857610ba7610e5d565b5b81525090565b6040518060a001604052805f73ffffffffffffffffffffffffffffffffffffffff1681526020015f7bffffffffffffffffffffffffffffffffffffffffffffffffffffffff191681526020015f81526020015f81526020015f81525090565b604051806101000160405280600890602082028036833780820191505090505090565b5f604051905090565b5f5ffd5b5f5ffd5b5f819050919050565b610c5381610c41565b8114610c5d575f5ffd5b50565b5f81359050610c6e81610c4a565b92915050565b5f60208284031215610c8957610c88610c39565b5b5f610c9684828501610c60565b91505092915050565b5f5ffd5b5f60208284031215610cb857610cb7610c9f565b5b81905092915050565b5f73ffffffffffffffffffffffffffffffffffffffff82169050919050565b5f610cea82610cc1565b9050919050565b610cfa81610ce0565b8114610d04575f5ffd5b50565b5f81359050610d1581610cf1565b92915050565b5f5f60408385031215610d3157610d30610c39565b5b5f83013567ffffffffffffffff811115610d4e57610d4d610c3d565b5b610d5a85828601610ca3565b9250506020610d6b85828601610d07565b9150509250929050565b5f7fffffffff0000000000000000000000000000000000000000000000000000000082169050919050565b610da981610d75565b82525050565b5f60089050919050565b5f81905092915050565b5f819050919050565b5f819050919050565b610dde81610dcc565b82525050565b5f610def8383610dd5565b60208301905092915050565b5f602082019050919050565b610e1081610daf565b610e1a8184610db9565b9250610e2582610dc3565b805f5b83811015610e55578151610e3c8782610de4565b9650610e4783610dfb565b925050600181019050610e28565b505050505050565b7f4e487b71000000000000000000000000000000000000000000000000000000005f52602160045260245ffd5b60028110610e9b57610e9a610e5d565b5b50565b5f819050610eab82610e8a565b919050565b5f610eba82610e9e565b9050919050565b610eca81610eb0565b82525050565b61014082015f820151610ee55f850182610da0565b506020820151610ef86020850182610e07565b506040820151610f0c610120850182610ec1565b50505050565b610f1b81610c41565b82525050565b610f2a81610ce0565b82525050565b60a082015f820151610f445f850182610f21565b506020820151610f576020850182610da0565b506040820151610f6a6040850182610f12565b506060820151610f7d6060850182610f12565b506080820151610f906080850182610dd5565b50505050565b61022082015f820151610fab5f850182610ed0565b506020820151610fbf610140850182610dd5565b506040820151610fd3610160850182610f12565b506060820151610fe7610180850182610f30565b50505050565b5f81519050919050565b5f82825260208201905092915050565b8281835e5f83830152505050565b5f601f19601f8301169050919050565b5f61102f82610fed565b6110398185610ff7565b9350611049818560208601611007565b61105281611015565b840191505092915050565b61106681610ce0565b82525050565b5f610260820190506110805f830186610f96565b8181036102208301526110938185611025565b90506110a361024083018461105d565b949350505050565b5f610220820190506110bf5f830184610f96565b92915050565b5f5f604083850312156110db576110da610c39565b5b5f6110e885828601610c60565b92505060206110f985828601610c60565b9150509250929050565b61110c81610c41565b82525050565b5f6020820190506111255f830184611103565b92915050565b5f8115159050919050565b61113f8161112b565b8114611149575f5ffd5b50565b5f8151905061115a81611136565b92915050565b5f6020828403121561117557611174610c39565b5b5f6111828482850161114c565b91505092915050565b7f4661696c6564206368656174636f646520696e766f636174696f6e00000000005f82015250565b5f6111bf601b83610ff7565b91506111ca8261118b565b602082019050919050565b5f6020820190508181035f8301526111ec816111b3565b9050919050565b7f4e487b71000000000000000000000000000000000000000000000000000000005f52602260045260245ffd5b5f600282049050600182168061123757607f821691505b60208210810361124a576112496111f3565b5b50919050565b5f5ffd5b7f4e487b71000000000000000000000000000000000000000000000000000000005f52604160045260245ffd5b61128a82611015565b810181811067ffffffffffffffff821117156112a9576112a8611254565b5b80604052505050565b5f6112bb610c30565b90506112c78282611281565b919050565b5f5ffd5b5f5ffd5b5f5ffd5b5f67ffffffffffffffff8211156112f2576112f1611254565b5b6112fb82611015565b9050602081019050919050565b828183375f83830152505050565b5f611328611323846112d8565b6112b2565b905082815260208101848484011115611344576113436112d4565b5b61134f848285611308565b509392505050565b5f82601f83011261136b5761136a6112d0565b5b813561137b848260208601611316565b91505092915050565b5f6020828403121561139957611398611250565b5b6113a360206112b2565b90505f82013567ffffffffffffffff8111156113c2576113c16112cc565b5b6113ce84828501611357565b5f8301525092915050565b5f6113e43683611384565b9050919050565b5f6040820190506113fe5f830185611103565b61140b6020830184611103565b9392505050565b7f55524c206d69736d6174636800000000000000000000000000000000000000005f82015250565b5f611446600c83610ff7565b915061145182611412565b602082019050919050565b5f6020820190508181035f8301526114738161143a565b9050919050565b7f426f647920697320656d707479000000000000000000000000000000000000005f82015250565b5f6114ae600d83610ff7565b91506114b98261147a565b602082019050919050565b5f6020820190508181035f8301526114db816114a2565b9050919050565b5f60029050919050565b5f81905092915050565b5f819050919050565b5f82825260208201905092915050565b5f61151982610fed565b61152381856114ff565b9350611533818560208601611007565b61153c81611015565b840191505092915050565b5f611552838361150f565b905092915050565b5f602082019050919050565b5f611570826114e2565b61157a81856114ec565b93508360208202850161158c856114f6565b805f5b858110156115c757848403895281516115a88582611547565b94506115b38361155a565b925060208a0199505060018101905061158f565b50829750879550505050505092915050565b5f6020820190508181035f8301526115f18184611566565b905092915050565b7f4e487b71000000000000000000000000000000000000000000000000000000005f52601160045260245ffd5b5f61163082610cc1565b915061163b83610cc1565b9250828201905073ffffffffffffffffffffffffffffffffffffffff811115611667576116666115f9565b5b92915050565b5f81519050919050565b5f81905092915050565b5f61168b8261166d565b6116958185611677565b93506116a5818560208601611007565b80840191505092915050565b5f6116bc8284611681565b915081905092915050565b5f6116d96116d4846112d8565b6112b2565b9050828152602081018484840111156116f5576116f46112d4565b5b611700848285611007565b509392505050565b5f82601f83011261171c5761171b6112d0565b5b815161172c8482602086016116c7565b91505092915050565b5f6020828403121561174a57611749610c39565b5b5f82015167ffffffffffffffff81111561176757611766610c3d565b5b61177384828501611708565b91505092915050565b5f602083015f8301518482035f860152611796828261150f565b9150508091505092915050565b600281106117b4576117b3610e5d565b5b50565b5f8190506117c4826117a3565b919050565b5f6117d3826117b7565b9050919050565b6117e3816117c9565b82525050565b600281106117fa576117f9610e5d565b5b50565b5f81905061180a826117e9565b919050565b5f611819826117fd565b9050919050565b6118298161180f565b82525050565b5f6060820190508181035f830152611847818661177c565b905061185660208301856117da565b6118636040830184611820565b949350505050565b5f67ffffffffffffffff82111561188557611884611254565b5b602082029050919050565b5f5ffd5b5f6118a66118a18461186b565b6112b2565b905080602084028301858111156118c0576118bf611890565b5b835b8181101561190757805167ffffffffffffffff8111156118e5576118e46112d0565b5b8086016118f28982611708565b855260208501945050506020810190506118c2565b5050509392505050565b5f82601f830112611925576119246112d0565b5b6004611932848285611894565b91505092915050565b5f602082840312156119505761194f610c39565b5b5f82015167ffffffffffffffff81111561196d5761196c610c3d565b5b61197984828501611911565b91505092915050565b7f4e487b71000000000000000000000000000000000000000000000000000000005f52603260045260245ffd5b7f496e76616c6964206e6f74617279207075626c6963206b6579000000000000005f82015250565b5f6119e3601983610ff7565b91506119ee826119af565b602082019050919050565b5f6020820190508181035f830152611a10816119d7565b9050919050565b5f6020820190508181035f830152611a2f8184611025565b905092915050565b50565b5f611a455f83611677565b9150611a5082611a37565b5f82019050919050565b5f611a6482611a3a565b915081905091905056fe2d2d2d2d2d424547494e205055424c4943204b45592d2d2d2d2d0a4d465977454159484b6f5a497a6a3043415159464b34454541416f445167414565306a786e424f6261496a37586a673654584c434d3147472f566859353635300a4f72532f6a6763624275666f2f51446646764c2f69727a4976314a536d684769566373434843776f6c684458576367653776324973513d3d0a2d2d2d2d2d454e44205055424c4943204b45592d2d2d2d2d0aa2646970667358221220d7660417df07772806e16ecb08f1bc2d007b287c1382cfc16b3ebcdee297cb3864736f6c634300081d003368747470733a2f2f6170692e782e636f6d2f312e312f6163636f756e742f73657474696e67732e6a736f6e","linkReferences":{}},"methodIdentifiers":{"main((string),address)":"c822d5ef","proof()":"faf924cf","setBlock(uint256)":"87cea3ae","setChain(uint256,uint256)":"ffbc5638"},"id":0}