{"abi":[{"type":"constructor","inputs":[{"name":"control_root","type":"bytes32","internalType":"bytes32"},{"name":"bn254_control_id","type":"bytes32","internalType":"bytes32"}],"stateMutability":"nonpayable"},{"type":"function","name":"BN254_CONTROL_ID","inputs":[],"outputs":[{"name":"","type":"bytes32","internalType":"bytes32"}],"stateMutability":"view"},{"type":"function","name":"CONTROL_ROOT_0","inputs":[],"outputs":[{"name":"","type":"bytes16","internalType":"bytes16"}],"stateMutability":"view"},{"type":"function","name":"CONTROL_ROOT_1","inputs":[],"outputs":[{"name":"","type":"bytes16","internalType":"bytes16"}],"stateMutability":"view"},{"type":"function","name":"SELECTOR","inputs":[],"outputs":[{"name":"","type":"bytes4","internalType":"bytes4"}],"stateMutability":"view"},{"type":"function","name":"VERSION","inputs":[],"outputs":[{"name":"","type":"string","internalType":"string"}],"stateMutability":"view"},{"type":"function","name":"verify","inputs":[{"name":"seal","type":"bytes","internalType":"bytes"},{"name":"imageId","type":"bytes32","internalType":"bytes32"},{"name":"journalDigest","type":"bytes32","internalType":"bytes32"}],"outputs":[],"stateMutability":"view"},{"type":"function","name":"verifyIntegrity","inputs":[{"name":"receipt","type":"tuple","internalType":"struct Receipt","components":[{"name":"seal","type":"bytes","internalType":"bytes"},{"name":"claimDigest","type":"bytes32","internalType":"bytes32"}]}],"outputs":[],"stateMutability":"view"},{"type":"function","name":"verifyProof","inputs":[{"name":"_pA","type":"uint256[2]","internalType":"uint256[2]"},{"name":"_pB","type":"uint256[2][2]","internalType":"uint256[2][2]"},{"name":"_pC","type":"uint256[2]","internalType":"uint256[2]"},{"name":"_pubSignals","type":"uint256[5]","internalType":"uint256[5]"}],"outputs":[{"name":"","type":"bool","internalType":"bool"}],"stateMutability":"view"},{"type":"error","name":"SafeCastOverflowedUintDowncast","inputs":[{"name":"bits","type":"uint8","internalType":"uint8"},{"name":"value","type":"uint256","internalType":"uint256"}]},{"type":"error","name":"SelectorMismatch","inputs":[{"name":"received","type":"bytes4","internalType":"bytes4"},{"name":"expected","type":"bytes4","internalType":"bytes4"}]},{"type":"error","name":"VerificationFailed","inputs":[]}],"bytecode":{"object":"0x610100604052348015610010575f5ffd5b506040516133df3803806133df83398181016040528101906100329190610fe1565b610041826101d660201b60201c565b806fffffffffffffffffffffffffffffffff191660a0906fffffffffffffffffffffffffffffffff1916815250816fffffffffffffffffffffffffffffffff19166080906fffffffffffffffffffffffffffffffff191681525050508060c081815250506002806040516100b490611099565b602060405180830381855afa1580156100cf573d5f5f3e3d5ffd5b5050506040513d601f19601f820116820180604052508101906100f291906110ad565b83610104845f1c61020260201b60201c565b61011261034d60201b60201c565b6008600361ffff16901b604051602001610130959493929190611162565b60405160208183030381529060405260405161014c9190611208565b602060405180830381855afa158015610167573d5f5f3e3d5ffd5b5050506040513d601f19601f8201168201806040525081019061018a91906110ad565b7bffffffffffffffffffffffffffffffffffffffffffffffffffffffff191660e0817bffffffffffffffffffffffffffffffffffffffffffffffffffffffff1916815250505050611651565b5f5f5f6101ea845f1c61020260201b60201c565b90508060801b608082901c60801b9250925050915091565b5f81905060087eff00ff00ff00ff00ff00ff00ff00ff00ff00ff00ff00ff00ff00ff00ff00ff8216901b60087fff00ff00ff00ff00ff00ff00ff00ff00ff00ff00ff00ff00ff00ff00ff00ff008316901c17905060107dffff0000ffff0000ffff0000ffff0000ffff0000ffff0000ffff0000ffff8216901b60107fffff0000ffff0000ffff0000ffff0000ffff0000ffff0000ffff0000ffff00008316901c17905060207bffffffff00000000ffffffff00000000ffffffff00000000ffffffff8216901b60207fffffffff00000000ffffffff00000000ffffffff00000000ffffffff000000008316901c179050604077ffffffffffffffff0000000000000000ffffffffffffffff8216901b60407fffffffffffffffff0000000000000000ffffffffffffffff00000000000000008316901c179050608081901b608082901c179050919050565b5f5f600667ffffffffffffffff81111561036a5761036961121e565b5b6040519080825280602002602001820160405280156103985781602001602082028036833780820191505090505b50905060027f12ac9a25dcd5e1a832a9061a082c15dd1d61aa9c4d553505739d0f5d65dc3be47f025aa744581ebe7ad91731911c898569106ff5a2d30f3eee2b23c60ee980acd46040516020016103f092919061124b565b60405160208183030381529060405260405161040c9190611208565b602060405180830381855afa158015610427573d5f5f3e3d5ffd5b5050506040513d601f19601f8201168201806040525081019061044a91906110ad565b815f8151811061045d5761045c611276565b5b60200260200101818152505060027f0707b920bc978c02f292fae2036e057be54294114ccc3c8769d883f688a1423f7f2e32a094b7589554f7bc357bf63481acd2d55555c203383782a4650787ff66426040516020016104be92919061124b565b6040516020818303038152906040526040516104da9190611208565b602060405180830381855afa1580156104f5573d5f5f3e3d5ffd5b5050506040513d601f19601f8201168201806040525081019061051891906110ad565b8160018151811061052c5761052b611276565b5b60200260200101818152505060027f0bca36e2cbe6394b3e249751853f961511011c7148e336f4fd974644850fc3477f2ede7c9acf48cf3a3729fa3d68714e2a8435d4fa6db8f7f409c153b1fcdf9b8b60405160200161058d92919061124b565b6040516020818303038152906040526040516105a99190611208565b602060405180830381855afa1580156105c4573d5f5f3e3d5ffd5b5050506040513d601f19601f820116820180604052508101906105e791906110ad565b816002815181106105fb576105fa611276565b5b60200260200101818152505060027f1b8af999dbfbb3927c091cc2aaf201e488cbacc3e2c6b6fb5a25f9112e04f2a77f2b91a26aa92e1b6f5722949f192a81c850d586d81a60157f3e9cf04f679cccd660405160200161065c92919061124b565b6040516020818303038152906040526040516106789190611208565b602060405180830381855afa158015610693573d5f5f3e3d5ffd5b5050506040513d601f19601f820116820180604052508101906106b691906110ad565b816003815181106106ca576106c9611276565b5b60200260200101818152505060027f2b5f494ed674235b8ac1750bdfd5a7615f002d4a1dcefeddd06eda5a076ccd0d7f2fe520ad2020aab9cbba817fcbb9a863b8a76ff88f14f912c5e71665b2ad5e8260405160200161072b92919061124b565b6040516020818303038152906040526040516107479190611208565b602060405180830381855afa158015610762573d5f5f3e3d5ffd5b5050506040513d601f19601f8201168201806040525081019061078591906110ad565b8160048151811061079957610798611276565b5b60200260200101818152505060027f0f1c3c0d5d9da0fa03666843cde4e82e869ba5252fce3c25d5940320b1c4d4937f214bfcff74f425f6fe8c0d07b307482d8bc8bb2f3608f68287aa01bd0b69e8096040516020016107fa92919061124b565b6040516020818303038152906040526040516108169190611208565b602060405180830381855afa158015610831573d5f5f3e3d5ffd5b5050506040513d601f19601f8201168201806040525081019061085491906110ad565b8160058151811061086857610867611276565b5b602002602001018181525050600280604051610883906112ed565b602060405180830381855afa15801561089e573d5f5f3e3d5ffd5b5050506040513d601f19601f820116820180604052508101906108c191906110ad565b60027f2d4d9aa7e302d9df41749d5507949d05dbea33fbb16c643b22f599a2be6df2e27f14bedd503c37ceb061d8ec60209fe345ce89830a19230301f076caff004d192660405160200161091692919061124b565b6040516020818303038152906040526040516109329190611208565b602060405180830381855afa15801561094d573d5f5f3e3d5ffd5b5050506040513d601f19601f8201168201806040525081019061097091906110ad565b60027f0967032fcbf776d1afc985f88877f182d38480a653f2decaa9794cbc3bf3060c7f0e187847ad4c798374d0d6732bf501847dd68bc0e071241e0213bc7fc13db7ab7f304cfbd1e08a704a99f5e847d93f8c3caafddec46b7a0d379da69a4d112346a77f1739c1b1a457a8c7313123d24d2f9192f896b7c63eea05a9d57f06547ad0cec8604051602001610a099493929190611301565b604051602081830303815290604052604051610a259190611208565b602060405180830381855afa158015610a40573d5f5f3e3d5ffd5b5050506040513d601f19601f82011682018060405250810190610a6391906110ad565b60027f198e9393920d483a7260bfb731fb5d25f1aa493335a9e71297e485b7aef312c27f1800deef121f1e76426a00665e5c4479674322d4f75edadd46debd5cd992f6ed7f090689d0585ff075ec9e99ad690c3395bc4b313370b38ef355acdadcd122975b7f12c85ea5db8c6deb4aab71808dcb408fe3d1e7690c43d37b4ce6cc0166fa7daa604051602001610afc9493929190611301565b604051602081830303815290604052604051610b189190611208565b602060405180830381855afa158015610b33573d5f5f3e3d5ffd5b5050506040513d601f19601f82011682018060405250810190610b5691906110ad565b60027f03b03cd5effa95ac9bee94f1f5ef907157bda4812ccf0b4c91f42bb629f83a1c7f1aa085ff28179a12d922dba0547057ccaae94b9d69cfaa4e60401fea7f3e03337f110c10134f200b19f6490846d518c9aea868366efb7228ca5c91d2940d0307627f1e60f31fcbf757e837e867178318832d0b2d74d59e2fea1c7142df187d3fc6d3604051602001610bef9493929190611301565b604051602081830303815290604052604051610c0b9190611208565b602060405180830381855afa158015610c26573d5f5f3e3d5ffd5b5050506040513d601f19601f82011682018060405250810190610c4991906110ad565b610ca46002604051610c5a90611398565b602060405180830381855afa158015610c75573d5f5f3e3d5ffd5b5050506040513d601f19601f82011682018060405250810190610c9891906110ad565b88610d2460201b60201c565b6008600561ffff16901b604051602001610cc497969594939291906113ac565b604051602081830303815290604052604051610ce09190611208565b602060405180830381855afa158015610cfb573d5f5f3e3d5ffd5b5050506040513d601f19601f82011682018060405250810190610d1e91906110ad565b91505090565b5f5f5f5f1b90505f5f90505b8351811015610d8b57610d7c85858360018851610d4d9190611459565b610d579190611459565b81518110610d6857610d67611276565b5b602002602001015184610d9660201b60201c565b91508080600101915050610d30565b508091505092915050565b5f5f600267ffffffffffffffff811115610db357610db261121e565b5b604051908082528060200260200182016040528015610de15781602001602082028036833780820191505090505b50905083815f81518110610df857610df7611276565b5b6020026020010181815250508281600181518110610e1957610e18611276565b5b602002602001018181525050610e358582610e3f60201b60201c565b9150509392505050565b5f5f5f67ffffffffffffffff811115610e5b57610e5a61121e565b5b6040519080825280601f01601f191660200182016040528015610e8d5781602001600182028036833780820191505090505b509050610ea1848483610eaa60201b60201c565b91505092915050565b5f5f610ebc8451610f5560201b60201c565b90505f60088261ffff16901c60088361ffff16901b1760f01b9050600286868684604051602001610ef09493929190611588565b604051602081830303815290604052604051610f0c9190611208565b602060405180830381855afa158015610f27573d5f5f3e3d5ffd5b5050506040513d601f19601f82011682018060405250810190610f4a91906110ad565b925050509392505050565b5f61ffff8016821115610fa2576010826040517f6dfcc650000000000000000000000000000000000000000000000000000000008152600401610f9992919061162a565b60405180910390fd5b819050919050565b5f5ffd5b5f819050919050565b610fc081610fae565b8114610fca575f5ffd5b50565b5f81519050610fdb81610fb7565b92915050565b5f5f60408385031215610ff757610ff6610faa565b5b5f61100485828601610fcd565b925050602061101585828601610fcd565b9150509250929050565b5f81905092915050565b7f72697363302e47726f74683136526563656970745665726966696572506172615f8201527f6d65746572730000000000000000000000000000000000000000000000000000602082015250565b5f61108360268361101f565b915061108e82611029565b602682019050919050565b5f6110a382611077565b9150819050919050565b5f602082840312156110c2576110c1610faa565b5b5f6110cf84828501610fcd565b91505092915050565b5f819050919050565b6110f26110ed82610fae565b6110d8565b82525050565b5f819050919050565b5f819050919050565b61111b611116826110f8565b611101565b82525050565b5f61ffff82169050919050565b5f8160f01b9050919050565b5f6111448261112e565b9050919050565b61115c61115782611121565b61113a565b82525050565b5f61116d82886110e1565b60208201915061117d82876110e1565b60208201915061118d828661110a565b60208201915061119d82856110e1565b6020820191506111ad828461114b565b6002820191508190509695505050505050565b5f81519050919050565b8281835e5f83830152505050565b5f6111e2826111c0565b6111ec818561101f565b93506111fc8185602086016111ca565b80840191505092915050565b5f61121382846111d8565b915081905092915050565b7f4e487b71000000000000000000000000000000000000000000000000000000005f52604160045260245ffd5b5f611256828561110a565b602082019150611266828461110a565b6020820191508190509392505050565b7f4e487b71000000000000000000000000000000000000000000000000000000005f52603260045260245ffd5b7f72697363305f67726f746831362e566572696679696e674b65790000000000005f82015250565b5f6112d7601a8361101f565b91506112e2826112a3565b601a82019050919050565b5f6112f7826112cb565b9150819050919050565b5f61130c828761110a565b60208201915061131c828661110a565b60208201915061132c828561110a565b60208201915061133c828461110a565b60208201915081905095945050505050565b7f72697363305f67726f746831362e566572696679696e674b65792e49430000005f82015250565b5f611382601d8361101f565b915061138d8261134e565b601d82019050919050565b5f6113a282611376565b9150819050919050565b5f6113b7828a6110e1565b6020820191506113c782896110e1565b6020820191506113d782886110e1565b6020820191506113e782876110e1565b6020820191506113f782866110e1565b60208201915061140782856110e1565b602082019150611417828461114b565b60028201915081905098975050505050505050565b7f4e487b71000000000000000000000000000000000000000000000000000000005f52601160045260245ffd5b5f611463826110f8565b915061146e836110f8565b92508282039050818111156114865761148561142c565b5b92915050565b5f81519050919050565b5f81905092915050565b5f819050602082019050919050565b6114b881610fae565b82525050565b5f6114c983836114af565b60208301905092915050565b5f602082019050919050565b5f6114eb8261148c565b6114f58185611496565b9350611500836114a0565b805f5b8381101561153057815161151788826114be565b9750611522836114d5565b925050600181019050611503565b5085935050505092915050565b5f7fffff00000000000000000000000000000000000000000000000000000000000082169050919050565b5f819050919050565b61158261157d8261153d565b611568565b82525050565b5f61159382876110e1565b6020820191506115a382866114e1565b91506115af82856111d8565b91506115bb8284611571565b60028201915081905095945050505050565b5f819050919050565b5f60ff82169050919050565b5f819050919050565b5f6116056116006115fb846115cd565b6115e2565b6115d6565b9050919050565b611615816115eb565b82525050565b611624816110f8565b82525050565b5f60408201905061163d5f83018561160c565b61164a602083018461161b565b9392505050565b60805160a05160c05160e051611d386116a75f395f818161018a0152818161089101526108f401525f81816101cd0152610a6601525f81816107b101526109f501525f81816107d501526109ba0152611d385ff3fe608060405234801561000f575f5ffd5b5060043610610086575f3560e01c80638989fa2e116100595780638989fa2e146101125780639181e4b114610130578063ab750e751461014e578063ffa1ad741461016a57610086565b8063053c238d1461008a5780631599ead5146100a8578063258038e2146100c457806334baeab9146100e2575b5f5ffd5b610092610188565b60405161009f9190610fc7565b60405180910390f35b6100c260048036038101906100bd9190611013565b6101ac565b005b6100cc6101cb565b6040516100d99190611072565b60405180910390f35b6100fc60048036038101906100f791906110f2565b6101ef565b6040516101099190611172565b60405180910390f35b61011a6107af565b60405161012791906111c5565b60405180910390f35b6101386107d3565b60405161014591906111c5565b60405180910390f35b61016860048036038101906101639190611265565b6107f7565b005b610172610819565b60405161017f9190611346565b60405180910390f35b7f000000000000000000000000000000000000000000000000000000000000000081565b6101c881805f01906101be9190611372565b8360200135610852565b50565b7f000000000000000000000000000000000000000000000000000000000000000081565b5f61074f565b7f30644e72e131a029b85045b68181585d2833e84879b9709143e1f593f00000018110610224575f5f5260205ff35b50565b5f60405183815284602082015285604082015260408160608360076107d05a03fa915081610257575f5f5260205ff35b825160408201526020830151606082015260408360808360066107d05a03fa915081610285575f5f5260205ff35b505050505050565b5f608086015f87017f12ac9a25dcd5e1a832a9061a082c15dd1d61aa9c4d553505739d0f5d65dc3be481527f025aa744581ebe7ad91731911c898569106ff5a2d30f3eee2b23c60ee980acd4602082015261032d5f8801357f2e32a094b7589554f7bc357bf63481acd2d55555c203383782a4650787ff66427f0707b920bc978c02f292fae2036e057be54294114ccc3c8769d883f688a1423f84610227565b61037d60208801357f2ede7c9acf48cf3a3729fa3d68714e2a8435d4fa6db8f7f409c153b1fcdf9b8b7f0bca36e2cbe6394b3e249751853f961511011c7148e336f4fd974644850fc34784610227565b6103cd60408801357f2b91a26aa92e1b6f5722949f192a81c850d586d81a60157f3e9cf04f679cccd67f1b8af999dbfbb3927c091cc2aaf201e488cbacc3e2c6b6fb5a25f9112e04f2a784610227565b61041d60608801357f2fe520ad2020aab9cbba817fcbb9a863b8a76ff88f14f912c5e71665b2ad5e827f2b5f494ed674235b8ac1750bdfd5a7615f002d4a1dcefeddd06eda5a076ccd0d84610227565b61046d60808801357f214bfcff74f425f6fe8c0d07b307482d8bc8bb2f3608f68287aa01bd0b69e8097f0f1c3c0d5d9da0fa03666843cde4e82e869ba5252fce3c25d5940320b1c4d49384610227565b833582527f30644e72e131a029b85045b68181585d97816a916871ca8d3c208c16d87cfd4760208501357f30644e72e131a029b85045b68181585d97816a916871ca8d3c208c16d87cfd4703066020830152843560408301526020850135606083015260408501356080830152606085013560a08301527f2d4d9aa7e302d9df41749d5507949d05dbea33fbb16c643b22f599a2be6df2e260c08301527f14bedd503c37ceb061d8ec60209fe345ce89830a19230301f076caff004d192660e08301527f0967032fcbf776d1afc985f88877f182d38480a653f2decaa9794cbc3bf3060c6101008301527f0e187847ad4c798374d0d6732bf501847dd68bc0e071241e0213bc7fc13db7ab6101208301527f304cfbd1e08a704a99f5e847d93f8c3caafddec46b7a0d379da69a4d112346a76101408301527f1739c1b1a457a8c7313123d24d2f9192f896b7c63eea05a9d57f06547ad0cec86101608301525f88015161018083015260205f018801516101a08301527f198e9393920d483a7260bfb731fb5d25f1aa493335a9e71297e485b7aef312c26101c08301527f1800deef121f1e76426a00665e5c4479674322d4f75edadd46debd5cd992f6ed6101e08301527f090689d0585ff075ec9e99ad690c3395bc4b313370b38ef355acdadcd122975b6102008301527f12c85ea5db8c6deb4aab71808dcb408fe3d1e7690c43d37b4ce6cc0166fa7daa610220830152853561024083015260208601356102608301527f03b03cd5effa95ac9bee94f1f5ef907157bda4812ccf0b4c91f42bb629f83a1c6102808301527f1aa085ff28179a12d922dba0547057ccaae94b9d69cfaa4e60401fea7f3e03336102a08301527f110c10134f200b19f6490846d518c9aea868366efb7228ca5c91d2940d0307626102c08301527f1e60f31fcbf757e837e867178318832d0b2d74d59e2fea1c7142df187d3fc6d36102e08301526020826103008460086107d05a03fa82518116935050505095945050505050565b60405161038081016040526107665f8401356101f5565b61077360208401356101f5565b61078060408401356101f5565b61078d60608401356101f5565b61079a60808401356101f5565b6107a7818486888a61028d565b805f5260205ff35b7f000000000000000000000000000000000000000000000000000000000000000081565b7f000000000000000000000000000000000000000000000000000000000000000081565b610813848461080e6108098686610b2a565b610bcc565b610852565b50505050565b6040518060400160405280600a81526020017f322e302e302d72632e330000000000000000000000000000000000000000000081525081565b82825f90600492610865939291906113dc565b90610870919061142c565b7bffffffffffffffffffffffffffffffffffffffffffffffffffffffff19167f00000000000000000000000000000000000000000000000000000000000000007bffffffffffffffffffffffffffffffffffffffffffffffffffffffff1916146109505782825f906004926108e7939291906113dc565b906108f2919061142c565b7f00000000000000000000000000000000000000000000000000000000000000006040517fb8b38d4c00000000000000000000000000000000000000000000000000000000815260040161094792919061148a565b60405180910390fd5b5f5f61095b83610ce9565b915091505f85856004908092610973939291906113dc565b810190610980919061171e565b90505f3073ffffffffffffffffffffffffffffffffffffffff166334baeab9835f0151846020015185604001516040518060a001604052807f000000000000000000000000000000000000000000000000000000000000000060801c6fffffffffffffffffffffffffffffffff1681526020017f000000000000000000000000000000000000000000000000000000000000000060801c6fffffffffffffffffffffffffffffffff1681526020018a60801c6fffffffffffffffffffffffffffffffff1681526020018960801c6fffffffffffffffffffffffffffffffff1681526020017f00000000000000000000000000000000000000000000000000000000000000005f1c8152506040518563ffffffff1660e01b8152600401610aa99493929190611964565b602060405180830381865afa158015610ac4573d5f5f3e3d5ffd5b505050506040513d601f19601f82011682018060405250810190610ae891906119d3565b905080610b21576040517f439cc0cd00000000000000000000000000000000000000000000000000000000815260040160405180910390fd5b50505050505050565b610b32610f2f565b6040518060a001604052808481526020017fa3acc27117418996340b84e5a90f3ef4c49d22c79e44aad822ec9c313e1eb8e25f1b815260200160405180604001604052805f6002811115610b8957610b886119fe565b5b81526020015f60ff1681525081526020015f5f1b8152602001610bc160405180604001604052808681526020015f5f1b815250610d0f565b815250905092915050565b5f600280604051610bdc90611a7f565b602060405180830381855afa158015610bf7573d5f5f3e3d5ffd5b5050506040513d601f19601f82011682018060405250810190610c1a9190611aa7565b8360600151845f015185602001518660800151601888604001515f01516002811115610c4957610c486119fe565b5b63ffffffff16901b601889604001516020015160ff1663ffffffff16901b6008600461ffff16901b604051602001610c88989796959493929190611b76565b604051602081830303815290604052604051610ca49190611c41565b602060405180830381855afa158015610cbf573d5f5f3e3d5ffd5b5050506040513d601f19601f82011682018060405250810190610ce29190611aa7565b9050919050565b5f5f5f610cf7845f1c610de4565b90508060801b608082901c60801b9250925050915091565b5f600280604051610d1f90611ca1565b602060405180830381855afa158015610d3a573d5f5f3e3d5ffd5b5050506040513d601f19601f82011682018060405250810190610d5d9190611aa7565b835f015184602001516008600261ffff16901b604051602001610d839493929190611cb5565b604051602081830303815290604052604051610d9f9190611c41565b602060405180830381855afa158015610dba573d5f5f3e3d5ffd5b5050506040513d601f19601f82011682018060405250810190610ddd9190611aa7565b9050919050565b5f81905060087eff00ff00ff00ff00ff00ff00ff00ff00ff00ff00ff00ff00ff00ff00ff00ff8216901b60087fff00ff00ff00ff00ff00ff00ff00ff00ff00ff00ff00ff00ff00ff00ff00ff008316901c17905060107dffff0000ffff0000ffff0000ffff0000ffff0000ffff0000ffff0000ffff8216901b60107fffff0000ffff0000ffff0000ffff0000ffff0000ffff0000ffff0000ffff00008316901c17905060207bffffffff00000000ffffffff00000000ffffffff00000000ffffffff8216901b60207fffffffff00000000ffffffff00000000ffffffff00000000ffffffff000000008316901c179050604077ffffffffffffffff0000000000000000ffffffffffffffff8216901b60407fffffffffffffffff0000000000000000ffffffffffffffff00000000000000008316901c179050608081901b608082901c179050919050565b6040518060a001604052805f81526020015f8152602001610f4e610f60565b81526020015f81526020015f81525090565b60405180604001604052805f6002811115610f7e57610f7d6119fe565b5b81526020015f60ff1681525090565b5f7fffffffff0000000000000000000000000000000000000000000000000000000082169050919050565b610fc181610f8d565b82525050565b5f602082019050610fda5f830184610fb8565b92915050565b5f604051905090565b5f5ffd5b5f5ffd5b5f5ffd5b5f6040828403121561100a57611009610ff1565b5b81905092915050565b5f6020828403121561102857611027610fe9565b5b5f82013567ffffffffffffffff81111561104557611044610fed565b5b61105184828501610ff5565b91505092915050565b5f819050919050565b61106c8161105a565b82525050565b5f6020820190506110855f830184611063565b92915050565b5f5ffd5b5f819050826020600202820111156110aa576110a961108b565b5b92915050565b5f819050826040600202820111156110cb576110ca61108b565b5b92915050565b5f819050826020600502820111156110ec576110eb61108b565b5b92915050565b5f5f5f5f6101a0858703121561110b5761110a610fe9565b5b5f6111188782880161108f565b9450506040611129878288016110b0565b93505060c061113a8782880161108f565b92505061010061114c878288016110d1565b91505092959194509250565b5f8115159050919050565b61116c81611158565b82525050565b5f6020820190506111855f830184611163565b92915050565b5f7fffffffffffffffffffffffffffffffff0000000000000000000000000000000082169050919050565b6111bf8161118b565b82525050565b5f6020820190506111d85f8301846111b6565b92915050565b5f5ffd5b5f5ffd5b5f5f83601f8401126111fb576111fa6111de565b5b8235905067ffffffffffffffff811115611218576112176111e2565b5b6020830191508360018202830111156112345761123361108b565b5b9250929050565b6112448161105a565b811461124e575f5ffd5b50565b5f8135905061125f8161123b565b92915050565b5f5f5f5f6060858703121561127d5761127c610fe9565b5b5f85013567ffffffffffffffff81111561129a57611299610fed565b5b6112a6878288016111e6565b945094505060206112b987828801611251565b92505060406112ca87828801611251565b91505092959194509250565b5f81519050919050565b5f82825260208201905092915050565b8281835e5f83830152505050565b5f601f19601f8301169050919050565b5f611318826112d6565b61132281856112e0565b93506113328185602086016112f0565b61133b816112fe565b840191505092915050565b5f6020820190508181035f83015261135e818461130e565b905092915050565b5f5ffd5b5f5ffd5b5f5ffd5b5f5f8335600160200384360303811261138e5761138d611366565b5b80840192508235915067ffffffffffffffff8211156113b0576113af61136a565b5b6020830192506001820236038313156113cc576113cb61136e565b5b509250929050565b5f5ffd5b5f5ffd5b5f5f858511156113ef576113ee6113d4565b5b83861115611400576113ff6113d8565b5b6001850283019150848603905094509492505050565b5f82905092915050565b5f82821b905092915050565b5f6114378383611416565b826114428135610f8d565b925060048210156114825761147d7fffffffff0000000000000000000000000000000000000000000000000000000083600403600802611420565b831692505b505092915050565b5f60408201905061149d5f830185610fb8565b6114aa6020830184610fb8565b9392505050565b5f5ffd5b7f4e487b71000000000000000000000000000000000000000000000000000000005f52604160045260245ffd5b6114eb826112fe565b810181811067ffffffffffffffff8211171561150a576115096114b5565b5b80604052505050565b5f61151c610fe0565b905061152882826114e2565b919050565b5f67ffffffffffffffff821115611547576115466114b5565b5b602082029050919050565b5f819050919050565b61156481611552565b811461156e575f5ffd5b50565b5f8135905061157f8161155b565b92915050565b5f6115976115928461152d565b611513565b905080602084028301858111156115b1576115b061108b565b5b835b818110156115da57806115c68882611571565b8452602084019350506020810190506115b3565b5050509392505050565b5f82601f8301126115f8576115f76111de565b5b6002611605848285611585565b91505092915050565b5f67ffffffffffffffff821115611628576116276114b5565b5b602082029050919050565b5f6116456116408461160e565b611513565b9050806040840283018581111561165f5761165e61108b565b5b835b81811015611688578061167488826115e4565b845260208401935050604081019050611661565b5050509392505050565b5f82601f8301126116a6576116a56111de565b5b60026116b3848285611633565b91505092915050565b5f61010082840312156116d2576116d16114b1565b5b6116dc6060611513565b90505f6116eb848285016115e4565b5f8301525060406116fe84828501611692565b60208301525060c0611712848285016115e4565b60408301525092915050565b5f610100828403121561173457611733610fe9565b5b5f611741848285016116bc565b91505092915050565b5f60029050919050565b5f81905092915050565b5f819050919050565b61177081611552565b82525050565b5f6117818383611767565b60208301905092915050565b5f602082019050919050565b6117a28161174a565b6117ac8184611754565b92506117b78261175e565b805f5b838110156117e75781516117ce8782611776565b96506117d98361178d565b9250506001810190506117ba565b505050505050565b5f60029050919050565b5f81905092915050565b5f819050919050565b5f81905092915050565b61181f8161174a565b611829818461180c565b92506118348261175e565b805f5b8381101561186457815161184b8782611776565b96506118568361178d565b925050600181019050611837565b505050505050565b5f6118778383611816565b60408301905092915050565b5f602082019050919050565b611898816117ef565b6118a281846117f9565b92506118ad82611803565b805f5b838110156118dd5781516118c4878261186c565b96506118cf83611883565b9250506001810190506118b0565b505050505050565b5f60059050919050565b5f81905092915050565b5f819050919050565b5f602082019050919050565b611917816118e5565b61192181846118ef565b925061192c826118f9565b805f5b8381101561195c5781516119438782611776565b965061194e83611902565b92505060018101905061192f565b505050505050565b5f6101a0820190506119785f830187611799565b611985604083018661188f565b61199260c0830185611799565b6119a061010083018461190e565b95945050505050565b6119b281611158565b81146119bc575f5ffd5b50565b5f815190506119cd816119a9565b92915050565b5f602082840312156119e8576119e7610fe9565b5b5f6119f5848285016119bf565b91505092915050565b7f4e487b71000000000000000000000000000000000000000000000000000000005f52602160045260245ffd5b5f81905092915050565b7f72697363302e52656365697074436c61696d00000000000000000000000000005f82015250565b5f611a69601283611a2b565b9150611a7482611a35565b601282019050919050565b5f611a8982611a5d565b9150819050919050565b5f81519050611aa18161123b565b92915050565b5f60208284031215611abc57611abb610fe9565b5b5f611ac984828501611a93565b91505092915050565b5f819050919050565b611aec611ae78261105a565b611ad2565b82525050565b5f63ffffffff82169050919050565b5f8160e01b9050919050565b5f611b1782611b01565b9050919050565b611b2f611b2a82611af2565b611b0d565b82525050565b5f61ffff82169050919050565b5f8160f01b9050919050565b5f611b5882611b42565b9050919050565b611b70611b6b82611b35565b611b4e565b82525050565b5f611b81828b611adb565b602082019150611b91828a611adb565b602082019150611ba18289611adb565b602082019150611bb18288611adb565b602082019150611bc18287611adb565b602082019150611bd18286611b1e565b600482019150611be18285611b1e565b600482019150611bf18284611b5f565b6002820191508190509998505050505050505050565b5f81519050919050565b5f611c1b82611c07565b611c258185611a2b565b9350611c358185602086016112f0565b80840191505092915050565b5f611c4c8284611c11565b915081905092915050565b7f72697363302e4f757470757400000000000000000000000000000000000000005f82015250565b5f611c8b600c83611a2b565b9150611c9682611c57565b600c82019050919050565b5f611cab82611c7f565b9150819050919050565b5f611cc08287611adb565b602082019150611cd08286611adb565b602082019150611ce08285611adb565b602082019150611cf08284611b5f565b6002820191508190509594505050505056fea26469706673582212203b81ca0fc7a60b501e9b10281d049eb0e9b5a2eb31d3a3204e6d389f5549f8d564736f6c634300081d0033","linkReferences":{}},"methodIdentifiers":{"BN254_CONTROL_ID()":"258038e2","CONTROL_ROOT_0()":"9181e4b1","CONTROL_ROOT_1()":"8989fa2e","SELECTOR()":"053c238d","VERSION()":"ffa1ad74","verify(bytes,bytes32,bytes32)":"ab750e75","verifyIntegrity((bytes,bytes32))":"1599ead5","verifyProof(uint256[2],uint256[2][2],uint256[2],uint256[5])":"34baeab9"},"id":25}