{"abi":[{"type":"function","name":"proof","inputs":[],"outputs":[{"name":"","type":"tuple","internalType":"struct Proof","components":[{"name":"seal","type":"tuple","internalType":"struct Seal","components":[{"name":"verifierSelector","type":"bytes4","internalType":"bytes4"},{"name":"seal","type":"bytes32[8]","internalType":"bytes32[8]"},{"name":"mode","type":"uint8","internalType":"enum ProofMode"}]},{"name":"callGuestId","type":"bytes32","internalType":"bytes32"},{"name":"length","type":"uint256","internalType":"uint256"},{"name":"callAssumptions","type":"tuple","internalType":"struct CallAssumptions","components":[{"name":"proverContractAddress","type":"address","internalType":"address"},{"name":"functionSelector","type":"bytes4","internalType":"bytes4"},{"name":"settleChainId","type":"uint256","internalType":"uint256"},{"name":"settleBlockNumber","type":"uint256","internalType":"uint256"},{"name":"settleBlockHash","type":"bytes32","internalType":"bytes32"}]}]}],"stateMutability":"pure"},{"type":"function","name":"proofOfAccount","inputs":[{"name":"webProof","type":"tuple","internalType":"struct WebProof","components":[{"name":"webProofJson","type":"string","internalType":"string"}]}],"outputs":[{"name":"","type":"tuple","internalType":"struct Proof","components":[{"name":"seal","type":"tuple","internalType":"struct Seal","components":[{"name":"verifierSelector","type":"bytes4","internalType":"bytes4"},{"name":"seal","type":"bytes32[8]","internalType":"bytes32[8]"},{"name":"mode","type":"uint8","internalType":"enum ProofMode"}]},{"name":"callGuestId","type":"bytes32","internalType":"bytes32"},{"name":"length","type":"uint256","internalType":"uint256"},{"name":"callAssumptions","type":"tuple","internalType":"struct CallAssumptions","components":[{"name":"proverContractAddress","type":"address","internalType":"address"},{"name":"functionSelector","type":"bytes4","internalType":"bytes4"},{"name":"settleChainId","type":"uint256","internalType":"uint256"},{"name":"settleBlockNumber","type":"uint256","internalType":"uint256"},{"name":"settleBlockHash","type":"bytes32","internalType":"bytes32"}]}]},{"name":"","type":"string","internalType":"string"}],"stateMutability":"view"},{"type":"function","name":"proofOfPost","inputs":[{"name":"webProof","type":"tuple","internalType":"struct WebProof","components":[{"name":"webProofJson","type":"string","internalType":"string"}]},{"name":"account","type":"address","internalType":"address"}],"outputs":[{"name":"","type":"tuple","internalType":"struct Proof","components":[{"name":"seal","type":"tuple","internalType":"struct Seal","components":[{"name":"verifierSelector","type":"bytes4","internalType":"bytes4"},{"name":"seal","type":"bytes32[8]","internalType":"bytes32[8]"},{"name":"mode","type":"uint8","internalType":"enum ProofMode"}]},{"name":"callGuestId","type":"bytes32","internalType":"bytes32"},{"name":"length","type":"uint256","internalType":"uint256"},{"name":"callAssumptions","type":"tuple","internalType":"struct CallAssumptions","components":[{"name":"proverContractAddress","type":"address","internalType":"address"},{"name":"functionSelector","type":"bytes4","internalType":"bytes4"},{"name":"settleChainId","type":"uint256","internalType":"uint256"},{"name":"settleBlockNumber","type":"uint256","internalType":"uint256"},{"name":"settleBlockHash","type":"bytes32","internalType":"bytes32"}]}]},{"name":"","type":"string","internalType":"string"},{"name":"","type":"address","internalType":"address"}],"stateMutability":"view"},{"type":"function","name":"setBlock","inputs":[{"name":"blockNo","type":"uint256","internalType":"uint256"}],"outputs":[],"stateMutability":"nonpayable"},{"type":"function","name":"setChain","inputs":[{"name":"chainId","type":"uint256","internalType":"uint256"},{"name":"blockNo","type":"uint256","internalType":"uint256"}],"outputs":[],"stateMutability":"nonpayable"},{"type":"error","name":"FailedInnerCall","inputs":[]}],"bytecode":{"object":"0x60806040526040518060600160405280602b815260200161203d602b91395f908161002a9190610279565b50348015610036575f5ffd5b50610348565b5f81519050919050565b7f4e487b71000000000000000000000000000000000000000000000000000000005f52604160045260245ffd5b7f4e487b71000000000000000000000000000000000000000000000000000000005f52602260045260245ffd5b5f60028204905060018216806100b757607f821691505b6020821081036100ca576100c9610073565b5b50919050565b5f819050815f5260205f209050919050565b5f6020601f8301049050919050565b5f82821b905092915050565b5f6008830261012c7fffffffffffffffffffffffffffffffffffffffffffffffffffffffffffffffff826100f1565b61013686836100f1565b95508019841693508086168417925050509392505050565b5f819050919050565b5f819050919050565b5f61017a6101756101708461014e565b610157565b61014e565b9050919050565b5f819050919050565b61019383610160565b6101a761019f82610181565b8484546100fd565b825550505050565b5f5f905090565b6101be6101af565b6101c981848461018a565b505050565b5b818110156101ec576101e15f826101b6565b6001810190506101cf565b5050565b601f82111561023157610202816100d0565b61020b846100e2565b8101602085101561021a578190505b61022e610226856100e2565b8301826101ce565b50505b505050565b5f82821c905092915050565b5f6102515f1984600802610236565b1980831691505092915050565b5f6102698383610242565b9150826002028217905092915050565b6102828261003c565b67ffffffffffffffff81111561029b5761029a610046565b5b6102a582546100a0565b6102b08282856101f0565b5f60209050601f8311600181146102e1575f84156102cf578287015190505b6102d9858261025e565b865550610340565b601f1984166102ef866100d0565b5f5b82811015610316578489015182556001820191506020850194506020810190506102f1565b86831015610333578489015161032f601f891682610242565b8355505b6001600288020188555050505b505050505050565b611ce8806103555f395ff3fe608060405234801561000f575f5ffd5b5060043610610055575f3560e01c8063121bb4d41461005957806387cea3ae1461008a578063acfd5786146100a6578063faf924cf146100d8578063ffbc5638146100f6575b5f5ffd5b610073600480360381019061006e9190610d82565b610112565b6040516100819291906110ea565b60405180910390f35b6100a4600480360381019061009f9190611144565b610221565b005b6100c060048036038101906100bb9190611199565b6102fe565b6040516100cf93929190611202565b60405180910390f35b6100e0610310565b6040516100ed9190611241565b60405180910390f35b610110600480360381019061010b919061125b565b610325565b005b61011a610c24565b60605f6101c05f805461012c906112c6565b80601f0160208091040260200160405190810160405280929190818152602001828054610158906112c6565b80156101a35780601f1061017a576101008083540402835291602001916101a3565b820191905f5260205f20905b81548152906001019060200180831161018657829003601f168201915b5050505050856101b29061147f565b61040590919063ffffffff16565b90505f61020b6040518060400160405280600b81526020017f73637265656e5f6e616d650000000000000000000000000000000000000000008152508361048990919063ffffffff16565b9050610215610310565b81935093505050915091565b7f2ae215ce9fde588adfdea92976dc9aa45aa006a0f63942d8f9f21bd4537972a35f1c73ffffffffffffffffffffffffffffffffffffffff166387cea3ae826040518263ffffffff1660e01b815260040161027c91906114a0565b6020604051808303815f875af1158015610298573d5f5f3e3d5ffd5b505050506040513d601f19601f820116820180604052508101906102bc91906114ee565b6102fb576040517f08c379a00000000000000000000000000000000000000000000000000000000081526004016102f290611563565b60405180910390fd5b50565b610306610c24565b60605f9250925092565b610318610c24565b6103206105be565b905090565b7f2ae215ce9fde588adfdea92976dc9aa45aa006a0f63942d8f9f21bd4537972a35f1c73ffffffffffffffffffffffffffffffffffffffff1663ffbc563883836040518363ffffffff1660e01b8152600401610382929190611581565b6020604051808303815f875af115801561039e573d5f5f3e3d5ffd5b505050506040513d601f19601f820116820180604052508101906103c291906114ee565b610401576040517f08c379a00000000000000000000000000000000000000000000000000000000081526004016103f890611563565b60405180910390fd5b5050565b61040d610c56565b5f61041a8460015f6105d5565b90506104298160200151610718565b61044083826040015161092790919063ffffffff16565b61047f576040517f08c379a0000000000000000000000000000000000000000000000000000000008152600401610476906115f2565b60405180910390fd5b8091505092915050565b60605f835f015151116104d1576040517f08c379a00000000000000000000000000000000000000000000000000000000081526004016104c89061165a565b60405180910390fd5b5f6040518060400160405280855f01518152602001848152506040516020016104fa919061176f565b60405160208183030381529060405290505f5f600273f4e4fdca9d5d55e64525e314391996a15f7ec60061052e91906117bc565b73ffffffffffffffffffffffffffffffffffffffff16836040516105529190611847565b5f60405180830381855afa9150503d805f811461058a576040519150601f19603f3d011682016040523d82523d5f602084013e61058f565b606091505b509150915061059e82826109fd565b50808060200190518101906105b391906118cb565b935050505092915050565b6105c6610c24565b6105ce610c24565b8091505090565b6105dd610c56565b5f5f5f73f4e4fdca9d5d55e64525e314391996a15f7ec6006105ff91906117bc565b73ffffffffffffffffffffffffffffffffffffffff1686868660405160200161062a939291906119c5565b6040516020818303038152906040526040516106469190611847565b5f60405180830381855afa9150503d805f811461067e576040519150601f19603f3d011682016040523d82523d5f602084013e610683565b606091505b509150915061069282826109fd565b505f818060200190518101906106a89190611ad1565b90506040518060600160405280826002600481106106c9576106c8611b18565b5b60200201518152602001826003600481106106e7576106e6611b18565b5b60200201518152602001825f6004811061070457610703611b18565b5b602002015181525093505050509392505050565b610720610a21565b1561079457610750816040518060e0016040528060ae8152602001611c0560ae9139610a3e90919063ffffffff16565b61078f576040517f08c379a000000000000000000000000000000000000000000000000000000000815260040161078690611b8f565b60405180910390fd5b610924565b61079c610a65565b15610864576107a9610acd565b73ffffffffffffffffffffffffffffffffffffffff16632505a3bd826040518263ffffffff1660e01b81526004016107e19190611bad565b602060405180830381865afa1580156107fc573d5f5f3e3d5ffd5b505050506040513d601f19601f8201168201806040525081019061082091906114ee565b61085f576040517f08c379a000000000000000000000000000000000000000000000000000000000815260040161085690611b8f565b60405180910390fd5b610923565b61086c610ae8565b73ffffffffffffffffffffffffffffffffffffffff16632505a3bd826040518263ffffffff1660e01b81526004016108a49190611bad565b602060405180830381865afa1580156108bf573d5f5f3e3d5ffd5b505050506040513d601f19601f820116820180604052508101906108e391906114ee565b610922576040517f08c379a000000000000000000000000000000000000000000000000000000000815260040161091990611b8f565b60405180910390fd5b5b5b50565b5f5f8390505f839050805182511015610944575f925050506109f7565b5f5f90505b81518110156109ef5781818151811061096557610964611b18565b5b602001015160f81c60f81b7effffffffffffffffffffffffffffffffffffffffffffffffffffffffffffff19168382815181106109a5576109a4611b18565b5b602001015160f81c60f81b7effffffffffffffffffffffffffffffffffffffffffffffffffffffffffffff1916146109e2575f93505050506109f7565b8080600101915050610949565b506001925050505b92915050565b606082610a1257610a0d82610b03565b610a1a565b819050610a1b565b5b92915050565b5f610a2a610b47565b80610a395750610a38610b5f565b5b905090565b5f81518351148015610a5d575081805190602001208380519060200120145b905092915050565b5f6001461480610a755750600a46145b80610a805750608946145b80610a8c575061014446145b80610a9857506101e046145b80610aa4575061210546145b80610ab0575061a4b146145b80610abc575061a4ba46145b80610ac8575061e70846145b905090565b5f73565dca92902ea0ca597b5e62df0b47886b6b7d4d905090565b5f73c4e4dc291a5c4debe9ff5a3372f3fdd2e42bac86905090565b5f81511115610b155780518082602001fd5b6040517f1425ea4200000000000000000000000000000000000000000000000000000000815260040160405180910390fd5b5f617a69461480610b5a57506204991946145b905090565b5f5f5f601e73f4e4fdca9d5d55e64525e314391996a15f7ec600610b8391906117bc565b73ffffffffffffffffffffffffffffffffffffffff16604051610ba590611bf0565b5f60405180830381855afa9150503d805f8114610bdd576040519150601f19603f3d011682016040523d82523d5f602084013e610be2565b606091505b5091509150811580610bf457505f8151145b15610c03575f92505050610c21565b5f81806020019051810190610c1891906114ee565b90508093505050505b90565b6040518060800160405280610c37610c77565b81526020015f81526020015f8152602001610c50610ccd565b81525090565b60405180606001604052806060815260200160608152602001606081525090565b60405180606001604052805f7bffffffffffffffffffffffffffffffffffffffffffffffffffffffff19168152602001610caf610d2c565b81526020015f6001811115610cc757610cc6610eb1565b5b81525090565b6040518060a001604052805f73ffffffffffffffffffffffffffffffffffffffff1681526020015f7bffffffffffffffffffffffffffffffffffffffffffffffffffffffff191681526020015f81526020015f81526020015f81525090565b604051806101000160405280600890602082028036833780820191505090505090565b5f604051905090565b5f5ffd5b5f5ffd5b5f5ffd5b5f60208284031215610d7957610d78610d60565b5b81905092915050565b5f60208284031215610d9757610d96610d58565b5b5f82013567ffffffffffffffff811115610db457610db3610d5c565b5b610dc084828501610d64565b91505092915050565b5f7fffffffff0000000000000000000000000000000000000000000000000000000082169050919050565b610dfd81610dc9565b82525050565b5f60089050919050565b5f81905092915050565b5f819050919050565b5f819050919050565b610e3281610e20565b82525050565b5f610e438383610e29565b60208301905092915050565b5f602082019050919050565b610e6481610e03565b610e6e8184610e0d565b9250610e7982610e17565b805f5b83811015610ea9578151610e908782610e38565b9650610e9b83610e4f565b925050600181019050610e7c565b505050505050565b7f4e487b71000000000000000000000000000000000000000000000000000000005f52602160045260245ffd5b60028110610eef57610eee610eb1565b5b50565b5f819050610eff82610ede565b919050565b5f610f0e82610ef2565b9050919050565b610f1e81610f04565b82525050565b61014082015f820151610f395f850182610df4565b506020820151610f4c6020850182610e5b565b506040820151610f60610120850182610f15565b50505050565b5f819050919050565b610f7881610f66565b82525050565b5f73ffffffffffffffffffffffffffffffffffffffff82169050919050565b5f610fa782610f7e565b9050919050565b610fb781610f9d565b82525050565b60a082015f820151610fd15f850182610fae565b506020820151610fe46020850182610df4565b506040820151610ff76040850182610f6f565b50606082015161100a6060850182610f6f565b50608082015161101d6080850182610e29565b50505050565b61022082015f8201516110385f850182610f24565b50602082015161104c610140850182610e29565b506040820151611060610160850182610f6f565b506060820151611074610180850182610fbd565b50505050565b5f81519050919050565b5f82825260208201905092915050565b8281835e5f83830152505050565b5f601f19601f8301169050919050565b5f6110bc8261107a565b6110c68185611084565b93506110d6818560208601611094565b6110df816110a2565b840191505092915050565b5f610240820190506110fe5f830185611023565b81810361022083015261111181846110b2565b90509392505050565b61112381610f66565b811461112d575f5ffd5b50565b5f8135905061113e8161111a565b92915050565b5f6020828403121561115957611158610d58565b5b5f61116684828501611130565b91505092915050565b61117881610f9d565b8114611182575f5ffd5b50565b5f813590506111938161116f565b92915050565b5f5f604083850312156111af576111ae610d58565b5b5f83013567ffffffffffffffff8111156111cc576111cb610d5c565b5b6111d885828601610d64565b92505060206111e985828601611185565b9150509250929050565b6111fc81610f9d565b82525050565b5f610260820190506112165f830186611023565b81810361022083015261122981856110b2565b90506112396102408301846111f3565b949350505050565b5f610220820190506112555f830184611023565b92915050565b5f5f6040838503121561127157611270610d58565b5b5f61127e85828601611130565b925050602061128f85828601611130565b9150509250929050565b7f4e487b71000000000000000000000000000000000000000000000000000000005f52602260045260245ffd5b5f60028204905060018216806112dd57607f821691505b6020821081036112f0576112ef611299565b5b50919050565b5f5ffd5b7f4e487b71000000000000000000000000000000000000000000000000000000005f52604160045260245ffd5b611330826110a2565b810181811067ffffffffffffffff8211171561134f5761134e6112fa565b5b80604052505050565b5f611361610d4f565b905061136d8282611327565b919050565b5f5ffd5b5f5ffd5b5f5ffd5b5f67ffffffffffffffff821115611398576113976112fa565b5b6113a1826110a2565b9050602081019050919050565b828183375f83830152505050565b5f6113ce6113c98461137e565b611358565b9050828152602081018484840111156113ea576113e961137a565b5b6113f58482856113ae565b509392505050565b5f82601f83011261141157611410611376565b5b81356114218482602086016113bc565b91505092915050565b5f6020828403121561143f5761143e6112f6565b5b6114496020611358565b90505f82013567ffffffffffffffff81111561146857611467611372565b5b611474848285016113fd565b5f8301525092915050565b5f61148a368361142a565b9050919050565b61149a81610f66565b82525050565b5f6020820190506114b35f830184611491565b92915050565b5f8115159050919050565b6114cd816114b9565b81146114d7575f5ffd5b50565b5f815190506114e8816114c4565b92915050565b5f6020828403121561150357611502610d58565b5b5f611510848285016114da565b91505092915050565b7f4661696c6564206368656174636f646520696e766f636174696f6e00000000005f82015250565b5f61154d601b83611084565b915061155882611519565b602082019050919050565b5f6020820190508181035f83015261157a81611541565b9050919050565b5f6040820190506115945f830185611491565b6115a16020830184611491565b9392505050565b7f55524c20707265666978206d69736d61746368000000000000000000000000005f82015250565b5f6115dc601383611084565b91506115e7826115a8565b602082019050919050565b5f6020820190508181035f830152611609816115d0565b9050919050565b7f426f647920697320656d707479000000000000000000000000000000000000005f82015250565b5f611644600d83611084565b915061164f82611610565b602082019050919050565b5f6020820190508181035f83015261167181611638565b9050919050565b5f60029050919050565b5f81905092915050565b5f819050919050565b5f82825260208201905092915050565b5f6116af8261107a565b6116b98185611695565b93506116c9818560208601611094565b6116d2816110a2565b840191505092915050565b5f6116e883836116a5565b905092915050565b5f602082019050919050565b5f61170682611678565b6117108185611682565b9350836020820285016117228561168c565b805f5b8581101561175d578484038952815161173e85826116dd565b9450611749836116f0565b925060208a01995050600181019050611725565b50829750879550505050505092915050565b5f6020820190508181035f83015261178781846116fc565b905092915050565b7f4e487b71000000000000000000000000000000000000000000000000000000005f52601160045260245ffd5b5f6117c682610f7e565b91506117d183610f7e565b9250828201905073ffffffffffffffffffffffffffffffffffffffff8111156117fd576117fc61178f565b5b92915050565b5f81519050919050565b5f81905092915050565b5f61182182611803565b61182b818561180d565b935061183b818560208601611094565b80840191505092915050565b5f6118528284611817565b915081905092915050565b5f61186f61186a8461137e565b611358565b90508281526020810184848401111561188b5761188a61137a565b5b611896848285611094565b509392505050565b5f82601f8301126118b2576118b1611376565b5b81516118c284826020860161185d565b91505092915050565b5f602082840312156118e0576118df610d58565b5b5f82015167ffffffffffffffff8111156118fd576118fc610d5c565b5b6119098482850161189e565b91505092915050565b5f602083015f8301518482035f86015261192c82826116a5565b9150508091505092915050565b6002811061194a57611949610eb1565b5b50565b5f81905061195a82611939565b919050565b5f6119698261194d565b9050919050565b6119798161195f565b82525050565b600281106119905761198f610eb1565b5b50565b5f8190506119a08261197f565b919050565b5f6119af82611993565b9050919050565b6119bf816119a5565b82525050565b5f6060820190508181035f8301526119dd8186611912565b90506119ec6020830185611970565b6119f960408301846119b6565b949350505050565b5f67ffffffffffffffff821115611a1b57611a1a6112fa565b5b602082029050919050565b5f5ffd5b5f611a3c611a3784611a01565b611358565b90508060208402830185811115611a5657611a55611a26565b5b835b81811015611a9d57805167ffffffffffffffff811115611a7b57611a7a611376565b5b808601611a88898261189e565b85526020850194505050602081019050611a58565b5050509392505050565b5f82601f830112611abb57611aba611376565b5b6004611ac8848285611a2a565b91505092915050565b5f60208284031215611ae657611ae5610d58565b5b5f82015167ffffffffffffffff811115611b0357611b02610d5c565b5b611b0f84828501611aa7565b91505092915050565b7f4e487b71000000000000000000000000000000000000000000000000000000005f52603260045260245ffd5b7f496e76616c6964206e6f74617279207075626c6963206b6579000000000000005f82015250565b5f611b79601983611084565b9150611b8482611b45565b602082019050919050565b5f6020820190508181035f830152611ba681611b6d565b9050919050565b5f6020820190508181035f830152611bc581846110b2565b905092915050565b50565b5f611bdb5f8361180d565b9150611be682611bcd565b5f82019050919050565b5f611bfa82611bd0565b915081905091905056fe2d2d2d2d2d424547494e205055424c4943204b45592d2d2d2d2d0a4d465977454159484b6f5a497a6a3043415159464b34454541416f445167414565306a786e424f6261496a37586a673654584c434d3147472f566859353635300a4f72532f6a6763624275666f2f51446646764c2f69727a4976314a536d684769566373434843776f6c684458576367653776324973513d3d0a2d2d2d2d2d454e44205055424c4943204b45592d2d2d2d2d0aa2646970667358221220a93dc6c12cf49876667e285167c62fe1b644c518059a5c567bb21afa41bf301864736f6c634300081d003368747470733a2f2f6170692e782e636f6d2f312e312f6163636f756e742f73657474696e67732e6a736f6e","linkReferences":{}},"methodIdentifiers":{"proof()":"faf924cf","proofOfAccount((string))":"121bb4d4","proofOfPost((string),address)":"acfd5786","setBlock(uint256)":"87cea3ae","setChain(uint256,uint256)":"ffbc5638"},"id":4}