{"abi":[{"type":"function","name":"proof","inputs":[],"outputs":[{"name":"","type":"tuple","internalType":"struct Proof","components":[{"name":"seal","type":"tuple","internalType":"struct Seal","components":[{"name":"verifierSelector","type":"bytes4","internalType":"bytes4"},{"name":"seal","type":"bytes32[8]","internalType":"bytes32[8]"},{"name":"mode","type":"uint8","internalType":"enum ProofMode"}]},{"name":"callGuestId","type":"bytes32","internalType":"bytes32"},{"name":"length","type":"uint256","internalType":"uint256"},{"name":"callAssumptions","type":"tuple","internalType":"struct CallAssumptions","components":[{"name":"proverContractAddress","type":"address","internalType":"address"},{"name":"functionSelector","type":"bytes4","internalType":"bytes4"},{"name":"settleChainId","type":"uint256","internalType":"uint256"},{"name":"settleBlockNumber","type":"uint256","internalType":"uint256"},{"name":"settleBlockHash","type":"bytes32","internalType":"bytes32"}]}]}],"stateMutability":"pure"},{"type":"function","name":"proofOfAccount","inputs":[{"name":"webProof","type":"tuple","internalType":"struct WebProof","components":[{"name":"webProofJson","type":"string","internalType":"string"}]}],"outputs":[{"name":"","type":"tuple","internalType":"struct Proof","components":[{"name":"seal","type":"tuple","internalType":"struct Seal","components":[{"name":"verifierSelector","type":"bytes4","internalType":"bytes4"},{"name":"seal","type":"bytes32[8]","internalType":"bytes32[8]"},{"name":"mode","type":"uint8","internalType":"enum ProofMode"}]},{"name":"callGuestId","type":"bytes32","internalType":"bytes32"},{"name":"length","type":"uint256","internalType":"uint256"},{"name":"callAssumptions","type":"tuple","internalType":"struct CallAssumptions","components":[{"name":"proverContractAddress","type":"address","internalType":"address"},{"name":"functionSelector","type":"bytes4","internalType":"bytes4"},{"name":"settleChainId","type":"uint256","internalType":"uint256"},{"name":"settleBlockNumber","type":"uint256","internalType":"uint256"},{"name":"settleBlockHash","type":"bytes32","internalType":"bytes32"}]}]},{"name":"","type":"string","internalType":"string"}],"stateMutability":"view"},{"type":"function","name":"proofOfPost","inputs":[{"name":"webProof","type":"tuple","internalType":"struct WebProof","components":[{"name":"webProofJson","type":"string","internalType":"string"}]}],"outputs":[{"name":"","type":"tuple","internalType":"struct Proof","components":[{"name":"seal","type":"tuple","internalType":"struct Seal","components":[{"name":"verifierSelector","type":"bytes4","internalType":"bytes4"},{"name":"seal","type":"bytes32[8]","internalType":"bytes32[8]"},{"name":"mode","type":"uint8","internalType":"enum ProofMode"}]},{"name":"callGuestId","type":"bytes32","internalType":"bytes32"},{"name":"length","type":"uint256","internalType":"uint256"},{"name":"callAssumptions","type":"tuple","internalType":"struct CallAssumptions","components":[{"name":"proverContractAddress","type":"address","internalType":"address"},{"name":"functionSelector","type":"bytes4","internalType":"bytes4"},{"name":"settleChainId","type":"uint256","internalType":"uint256"},{"name":"settleBlockNumber","type":"uint256","internalType":"uint256"},{"name":"settleBlockHash","type":"bytes32","internalType":"bytes32"}]}]},{"name":"","type":"string","internalType":"string"}],"stateMutability":"view"},{"type":"function","name":"setBlock","inputs":[{"name":"blockNo","type":"uint256","internalType":"uint256"}],"outputs":[],"stateMutability":"nonpayable"},{"type":"function","name":"setChain","inputs":[{"name":"chainId","type":"uint256","internalType":"uint256"},{"name":"blockNo","type":"uint256","internalType":"uint256"}],"outputs":[],"stateMutability":"nonpayable"},{"type":"error","name":"FailedInnerCall","inputs":[]}],"bytecode":{"object":"0x60806040526040518060600160405280602b8152602001612132602b91395f908161002a91906102be565b506040518060400160405280601b81526020017f68747470733a2f2f782e636f6d2f692f6170692f6772617068716c00000000008152506001908161006f91906102be565b5034801561007b575f5ffd5b5061038d565b5f81519050919050565b7f4e487b71000000000000000000000000000000000000000000000000000000005f52604160045260245ffd5b7f4e487b71000000000000000000000000000000000000000000000000000000005f52602260045260245ffd5b5f60028204905060018216806100fc57607f821691505b60208210810361010f5761010e6100b8565b5b50919050565b5f819050815f5260205f209050919050565b5f6020601f8301049050919050565b5f82821b905092915050565b5f600883026101717fffffffffffffffffffffffffffffffffffffffffffffffffffffffffffffffff82610136565b61017b8683610136565b95508019841693508086168417925050509392505050565b5f819050919050565b5f819050919050565b5f6101bf6101ba6101b584610193565b61019c565b610193565b9050919050565b5f819050919050565b6101d8836101a5565b6101ec6101e4826101c6565b848454610142565b825550505050565b5f5f905090565b6102036101f4565b61020e8184846101cf565b505050565b5b81811015610231576102265f826101fb565b600181019050610214565b5050565b601f8211156102765761024781610115565b61025084610127565b8101602085101561025f578190505b61027361026b85610127565b830182610213565b50505b505050565b5f82821c905092915050565b5f6102965f198460080261027b565b1980831691505092915050565b5f6102ae8383610287565b9150826002028217905092915050565b6102c782610081565b67ffffffffffffffff8111156102e0576102df61008b565b5b6102ea82546100e5565b6102f5828285610235565b5f60209050601f831160018114610326575f8415610314578287015190505b61031e85826102a3565b865550610385565b601f19841661033486610115565b5f5b8281101561035b57848901518255600182019150602085019450602081019050610336565b868310156103785784890151610374601f891682610287565b8355505b6001600288020188555050505b505050505050565b611d988061039a5f395ff3fe608060405234801561000f575f5ffd5b5060043610610055575f3560e01c8063121bb4d41461005957806387cea3ae1461008a578063faf924cf146100a6578063fd4c1a63146100c4578063ffbc5638146100f5575b5f5ffd5b610073600480360381019061006e9190610e61565b610111565b6040516100819291906111c9565b60405180910390f35b6100a4600480360381019061009f9190611223565b610220565b005b6100ae6102fd565b6040516100bb919061124e565b60405180910390f35b6100de60048036038101906100d99190610e61565b610312565b6040516100ec9291906111c9565b60405180910390f35b61010f600480360381019061010a9190611268565b610404565b005b610119610d03565b60605f6101bf5f805461012b906112d3565b80601f0160208091040260200160405190810160405280929190818152602001828054610157906112d3565b80156101a25780601f10610179576101008083540402835291602001916101a2565b820191905f5260205f20905b81548152906001019060200180831161018557829003601f168201915b5050505050856101b19061148c565b6104e490919063ffffffff16565b90505f61020a6040518060400160405280600b81526020017f73637265656e5f6e616d650000000000000000000000000000000000000000008152508361056890919063ffffffff16565b90506102146102fd565b81935093505050915091565b7f2ae215ce9fde588adfdea92976dc9aa45aa006a0f63942d8f9f21bd4537972a35f1c73ffffffffffffffffffffffffffffffffffffffff166387cea3ae826040518263ffffffff1660e01b815260040161027b91906114ad565b6020604051808303815f875af1158015610297573d5f5f3e3d5ffd5b505050506040513d601f19601f820116820180604052508101906102bb91906114fb565b6102fa576040517f08c379a00000000000000000000000000000000000000000000000000000000081526004016102f190611570565b60405180910390fd5b50565b610305610d03565b61030d61069d565b905090565b61031a610d03565b60605f6103c05f805461032c906112d3565b80601f0160208091040260200160405190810160405280929190818152602001828054610358906112d3565b80156103a35780601f1061037a576101008083540402835291602001916103a3565b820191905f5260205f20905b81548152906001019060200180831161038657829003601f168201915b5050505050856103b29061148c565b6104e490919063ffffffff16565b90505f6103ee6040518060e0016040528060a38152602001611c1260a391398361056890919063ffffffff16565b90506103f86102fd565b81935093505050915091565b7f2ae215ce9fde588adfdea92976dc9aa45aa006a0f63942d8f9f21bd4537972a35f1c73ffffffffffffffffffffffffffffffffffffffff1663ffbc563883836040518363ffffffff1660e01b815260040161046192919061158e565b6020604051808303815f875af115801561047d573d5f5f3e3d5ffd5b505050506040513d601f19601f820116820180604052508101906104a191906114fb565b6104e0576040517f08c379a00000000000000000000000000000000000000000000000000000000081526004016104d790611570565b60405180910390fd5b5050565b6104ec610d35565b5f6104f98460015f6106b4565b905061050881602001516107f7565b61051f838260400151610a0690919063ffffffff16565b61055e576040517f08c379a0000000000000000000000000000000000000000000000000000000008152600401610555906115ff565b60405180910390fd5b8091505092915050565b60605f835f015151116105b0576040517f08c379a00000000000000000000000000000000000000000000000000000000081526004016105a790611667565b60405180910390fd5b5f6040518060400160405280855f01518152602001848152506040516020016105d9919061177c565b60405160208183030381529060405290505f5f600273f4e4fdca9d5d55e64525e314391996a15f7ec60061060d91906117c9565b73ffffffffffffffffffffffffffffffffffffffff16836040516106319190611854565b5f60405180830381855afa9150503d805f8114610669576040519150601f19603f3d011682016040523d82523d5f602084013e61066e565b606091505b509150915061067d8282610adc565b508080602001905181019061069291906118d8565b935050505092915050565b6106a5610d03565b6106ad610d03565b8091505090565b6106bc610d35565b5f5f5f73f4e4fdca9d5d55e64525e314391996a15f7ec6006106de91906117c9565b73ffffffffffffffffffffffffffffffffffffffff16868686604051602001610709939291906119d2565b6040516020818303038152906040526040516107259190611854565b5f60405180830381855afa9150503d805f811461075d576040519150601f19603f3d011682016040523d82523d5f602084013e610762565b606091505b50915091506107718282610adc565b505f818060200190518101906107879190611ade565b90506040518060600160405280826002600481106107a8576107a7611b25565b5b60200201518152602001826003600481106107c6576107c5611b25565b5b60200201518152602001825f600481106107e3576107e2611b25565b5b602002015181525093505050509392505050565b6107ff610b00565b156108735761082f816040518060e0016040528060ae8152602001611cb560ae9139610b1d90919063ffffffff16565b61086e576040517f08c379a000000000000000000000000000000000000000000000000000000000815260040161086590611b9c565b60405180910390fd5b610a03565b61087b610b44565b1561094357610888610bac565b73ffffffffffffffffffffffffffffffffffffffff16632505a3bd826040518263ffffffff1660e01b81526004016108c09190611bba565b602060405180830381865afa1580156108db573d5f5f3e3d5ffd5b505050506040513d601f19601f820116820180604052508101906108ff91906114fb565b61093e576040517f08c379a000000000000000000000000000000000000000000000000000000000815260040161093590611b9c565b60405180910390fd5b610a02565b61094b610bc7565b73ffffffffffffffffffffffffffffffffffffffff16632505a3bd826040518263ffffffff1660e01b81526004016109839190611bba565b602060405180830381865afa15801561099e573d5f5f3e3d5ffd5b505050506040513d601f19601f820116820180604052508101906109c291906114fb565b610a01576040517f08c379a00000000000000000000000000000000000000000000000000000000081526004016109f890611b9c565b60405180910390fd5b5b5b50565b5f5f8390505f839050805182511015610a23575f92505050610ad6565b5f5f90505b8151811015610ace57818181518110610a4457610a43611b25565b5b602001015160f81c60f81b7effffffffffffffffffffffffffffffffffffffffffffffffffffffffffffff1916838281518110610a8457610a83611b25565b5b602001015160f81c60f81b7effffffffffffffffffffffffffffffffffffffffffffffffffffffffffffff191614610ac1575f9350505050610ad6565b8080600101915050610a28565b506001925050505b92915050565b606082610af157610aec82610be2565b610af9565b819050610afa565b5b92915050565b5f610b09610c26565b80610b185750610b17610c3e565b5b905090565b5f81518351148015610b3c575081805190602001208380519060200120145b905092915050565b5f6001461480610b545750600a46145b80610b5f5750608946145b80610b6b575061014446145b80610b7757506101e046145b80610b83575061210546145b80610b8f575061a4b146145b80610b9b575061a4ba46145b80610ba7575061e70846145b905090565b5f73565dca92902ea0ca597b5e62df0b47886b6b7d4d905090565b5f73c4e4dc291a5c4debe9ff5a3372f3fdd2e42bac86905090565b5f81511115610bf45780518082602001fd5b6040517f1425ea4200000000000000000000000000000000000000000000000000000000815260040160405180910390fd5b5f617a69461480610c3957506204991946145b905090565b5f5f5f601e73f4e4fdca9d5d55e64525e314391996a15f7ec600610c6291906117c9565b73ffffffffffffffffffffffffffffffffffffffff16604051610c8490611bfd565b5f60405180830381855afa9150503d805f8114610cbc576040519150601f19603f3d011682016040523d82523d5f602084013e610cc1565b606091505b5091509150811580610cd357505f8151145b15610ce2575f92505050610d00565b5f81806020019051810190610cf791906114fb565b90508093505050505b90565b6040518060800160405280610d16610d56565b81526020015f81526020015f8152602001610d2f610dac565b81525090565b60405180606001604052806060815260200160608152602001606081525090565b60405180606001604052805f7bffffffffffffffffffffffffffffffffffffffffffffffffffffffff19168152602001610d8e610e0b565b81526020015f6001811115610da657610da5610f90565b5b81525090565b6040518060a001604052805f73ffffffffffffffffffffffffffffffffffffffff1681526020015f7bffffffffffffffffffffffffffffffffffffffffffffffffffffffff191681526020015f81526020015f81526020015f81525090565b604051806101000160405280600890602082028036833780820191505090505090565b5f604051905090565b5f5ffd5b5f5ffd5b5f5ffd5b5f60208284031215610e5857610e57610e3f565b5b81905092915050565b5f60208284031215610e7657610e75610e37565b5b5f82013567ffffffffffffffff811115610e9357610e92610e3b565b5b610e9f84828501610e43565b91505092915050565b5f7fffffffff0000000000000000000000000000000000000000000000000000000082169050919050565b610edc81610ea8565b82525050565b5f60089050919050565b5f81905092915050565b5f819050919050565b5f819050919050565b610f1181610eff565b82525050565b5f610f228383610f08565b60208301905092915050565b5f602082019050919050565b610f4381610ee2565b610f4d8184610eec565b9250610f5882610ef6565b805f5b83811015610f88578151610f6f8782610f17565b9650610f7a83610f2e565b925050600181019050610f5b565b505050505050565b7f4e487b71000000000000000000000000000000000000000000000000000000005f52602160045260245ffd5b60028110610fce57610fcd610f90565b5b50565b5f819050610fde82610fbd565b919050565b5f610fed82610fd1565b9050919050565b610ffd81610fe3565b82525050565b61014082015f8201516110185f850182610ed3565b50602082015161102b6020850182610f3a565b50604082015161103f610120850182610ff4565b50505050565b5f819050919050565b61105781611045565b82525050565b5f73ffffffffffffffffffffffffffffffffffffffff82169050919050565b5f6110868261105d565b9050919050565b6110968161107c565b82525050565b60a082015f8201516110b05f85018261108d565b5060208201516110c36020850182610ed3565b5060408201516110d6604085018261104e565b5060608201516110e9606085018261104e565b5060808201516110fc6080850182610f08565b50505050565b61022082015f8201516111175f850182611003565b50602082015161112b610140850182610f08565b50604082015161113f61016085018261104e565b50606082015161115361018085018261109c565b50505050565b5f81519050919050565b5f82825260208201905092915050565b8281835e5f83830152505050565b5f601f19601f8301169050919050565b5f61119b82611159565b6111a58185611163565b93506111b5818560208601611173565b6111be81611181565b840191505092915050565b5f610240820190506111dd5f830185611102565b8181036102208301526111f08184611191565b90509392505050565b61120281611045565b811461120c575f5ffd5b50565b5f8135905061121d816111f9565b92915050565b5f6020828403121561123857611237610e37565b5b5f6112458482850161120f565b91505092915050565b5f610220820190506112625f830184611102565b92915050565b5f5f6040838503121561127e5761127d610e37565b5b5f61128b8582860161120f565b925050602061129c8582860161120f565b9150509250929050565b7f4e487b71000000000000000000000000000000000000000000000000000000005f52602260045260245ffd5b5f60028204905060018216806112ea57607f821691505b6020821081036112fd576112fc6112a6565b5b50919050565b5f5ffd5b7f4e487b71000000000000000000000000000000000000000000000000000000005f52604160045260245ffd5b61133d82611181565b810181811067ffffffffffffffff8211171561135c5761135b611307565b5b80604052505050565b5f61136e610e2e565b905061137a8282611334565b919050565b5f5ffd5b5f5ffd5b5f5ffd5b5f67ffffffffffffffff8211156113a5576113a4611307565b5b6113ae82611181565b9050602081019050919050565b828183375f83830152505050565b5f6113db6113d68461138b565b611365565b9050828152602081018484840111156113f7576113f6611387565b5b6114028482856113bb565b509392505050565b5f82601f83011261141e5761141d611383565b5b813561142e8482602086016113c9565b91505092915050565b5f6020828403121561144c5761144b611303565b5b6114566020611365565b90505f82013567ffffffffffffffff8111156114755761147461137f565b5b6114818482850161140a565b5f8301525092915050565b5f6114973683611437565b9050919050565b6114a781611045565b82525050565b5f6020820190506114c05f83018461149e565b92915050565b5f8115159050919050565b6114da816114c6565b81146114e4575f5ffd5b50565b5f815190506114f5816114d1565b92915050565b5f602082840312156115105761150f610e37565b5b5f61151d848285016114e7565b91505092915050565b7f4661696c6564206368656174636f646520696e766f636174696f6e00000000005f82015250565b5f61155a601b83611163565b915061156582611526565b602082019050919050565b5f6020820190508181035f8301526115878161154e565b9050919050565b5f6040820190506115a15f83018561149e565b6115ae602083018461149e565b9392505050565b7f55524c20707265666978206d69736d61746368000000000000000000000000005f82015250565b5f6115e9601383611163565b91506115f4826115b5565b602082019050919050565b5f6020820190508181035f830152611616816115dd565b9050919050565b7f426f647920697320656d707479000000000000000000000000000000000000005f82015250565b5f611651600d83611163565b915061165c8261161d565b602082019050919050565b5f6020820190508181035f83015261167e81611645565b9050919050565b5f60029050919050565b5f81905092915050565b5f819050919050565b5f82825260208201905092915050565b5f6116bc82611159565b6116c681856116a2565b93506116d6818560208601611173565b6116df81611181565b840191505092915050565b5f6116f583836116b2565b905092915050565b5f602082019050919050565b5f61171382611685565b61171d818561168f565b93508360208202850161172f85611699565b805f5b8581101561176a578484038952815161174b85826116ea565b9450611756836116fd565b925060208a01995050600181019050611732565b50829750879550505050505092915050565b5f6020820190508181035f8301526117948184611709565b905092915050565b7f4e487b71000000000000000000000000000000000000000000000000000000005f52601160045260245ffd5b5f6117d38261105d565b91506117de8361105d565b9250828201905073ffffffffffffffffffffffffffffffffffffffff81111561180a5761180961179c565b5b92915050565b5f81519050919050565b5f81905092915050565b5f61182e82611810565b611838818561181a565b9350611848818560208601611173565b80840191505092915050565b5f61185f8284611824565b915081905092915050565b5f61187c6118778461138b565b611365565b90508281526020810184848401111561189857611897611387565b5b6118a3848285611173565b509392505050565b5f82601f8301126118bf576118be611383565b5b81516118cf84826020860161186a565b91505092915050565b5f602082840312156118ed576118ec610e37565b5b5f82015167ffffffffffffffff81111561190a57611909610e3b565b5b611916848285016118ab565b91505092915050565b5f602083015f8301518482035f86015261193982826116b2565b9150508091505092915050565b6002811061195757611956610f90565b5b50565b5f81905061196782611946565b919050565b5f6119768261195a565b9050919050565b6119868161196c565b82525050565b6002811061199d5761199c610f90565b5b50565b5f8190506119ad8261198c565b919050565b5f6119bc826119a0565b9050919050565b6119cc816119b2565b82525050565b5f6060820190508181035f8301526119ea818661191f565b90506119f9602083018561197d565b611a0660408301846119c3565b949350505050565b5f67ffffffffffffffff821115611a2857611a27611307565b5b602082029050919050565b5f5ffd5b5f611a49611a4484611a0e565b611365565b90508060208402830185811115611a6357611a62611a33565b5b835b81811015611aaa57805167ffffffffffffffff811115611a8857611a87611383565b5b808601611a9589826118ab565b85526020850194505050602081019050611a65565b5050509392505050565b5f82601f830112611ac857611ac7611383565b5b6004611ad5848285611a37565b91505092915050565b5f60208284031215611af357611af2610e37565b5b5f82015167ffffffffffffffff811115611b1057611b0f610e3b565b5b611b1c84828501611ab4565b91505092915050565b7f4e487b71000000000000000000000000000000000000000000000000000000005f52603260045260245ffd5b7f496e76616c6964206e6f74617279207075626c6963206b6579000000000000005f82015250565b5f611b86601983611163565b9150611b9182611b52565b602082019050919050565b5f6020820190508181035f830152611bb381611b7a565b9050919050565b5f6020820190508181035f830152611bd28184611191565b905092915050565b50565b5f611be85f8361181a565b9150611bf382611bda565b5f82019050919050565b5f611c0782611bdd565b915081905091905056fe646174612e74687265616465645f636f6e766572736174696f6e5f776974685f696e6a656374696f6e735f76322e696e737472756374696f6e732e656e74726965735b315d2e636f6e74656e742e6974656d732e6974656d2e6974656d436f6e74656e742e74776565745f726573756c74732e726573756c742e636f72652e757365725f726573756c74732e726573756c742e636f72652e73637265656e5f6e616d652d2d2d2d2d424547494e205055424c4943204b45592d2d2d2d2d0a4d465977454159484b6f5a497a6a3043415159464b34454541416f445167414565306a786e424f6261496a37586a673654584c434d3147472f566859353635300a4f72532f6a6763624275666f2f51446646764c2f69727a4976314a536d684769566373434843776f6c684458576367653776324973513d3d0a2d2d2d2d2d454e44205055424c4943204b45592d2d2d2d2d0aa264697066735822122000c0589dd13bba4274db0b075892a189f4e04aef82d0261387cb8ce8b6fea3e864736f6c634300081d003368747470733a2f2f6170692e782e636f6d2f312e312f6163636f756e742f73657474696e67732e6a736f6e","linkReferences":{}},"methodIdentifiers":{"proof()":"faf924cf","proofOfAccount((string))":"121bb4d4","proofOfPost((string))":"fd4c1a63","setBlock(uint256)":"87cea3ae","setChain(uint256,uint256)":"ffbc5638"},"id":6}